S014000052544F535F4C6162365F4950432E733337B9
S21400000000000420C9030000F5030000F50300000B
S214000010F5030000F5030000F5030000F5030000FB
S214000020F5030000F5030000F5030000F5030000EB
S214000030F5030000F503000039CE000033D30000BE
S214000040F5030000F5030000F5030000F5030000CB
S214000050F5030000F5030000F5030000F5030000BB
S214000060F5030000F503000089DC000011D4000051
S214000070F5030000F5030000F5030000F50300009B
S214000080F5030000F5030000B5DC0000F5030000F2
S214000090F5030000F5030000F5030000F50300007B
S2140000A0F5030000F5030000F5030000F50300006B
S2140000B0F5030000F5030000F5030000F50300005B
S2140000C0F5030000F5030000F5030000F50300004B
S2140000D0F5030000F5030000F5030000F50300003B
S2140000E0F5030000F5030000F5030000F50300002B
S2140000F0F5030000F5030000F5030000F50300001B
S214000100F5030000F5030000F503000010B5054CEC
S214000110237833B9044B13B10448AFF300800123AE
S214000120237010BD3801002000000000401A0100B6
S21400013008B5034B1BB103490348AFF3008008BD65
S214000140000000003C010020401A0100154B002B67
S21400015008BF134B9D46A3F5803A00218B460F46F9
S2140001601348144A121A0EF0E2F90F4B002B00D077
S21400017098470E4B002B00D0984700200021040023
S2140001800D000D48002802D00C48AFF300800EF09A
S2140001908FF9200029000DF0AFFF0EF075F900BFB3
S2140001A0000008000000042000000000000000001E
S2140001B038010020E4EB00200000000000000000F2
S2140001C080B582B000AF0121104803F031FC012158
S2140001D00F4803F02DFC00237B600FE00D4A7B6880
S2140001E012F833000B4A7B68DB001344596800237F
S2140001F0042205F073FB7B6801337B607B68012B70
S214000200ECDD002318460837BD4680BD404105009A
S21400021000350A00FCE6000080B582B000AF00F0B2
S214000220EBF878600A4B1B68094A43F0807313604A
S214000230084B00221A60084B1B68074A43F001036C
S2140002401360786802F006FF00BF0837BD4680BD21
S214000250FCED00E0041000E0001000E080B483B085
S21400026000AF054B1B687B607B6818460C37BD46A5
S2140002705DF8047B704700BF041000E0B0B586B0A0
S21400028000AF786000F0B8F803464FF00004C7E906
S21400029004347B681C464FF00005D7E904010B4A7E
S2140002A04FF000030DF070FF02460B46204629462D
S2140002B00DF06AFF03460C46C7E90234D7E902345C
S2140002C0184621461837BD46B0BD00BF40420F0055
S2140002D080B400AF044BDB6C1B0EDBB21846BD4689
S2140002E05DF8047B704700BFB081E00F80B582B038
S2140002F000AF164B01225A64FFF7EAFF0346FB7174
S214000300FB79002B0CD1124B4AF6E8521A60114BBF
S2140003101B68104A43F0040313600D4B00221A605A
S214000320FB79012B05D80C4B1B680B4A43F4005392
S21400033013600A4B1B6A23F44413084A43F48813D9
S214000340136200BF0837BD4680BD00BF00000E40E8
S21400035090310E4098310E4064310E4000400E4001
S21400036080B582B000AF11237B60FFF7BFFF08485F
S21400037004F074FD0521786803F0B6FD0022012123
S214000380012003F065FF00BF0837BD4680BD00BFF3
S2140003900CE7000080B500AFFFF712FF00BF80BD7E
S2140003A080B582B000AF00F027F8786001F0C8FE94
S2140003B002467B68B3FBF2F33B6038680CF0D0FF74
S2140003C000BF0837BD4680BD064880470649074A35
S2140003D0074B9A42BEBF51F8040B42F8040BF8E7ED
S2140003E0FFF7B4FED50400004C1A01000000002000
S2140003F038010020FEE700BF80B582B000AF00F0F5
S21400040025F878600A4BD3F808311B0AC3F30803B3
S2140004103B603B6801337A68B2FBF3F37B60054AC6
S2140004207B6813607B6818460837BD4680BD00BFF2
S21400043000400E400800002080B400AF024B184673
S214000440BD465DF8047B7047005A620280B483B0F4
S21400045000AF164BD3F8943003F00703032B08D0F5
S214000460042B02D0022B08D00BE0114B1B687B60DC
S2140004700BE04FF400437B6007E00E4B1B687B608D
S21400048003E00D4B1B687B6000BF084BD3F80031C0
S2140004901B0A03F01F0301337A68B2FBF3F3184616
S2140004A00C37BD465DF8047B704700BF00400E4029
S2140004B004000020000000200C00002080B400AFE4
S2140004C0034B1B681846BD465DF8047B704700BFAB
S2140004D00000002080B400AF074B084A9A60064B25
S2140004E0D3F88830044A43F47003C2F8883000BF5B
S2140004F0BD465DF8047B704700ED00E0000000009C
S21400050080B400AF4FF400431846BD465DF8047B48
S214000510704780B400AF4FF47A731846BD465DF856
S214000520047B704780B400AF034B1B681846BD467B
S2140005305DF8047B704700BF0400002080B582B0E1
S21400054000AF1F4B7B607B6803221A617B68032227
S2140005505A617B681B4A9A617B681B4ADA617B6832
S2140005604FF480621A627B6800229A627B680022DF
S2140005705A627B680022DA627B68124A1A667B68D7
S214000580124A5A667B6810229A667B6800221A67AF
S2140005907B680022DA667B6800225A677B6807332E
S2140005A00B4918460EF084F87B680A4918460EF088
S2140005B07FF87B6820229A7100BF0837BD4680BD51
S2140005C02CC400201CE70000540100205405002025
S2140005D028E700002CE7000080B58AB000AFF8607E
S2140005E0B9607A603C4B1B78002B01D1FFF7A6FF61
S2140005F0FA6813465B001344DB006033364A134444
S214000600BB61BB68FB61BB691B693B62BB69DB689E
S2140006107B6100237B623A6A7B699A422AD9BB696E
S2140006209A683B6AD31A3B613A697B68934228BF53
S21400063013463B61BB695A683B6A13443A691946DC
S214000640F8690DF069FF7A6A3B6913447B62FA69C0
S2140006503B691344FB617A683B69D31A7B603A6A4C
S2140006603B6913443B62BB699B683A6A9A4201D174
S21400067000233B627A693B6AD31A3B613A697B681E
S214000680934228BF13463B613B69002B18D0BB69D9
S2140006905A683B6A13443A691946F8690DF03CFFFC
S2140006A07A6A3B6913447B62FA693B691344FB61CF
S2140006B07A683B69D31A7B603A6A3B6913443B62AB
S2140006C07B6A002B02D0BB693A6A1A617B6A1846BD
S2140006D02837BD4680BD00BF2CC4002080B58AB038
S2140006E000AFF860B9607A60BB687B62FB685A1C32
S2140006F013465B001344DB003F4A13443B623B6AED
S2140007001B69FB613B6ADB68BB61FA69BB699A429D
S21400071054D83B6A9A68BB69D31A013B7B617A69F5
S2140007207B689A420FD33B6A5A68BB6913447A685F
S214000730796A18460DF0F0FEBA697B681A443B6A7F
S214000740DA60012354E07A69FB6913447B617A69B5
S2140007507B689A424BD33B6A9A68BB69D31A3B6163
S2140007603A697B689A420ED93B6A5A68BB69134459
S2140007707A68796A18460DF0CFFEBA697B681A4423
S2140007803B6ADA6018E03B6A5A68BB6913443A6908
S214000790796A18460DF0C0FE3B6A58687A6A3B696B
S2140007A0D1187A683B69D31A1A460DF0B5FE7A68F6
S2140007B03B69D21A3B6ADA60012319E0FA69BB6921
S2140007C0D31A013B7B617A697B689A420FD33B6AF6
S2140007D05A68BB6913447A68796A18460DF09CFE1D
S2140007E0BA697B681A443B6ADA60012300E000239A
S2140007F018462837BD4680BD2CC4002080B586B07C
S21400080000AFF860B9607A603B60304B1B78002B15
S21400081001D1FFF793FE2D4B1B691A46FB689342E6
S2140008204CD203F067FF386102F06AFCFB68002BCD
S21400083032D02649FB685A1C13465B001344DB0083
S2140008400B44BA681A602149FB685A1C13465B00C1
S2140008501344DB000B4404337A681A601B49FA68B9
S21400086013465B001344DB000B4420333A681A60DF
S2140008701649FA6813465B001344DB000B44283322
S21400088000221A601149FA6813465B001344DB0025
S2140008900B44243300221A600C49FA6813465B00A6
S2140008A01344DB000B442C333A6A1A6002F048FC0F
S2140008B0386903F02FFF00237B6102E04FF0FF331F
S2140008C07B617B6918461837BD4680BD2CC4002066
S2140008D080B586B000AFF860B9607A603B60304B98
S2140008E01B78002B01D1FFF729FE2D4B5B691A46BA
S2140008F0FB6893424BD203F0FDFE386102F000FC29
S214000900FB68002B31D02649FA6813465B00134477
S214000910DB000B446033BA681A602149FA68134654
S2140009205B001344DB000B4464337A681A601C498E
S214000930FA6813465B001344DB000B4468333A68DE
S2140009401A601749FA6813465B001344DB000B4431
S214000950703300221A601249FA6813465B0013448B
S214000960DB000B446C3300221A600D49FA6813460C
S2140009705B001344DB000B4474333A6A1A6002F0DF
S214000980DFFB386903F0C6FE00237B6102E04FF010
S214000990FF337B617B6918461837BD4680BD00BFB4
S2140009A02CC4002080B487B000AFF860B9607A60CD
S2140009B000233B6102E03B6901333B61BA683B6957
S2140009C013441B78002BF6D13A697B689A4201D90A
S2140009D07B683B613B69FE2B06D8FB685A1CFA60B5
S2140009E03A69D2B21A7011E0FB685A1CFA60FF220C
S2140009F01A70FB685A1CFA603A69D2B21A703B69E0
S214000A00190AFB685A1CFA60CAB21A7000237B6186
S214000A100AE0BA68531CBB60FB68591CF960127880
S214000A201A707B6901337B617A693B699A42F0D31D
S214000A30FB6818461C37BD465DF8047B704780B4DB
S214000A4083B000AF78607B68043318460C37BD4629
S214000A505DF8047B704780B582B000AFFB1C0122B6
S214000A6019460120FFF7B8FD03467B607B68002B24
S214000A7044DDFB78042B1AD0042B06DC022B10D0A6
S214000A80022B11DC012B09D02DE0062B15D0062BEE
S214000A9010DB072B14D0802B15D024E000F07EFA54
S214000AA031E000F037FB2EE000F012FD2BE000F006
S214000AB0D7FC28E000F054FB25E000F0BBFF22E066
S214000AC000F09AFF1FE0FB1C012219460120FFF7E9
S214000AD083FD03467B607B68002B11DDFB781846A0
S214000AE000F00AFF0CE0FB785BB2002B0ADAFB1C76
S214000AF0012219460120FFF76FFD03E000BF02E068
S214000B0000BF00E000BF00BF0837BD4680BD000044
S214000B1080B58CB000AF01233B713B1D0133FB61F8
S214000B20FB69FB62304B5B69BB620BE0BB6ADAB207
S214000B30FB6A591CF96262F07F02D2B21A70BB6A75
S214000B40DB09BB62BB6A7F2BF0D8FB6A5A1CFA62D1
S214000B50BA6AD2B21A70FB6AFB61244B1B68BB618F
S214000B60214BDB68BA69D31A7B61FB697B627B69C0
S214000B703B620BE03B6ADAB27B6A591C796262F030
S214000B807F02D2B21A703B6ADB093B623B6A7F2B5C
S214000B90F0D87B6A5A1C7A623A6AD2B21A707B6ABA
S214000BA0FB61FA693B1DD31A1A463B1D1946012004
S214000BB0FFF794FD03463B613B69002B09D00A4AC8
S214000BC0BB69D360084B1B78013BDAB2064B1A7040
S214000BD004E0054B5B690133034A53613B691846E1
S214000BE03037BD4680BD00BF6C850020041000E095
S214000BF080B58AB000AFF860B9607A60634B1B7846
S214000C00012B10D0614B1B78002B00F0A1805F4BAE
S214000C101B78022B09D1FFF77BFF5C4B1B78012B5F
S214000C2040F0988001E000BF00E000BF7B681F2B0B
S214000C3009D8564BDA697B6822FA03F303F00103FE
S214000C40002B40F089807B68172B07D8FB68013B98
S214000C50FB607B68DAB2FB681A703DE0BA68FB6836
S214000C60D31AFB61FB697F2B12D9FB69DA09FB6893
S214000C70013BFB60D2B2FB681A70FB69DBB2FA6814
S214000C80013AFA6063F07F03DAB2FB681A7006E096
S214000C90FB68013BFB60FB69DAB2FB681A707B6895
S214000CA07F2B12D97B68DA09FB68013BFB60D2B266
S214000CB0FB681A707B68DBB2FA68013AFA6063F088
S214000CC07F03DAB2FB681A7006E0FB68013BFB6044
S214000CD07B68DAB2FB681A702D4B1B68BB612B4B26
S214000CE0DB68BA69D31A7B61BB687B627B693B624F
S214000CF00BE03B6ADAB27B6A591C796262F07F02CB
S214000D00D2B21A703B6ADB093B623B6A7F2BF0D893
S214000D107B6A5A1C7A623A6AD2B21A707B6ABB60E5
S214000D20BA68FB68D31A1A46F9680120FFF7D6FCA2
S214000D3003463B613B69002B03D0144ABB69D36072
S214000D400BE0124B1B780133DAB2104B1A7004E03A
S214000D5000BF02E000BF00E000BF0E4BD3F88420C7
S214000D600C4BD3F888309A420BD0084B9B78002B5C
S214000D7007D1064B01229A70FFF76DFE034B002247
S214000D809A7000BF2837BD4680BD00BF6C85002026
S214000D90041000E02CC4002080B586B002AFF860D6
S214000DA0B9607A603B60002300934FF40043144A16
S214000DB014490120FFF722FD002300930823124A5E
S214000DC010490120FFF784FD104B4FF080521A6146
S214000DD00F4B1B680D4AD3600C4A7B6813620B4AA4
S214000DE0FB685360094ABB689360084A3B685362D5
S214000DF0064B00221A7000BF1037BD4680BD00BFEC
S214000E006405002040E70000648500206C85002013
S214000E10041000E080B483B000AF7860044A7B68BA
S214000E20136100BF0C37BD465DF8047B704700BFFA
S214000E306C85002080B584B000AF786003F05AFC63
S214000E40F86002F05DF90948FFF7F9FDB8607A68C6
S214000E50B968B868FFF7CCFE02F072F9F86803F0DC
S214000E6059FC00BF1037BD4680BD00BF9C850020E2
S214000E7080B588B000AF7860396003F03BFC7861DD
S214000E8002F03EF91748FFF7DAFD38613B69FB6070
S214000E90FB68FB613B68BB610BE0BB69DAB2FB69D0
S214000EA0591CF96162F07F02D2B21A70BB69DB0985
S214000EB0BB61BB697F2BF0D8FB695A1CFA61BA6923
S214000EC0D2B21A70FB69FB607A68F9683869FFF776
S214000ED08FFE02F035F9786903F01CFC00BF20375E
S214000EE0BD4680BD9C85002080B58CB000AFF86004
S214000EF0B9607A6003F0FEFBF86102F001F926485B
S214000F00FFF79DFDB861BB697B617B69FB62BB68CF
S214000F10BB620BE0BB6ADAB2FB6A591CF96262F08C
S214000F207F02D2B21A70BB6ADB09BB62BB6A7F2B38
S214000F30F0D8FB6A5A1CFA62BA6AD2B21A70FB6A16
S214000F407B617B697B627B683B620BE03B6ADAB263
S214000F507B6A591C796262F07F02D2B21A703B6AD1
S214000F60DB093B623B6A7F2BF0D87B6A5A1C7A62AD
S214000F703A6AD2B21A707B6A7B61FA687969B86994
S214000F80FFF736FE02F0DCF8F86903F0C3FB00BF9B
S214000F903037BD4680BD00BF9C85002080B58CB034
S214000FA000AF594B1B78002B40F0AA80564B01220D
S214000FB01A7003F09FFBF86002F0A2F80A22534969
S214000FC00120FFF78BFB02F0BBF8F86803F0A2FBEA
S214000FD00A20FFF72FFF03F08DFBB86002F090F8B1
S214000FE04B48FFF72CFD78607B683B603B68FB62F4
S214000FF0454B5B68BB620BE0BB6ADAB2FB6A591C06
S214001000F96262F07F02D2B21A70BB6ADB09BB6279
S214001010BB6A7F2BF0D8FB6A5A1CFA62BA6AD2B255
S2140010201A70FB6A3B603B687B62374B9B683B628F
S2140010300BE03B6ADAB27B6A591C796262F07F0287
S214001040D2B21A703B6ADB093B623B6A7F2BF0D850
S2140010507B6A5A1C7A623A6AD2B21A707B6A3B6022
S2140010603B68FB61284B1B69BB610BE0BB69DAB2CE
S214001070FB69591CF96162F07F02D2B21A70BB6933
S214001080DB09BB61BB697F2BF0D8FB695A1CFA6190
S214001090BA69D2B21A70FB693B603B687B61022377
S2140010A03B610BE03B69DAB27B69591C796162F0FF
S2140010B07F02D2B21A703B69DB093B613B697F2B2A
S2140010C0F0D87B695A1C7A613A69D2B21A707B6989
S2140010D03B60182239687868FFF78AFD02F030F81E
S2140010E0B86803F017FB084B5B6A002B02D0064B70
S2140010F05B6A984700F0ECF900F0B2F900F09AFC51
S21400110000BF3037BD4680BD6C85002034E7000048
S2140011109C85002080B582B000AF03F0EBFA7860C3
S21400112001F0EEFF0C48FFF78AFC38600B4B1B788B
S214001130002B07D00B2239683868FFF759FD074B9C
S21400114000221A7001F0FCFF786803F0E3FA00BF93
S2140011500837BD4680BD00BF9C8500206C850020FA
S21400116080B58CB000AF03F0C5FAF86001F0C8FF98
S2140011704648FFF764FCB860BB687B607B68FB6230
S214001180434B5B68BB620BE0BB6ADAB2FB6A591C76
S214001190F96262F07F02D2B21A70BB6ADB09BB62E8
S2140011A0BB6A7F2BF0D8FB6A5A1CFA62BA6AD2B2C4
S2140011B01A70FB6A7B607B687B62354B9B683B6280
S2140011C00BE03B6ADAB27B6A591C796262F07F02F6
S2140011D0D2B21A703B6ADB093B623B6A7F2BF0D8BF
S2140011E07B6A5A1C7A623A6AD2B21A707B6A7B6051
S2140011F07B68FB61264B1B69BB610BE0BB69DAB2FF
S214001200FB69591CF96162F07F02D2B21A70BB69A1
S214001210DB09BB61BB697F2BF0D8FB695A1CFA61FE
S214001220BA69D2B21A70FB697B607B687B61022365
S2140012303B610BE03B69DAB27B69591C796162F06D
S2140012407F02D2B21A703B69DB093B613B697F2B98
S214001250F0D87B695A1C7A613A69D2B21A707B69F7
S2140012607B6018227968B868FFF7C2FC01F068FF57
S214001270F86803F04FFA064B5B6A002B02D0044B6B
S2140012805B6A984700BF3037BD4680BD9C8500200E
S2140012906C85002080B592B000AF786003F02AFA23
S2140012A0786101F02DFF6C48FFF7C9FB38613B6998
S2140012B0FB60FB687B647B681A68684B1B69D31A03
S2140012C09B083B640BE03B6CDAB27B6C591C796480
S2140012D062F07F02D2B21A703B6CDB093B643B6C57
S2140012E07F2BF0D87B6C5A1C7A643A6CD2B21A7098
S2140012F07B6CFB60FB68FB637B689B68BB630BE0F7
S214001300BB6BDAB2FB6B591CF96362F07F02D2B298
S2140013101A70BB6BDB09BB63BB6B7F2BF0D8FB6B18
S2140013205A1CFA63BA6BD2B21A70FB6BFB607B680E
S2140013305B6820221946F868FFF734FBF86009223C
S214001340F9683869FFF754FC3B69FB60FB687B6310
S2140013507B681A68414B1B69D31A9B083B630BE0FA
S2140013603B6BDAB27B6B591C796362F07F02D2B2B8
S2140013701A703B6BDB093B633B6B7F2BF0D87B6BB8
S2140013805A1C7A633A6BD2B21A707B6BFB60FB68AE
S214001390FB627B68DB68BB620BE0BB6ADAB2FB6AA7
S2140013A0591CF96262F07F02D2B21A70BB6ADB097E
S2140013B0BB62BB6A7F2BF0D8FB6A5A1CFA62BA6A19
S2140013C0D2B21A70FB6AFB60FB687B627B681B69A3
S2140013D03B620BE03B6ADAB27B6A591C796262F0C8
S2140013E07F02D2B21A703B6ADB093B623B6A7F2BF4
S2140013F0F0D87B6A5A1C7A623A6AD2B21A707B6A52
S214001400FB60FB68FB610023BB610BE0BB69DAB2E3
S214001410FB69591CF96162F07F02D2B21A70BB698F
S214001420DB09BB61BB697F2BF0D8FB695A1CFA61EC
S214001430BA69D2B21A70FB69FB601522F96838697E
S214001440FFF7D6FB01F07CFE786903F063F900BF76
S2140014504837BD4680BD00BF9C8500206C850020B7
S21400146080B500AF074B1B6A002B08D0054B1B6AE4
S2140014705B68002B03D0034B1B6A5B68984700BF72
S21400148080BD00BF6C85002080B586B000AF786058
S21400149003F030F9786101F033FE0C48FFF7CFFA1D
S2140014A03861802279683869FFF77CFAF8600E2286
S2140014B0F9683869FFF79CFB01F042FE786903F093
S2140014C029F900BF1837BD4680BD00BF9C850020A7
S2140014D090B583B000AF144B1B6A002B19D0124B8B
S2140014E01B6A1B68002B14D00F4B1B6A1B6898479F
S2140014F0C7E900013868D7E900124FF000034FF043
S2140015000004130000241A4601460D20FFF7ECFCE9
S21400151005E0064B1B6819460C20FFF7A9FC00BF28
S2140015200C37BD4690BD00BF6C850020041000E05F
S21400153080B586B000AF03F0DDF8F86001F0E0FD9E
S2140015401A48FFF77CFAB860BB687B60184B1B68CC
S214001550C3F308033B607B687B613B683B610BE041
S2140015603B69DAB27B69591C796162F07F02D2B2BC
S2140015701A703B69DB093B613B697F2BF0D87B69BE
S2140015805A1C7A613A69D2B21A707B697B60022271
S2140015907968B868FFF72CFB01F0D2FDF86803F015
S2140015A0B9F800BF1837BD4680BD00BF9C85002037
S2140015B004ED00E080B582B000AF03F09BF87860E1
S2140015C001F09EFD0848FFF73AFA386003223968B2
S2140015D03868FFF70DFB01F0B3FD786803F09AF862
S2140015E000BF0837BD4680BD9C85002080B588B00A
S2140015F000AF786003F07EF8786101F081FD1B484B
S214001600FFF71DFA38613B69FB60194B1B697A6866
S214001610D31A9B087B60FB68FB617B68BB610BE0B1
S214001620BB69DAB2FB69591CF96162F07F02D2B27B
S2140016301A70BB69DB09BB61BB697F2BF0D8FB69FD
S2140016405A1CFA61BA69D2B21A70FB69FB600822AA
S214001650F9683869FFF7CCFA01F072FD786903F093
S21400166059F800BF2037BD4680BD00BF9C850020CE
S2140016706C85002080B588B000AF786003F03AF83B
S214001680786101F03DFD1B48FFF7D9F938613B69E9
S214001690FB60194B1B697A68D31A9B087B60FB6852
S2140016A0FB617B68BB610BE0BB69DAB2FB69591C66
S2140016B0F96162F07F02D2B21A70BB69DB09BB61C6
S2140016C0BB697F2BF0D8FB695A1CFA61BA69D2B2A3
S2140016D01A70FB69FB600422F9683869FFF788FA1C
S2140016E001F02EFD786903F015F800BF2037BD46DF
S2140016F080BD00BF9C8500206C85002080B588B02A
S21400170000AF786002F0F6FF786101F0F9FC1B4844
S214001710FFF795F938613B69FB60194B1B697A68DE
S214001720D31A9B087B60FB68FB617B68BB610BE0A0
S214001730BB69DAB2FB69591CF96162F07F02D2B26A
S2140017401A70BB69DB09BB61BB697F2BF0D8FB69EC
S2140017505A1CFA61BA69D2B21A70FB69FB6006229B
S214001760F9683869FFF744FA01F0EAFC786902F094
S214001770D1FF00BF2037BD4680BD00BF9C8500203E
S2140017806C85002080B58AB000AF7860396002F0C2
S214001790B1FF786101F0B4FC2848FFF750F93861D2
S2140017A03B69FB60264B1B697A68D31A9B087B60F3
S2140017B0FB687B627B683B620BE03B6ADAB27B6A63
S2140017C0591C796262F07F02D2B21A703B6ADB095A
S2140017D03B623B6A7F2BF0D87B6A5A1C7A623A6A75
S2140017E0D2B21A707B6AFB60FB68FB613B68BB6128
S2140017F00BE0BB69DAB2FB69591CF96162F07F0243
S214001800D2B21A70BB69DB09BB61BB697F2BF0D80B
S214001810FB695A1CFA61BA69D2B21A70FB69FB609E
S2140018200722F9683869FFF7E3F901F089FC78695F
S21400183002F070FF00BF2837BD4680BD9C850020A3
S2140018406C85002080B588B000AF7860396002F003
S21400185051FF786101F054FC1C48FFF7F0F838613E
S2140018603B69FB60FB68FB61194B1B697A68D31AFE
S2140018709B08BB610BE0BB69DAB2FB69591CF961D6
S21400188062F07F02D2B21A70BB69DB09BB61BB692A
S2140018907F2BF0D8FB695A1CFA61BA69D2B21A706B
S2140018A0FB69FB6080223968F868FFF77BF8F86010
S2140018B01922F9683869FFF79BF901F041FC78694D
S2140018C002F028FF00BF2037BD4680BD9C85002063
S2140018D06C85002080B483B000AF7860054B1B6930
S2140018E07A68D31A9B0818460C37BD465DF8047B09
S2140018F0704700BF6C85002080B58CB000AF0346F3
S214001900FB713B4B1B68002B6DD0394B1B68FB6291
S2140019100023BB6208E0FB6A1B69FB62FB6A002BC4
S21400192007D0BB6A0133BB62FB79BA6A9A42F2D32C
S21400193000E000BFFB6A002B55D002F0DBFE7861AA
S21400194001F0DEFB2B48FFF77AF838613B69FB6055
S214001950FB687B62FB793B620BE03B6ADAB27B6A30
S214001960591C796262F07F02D2B21A703B6ADB09B8
S2140019703B623B6A7F2BF0D87B6A5A1C7A623A6AD3
S214001980D2B21A707B6AFB60FB68FB61FB6A9B68DD
S214001990BB610BE0BB69DAB2FB69591CF96162F006
S2140019A07F02D2B21A70BB69DB09BB61BB697F2BB1
S2140019B0F0D8FB695A1CFA61BA69D2B21A70FB6990
S2140019C0FB60FB6A1B6880221946F868FEF7EAFF90
S2140019D0F8601622F9683869FFF70AF901F0B0FBDB
S2140019E0786902F097FE00BF3037BD4680BD00BF65
S2140019F0948500209C85002080B582B000AF0C4BFB
S214001A001B68002B0FD00A4B1B687B607B68DB686B
S214001A10002B02D07B68DB6898477B681B697B607D
S214001A207B68002BF2D100BF0837BD4680BD00BFE3
S214001A309485002080B586B000AF02F05BFEF860AB
S214001A4001F05EFB1848FEF7FAFFB860BB687B60E3
S214001A507B687B61154B1B783B610BE03B69DAB218
S214001A607B69591C796162F07F02D2B21A703B69B9
S214001A70DB093B613B697F2BF0D87B695A1C7A6196
S214001A803A69D2B21A707B697B601B227968B868A3
S214001A90FFF7AEF801F054FBF86802F03BFE00BF1B
S214001AA01837BD4680BD00BF9C8500209885002065
S214001AB080B58AB000AF786002F01CFE786101F055
S214001AC01FFB2848FEF7BBFF38618022796838691B
S214001AD0FEF768FFF860FB687B6201233B620BE061
S214001AE03B6ADAB27B6A591C796262F07F02D2B234
S214001AF01A703B6ADB093B623B6A7F2BF0D87B6A35
S214001B005A1C7A623A6AD2B21A707B6AFB60FB6829
S214001B10FB610023BB610BE0BB69DAB2FB69591CB1
S214001B20F96162F07F02D2B21A70BB69DB09BB6151
S214001B30BB697F2BF0D8FB695A1CFA61BA69D2B22E
S214001B401A70FB69FB601A22F9683869FFF750F8CB
S214001B5001F0F6FA786902F0DDFD00BF2837BD46D1
S214001B6080BD00BF9C85002080B500AF0448FFF70D
S214001B708BFC0448FFF788FC00F078F900BF80BDB6
S214001B8048E7000078E7000098B500AF094801F084
S214001B901DFA0446074801F019FA0146064B074AA3
S214001BA02046FFF7F9F84FF00050FFF733F900BF73
S214001BB098BD00BFD4C40020691B000030E80000B8
S214001BC0F0B585B002AF00237B6036E01F497A6827
S214001BD013469B0013449B000B4418681B497A6805
S214001BE013469B0013449B000B4404331C681749A0
S214001BF07A6813469B0013449B000B4408331B78FB
S214001C001D4612497A6813469B0013449B000B44FA
S214001C100C331B681E460D497A6813469B00134416
S214001C209B000B4410331B68009333462A4621461C
S214001C3000F0B2F87B6801337B60054B1B687A685E
S214001C409A42C3D300BF0C37BD46F0BD8086002045
S214001C500089002090B585B000AF01F0ACF9F860BF
S214001C60F868FEF70BFBC7E90001D7E90034184611
S214001C7021461437BD4690BD80B582B000AF78606F
S214001C807868FFF73BFD00BF0837BD4680BD80B5CE
S214001C9082B000AF786004217868FFF773FD78683B
S214001CA0FFF72CFD00BF0837BD4680BD80B582B06B
S214001CB000AF78607868FFF7DDFC00BF0837BD46E8
S214001CC080BD80B582B000AF786004217868FFF7E9
S214001CD059FD00BF0837BD4680BD000080B586B000
S214001CE002AFF860B9603B601346FB71274B1B6878
S214001CF01F2B03D92648FFF7DBFE43E0234B1A6869
S214001D00244913469B0013449B000B44FA681A6050
S214001D101E4B1A681F4913469B0013449B000B4436
S214001D200433BA681A60194B1A681A4913469B009E
S214001D3013449B000B440833FA791A70134B1A6845
S214001D40144913469B0013449B000B440C333A681B
S214001D501A600E4B1A680F4913469B0013449B00EB
S214001D600B441033BA691A60084B1B680133074AE4
S214001D701360FA793968BB6900930B46B968F8684E
S214001D8000F00AF81037BD4680BD00BF008900206D
S214001D908CE700008086002080B58AB000AFF8602F
S214001DA0B9607A603B6007F11403142200211846DC
S214001DB00CF0BDFBFB687B61BB68BB617B68FB61AD
S214001DC03B683B623B6B7B6207F114031846FFF7E8
S214001DD061FA00BF2837BD4680BD000080B584B0DC
S214001DE000AFF860B9607A607968B868FFF72AFDD6
S214001DF0B868FFF76FFD03461946F868FFF738F82E
S214001E00174B1B68FF2B03D91648FFF751FE24E03B
S214001E10134B1A68144913465B0013449B000B448B
S214001E20BA681A600E4B1A680F4913465B001344D3
S214001E309B000B4404337A681A60094B1A680A49F7
S214001E4013465B0013449B000B44083300221A60C1
S214001E50034B1B680133024A13601037BD4680BD32
S214001E6004950020DCE700000489002080B582B0DD
S214001E7000AF00237B602BE01A497A6813465B00AC
S214001E8013449B000B4408331B68002B1DD11549D7
S214001E907A6813465B0013449B000B44186811498C
S214001EA07A6813465B0013449B000B4404331B689C
S214001EB01946FFF7C7FC0B497A6813465B001344C4
S214001EC09B000B44083301221A607B6801337B6059
S214001ED0054B1B687A689A42CED300BF0837BD46CA
S214001EE080BD00BF048900200495002080B483B024
S214001EF000AF78607B6800221A6000BF0C37BD46D2
S214001F005DF8047B7047000080B582B000AF786053
S214001F10144B01221A707B68002B01D101F048F89F
S214001F207B6800221A70104B1A687B685A600F4B49
S214001F301A687B689A607B680D4ADA607B68B7220D
S214001F401A617B680B4A5A6100F006FA00F0FCF949
S214001F50786800F081FF7B681B78002B0837BD4649
S214001F6080BD00BF08950020B80D010004100100D8
S214001F7038E800005CE8000080B400AF034B1B6844
S214001F801846BD465DF8047B704700BF0C950020E0
S214001F9080B485B000AF03460A46FB711346BB719A
S214001FA00023FB73FB79162B63D801A252F823F0AB
S214001FB00D2000001320000019200000192000004A
S214001FC0192000001F20000025200000252000000A
S214001FD0252000002B2000003120000037200000C4
S214001FE03D20000043200000432000004320000066
S214001FF0552000005B2000006120000067200000E4
S214002000492000004F2000006D2000000123FB73D4
S21400201030E00123FB732DE00123FB732AE001234C
S214002020FB7327E00123FB7324E00123FB7321E00D
S2140020300123FB731EE00123FB731BE00123FB73EC
S21400204018E00123FB7315E00123FB7312E0012364
S214002050FB730FE00123FB730CE00123FB7309E025
S2140020600123FB7306E00123FB7303E00123FB73EC
S21400207000E000BFFB7B18461437BD465DF8047BC6
S214002080704700BF80B58EB000AFF860B9607A6068
S2140020900023FB627B68002B01D100F089FF274BF1
S2140020A01B68002B08D1786800F056F87B681B7810
S2140020B0002B01D0FB6A3DE0204B1B687968184670
S2140020C000F058FA38637B681B78002B01D0FB6A57
S2140020D030E03B6B7A68F968184605F053FF7B687A
S2140020E01B78002B17D1BB68002B09D0BB681B7868
S2140020F003F00103002B03D0012387F8373002E0FA
S214002100002387F837303B6B97F8372083F8342066
S2140021103B6BFB620DE0094B1B68184607F1140386
S2140021201A46396B00F02CFB3B7D002B01D000F0EB
S2140021303FFFFB6A18463837BD4680BD1095002025
S21400214080B400AF034B1B681846BD465DF8047BA1
S214002150704700BF5895002080B588B004AF7860FF
S2140021607B68002B01D100F023FF7B6800221A70E9
S2140021705E4B1A687B685A605D4B1A687B689A608B
S2140021807B685C4ADA607B6840F6B5021A617B6859
S214002190594A5A61786804F00DF87B681B78002B62
S2140021A003D0786804F096F89DE0544B1B68002B2B
S2140021B040F09580FFF7E0FEF8607B68B422F9688F
S2140021C04F4800F05DF902464C4B1A607B681B785E
S2140021D0002B03D0786804F07DF884E0474B1B683A
S2140021E019467B6803934FF0FF3302930023019355
S2140021F0042300933823FA68424800F069F97B68A4
S2140022001B78002B03D0786804F064F86BE03B4B37
S2140022101B6803F124017B6803934FF0FF3302939E
S21400222000230193042300932C23FA68364800F019
S2140022304FF97B681B78002B03D0786804F04AF8C7
S21400224051E02E4B1B6803F16C017B6803934FF043
S214002250FF33029300230193042300933823FA6884
S2140022602A4800F035F97B681B78002B03D0786885
S21400227004F030F837E0214B1B6803F190017B68CF
S21400228003934FF0FF33029300230193042300933C
S2140022900123FA681E4800F01BF97B681B78002BA8
S2140022A003D0786804F016F81DE0144B1B6803F1A1
S2140022B048017B6803934FF0FF330293002301939A
S2140022C0042300932423FA68124800F001F97B687F
S2140022D01B78002B03D0786803F0FCFF03E07868D7
S2140022E003F0F8FF00BF1037BD4680BDB80D0100F3
S2140022F00410010068E8000018E9000010950020AE
S214002300B0E80000C4E80000D4E80000E4E80000FC
S214002310F4E8000008E9000080B584B000AF7860FB
S21400232002F0E8F9F86000F0EBFE064A7B681360FE
S21400233000F006FFF86802F0EDF900BF1037BD4662
S21400234080BD00BF1495002080B500AF0120FFF7C8
S214002350E3FF00BF80BD000080B586B000AF3B46FF
S2140023601946064800F00CF83B78002B01D000F028
S2140023701FFE00BF1837BD4680BD00BF10000020FE
S21400238080B584B000AF786039603B68002B01D11F
S21400239000F00EFE7B68002B15D13B680A221A70EF
S2140023A0324B9A6A3B685A60314B9A6A3B689A602D
S2140023B03B68304ADA603B6840F2B7221A613B68F5
S2140023C02D4A5A61FEE702F095F9B86000F098FED3
S2140023D02A4B1B68FB6021E0FA687B689A421AD198
S2140023E000F0AEFEB86802F095F93B6815221A7048
S2140023F01E4B5A6D3B685A601D4B5A6D3B689A607F
S2140024003B681C4ADA603B6840F2BE221A613B68B1
S214002410194A5A6126E0FB68DB68FB60FB68002B04
S214002420DAD1164B1A687B68DA60144A7B68136048
S21400243000F086FEB86802F06DF93B6800221A705C
S2140024400A4B1A683B685A60094B1A683B689A60E0
S2140024503B68084ADA603B6840F2C9221A613B686A
S214002460054A5A611037BD4680BD00BFB80D010051
S2140024700410010024E9000044E90000ECC4002038
S21400248080B58AB004AFF860B9607A603B60BB681C
S2140024907B613B68002B01D100F08AFD7B69002B35
S2140024A001D10A4B7B613B68029300230193012311
S2140024B0009304237A687969F86800F00BFA3861AB
S2140024C03B6918461837BD4680BD00BF1000002087
S2140024D080B58AB004AFF860B9607A603B607B680C
S2140024E07B61FB6A002B01D100F062FDBB68002B0C
S2140024F015D1FB6A0A221A70194B9A6AFB6A5A604F
S214002500184B9A6AFB6A9A60FB6A174ADA60FB6A9B
S21400251040F212421A61FB6A144A5A61FEE77B696E
S214002520002B01D1124B7B61BB6800221A70BB687E
S2140025300022DA61BB6800221A62FB6A0393BB6A58
S21400254002937B6A01933B6A00933B687A69B96899
S214002550F86800F0D9FA00BF1837BD4680BD00BF46
S214002560B80D01000410010024E9000050E9000045
S2140025701000002090B58BB004AF786039603B68DF
S214002580002B01D100F014FD7B68002B15D13B68B1
S2140025900A221A70764B9A6A3B685A60754B9A6A9A
S2140025A03B689A603B68744ADA603B6840F2D54202
S2140025B01A613B68714A5A61FEE702F09BF878613F
S2140025C000F09EFD7B685B69B3F1FF3F21D07B681E
S2140025D09A697B685B699A421BD300F0B1FD786903
S2140025E002F098F83B6818221A70614B1A6E3B6826
S2140025F05A60604B1A6E3B689A603B685E4ADA60C7
S2140026003B684FF49C621A613B685C4A5A6100233F
S214002610A9E07B689B695A1C7B689A617B681B698A
S214002620002B2FD07B681B69FB607B681B7803F050
S2140026300203002B02D1FB681B6805E07B689B68E1
S214002640043BFA6813441B687A68136100F078FD4F
S214002650786902F05FF83B6800221A70444B1A68EB
S2140026603B685A60434B1A683B689A603B68424A2C
S214002670DA603B6840F2EF421A613B683F4A5A61B3
S214002680FB6870E000F05CFD786902F043F8002318
S2140026903B617B6859687B6898687B68DC687B6808
S2140026A01B7803F00103002B03D07B685B681B6973
S2140026B000E001233A68029200220192009323462A
S2140026C00246386900F006F9F8603B681B78002B74
S2140026D010D002F00FF8786100F012FD7B689B695D
S2140026E05A1E7B689A6100F02BFD786902F012F89A
S2140026F0002338E07B68DB69002B33D07B68DC691D
S2140027007B6859687B681B6AFA687868A047034646
S214002710FB72FB7A012B25D001F0ECFF786100F00C
S214002720EFFC7B689B695A1E7B689A6100F008FD87
S214002730786901F0EFFF3B681A221A700C4B9A6E0C
S2140027403B685A600B4B9A6E3B689A603B680A4A35
S214002750DA603B6840F219521A613B68074A5A61D0
S214002760002300E0FB6818461C37BD4690BD00BF3E
S214002770B80D01000410010024E9000064E900001F
S21400278080B586B000AFF860B9607A607B68002BD1
S21400279001D100F00DFCFB68002B15D17B680A22E6
S2140027A01A70484B9A6A7B685A60474B9A6A7B68ED
S2140027B09A607B68454ADA607B6840F23B521A6151
S2140027C07B68434A5A61FEE7BB68002B15D17B68DD
S2140027D00A221A703B4B9A6A7B685A603A4B9A6A8E
S2140027E07B689A607B68394ADA607B6840F23C52C4
S2140027F01A617B68364A5A61FEE701F07BFF786112
S21400280000F07EFCFB689B69002B1AD100F098FC58
S214002810786901F07FFF7B6817221A70294BDA6D02
S2140028207B685A60284BDA6D7B689A607B68274A1B
S214002830DA607B6840F245521A617B68244A5A6126
S2140028403DE0FB689B695A1EFB689A6100F078FCC5
S214002850786901F05FFFFB681B7803F00203002B2A
S21400286005D0FB689B68043BBA68134400E0BB686D
S2140028703B6101F03FFF786100F042FCFB681A699B
S2140028803B691A60FB68BA681A6100F059FC7869FF
S21400289001F040FF7B6800221A700A4B1A687B68BA
S2140028A05A60094B1A687B689A607B68074ADA6048
S2140028B07B6840F255521A617B68054A5A611837A0
S2140028C0BD4680BDB80D01000410010024E90000DB
S2140028D078E9000080B588B002AFF860B9607A6029
S2140028E03B607B68002B15D1BB6A08221A703A4BF6
S2140028F01A6ABB6A5A60394B1A6ABB6A9A60BB6A24
S214002900374ADA60BB6A40F2C6621A61BB6A354A69
S2140029105A61FEE73B68002B05D03B685A1E3B68B1
S2140029201340002B02D03B68002B01D1012300E0AE
S2140029300023002B15D1BB6A08221A70264B1A6A90
S214002940BB6A5A60254B1A6ABB6A9A60BB6A244AFD
S214002950DA60BB6A40F2CA621A61BB6A214A5A61EF
S214002960FEE701F0C7FE786100F0CAFBBB6A019380
S2140029707B6A00933B6A3A687968B86800F034F876
S2140029803861BB6A1B78002B1BD000F0D9FB786936
S21400299001F0C0FEBB6A16221A700F4B9A6DBB6A16
S2140029A05A600E4B9A6DBB6A9A60BB6A0C4ADA6034
S2140029B0BB6A40F2D5621A61BB6A0A4A5A610023B2
S2140029C005E000F0BDFB786901F0A4FE3B691846FF
S2140029D01837BD4680BD00BFB80D010004100100C9
S2140029E024E900008CE9000080B48BB000AFF860EA
S2140029F0B9607A603B607B68002B01D07B6800E0A2
S214002A0004233A68934238BF13467B62FB689B6890
S214002A101A467B6A5B421A40FB689B6819467B6ACB
S214002A20013B0B40002B01D07B6A00E000231344DF
S214002A303B623A6ABB681A443B685B421A40396A92
S214002A40BB6819443B68013B0B40002B01D03B6838
S214002A5000E000231344FB61FB685B681A46FB68D2
S214002A609B68D31A0133BB61FB689B681A46FB69F7
S214002A709B1A7B61BA697B699A421ED23B6B002B1C
S214002A8004D07A69BB69D21A3B6B1A607B6B16223C
S214002A901A70194B9A6D7B6B5A60184B9A6D7B6B4C
S214002AA09A607B6B164ADA607B6B4FF4E4621A61BD
S214002AB07B6B144A5A61002318E0FA69FB689A6037
S214002AC07B6B00221A700C4B1A687B6B5A600B4BA0
S214002AD01A687B6B9A607B6B094ADA607B6B40F204
S214002AE026721A617B6B074A5A613B6A18462C3776
S214002AF0BD465DF8047B7047B80D01000410010068
S214002B0024E90000A4E9000090B593B004AFF86093
S214002B10B9607A603B603B68002B15D17B6D08225C
S214002B201A70924B1A6A7B6D5A60914B1A6A7B6DCB
S214002B309A607B6D8F4ADA607B6D40F291721A6103
S214002B407B6D8D4A5A61FEE73B6DB3F1FF3F03D0C4
S214002B50FA6C3B6D9A4201D8012300E00023002B5B
S214002B6015D17B6D08221A70804B1A6A7B6D5A60ED
S214002B707F4B1A6A7B6D9A607B6D7E4ADA607B6D4E
S214002B8040F295721A617B6D7B4A5A61FEE7BB6C18
S214002B90002B08D0BB6C5A1EBB6C1340002B02D116
S214002BA0BB6C032B02D8BB6C002B01D1012300E0C9
S214002BB00023002B15D17B6D08221A706B4B1A6A06
S214002BC07B6D5A606A4B1A6A7B6D9A607B6D694AA8
S214002BD0DA607B6D40F29A721A617B6D664A5A61C2
S214002BE0FEE7BB6C002B01D0BB6C00E00423FB614E
S214002BF0BB681B7803F00203002B10D03B6823F061
S214002C0003033A6802F00302002A01D1002200E022
S214002C10042213443B633B6B04333B6304E03B6892
S214002C20042B38BF04233B63FB6C002B00F0DF80D3
S214002C30BB681B7803F00103002B02D1FB69BB6263
S214002C4006E07B681B69FA69934238BF1346BB628D
S214002C50BB6A5A423B6B1A40BB6A591E3B6B0B4021
S214002C60002B01D0BB6A00E000231344BB61BB69A4
S214002C70FA6C02FB03F37B623A6BBB69D31A7A6A7F
S214002C8013447B62BB681B7803F00103002B11D052
S214002C907B681B695A427B6A1A407B681B69591E0F
S214002CA07B6A0B40002B02D07B681B6900E0002388
S214002CB013447B627B6D02930023019301230093F0
S214002CC0BB6A7A6A7968F868FFF704FE78637B6DFA
S214002CD01B78002B40F0B380BB687A6B1A61BB6828
S214002CE01B7803F00203002B02D17B6B3B620EE0E5
S214002CF03B6823F003033A6802F00302002A01D17E
S214002D00002200E0042213447A6B13443B62012342
S214002D10FB623EE03B6A796BBA690A441A60BB689C
S214002D20DB69002B2AD0BB68DC69BB681B6A7A6B40
S214002D307968B868A0470346BB75BB7D012B1DD0DC
S214002D407B6D1A221A70094B9A6E7B6D5A60084B7F
S214002D509A6E7B6D9A607B6D064ADA607B6D40F2F8
S214002D60D7721A617B6D044A5A6169E0B80D01009A
S214002D700410010024E90000BCE900003A6ABB69BF
S214002D8013443B627A6BBB6913447B63FB6A013373
S214002D90FB62FA6AFB6C9A42BCD33B6A00221A605A
S214002DA0BB68DB69002B25D0BB68DC69BB681B6A87
S214002DB07A6B7968B868A0470346FB75FB7D012BE4
S214002DC018D07B6D1A221A701F4B9A6E7B6D5A6054
S214002DD01E4B9A6E7B6D9A607B6D1D4ADA607B6D2A
S214002DE040F2E7721A617B6D1A4A5A6128E0BB68A6
S214002DF000221A61BB687A685A60BB683A6B9A60B0
S214002E00BB68FA69DA60BB683A6D5A61BB68002233
S214002E109A617B6D00221A700B4B1A687B6D5A60A4
S214002E200A4B1A687B6D9A607B6D094ADA607B6D87
S214002E3040F2FA721A617B6D064A5A6100E000BFE2
S214002E403C37BD4690BD00BFB80D01000410010020
S214002E5024E90000BCE9000090B589B004AF7860B2
S214002E607B68002B01D100F0A3F87B6800221A7063
S214002E70424B1A687B685A60414B1A687B689A60B6
S214002E807B68404ADA607B68C4221A617B683E4AE7
S214002E905A613E4B5B68002B6DD000210220FFF785
S214002EA077F80346FB7300210320FFF771F803460B
S214002EB01A46FB7B1340FB7300210420FFF768F8DB
S214002EC003461A46FB7B1340FB73FB7B012B14D097
S214002ED07B6806221A70294B9A697B685A60284BD1
S214002EE09A697B689A607B68264ADA607B68CA22A1
S214002EF01A617B68244A5A61FEE7FFF73DF8B8601E
S214002F007B682C22B9682248FFF7BAFA0246214BA2
S214002F101A607B681B78002B28D11E4B1B68181D77
S214002F201A4B1B68194A52687968039102920193FA
S214002F30042300930823BA6801461748FFF7C8FA27
S214002F407B681B78002B13D1124B1C687A68002113
S214002F501248FFF797F8A0627B681B78002B09D110
S214002F600C4B1B681846FEF7C1FF04E000BF02E0EA
S214002F7000BF00E000BF1437BD4690BDB80D01008D
S214002F8004100100D8E9000058EA000024000020E0
S214002F9008EA0000189500201CEA000034EA000049
S214002FA080B500AF00F002F900F00CF900BF80BD5C
S214002FB080B400AFFEE780B582B000AFFDF74EF9F3
S214002FC078607B6818460837BD4680BD80B584B0FB
S214002FD000AF78607B68002B01D1FFF7E9FF184B44
S214002FE01B68FB60FB68002B01D0002200E0092272
S214002FF07B681A70FB68002B01D0002300E00923D1
S214003000104A52F823207B685A60FB68002B01D0D8
S214003010002300E009230C4A52F823207B689A60BC
S2140030207B680A4ADA607B684FF4FE721A617B6836
S214003030074A5A61FB6818461037BD4680BD00BF78
S214003040F4E40020B80D0100041001005012010045
S2140030506C12010080B483B000AF7860044A7B68CD
S214003060136000BF0C37BD465DF8047B704700BF99
S214003070F4E4002080B582B000AF00F011F878606C
S21400308001F038FB3860054B00221A60386801F002
S21400309041FB7B6818460837BD4680BD04E5002026
S2140030A080B584B000AF01F025FBF860074B1B68C5
S2140030B0BB60F86801F02EFBB86800F0D3F87860C3
S2140030C07B6818461037BD4680BD00BF04E500206B
S2140030D080B584B000AF01F00DFBF860074B1B68AD
S2140030E0BB60F86801F016FBB86800F0BBF87860C3
S2140030F07B6818461037BD4680BD00BFF0E4002050
S21400310080B500AF0B4B1B8801339AB2094B1A806F
S214003110094B1B88002B04D1FDF7A0F80246074B8D
S2140031201A60054B1B8801339AB2034B1A8000BF06
S21400313080BD00BF08E50020FCE40020F8E4002085
S21400314080B582B000AF144B1B88013B9AB2124B7D
S2140031501A80114B1B88002B1AD1FDF77FF8024608
S2140031600E4B1A600D4B1A680D4B1B68D31A7B600A
S2140031700C4B1B687A689A4202D90A4A7B6813602D
S214003180094B1B687A689A4202D9074A7B68136023
S21400319000BF0837BD4680BDFCE4002000E50020E7
S2140031A0F8E4002004E50020F0E4002080B500AF3D
S2140031B0034B00221A60FDF72FF800BF80BD00BF4A
S2140031C0F4E4002080B584B000AF1F4B00221A80C4
S2140031D01E4B00221A801E4B00221A601D4B002236
S2140031E01A601D4B00221A601C4B00221A601C4BF2
S2140031F000221A600023FB6001F07CFA786000234E
S2140032007B810EE0144B00221A60FFF779FFFFF770
S21400321097FF114B1B68FA681344FB607B890133E8
S2140032207B817B89002BEDD00D4AFB6813600A4B2F
S21400323000221A60094B00221A60786801F06AFAC8
S21400324000BF1037BD4680BD08E50020FCE4002026
S214003250F8E4002000E5002004E50020F0E400206B
S2140032600CE5002080B485B000AF78607B68FB601A
S214003270094B1B68FA689A4205D9074B1B68FA681F
S214003280D31AFB6001E00023FB60FB681846143786
S214003290BD465DF8047B70470CE5002080B487B01F
S2140032A000AFF860B9607A60FB6803F10473DA0077
S2140032B0BB6813449B007B617B697A681A6000BF19
S2140032C01C37BD465DF8047B704780B485B000AF00
S2140032D0786039607B6803F1C063FB60FB683A681E
S2140032E01A6000BF1437BD465DF8047B704780B493
S2140032F085B000AF786039607B6803F18063FB605F
S214003300FB683A681A6000BF1437BD465DF8047B58
S214003310704780B584B000AFF860B9607A60B9686D
S214003320F868FFF7E4FF7968F868FFF7CEFF00BF9C
S2140033301037BD4680BD000080B582B000AF786013
S21400334039607B68B3F1804F07D07B68274A934289
S21400335003D0A821264800F0AFF83B681B693F2B36
S21400336003D9BC21224800F0A7F83B68DB683F2B56
S21400337003D9BD211E4800F09FF83B685B683F2BD1
S21400338003D9BF211A4800F097F83B681B78DB0783
S2140033901A463B685B681B06134343F400427B688F
S2140033A01A603B68DB681B043A68127A1A437B682B
S2140033B09A623B681B691B043A68527A1A437B6818
S2140033C0DA623B689B7A1B0743F0806343F47D43D5
S2140033D07A68536078683B681B7D1A460021FFF7C1
S2140033E05DFF00BF0837BD4680BD00BF000400403B
S2140033F08012010080B582B000AF78600B46FB708B
S2140034007B68B3F1804F07D07B68094A934203D0AC
S214003410FB21084800F050F87B680433FA78FF2157
S2140034201846FFF776FF00BF0837BD4680BD00BFD1
S214003430000400408012010080B582B000AF7860C2
S2140034407B68B3F1804F08D07B68094A934204D06A
S21400345040F22111074800F02FF87B681B6823F024
S21400346001027B681A6000BF0837BD4680BD00BFFA
S214003470000400408012010080B582B000AF786082
S2140034807B68B3F1804F08D07B68094A934204D02A
S2140034904FF49A71074800F00FF87B681B6843F0FA
S2140034A001027B681A6000BF0837BD4680BD00BFBA
S2140034B0000400408012010080B483B000AF786042
S2140034C03960FEE780B487B000AFF860B9607A6014
S2140034D0FB6803F10473DA00BB6813449B007B614E
S2140034E07B697A681A6000BF1C37BD465DF8047BAE
S2140034F0704780B485B000AF786039607B6803F1B0
S2140035000473DA003B6813449B00FB60FB681B688F
S21400351018461437BD465DF8047B704780B582B008
S21400352000AF78607B681F2B04D94FF4967105486E
S214003530FFF7C2FF01227B6802FA03F3184608373A
S214003540BD4680BD9412010080B582B000AF7860A1
S2140035507868FFF7E3FF034618460837BD4680BD88
S21400356080B500AF00BF12210348FFF7C2FF034635
S214003570002BF8D100BF80BD04300E4080B500AFF0
S214003580FFF7EEFF034B5B681B0C03F00303DBB295
S214003590184680BD00300E4080B584B000AF78601D
S2140035A00123FB607B68124A934204D80023FB6029
S2140035B00023BB6008E07B680E4A934202D80123D2
S2140035C0BB6001E00223BB60FA6810210A48FFF7DF
S2140035D079FF094BD3F8003123F08072BB681B06D5
S2140035E005491343C1F8003100BF1037BD4680BD02
S2140035F00048E8010090D00300400E4080B483B03D
S21400360000AF054B1B687B607B6818460C37BD46D1
S2140036105DF8047B704700BF2C00002080B582B0A8
S21400362000AFFCF713FF7860064BD3F800311B0A97
S21400363003F01F0301337A6802FB03F318460837CA
S214003640BD4680BD00400E4080B582B000AF0F483A
S21400365000F066FB0346FB70FB78072B05D0092BB2
S21400366007D1FCF7F3FE78600BE0FFF7C7FF786042
S21400367007E000237B6040F69A210548FFF71CFF11
S21400368000BF7B6818460837BD4680BD06000E00A2
S2140036908813010080B584B000AF78607B68002B8B
S2140036A01CD1204800F03CFB0346FB7200BFFB7AAF
S2140036B0013B072B28D801A252F823F0EB36000076
S2140036C00937000009370000F93600000937000006
S2140036D009370000F13600000137000040F6BA2135
S2140036E01148FFF7E9FE002317E00023FB6013E014
S2140036F0FFF784FFF8600FE0FCF7E0FEF8600BE0F1
S214003700FFF78CFFF86007E00023FB6040F6D1214E
S2140037100548FFF7D1FE00BFFB6818461037BD46C8
S21400372080BD00BFB80032008813010080B584B0A9
S21400373000AF78603960204B5B6803F04073FB6035
S2140037400023BB6012E01D4ABB68DB0013441A79F5
S2140037503B68DBB29A4206D1184ABB6852F833304F
S2140037607A689A4206D9BB680133BB60BB68042BF3
S214003770E9D900E000BFBB68052B07D10323FB6037
S21400378040F6D8310E48FFF797FE05E00B4ABB68B7
S214003790DB0013445B79FB60FB681B06FB60064B93
S2140037A05B6823F040720449FB6813434B6000BF1C
S2140037B01037BD4680BD00BF00000E409C130100C0
S2140037C08813010080B582B000AF0E4B1B6C002B37
S2140037D014BF01230023FB710A4B41F671321A64B1
S2140037E0FCF72AFE034600211846FFF79FFFFB79E9
S2140037F0002B02D0034B00221A6400BF0837BD46D8
S21400380080BD00BF00000E4080B584B000AF786079
S21400381039600C4B1B6C002B14BF01230023FB7379
S214003820084B41F671321A6439687868FFF77EFFF4
S214003830FB7B002B02D0034B00221A6400BF10371C
S214003840BD4680BD00000E4080B487B000AF7860F3
S2140038500F237B617B6803333B617B69FB60FA68FF
S2140038603B69934228BF1346BB60BB681B07BB601F
S214003870BB6818461C37BD465DF8047B70470000E1
S21400388080B400AF044B5B6A1B0903F003031846C1
S214003890BD465DF8047B704700400E4080B483B0A0
S2140038A000AF7860074B5B6A23F030027B681B0131
S2140038B0044913434B6200BF0C37BD465DF8047BDA
S2140038C0704700BF00400E4090B585B000AF7860EE
S2140038D00023BB607B683C4A93420BD03B4A934232
S2140038E008D03B4A934205D040F6C9413948FFF715
S2140038F0E3FD00E000BF786800F012FA0346FB60C4
S2140039007B68314A93420CD0304A934210D0304AFA
S214003910934214D1304BD3F8803003F00703FB609A
S21400392013E02D4BD3F8843003F00703FB600CE064
S214003930294BD3F8883003F00703FB6005E040F618
S214003940F8412448FFF7B8FD00BFFB68042B2ED8CB
S21400395001A252F823F000BFA93900006D3900001B
S21400396075390000853900007D390000FCF7C8FD78
S214003970B86024E0FCF7D6FDB86020E0FCF7C9FD8F
S214003980B8601CE0FCF738FD0446134BD3F8003152
S2140039901B0E03F0010301331846FFF7D5FD03465F
S2140039A0B4FBF3F3BB600AE00023BB6007E0002330
S2140039B0BB6040F64A510748FFF77EFD00BFBB6874
S2140039C018461437BD4690BD0300200005002400AD
S2140039D002001E008813010000400E4080B483B031
S2140039E000AF78600A4BD3F8443103F00103002B94
S2140039F008D100BF064BD3F840217B681340002B4C
S214003A00F8D100E000BF0C37BD465DF8047B704778
S214003A1000400E4080B400AF00BFBD465DF8047B9A
S214003A20704780B400AF00BFBD465DF8047B7047AA
S214003A3080B586B000AF78600B46FB7000233B6114
S214003A407B681B0A03F00F03013B092B32D801A247
S214003A5052F823F07D3A0000893A0000B53A00009B
S214003A60B53A0000833A00008F3A0000993A000009
S214003A70B53A0000A33A0000AF3A00001A4B7B614B
S214003A801EE01A4B7B611BE0194B7B6118E0194B5B
S214003A907B6101233B6113E0174B7B6110233B6185
S214003AA00EE0164B7B614FF480333B6108E0144B0D
S214003AB07B6105E041F23C111248FFF7FDFC10E087
S214003AC07B681B0B03F01F03FB603B69002B02D0D7
S214003AD03869FFF783FFFB781A46F9687869FFF7BD
S214003AE0F1FC1837BD4680BD00400E40B0400E4089
S214003AF0C0400E40E0400E40E8400E40F0400E4011
S214003B0050410E408813010080B584B000AF786045
S214003B107B6803F47813B3F5A01F7DD0B3F5A01F20
S214003B201AD8B3F5202F50D0B3F5202F08D8B3F508
S214003B30003F4ED0B3F5802F38D0002B32D0D8E0DF
S214003B40B3F5602F00F0C880B3F5801F00F0C88082
S214003B50B3F5402F4CD0CCE0B3F5001F00F08B80BF
S214003B60B3F5001F0AD8B3F5D01F00F08980B3F56F
S214003B70F01F4CD0B3F5B01F5CD0BAE0B3F5381FD9
S214003B806AD0B3F5381F04D8B3F5101F00F09F8035
S214003B90AFE0B3F5401F00F08680B3F5481F00F095
S214003BA0A380A6E0FCF752FCF860AAE0FCF74EFC07
S214003BB0F860564BD3F80C311B0AC3F308030133E5
S214003BC0FA68B2FBF3F3FB609BE0FCF73FFCF8609F
S214003BD097E0FCF73BFCF8604C4BD3F808311B0A27
S214003BE0C3F308030133FA68B2FBF3F3FB6088E023
S214003BF0FCF72CFCF860454BD3F814311B0A03F095
S214003C001F030133FA68B2FBF3F3FB6079E0404828
S214003C10FFF75AFEF86074E03E48FFF755FEF8607E
S214003C203A4BD3F8303103F00303FA6822FA03F371
S214003C30FB6066E03648FFF747FEF860334BD3F884
S214003C40203103F00F031846FFF77EFC0246FB68A0
S214003C50B3FBF2F3FB6054E02D48FFF735FEF86047
S214003C602A4BD3F820311B0903F00303FA6822FA23
S214003C7003F3FB6045E02848FFF726FEF86040E0C7
S214003C802548FFF721FEF860204BD3F828311B09A2
S214003C9003F003031846FFF757FC0246FB68B3FB26
S214003CA0F2F3FB602DE01C48FFF70EFEF860174BA2
S214003CB0D3F828311B0A03F0030304331846FFF732
S214003CC043FC0246FB68B3FBF2F3FB6019E01148C5
S214003CD0FFF7FAFDF86014E0FFF7B6FCF86010E0B6
S214003CE0FFF78CFCF8600CE00020FFF7D3FCF860D0
S214003CF007E00023FB6041F262210848FFF7DCFB87
S214003D0000BFFB6818461037BD4680BD00400E4019
S214003D1002001E0005002400030020008813010096
S214003D2080B584B000AF78600123FB737B6803F036
S214003D300F03BB60BB68013B072B00F2C48001A2E7
S214003D4052F823F0653D0000BB3D0000EB3D00004F
S214003D50C73E0000313E0000613E0000C73E000046
S214003D60853E00005E4BD3F8943003F00703023B19
S214003D70052B1ED801A252F823F000BFA13D00007B
S214003D809B3D0000953D0000A73D0000B33D0000B0
S214003D90AD3D00000223FB730EE00323FB730BE034
S214003DA00423FB7308E00B23FB7305E00C23FB7373
S214003DB002E00523FB7300BF8DE0494BD3F880304B
S214003DC003F00703022B06D0042B07D0012B08D1E3
S214003DD00323FB7308E00223FB7305E00A23FB734F
S214003DE002E00123FB7300BF75E03D4BD3F884303F
S214003DF003F00703013B032B16D801A252F823F069
S214003E00113E0000173E0000233E00001D3E00004D
S214003E100323FB730BE00223FB7308E00A23FB7308
S214003E2005E00623FB7302E00123FB7300BF52E0AC
S214003E302B4BD3F8883003F00703022B06D0042B55
S214003E4007D0012B08D10323FB7308E00223FB7382
S214003E5005E00A23FB7302E00123FB7300BF3AE090
S214003E601F4B1B6F03F00103002B04D0012B05D161
S214003E700923FB7305E00723FB7302E00123FB73B2
S214003E8000BF28E0164BD3F85C3103F03003102B4C
S214003E900CD0102B02D8002B05D010E0202B08D019
S214003EA0302B09D00BE00123FB730BE00723FB73D9
S214003EB008E00423FB7305E00823FB7302E00123FC
S214003EC0FB7300BF07E00023FB7341F276610548F1
S214003ED0FFF7F2FA00BFFB7B18461037BD4680BDE1
S214003EE000400E408813010080B58AB000AF7860AD
S214003EF00B46FB7003237B62032387F823300023E3
S214003F00BB6100237B617B68112B19D1FB78042BE6
S214003F1003D1FCF7D3FA78610BE0FB78052B08D1C8
S214003F2000F08AF90246BB4B9A4202D900F084F9A7
S214003F3078617B69002B03D00021786900F06EFC65
S214003F407B6803F00F033B613B69013B072B00F2E4
S214003F50578101A252F823F0793F00008540000007
S214003F60B74000000142000099400000594100009F
S214003F700142000083410000FB78023B0A2B49D82F
S214003F8001A252F823F000BFB53F0000C13F000079
S214003F90CD3F0000DF3F0000154000001540000048
S214003FA0154000001540000009400000F13F0000E9
S214003FB0FD3F000004237B62002387F823302FE0B8
S214003FC003237B62012387F8233029E002237B62E8
S214003FD0022387F823309048FFF7DEFA20E001231B
S214003FE07B62032387F823308B48FFF7D5FA17E068
S214003FF005237B62032387F8233011E007237B62C7
S214004000062387F823300BE041F234718348FFF72C
S21400401053FAFBE041F239718048FFF74DFAF5E0BC
S21400402097F82330062B06D097F82330012201217B
S214004030184600F00DF9FFF7C5FBFFF7EBFC7B69B0
S214004040002B01D0FFF78CFA754A7B6A53677548D8
S214004050FFF75AFD03461846FFF79EFAFCF7CCF921
S214004060F860FFF78BFA03461946F868FFF7CCFBB3
S2140040707B69002B03D10121002000F0CFFBFFF766
S214004080D0FCC3E0684BBB61FB78062B04D141F241
S21400409075716248FFF710FABB69002B01D0BB6947
S2140040A000E0624BBB61FB78062B04D141F28971BC
S2140040B05A48FFF701FABB69002B01D0BB6900E044
S2140040C05B4BBB61FB78013B092B3BD801A252F846
S2140040D023F000BFFD400000034100001341000034
S2140040E045410000454100002341000045410000D5
S2140040F045410000454100003F4100000023FB61B0
S21400410026E001220121002000F0A2F80223FB6134
S2140041101EE001220121012000F09AF80123FB6134
S21400412016E0FCF769F903461846FFF735FA012250
S21400413002214048FFF7C6F90323FB6108E0042389
S214004140FB6105E041F2AE713448FFF7B5F95DE07A
S214004150BB69FA691A6059E0FB78072B02D0092B75
S21400416004D007E02E4B00221A6709E02C4B0122F0
S2140041701A6705E041F638012848FFF79DF945E043
S21400418044E0FB78013B072B28D801A252F823F025
S214004190B1410000DD410000DD410000C7410000E4
S2140041A0DD410000DD410000B7410000D7410000BE
S2140041B00023FB6118E001220121042000F048F8EA
S2140041C00123FB6110E001220121022000F040F8EB
S2140041D00223FB6108E00323FB6105E041F696013C
S2140041E00E48FFF769F911E00D4BD3F85C3123F068
S2140041F03002FB691B010A491343C1F85C3105E034
S21400420041F66D110548FFF757F900BF2837BD4640
S21400421080BD00BF002D31010148E8018813010070
S21400422000400E4000250A0080400E4088400E40A8
S21400423084400E40B0400E4080B400AF034B1B6875
S2140042401846BD465DF8047B704700BF0C00002092
S21400425080B588B000AF0346FB710B46BB711346B2
S2140042607B71FB79042B3CD801A252F823F000BFE7
S214004270CD420000BB42000097420000854200008D
S214004280A942000001237B6102233B610123FB61FD
S2140042900023BB612BE004237B6108233B610323DF
S2140042A0FB610223BB6122E010237B6120233B617C
S2140042B00523FB610423BB6119E040237B61802357
S2140042C03B610723FB610623BB6110E04FF480735C
S2140042D07B614FF400733B610923FB610823BB61DC
S2140042E005E041F665514548FFF7E6F883E0BB79FF
S2140042F0002B64D00023FB73FB79022B1AD1FFF747
S214004300BFFA0346002B15D13D4BDB6B03F48063ED
S214004310002B04D141F674513848FFF7CDF801233D
S214004320FB73384B5B6A03F00103012B02D10120BB
S214004330FFF7B4FA334A7B69136600BFB96932489F
S214004340FFF7D7F80346002BF8D07B79002B52D026
S21400435000BFF9692C48FFF7CCF80346002BF8D0CD
S214004360FB79022B47D1FB7B002B44D0254B5B6AA5
S21400437003F00103012B05D101222021022000F0C9
S21400438087F903E00021022000F028F9022000F05F
S2140043903DF8B860012200210220FFF759FFB968F6
S2140043A0022000F071F8174A7B69136600BFF969AE
S2140043B01548FFF79EF80346002BF8D01BE0114A7D
S2140043C03B69136600BF0F4BD3F890300121BA69E2
S2140043D001FA02F21340002BF5D17B79002B0AD0AC
S2140043E000BF084BD3F890300121FA6901FA02F2B7
S2140043F01340002BF5D12037BD4680BD8813010041
S21400440000300E4000400E4090400E4080B584B014
S21400441000AF0346FB71FB79013B032B23D801A2B7
S21400442052F823F03544000059440000414400008F
S2140044304D440000124B1B6AC3F30803FB601AE0EE
S2140044400F4B1B6903F07F03FB6014E00C4B9B696A
S21400445003F07F03FB600EE0094BD3F89C30C3F3F8
S2140044600A03FB6007E00023FB6041F6F1510548B4
S214004470FFF722F800BFFB6818461037BD4680BD20
S21400448000400E408813010080B584B000AF03469C
S2140044903960FB71FB79013B032B00F28C8001A293
S2140044A052F823F0B544000069450000F5440000CA
S2140044B02F4500003B68B3F5007F04D341F6176133
S2140044C04248FEF7F9FF3B68C3F308033B6000BFB2
S2140044D01A213F48FFF70DF80346002BF8D13D4B55
S2140044E01B6A23F4FF7323F001033A493A68134327
S2140044F00B6266E03B687F2B04D941F624613348A3
S214004500FEF7DAFF3B6803F07F033B6000BF18212D
S2140045102F48FEF7EEFF0346002BF8D12D4B1B6904
S21400452023F07F022B493B6813430B6149E03B684D
S2140045307F2B04D941F63F612448FEF7BDFF3B6858
S21400454003F07F033B6000BF19212148FEF7D1FF2F
S2140045500346002BF8D11F4B9B6923F07F021D49B1
S2140045603B6813438B612CE01A4BD3F8903003F072
S2140045700403002B04D041F64E611448FEF79CFF5E
S214004580144B5B6A23F03003124A43F01003536265
S2140045903B68DB0903F00F031846FFF755F9F86090
S2140045A00C4B1A6B0C4B13403A681A430949FB68CC
S2140045B013430B6305E041F668610448FEF77CFF91
S2140045C000BF00BF1037BD4680BD00BF8813010086
S2140045D040410E4000400E4000F8FF0F80B584B00A
S2140045E000AF03460A46FB711346BB71FB79022BEC
S2140045F004D04FF4F4512348FEF75EFFFFF740F96E
S2140046000346002B03D14FF44003FB601BE0BB794D
S214004610202B04D0302B0AD0002B04D00BE04FF414
S2140046200003FB600FE04FF44003FB600BE04FF429
S2140046304003FB6007E0144BFB6041F69B611148AA
S214004640FEF73AFF00BF00BF104BD3F89020FB6880
S2140046501340FA689A42F7D1FB6803F48003002BF4
S2140046600AD00A4BD3F8A03003F48063002B14BFA3
S21400467001230023DBB200E0012318461037BD46B5
S21400468080BD00BF88130100FF33E10700400E40E5
S21400469080B582B000AF0346FB710B46BB71134674
S2140046A07B71FB79022B15D1BB79002B07D00F4B02
S2140046B04FF48062C3F8A8200C4ABB7953667B7916
S2140046C0002B0DD0BA79FB7911461846FFF786FF06
S2140046D0034607E041F6D1610548FEF7EDFE00E02F
S2140046E000BF012318460837BD4680BD00400E4077
S2140046F08813010080B483B000AFEFF310833B60F3
S2140047003B687B6072B67B6818460C37BD465DF822
S214004710047B704780B483B000AF78607B68002B62
S21400472000D162B600BF0C37BD465DF8047B70470B
S21400473080B487B000AFF860B9607A60FB6803F1B8
S2140047400473DA00BB6813449B007B617B697A685C
S2140047501A6000BF1C37BD465DF8047B704780B406
S21400476085B000AF786039607B6803F10473DA00C7
S2140047703B6813449B00FB60FB681B6818461437B5
S214004780BD465DF8047B704780B500AF00BF1221C0
S2140047900348FFF7E4FF0346002BF8D100BF80BDB7
S2140047A004300E4080B500AFFFF7EEFF034B5B68AA
S2140047B01B0C03F00303DBB2184680BD00300E402E
S2140047C080B483B000AF7860044A7B68D36200BFD1
S2140047D00C37BD465DF8047B704700BF00300E40C6
S2140047E080B400AF034B5B6A1846BD465DF8047B99
S2140047F0704700BF00300E4080B483B000AF034661
S214004800FB71FB79C3F10203102202FA03F3184688
S2140048100C37BD465DF8047B7047000080B584B059
S21400482000AF78600B46FB70154BD3F800311B0ABF
S21400483003F01F030133BB607B68002B07D1FBF737
S21400484005FE0246BB6802FB03F3FB6001E07B68E3
S214004850FB600C4B1B78002B09D0FB680A4A93427E
S21400486005D8FB781946022000F010F804E0FB7823
S2140048701946002000F00AF800BF1037BD4680BD7C
S21400488000400E4024950020FF2C310190B587B0E3
S21400489000AF03460A46FB711346BB711F4BD3F8A5
S2140048A000311B0A03F01F0301337B61FBF7CEFDCB
S2140048B03861FFF777FF0346FB73FA7BFB799A4272
S2140048C028D03B697A6902FB03F3BB60FB79022BB5
S2140048D00CD1BB68124A934204D940F2B341114846
S2140048E0FEF7EAFD02213869FEF78EFF0E4CFB79D3
S2140048F01846FFF781FF03462361BB79002B01D0E2
S214004900FFF742FFFB79002B05D100213869FEF73F
S2140049107BFF00E000BF1C37BD4690BD00400E4048
S214004920002D3101C413010000300E4080B400AFEA
S21400493001231846BD465DF8047B704780B582B0FB
S21400494000AF0C4BDB6E0B4A43F08073D36600213E
S2140049500948FFF704FF78607B68002B03D004202B
S21400496000F040FD02E0002000F03CFD00BF0837EC
S214004970BD4680BD00300E404C300E4080B58AB03B
S21400498000AF01237B627B6A1B053B62404BDB6CFE
S2140049901B0A03F00F03FB613E4B1B881A463D4B78
S2140049A01B8828335B08134403F12801FB695A1C53
S2140049B013469B001344B1FBF3F3013BBB61BB6999
S2140049C07B6107233B613A697B69934228BF1346A4
S2140049D0BB61BB691B06BB61BB6923F0E063002BB0
S2140049E004D040F2CE612C48FEF766FD3B6A23F405
S2140049F0E003002B04D040F2CF612748FEF75CFDB1
S214004A00234BDB6C23F0EE62B9693B6A0B4320490B
S214004A101343CB64214BB3F90030002B33DB1F4B21
S214004A20B3F90030FB81FA89FB8928335B0813440D
S214004A3003F12802FB6901335900FB6901335B0867
S214004A400B44B2FBF3F3BB60BB687B6007233B60A1
S214004A503A687B68934228BF1346BB60BB681B015D
S214004A60BB60BB6823F07003002B04D040F2E76104
S214004A700948FEF721FD064B1B6D23F07002044922
S214004A80BB6813430B6500BF2837BD4680BD00BF1B
S214004A9000300E401C950020C41301002095002015
S214004AA080B483B000AF78600B467B807B689AB298
S214004AB0054B1A80054A7B88138000BF0C37BD461D
S214004AC05DF8047B704700BF1C95002020950020F1
S214004AD080B582B000AF0346FB71FB79002B02D095
S214004AE0012B04D007E0094B094A9A6509E0074BF9
S214004AF0084A9A6505E040F213710748FEF7DCFCA9
S214004B0000BF00BF0837BD4680BD00BF00300E4066
S214004B1077402057372110B7C413010080B584B002
S214004B2000AF0346FB710B46BB7113467B71334BDC
S214004B30D3F88031FB60BB79032B1DD801A252F855
S214004B4023F000BF554B00005D4B0000674B000094
S214004B50714B0000FB68DBB2FB6014E0FB681B0ACD
S214004B60DBB2FB600FE0FB681B0CDBB2FB600AE00D
S214004B70FB681B0EFB6006E040F257712048FEF70C
S214004B809BFC002336E07B79002B16D1FB681B03C9
S214004B90FB60FB6823F47043002B06D040F2627182
S214004BA01748FEF789FC002324E0164BDB6E23F43F
S214004BB070421449FB681343CB667B79012B18D1EE
S214004BC0FB681B03FB60FB6823F47043002B06D0D6
S214004BD040F26E710A48FEF76FFC00230AE0094BAC
S214004BE0D3F8EC3023F470420649FB681343C1F84F
S214004BF0EC30012318461037BD4680BDB081E00F6B
S214004C00C413010000300E4080B588B000AFF860D5
S214004C10B96011461A460B46FB711346BB7100235A
S214004C20FB610023BB61BB791B02FA79002A01D025
S214004C30012200E0002213437B617B6940F20112EF
S214004C4093422AD0B3F5817F07D2012B19D0012BCE
S214004C5047D3B3F5807F50D073E040F201229342F1
S214004C6027D040F20122934203D8B3F5007F50D0FC
S214004C7067E0B3F5407F58D040F20132934224D02B
S214004C805FE0384BD3F87431FB61FB691B0ADBB27B
S214004C90BB61FB69DBB2FB6159E0324BD3F8743180
S214004CA0FB61FB691B0EBB61FB691B0CDBB2FB6186
S214004CB04DE02C4BD3F87831FB61FB691B0ADBB265
S214004CC0BB61FB69DBB2FB6141E0264BD3F8783170
S214004CD0FB61FB691B0EBB61FB691B0CDBB2FB6156
S214004CE035E0204BD3F86C31FB61FB691B0ADBB265
S214004CF0BB61FB69DBB2FB6129E01A4BD3F86C3170
S214004D00FB61FB691B0EBB61FB691B0CDBB2FB6125
S214004D101DE0144BD3F87031FB61FB691B0ADBB254
S214004D20BB61FB69DBB2FB6111E00E4BD3F870315F
S214004D30FB61FB691B0EBB61FB691B0CDBB2FB61F5
S214004D4005E040F2D3710848FEF7B6FB00BFFB68EB
S214004D50FA691A60BB68BA691A6000BF2037BD4698
S214004D6080BD00BFB081E00FC413010080B584B0E1
S214004D7000AF0346FB7100BF364B9B6F03F0010389
S214004D80002BF9D1334B1B6C03F00303FB60FB686D
S214004D90002B04D001220D212F48FFF7C9FCFB6829
S214004DA0DBB2FA799A4208D1FB79002B4ED1002269
S214004DB00D212948FFF7BCFC48E0FB68032B02D016
S214004DC0FB68002B20D1FB79022B02D0FB79012B4C
S214004DD01AD14FF40020FFF7F3FC00BF1D4B9B6F6A
S214004DE003F00103002BF9D11A4B1B6C23F00303CD
S214004DF0184A43F00103136400BFFFF7F1FC0346B3
S214004E0003F40023002BF8D000BF124B9B6F03F077
S214004E100103002BF9D10F4B1B6C23F00302FB7927
S214004E200C4913430B6400BF0A4B9B6F03F001034E
S214004E30002BF9D1FB79002B14BF01230023DBB232
S214004E401A460D210448FFF773FC00E000BF103738
S214004E50BD4680BD00300E4054300E4080B584B054
S214004E6000AF78606B4B02229A636A4B9B6B03F031
S214004E700F03022B06D040F66D016748FEF71CFBB9
S214004E800023C3E0FFF752FD7B681B89C82B04D9BB
S214004E9040F677016048FEF70FFB7B689A887B68D0
S214004EA01B899A4204D940F678015B48FEF704FB5A
S214004EB07B68B3F90C30C82B04DD40F67901564800
S214004EC0FEF7FAFA7B685B78012B09D17B689B8832
S214004ED0C82B12D940F67D014F48FEF7EDFA0CE0DC
S214004EE07B685B78022B08D17B689B880A2B04D9E9
S214004EF040F682014848FEF7DFFA7B68DB8842F21C
S214004F001072934204D940F68A014348FEF7D4FA59
S214004F107B68DB884A2B02D80023FB6015E07B68A1
S214004F20DB88B3F5FA7F03D24FF08053FB600CE0CA
S214004F307B68DB8840F6C312934203D84FF00053D9
S214004F40FB6002E04FF04053FB60324BDB6C23F01B
S214004F50405323F001037A68B2F90C20002A01DBE3
S214004F60012100E00021FA680A432A491343CB6472
S214004F70284BD3F8EC30274A43F44073C2F8EC30A1
S214004F80FFF7DCFC7B681B891A467B68B3F90C309C
S214004F9019461046FFF784FD7B689A881F4B1A80D7
S214004FA07B689B88184600F0A9F97B689B7B1846AF
S214004FB0FFF78EFD7B685B8801220121184600F012
S214004FC031F8034683F00103DBB2002B06D040F62F
S214004FD0C1011148FEF770FA002317E00D4BDB6B9A
S214004FE00C4A43F48063D3637B685B781846FFF70C
S214004FF0BDFE7B689B7A202B01D1012300E00023B5
S2140050001A4605210648FFF793FB0123184610377A
S214005010BD4680BD00300E40C41301001E95002022
S2140050203C300E4090B595B000AF78600B46FB70F4
S2140050301346BB700023FB6400237B6407F1240344
S21400504000221A605A609A6007F1180300221A605C
S2140050505A609A6007F10C0300221A605A609A6040
S21400506007F1080300210A461A800A469A707B68F0
S214005070B3F5E16F06D37B6840F6B832934201D8A9
S214005080012300E0002387F8433097F8433003F00D
S214005090010387F8433097F8433083F00103DBB20F
S2140050A0002B06D040F606119148FEF705FA0023BD
S2140050B019E17B68B3F5E16F8CBF0123002387F805
S2140050C0423097F84230002B0AD04FF4E163FB647D
S2140050D040F6B8337B647A6CFB6CD31ABB6409E089
S2140050E04FF49663FB644FF4E1637B647A6CFB6C6D
S2140050F0D31ABB6497F84230002B0BD07D4BD3F805
S21400510068313B623B6A1B0E7B613B6A1B0CDBB261
S2140051103B620AE0774BD3F868313B623B6A1B0A76
S214005120DBB27B613B6ADBB23B62734BDB6C1B0F13
S214005130DBB203F00303DBB23B723B7A97F8422004
S21400514007F10C0107F11800FFF75EFD6A4BD3F874
S214005150EC301B0ADBB203F00303DBB27B727C7A13
S21400516097F8422007F10C03191D07F11803181DC4
S2140051702346FFF749FD7A68FB6CD31A79693A6AC9
S2140051808A1A02FB03F2BB6CB2FBF3F3FB62FA6A09
S2140051903B6A1344FB627A68FB6CD31AF968BA69F7
S2140051A08A1A02FB03F2BB6CB2FBF3F37B627A6AE9
S2140051B0BB6913447B627A68FB6CD31A3969FA6957
S2140051C08A1A02FB03F2BB6CB2FBF3F3BB62BA6A49
S2140051D0FB691344BB62FA6A7B699A4213D8FA6A7F
S2140051E03B6A9A420FD3BA6A3B699A420BD8BA6AAC
S2140051F0FB699A4207D37A6AFB689A4203D87A6AAE
S214005200BB699A4206D240F654113948FEF754F963
S214005210002368E0BB78002B12D0374BDB6D23F4FD
S214005220FE4323F00203FA6A1202134397F8422061
S214005230002A01D0022200E000222F491343CB654A
S214005240FB78002B4ED0397A97F842300022184669
S214005250FFF764FC034683F00103DBB2002B06D0A5
S21400526040F663112248FEF727F900233BE0797ADF
S21400527097F8423001221846FFF750FC034683F0A9
S2140052800103DBB2002B06D040F66B111848FEF780
S21400529013F9002327E07B6AFB63BB6ABB63BA6B28
S2140052A0FB6B934238BF13467B627B6A7B63E723C4
S2140052B03B633A6B7B6B934228BF13467B620E4B75
S2140052C05B6E23F4FF7323F001037A6A52001343E4
S2140052D097F84220002A01D0012200E00022064969
S2140052E013434B66012318465437BD4690BD00BF96
S2140052F0C4130100B081E00F00300E4080B584B0CA
S21400530000AF78600023FB60344B1B6F03F007038D
S214005310BB60324BDB6C03F00103002B14D0BB6880
S214005320012B11D97B68132B02D80423FB603DE0C8
S2140053307B68132B05D97B68272B02D80823FB60D4
S21400534034E01023FB6031E0244BDB6C03F00103F8
S214005350002B14D1BB68012B11D87B68092B02D80F
S2140053600423FB6022E07B68092B05D97B68132B9E
S21400537002D80823FB6019E01023FB6016E0174BE9
S214005380DB6C03F00103002B0BD0BB68012B08D8A5
S2140053907B68272B02D80823FB6007E01023FB60FE
S2140053A004E040F6A9110E48FEF786F8FB68013BBC
S2140053B0FB60FB681A02FB681B031343FB60074B8A
S2140053C0DB6C23F47F420549FB681343CB64FFF78D
S2140053D0D5FA00BF1037BD4680BD00BF00300E4076
S2140053E0C413010080B584B000AF0346FB710021F2
S2140053F01148FFF7B4F9F860FB68002B02D1FB797F
S214005400012B07D9FB68002B04D140F6C8110B48C6
S214005410FEF752F80A4B1B6F23F00702FB79084988
S21400542013430B67074B1B881846FFF767FF00BF41
S2140054301037BD4680BD00BF4C300E40C41301007F
S21400544000300E401E95002080B487B000AFF86094
S214005450B9607A60FB6803F10473DA00BB68134432
S2140054609B007B617B697A681A6000BF1C37BD466B
S2140054705DF8047B704780B485B000AF7860396013
S2140054807B6803F1C063FB60FB683A681A6000BF84
S2140054901437BD465DF8047B704780B485B000AF16
S2140054A0786039607B6803F18063FB60FB683A686C
S2140054B01A6000BF1437BD465DF8047B704780B5A0
S2140054C084B000AFF860B9607A60B968F868FFF732
S2140054D0E4FF7968F868FFF7CEFF00BF1037BD46D7
S2140054E080BD000080B483B000AF7860044A7B685B
S2140054F0C2F8243400BF0C37BD465DF8047B704705
S21400550000A0004080B582B000AF03463960FB7152
S214005510FB79002B38D0FB79012B32D0FB79022B9C
S2140055202CD0FB79032B26D0FB79042B21D0FB79DA
S214005530052B1BD0FB79062B16D0FB79072B11D039
S214005540FB79082B0CD0FB79092B06D0FB790A2BAC
S21400555001D107231AE0002318E04FF4404315E07A
S2140055600F2313E0002311E000230FE04FF6FF7334
S2140055700CE000230AE04FF47F4307E040F6FF7399
S21400558004E04FF6C07301E040F2FF333A6813417F
S21400559003F00103002B04D140F2DD310C48FDF787
S2140055A08BFFFA7913465B0013441B010C3303F19F
S2140055B0804303F5204301213A6801FA02F21146BE
S2140055C01846FFF76AFF00BF0837BD4680BD00BF1C
S2140055D0D813010080B582B000AF03463960FB7176
S2140055E0FB79002B38D0FB79012B32D0FB79022BCC
S2140055F02CD0FB79032B26D0FB79042B21D0FB790A
S214005600052B1BD0FB79062B16D0FB79072B11D068
S214005610FB79082B0CD0FB79092B06D0FB790A2BDB
S21400562001D107231AE0002318E04FF4404315E0A9
S2140056300F2313E0002311E000230FE04FF6FF7363
S2140056400CE000230AE04FF47F4307E040F6FF73C8
S21400565004E04FF6C07301E040F2FF333A681341AE
S21400566003F00103002B04D140F20C410C48FDF777
S21400567023FFFA7913465B0013441B010C3303F136
S214005680804303F5204301213A6801FA02F21146ED
S2140056901846FFF7F0FE00BF0837BD4680BD00BFC6
S2140056A0D813010080B582B000AF03463960FB71A5
S2140056B0FB79002B1DD0FB79012B1AD0FB79022B2E
S2140056C017D0FB79032B14D0FB79042B16D0FB796B
S2140056D0052B0ED0FB79062B10D0FB79072B0DD0AF
S2140056E0FB79082B05D0FB79092B02D0FB790A2B16
S2140056F004D13B6823F00113002B03D083210B4811
S214005700FDF7DAFEFA7913465B0013441B0103F13A
S214005710804303F520433A684FF001111846FFF71F
S214005720CEFE00BF0837BD4680BD00BF5014010046
S21400573080B586B000AFB9607A601A460346FB7340
S2140057401346BB7300237B61FB7B002B38D0FB7BAF
S214005750012B32D0FB7B022B2CD0FB7B032B26D0DD
S214005760FB7B042B21D0FB7B052B1BD0FB7B062B66
S21400577016D0FB7B072B11D0FB7B082B0CD0FB7BBA
S214005780092B06D0FB7B0A2B01D107231AE0002346
S21400579018E04FF4404315E00F2313E0002311E018
S2140057A000230FE04FF6FF730CE000230AE04FF4EF
S2140057B07F4307E040F6FF7304E04FF6C07301E056
S2140057C040F2FF33BA68134103F00103002B03D104
S2140057D0C5213A48FDF770FE7A68BB68534023F04F
S2140057E00303002B03D0C7213448FDF765FE7B6812
S2140057F0072B0ED87B689B000F2202FA03F1FA7B78
S2140058007B689B0002FA03F31A462D48FFF757FE03
S21400581010E07B68083B7B617B699B000F2202FAE5
S21400582003F1FA7B7B699B0002FA03F31A462548CC
S214005830FFF745FE7B68072B10D87B689B0003228A
S21400584002FA03F1BB6803F003027B689B0002FACE
S21400585003F31A461C48FFF732FE0FE07B699B00F5
S214005860032202FA03F1BB6803F003027B699B0084
S21400587002FA03F31A461548FFF721FEBB7B1A46C9
S21400588079681348FFF7E0FD97F820301A467968E4
S2140058901048FFF7D9FD01227B6802FA03F3184689
S2140058A0FFF720FE97F824301A4679680A48FFF773
S2140058B0CBFD00BF1837BD4680BD00BF50140100A9
S2140058C000A4004004A4004008A400400CA400402B
