:1000000000000420D50200000103000001030000ED
:1000100001030000010300000103000001030000D0
:1000200001030000010300000103000001030000C0
:10003000010300000003000083A8000047AB00009C
:1000400001030000010300000103000001030000A0
:100050000103000001030000010300000103000090
:1000600001030000010300008FAC0000A5040000A4
:100070000103000001030000010300000103000070
:1000800001030000010300009BAC0000010300001D
:100090000103000001030000010300000103000050
:1000A0000103000001030000010300000103000040
:1000B0000103000001030000010300000103000030
:1000C0000103000001030000010300000103000020
:1000D0000103000001030000010300000103000010
:1000E0000103000001030000010300000103000000
:1000F00001030000010300000103000001030000F0
:1001000001030000010300000103000010B5054CCD
:10011000237833B9044B13B10448AFF300800123B3
:10012000237010BD340100200000000048F00000E2
:1001300008B5034B1BB103490348AFF3008008BD6A
:10014000000000003801002048F00000154B002B93
:1001500008BF134B9D46A3F5803A00218B460F46FE
:100160001348144A121A0BF0BAFB0F4B002B00D0A5
:1001700098470E4B002B00D0984700200021040028
:100180000D000D48002802D00C48AFF300800BF0A2
:1001900077FB200029000BF073F80BF05DFB00BF2C
:1001A0000000080000000420000000000000000023
:1001B00034010020A47B00200000000000000000AB
:1001C00080B582B000AF0121104803F0A7FB0121E8
:1001D0000F4803F0A3FB00237B600FE00D4A7B6810
:1001E00012F833000B4A7B68DB0013445968002384
:1001F000042205F06DFA7B6801337B607B68012B7C
:10020000ECDD002318460837BD4680BD404105009F
:1002100000350A001CB9000080B483B000AF054B64
:100220001B687B607B6818460C37BD465DF8047B15
:10023000704700BF041000E0B0B586B000AF786032
:1002400000F060F803464FF00004C7E904347B680F
:100250001C464FF00005D7E904010B4A4FF000039C
:100260000BF07AF902460B46204629460BF074F94A
:1002700003460C46C7E90234D7E902341846214642
:100280001837BD46B0BD00BF40420F0080B582B0F8
:1002900000AFFFF795FF00F035F87860786802F05E
:1002A00063FF00BF0837BD4680BD80B582B000AF98
:1002B00000F028F8786001F0FFFF02467B68B3FB8E
:1002C000F2F33B6038680AF051FC00BF0837BD46C6
:1002D00080BD0000064880470649074A074B9A42FE
:1002E000BEBF51F8040B42F8040BF8E7FFF72EFFEE
:1002F000E103000054F00000000000203401002061
:10030000FEE700BF80B582B000AF00F025F878604E
:100310000A4BD3F808311B0AC3F308033B603B6860
:1003200001337A68B2FBF3F37B60054A7B681360A4
:100330007B6818460837BD4680BD00BF00400E40B0
:100340000800002080B400AF024B1846BD465DF89F
:10035000047B7047005A620280B483B000AF164B32
:10036000D3F8943003F00703032B08D0042B02D0FA
:10037000022B08D00BE0114B1B687B600BE04FF4A5
:1003800000437B6007E00E4B1B687B6003E00D4B76
:100390001B687B6000BF084BD3F800311B0A03F0D9
:1003A0001F0301337A68B2FBF3F318460C37BD46DE
:1003B0005DF8047B704700BF00400E400400002041
:1003C000000000200C00002080B400AF034B1B682D
:1003D0001846BD465DF8047B704700BF0000002052
:1003E00080B400AF074B084A9A60064BD3F88830B8
:1003F000044A43F47003C2F8883000BFBD465DF87C
:10040000047B704700ED00E00000000080B400AF06
:100410004FF400431846BD465DF8047B704780B436
:1004200000AF4FF47A731846BD465DF8047B704701
:1004300080B400AF034B1B681846BD465DF8047BD3
:10044000704700BF0400002080B483B000AF0346B3
:10045000FB7197F90730002B0BDBFB7903F01F02D0
:10046000074997F907305B09012000FA02F241F8C9
:10047000232000BF0C37BD465DF8047B704700BFEA
:1004800000E100E080B400AF054B1B69044A23F093
:100490000403136130BF00BFBD465DF8047B7047A5
:1004A00000ED00E080B483B000AF174B02225A6029
:1004B000164B02225A60144B01225A61134B5B6A9D
:1004C0007B60134B1B78DBB21946124A7B6842F8FB
:1004D00021300F4B1B78DBB21A460F4B53F82230FA
:1004E0007A689A4207D90A4B1B78DBB219460A4A46
:1004F0007B6842F82130094B01221A7000BF0C378B
:10050000BD465DF8047B70470080014000840140D7
:1005100050010020540100206401002051010020FE
:1005200080B485B000AF0346FB71FB790D4A52F8E9
:100530002330FB60FB790B4A52F823309B08FA68A2
:10054000D31AFB60FB79084A52F82330FA689A42C2
:1005500001D9012300E0002318461437BD465DF899
:10056000047B7047640100205401002080B582B0F4
:1005700000AF0346FB71FB7919464FF0804002F053
:10058000AFFE0F4B00225A620E4B00225A620E4BF6
:1005900000221A700A4B01225A600A4B01225A604B
:1005A00001E0FFF76FFF084B1B78DBB283F001031C
:1005B000DBB2002BF5D100BF0837BD4680BD00BFC0
:1005C00000800140008401405101002080B500AF4F
:1005D0004FF0804002F0C6FE0F4B00221A700FE071
:1005E0000D4B1B78DBB21A460C4B9B5C1846FFF791
:1005F000BDFF094B1B78DBB20133DAB2064B1A7030
:10060000054B1B78DBB2032BEAD94FF0804002F098
:1006100089FE00BF80BD00BF500100202CB9000042
:10062000B0B586B000AF224B3C461D460FCD0FC47F
:1006300095E8030084E8030001211E4803F06EF9E9
:1006400001211D4803F06AF901211C4803F066F9F5
:1006500001211B4803F062F901211A4803F05EF9F9
:10066000194B4FF010621A60174B0A22DA61164BD1
:1006700001229A61144B00225A62144B144A1A60E8
:10068000124B4FF6FF72DA61104B124A1A67124B87
:10069000124A1A653B4619464FF0804002F0C2FDEF
:1006A0000B20FFF7D1FE00BF1837BD46B0BD00BF1D
:1006B00030B90000404105000002040000120400AF
:1006C00000A2040000450A000080014000840140AF
:1006D0000000010A0100002A00600E400003100023
:1006E00080B582B000AF1F4B7B607B6802221A612D
:1006F0007B6802225A617B681B4A9A617B681B4AAD
:10070000DA617B684FF480621A627B6800229A6229
:100710007B6800225A627B680022DA627B68124A98
:100720009A647B68124ADA647B6810221A657B68D7
:1007300000229A657B6800225A657B680022DA6590
:100740007B6807330B4918460BF0D1F87B680A49E0
:1007500018460BF0CCF87B6820229A7100BF08374E
:10076000BD4680BD6453002048B9000074010020DC
:100770007405002054B9000058B9000080B58AB053
:1007800000AFF860B9607A603C4B1B78002B01D158
:10079000FFF7A6FFFA6813465B001344DB004833FB
:1007A000364A1344BB61BB68FB61BB691B693B6292
:1007B000BB69DB687B6100237B623A6A7B699A4292
:1007C0002AD9BB699A683B6AD31A3B613A697B684C
:1007D000934228BF13463B61BB695A683B6A134486
:1007E0003A691946F8690BF06FF87A6A3B69134465
:1007F0007B62FA693B691344FB617A683B69D31AEF
:100800007B603A6A3B6913443B62BB699B683A6A06
:100810009A4201D100233B627A693B6AD31A3B6159
:100820003A697B68934228BF13463B613B69002BC2
:1008300018D0BB695A683B6A13443A691946F8698B
:100840000BF042F87A6A3B6913447B62FA693B69B0
:100850001344FB617A683B69D31A7B603A6A3B694F
:1008600013443B627B6A002B02D0BB693A6A1A616F
:100870007B6A18462837BD4680BD00BF6453002000
:1008800080B58AB000AFF860B9607A60BB687B62FF
:10089000FB685A1C13465B001344DB003F4A1344B9
:1008A0003B623B6A1B69FB613B6ADB68BB61FA69BF
:1008B000BB699A4254D83B6A9A68BB69D31A013B18
:1008C0007B617A697B689A420FD33B6A5A68BB693D
:1008D00013447A68796A18460AF0F6FFBA697B68A9
:1008E0001A443B6ADA60012354E07A69FB691344D5
:1008F0007B617A697B689A424BD33B6A9A68BB6991
:10090000D31A3B613A697B689A420ED93B6A5A68AE
:10091000BB6913447A68796A18460AF0D5FFBA6948
:100920007B681A443B6ADA6018E03B6A5A68BB6924
:1009300013443A69796A18460AF0C6FF3B6A586858
:100940007A6A3B69D1187A683B69D31A1A460AF069
:10095000BBFF7A683B69D21A3B6ADA60012319E06F
:10096000FA69BB69D31A013B7B617A697B689A4259
:100970000FD33B6A5A68BB6913447A68796A184690
:100980000AF0A2FFBA697B681A443B6ADA60012365
:1009900000E0002318462837BD4680BD6453002080
:1009A00080B586B000AFF860B9607A603B602E4BCE
:1009B0001B78002B01D1FFF793FE2B4B1B691A46C6
:1009C000FB68934248D203F08DFE3861FB68002B30
:1009D00032D02549FB685A1C13465B001344DB00E8
:1009E0000B44BA681A602049FB685A1C13465B0026
:1009F0001344DB000B4404337A681A601A49FA681E
:100A000013465B001344DB000B4420333A681A6042
:100A10001549FA6813465B001344DB000B44283386
:100A200000221A601049FA6813465B001344DB0089
:100A30000B44243300221A600B49FA6813465B000A
:100A40001344DB000B442C333A6A1A60386903F014
:100A500059FE00237B6102E04FF0FF337B617B692D
:100A600018461837BD4680BD6453002080B586B057
:100A700000AFF860B9607A603B602E4B1B78002BAA
:100A800001D1FFF72DFE2B4B5B691A46FB689342A1
:100A900047D203F027FE3861FB68002B31D025498F
:100AA000FA6813465B001344DB000B444833BA6812
:100AB0001A602049FA6813465B001344DB000B44BC
:100AC0004C337A681A601B49FA6813465B0013447A
:100AD000DB000B4450333A681A601649FA68134633
:100AE0005B001344DB000B44583300221A601149A9
:100AF000FA6813465B001344DB000B4454330022B6
:100B00001A600C49FA6813465B001344DB000B447F
:100B10005C333A6A1A60386903F0F4FD00237B61A4
:100B200002E04FF0FF337B617B6918461837BD4602
:100B300080BD00BF6453002080B487B000AFF86070
:100B4000B9607A6000233B6102E03B6901333B619D
:100B5000BA683B6913441B78002BF6D13A697B686D
:100B60009A4201D97B683B613B69FE2B06D8FB6842
:100B70005A1CFA603A69D2B21A7011E0FB685A1C2A
:100B8000FA60FF221A70FB685A1CFA603A69D2B206
:100B90001A703B69190AFB685A1CFA60CAB21A70CB
:100BA00000237B610AE0BA68531CBB60FB68591CD8
:100BB000F96012781A707B6901337B617A693B694D
:100BC0009A42F0D3FB6818461C37BD465DF8047B9B
:100BD000704780B483B000AF78607B6804331846F8
:100BE0000C37BD465DF8047B704780B582B000AF1E
:100BF000FB1C012219460120FFF7C0FD03467B6064
:100C00007B68002B44DDFB78042B1AD0042B06DC18
:100C1000022B10D0022B11DC012B09D02DE0062B6A
:100C200015D0062B10DB072B14D0802B15D024E019
:100C300000F07CFA31E000F02DFB2EE000F0F8FC33
:100C40002BE000F0C1FC28E000F046FB25E000F0BE
:100C500099FF22E000F078FF1FE0FB1C01221946FB
:100C60000120FFF78BFD03467B607B68002B11DDC5
:100C7000FB78184600F0ECFE0CE0FB785BB2002B32
:100C80000ADAFB1C012219460120FFF777FD03E079
:100C900000BF02E000BF00E000BF00BF0837BD4654
:100CA00080BD000080B58CB000AF01233B713B1DBF
:100CB0000133FB61FB69FB62334B5B69BB620BE099
:100CC000BB6ADAB2FB6A591CF96262F07F02D2B2E7
:100CD0001A70BB6ADB09BB62BB6A7F2BF0D8FB6A68
:100CE0005A1CFA62BA6AD2B21A70FB6AFB61274BCD
:100CF0001B68BB61244BDB68BA69D31A7B617B69D3
:100D00001B017B617B691B117B61FB697B627B69DA
:100D10003B620BE03B6ADAB27B6A591C796262F093
:100D20007F02D2B21A703B6ADB093B623B6A7F2BBF
:100D3000F0D87B6A5A1C7A623A6AD2B21A707B6A1D
:100D4000FB61FA693B1DD31A1A463B1D1946012067
:100D5000FFF796FD03463B613B69002B09D00A4A29
:100D6000BB69D360084B1B78013BDAB2064B1A70A3
:100D700004E0054B5B690133034A53613B69184644
:100D80003037BD4680BD00BF8C150020041000E048
:100D900080B58AB000AFF860B9607A60654B1B78A7
:100DA000012B10D0634B1B78002B00F0A780614B08
:100DB0001B78022B09D1FFF775FF5E4B1B78012BC7
:100DC00040F09E8001E000BF00E000BF7B681F2B69
:100DD00009D8584BDA697B6822FA03F303F0010360
:100DE000002B40F08F807B68172B07D8FB68013BF6
:100DF000FB607B68DAB2FB681A703DE0BA68FB689A
:100E0000D31AFB61FB697F2B12D9FB69DA09FB68F6
:100E1000013BFB60D2B2FB681A70FB69DBB2FA6877
:100E2000013AFA6063F07F03DAB2FB681A7006E0F9
:100E3000FB68013BFB60FB69DAB2FB681A707B68F8
:100E40007F2B12D97B68DA09FB68013BFB60D2B2C9
:100E5000FB681A707B68DBB2FA68013AFA6063F0EB
:100E60007F03DAB2FB681A7006E0FB68013BFB60A7
:100E70007B68DAB2FB681A702F4B1B68BB612D4B85
:100E8000DB68BA69D31A7B617B691B017B617B6973
:100E90001B097B61BB687B627B693B620BE03B6A41
:100EA000DAB27B6A591C796262F07F02D2B21A70A0
:100EB0003B6ADB093B623B6A7F2BF0D87B6A5A1C9A
:100EC0007A623A6AD2B21A707B6ABB60BA68FB680F
:100ED000D31A1A46F9680120FFF7D2FC03463B619A
:100EE0003B69002B03D0134ABB69D3600BE0114B65
:100EF0001B780133DAB20F4B1A7004E000BF02E036
:100F000000BF00E000BF0D4BDA6E0C4B1B6F9A4226
:100F10000BD0084B9B78002B07D1064B01229A700F
:100F2000FFF763FE034B00229A7000BF2837BD46CF
:100F300080BD00BF8C150020041000E06453002029
:100F400080B586B002AFF860B9607A603B6000237C
:100F500000934FF48053144A14490120FFF720FDF9
:100F6000002300930823124A10490120FFF77EFD59
:100F7000104B4FF080521A610F4B1B680D4AD36023
:100F80000C4A7B6813620B4AFB685360094ABB68D2
:100F90009360084A3B685362064B00221A7000BFF8
:100FA0001037BD4680BD00BF840500206CB900002D
:100FB000841500208C150020041000E080B483B05C
:100FC00000AF7860044A7B68136100BF0C37BD46F0
:100FD0005DF8047B704700BF8C15002080B584B09D
:100FE00000AF786003F07EFBF8600848FFF7F1FD82
:100FF000B8607A68B968B868FFF7CAFEF86803F0A5
:1010000081FB00BF1037BD4680BD00BFBC1500206E
:1010100080B588B000AF7860396003F063FB786119
:101020001648FFF7D6FD38613B69FB60FB68FB6142
:101030003B68BB610BE0BB69DAB2FB69591CF96123
:1010400062F07F02D2B21A70BB69DB09BB61BB6977
:101050007F2BF0D8FB695A1CFA61BA69D2B21A70B8
:10106000FB69FB607A68F9683869FFF791FE786977
:1010700003F048FB00BF2037BD4680BDBC150020F3
:1010800080B58CB000AFF860B9607A6003F02AFBDD
:10109000F8612548FFF79DFDB861BB697B617B69FD
:1010A000FB62BB68BB620BE0BB6ADAB2FB6A591C2D
:1010B000F96262F07F02D2B21A70BB6ADB09BB62CE
:1010C000BB6A7F2BF0D8FB6A5A1CFA62BA6AD2B2AA
:1010D0001A70FB6A7B617B697B627B683B620BE019
:1010E0003B6ADAB27B6A591C796262F07F02D2B243
:1010F0001A703B6ADB093B623B6A7F2BF0D87B6A44
:101100005A1C7A623A6AD2B21A707B6A7B61FA68B8
:101110007969B869FFF73CFEF86903F0F3FA00BF9C
:101120003037BD4680BD00BFBC15002080B58CB0F7
:1011300000AF554B1B78002B40F0A280524B012290
:101140001A7003F0CFFAF8600A2250490120FFF725
:1011500097FBF86803F0D6FA0A20FFF73FFF03F089
:10116000C1FAB8604A48FFF734FD78607B683B609D
:101170003B68FB62444B5B68BB620BE0BB6ADAB264
:10118000FB6A591CF96262F07F02D2B21A70BB6A24
:10119000DB09BB62BB6A7F2BF0D8FB6A5A1CFA6280
:1011A000BA6AD2B21A70FB6A3B603B687B62364B0C
:1011B0009B683B620BE03B6ADAB27B6A591C79623E
:1011C00062F07F02D2B21A703B6ADB093B623B6A73
:1011D0007F2BF0D87B6A5A1C7A623A6AD2B21A70B4
:1011E0007B6A3B603B68FB61274B1B69BB610BE083
:1011F000BB69DAB2FB69591CF96162F07F02D2B2B5
:101200001A70BB69DB09BB61BB697F2BF0D8FB6936
:101210005A1CFA61BA69D2B21A70FB693B603B682A
:101220007B6102233B610BE03B69DAB27B69591CAD
:10123000796162F07F02D2B21A703B69DB093B61CF
:101240003B697F2BF0D87B695A1C7A613A69D2B22C
:101250001A707B693B60182239687868FFF798FD3F
:10126000B86803F04FFA084B5B6A002B02D0064BBC
:101270005B6A984700F0DCF900F0A6F900F082FC08
:1012800000BF3037BD4680BD8C15002060B900001E
:10129000BC15002080B582B000AF03F023FA78605F
:1012A0000B48FFF796FC38600A4B1B78002B07D0E1
:1012B0000B2239683868FFF76BFD064B00221A7065
:1012C000786803F01FFA00BF0837BD4680BD00BF35
:1012D000BC1500208C15002080B58CB000AF03F049
:1012E00001FAF8604548FFF774FCB860BB687B60A2
:1012F0007B68FB62424B5B68BB620BE0BB6ADAB2A5
:10130000FB6A591CF96262F07F02D2B21A70BB6AA2
:10131000DB09BB62BB6A7F2BF0D8FB6A5A1CFA62FE
:10132000BA6AD2B21A70FB6A7B607B687B62344B0C
:101330009B683B620BE03B6ADAB27B6A591C7962BC
:1013400062F07F02D2B21A703B6ADB093B623B6AF1
:101350007F2BF0D87B6A5A1C7A623A6AD2B21A7032
:101360007B6A7B607B68FB61254B1B69BB610BE083
:10137000BB69DAB2FB69591CF96162F07F02D2B233
:101380001A70BB69DB09BB61BB697F2BF0D8FB69B5
:101390005A1CFA61BA69D2B21A70FB697B607B6829
:1013A0007B6102233B610BE03B69DAB27B69591C2C
:1013B000796162F07F02D2B21A703B69DB093B614E
:1013C0003B697F2BF0D87B695A1C7A613A69D2B2AB
:1013D0001A707B697B6018227968B868FFF7D8FCBF
:1013E000F86803F08FF9064B5B6A002B02D0044BC0
:1013F0005B6A984700BF3037BD4680BDBC150020F2
:101400008C15002080B592B000AF786003F06AF9C7
:1014100078616B48FFF7DDFB38613B69FB60FB6877
:101420007B647B681A68674B1B69D31A9B083B6413
:101430000BE03B6CDAB27B6C591C796462F07F0282
:10144000D2B21A703B6CDB093B643B6C7F2BF0D84B
:101450007B6C5A1C7A643A6CD2B21A707B6CFB605B
:10146000FB68FB637B689B68BB630BE0BB6BDAB21A
:10147000FB6B591CF96362F07F02D2B21A70BB6B2E
:10148000DB09BB63BB6B7F2BF0D8FB6B5A1CFA6389
:10149000BA6BD2B21A70FB6BFB607B685B68202270
:1014A0001946F868FFF748FBF8600922F9683869BF
:1014B000FFF76EFC3B69FB60FB687B637B681A6827
:1014C000404B1B69D31A9B083B630BE03B6BDAB2C2
:1014D0007B6B591C796362F07F02D2B21A703B6B4E
:1014E000DB093B633B6B7F2BF0D87B6B5A1C7A6329
:1014F0003A6BD2B21A707B6BFB60FB68FB627B6855
:10150000DB68BB620BE0BB6ADAB2FB6A591CF962AA
:1015100062F07F02D2B21A70BB6ADB09BB62BB6A9F
:101520007F2BF0D8FB6A5A1CFA62BA6AD2B21A70E0
:10153000FB6AFB60FB687B627B681B693B620BE0BC
:101540003B6ADAB27B6A591C796262F07F02D2B2DE
:101550001A703B6ADB093B623B6A7F2BF0D87B6ADF
:101560005A1C7A623A6AD2B21A707B6AFB60FB68D4
:10157000FB610023BB610BE0BB69DAB2FB69591C5C
:10158000F96162F07F02D2B21A70BB69DB09BB61FC
:10159000BB697F2BF0D8FB695A1CFA61BA69D2B2D9
:1015A0001A70FB69FB601522F9683869FFF7F0FBD8
:1015B000786903F0A7F800BF4837BD4680BD00BF7B
:1015C000BC1500208C15002080B500AF074B1B6AAE
:1015D000002B08D0054B1B6A5B68002B03D0034B24
:1015E0001B6A5B68984700BF80BD00BF8C15002058
:1015F00080B586B000AF786003F074F878610B486E
:10160000FFF7E7FA3861802279683869FFF794FAC2
:10161000F8600E22F9683869FFF7BAFB786903F0C1
:1016200071F800BF1837BD4680BD00BFBC15002053
:1016300090B583B000AF144B1B6A002B19D0124B2E
:101640001B6A1B68002B14D00F4B1B6A1B68984742
:10165000C7E900013868D7E900124FF000034FF0E6
:101660000004130000241A4601460D20FFF708FD70
:1016700005E0064B1B6819460C20FFF7C9FC00BFAC
:101680000C37BD4690BD00BF8C150020041000E053
:1016900080B586B000AF03F025F8F8601948FFF771
:1016A00098FAB860BB687B60174B1B68C3F30803EC
:1016B0003B607B687B613B683B610BE03B69DAB276
:1016C0007B69591C796162F07F02D2B21A703B6962
:1016D000DB093B613B697F2BF0D87B695A1C7A613F
:1016E0003A69D2B21A707B697B6002227968B86865
:1016F000FFF74EFBF86803F005F800BF1837BD464A
:1017000080BD00BFBC15002004ED00E080B582B0B4
:1017100000AF02F0E7FF78600748FFF75AFA386039
:10172000032239683868FFF733FB786802F0EAFF74
:1017300000BF0837BD4680BDBC15002080B582B013
:1017400000AF02F0CFFF78600748FFF742FA386039
:10175000112239683868FFF71BFB786802F0D2FF66
:1017600000BF0837BD4680BDBC15002080B588B0DD
:1017700000AF786002F0B6FF78611A48FFF729FAE7
:1017800038613B69FB60184B1B697A68D31A9B0868
:101790007B60FB68FB617B68BB610BE0BB69DAB215
:1017A000FB69591CF96162F07F02D2B21A70BB6901
:1017B000DB09BB61BB697F2BF0D8FB695A1CFA615E
:1017C000BA69D2B21A70FB69FB600822F9683869FD
:1017D000FFF7DEFA786902F095FF00BF2037BD46BB
:1017E00080BD00BFBC1500208C15002080B588B0DE
:1017F00000AF786002F076FF78611A48FFF7E9F9E8
:1018000038613B69FB60184B1B697A68D31A9B08E7
:101810007B60FB68FB617B68BB610BE0BB69DAB294
:10182000FB69591CF96162F07F02D2B21A70BB6980
:10183000DB09BB61BB697F2BF0D8FB695A1CFA61DD
:10184000BA69D2B21A70FB69FB600422F968386980
:10185000FFF79EFA786902F055FF00BF2037BD46BA
:1018600080BD00BFBC1500208C15002080B588B05D
:1018700000AF786002F036FF78611A48FFF7A9F9E7
:1018800038613B69FB60184B1B697A68D31A9B0867
:101890007B60FB68FB617B68BB610BE0BB69DAB214
:1018A000FB69591CF96162F07F02D2B21A70BB6900
:1018B000DB09BB61BB697F2BF0D8FB695A1CFA615D
:1018C000BA69D2B21A70FB69FB600622F9683869FE
:1018D000FFF75EFA786902F015FF00BF2037BD46BA
:1018E00080BD00BFBC1500208C15002080B58AB0DB
:1018F00000AF7860396002F0F5FE78612748FFF7A5
:1019000068F938613B69FB60254B1B697A68D31A1B
:101910009B087B60FB687B627B683B620BE03B6AF9
:10192000DAB27B6A591C796262F07F02D2B21A7015
:101930003B6ADB093B623B6A7F2BF0D87B6A5A1C0F
:101940007A623A6AD2B21A707B6AFB60FB68FB610A
:101950003B68BB610BE0BB69DAB2FB69591CF961FA
:1019600062F07F02D2B21A70BB69DB09BB61BB694E
:101970007F2BF0D8FB695A1CFA61BA69D2B21A708F
:10198000FB69FB600722F9683869FFF701FA78699B
:1019900002F0B8FE00BF2837BD4680BDBC15002050
:1019A0008C15002080B588B000AF7860396002F0F7
:1019B00099FE78611B48FFF70CF938613B69FB60C1
:1019C000FB68FB61184B1B697A68D31A9B08BB61E3
:1019D0000BE0BB69DAB2FB69591CF96162F07F0266
:1019E000D2B21A70BB69DB09BB61BB697F2BF0D82F
:1019F000FB695A1CFA61BA69D2B21A70FB69FB60C2
:101A000080223968F868FFF797F8F8601922F968BA
:101A10003869FFF7BDF9786902F074FE00BF20371E
:101A2000BD4680BDBC1500208C15002080B483B05D
:101A300000AF7860054B1B697A68D31A9B0818467B
:101A40000C37BD465DF8047B704700BF8C15002045
:101A500080B58CB000AF0346FB71394B1B68002B7F
:101A600069D0374B1B68FB620023BB6208E0FB6A4E
:101A70001B69FB62FB6A002B07D0BB6A0133BB62A8
:101A8000FB79BA6A9A42F2D300E000BFFB6A002BEE
:101A900051D002F027FE78612A48FFF79AF83861A2
:101AA0003B69FB60FB687B62FB793B620BE03B6A56
:101AB000DAB27B6A591C796262F07F02D2B21A7084
:101AC0003B6ADB093B623B6A7F2BF0D87B6A5A1C7E
:101AD0007A623A6AD2B21A707B6AFB60FB68FB6179
:101AE000FB6A9B68BB610BE0BB69DAB2FB69591CFE
:101AF000F96162F07F02D2B21A70BB69DB09BB6187
:101B0000BB697F2BF0D8FB695A1CFA61BA69D2B263
:101B10001A70FB69FB60FB6A1B6880221946F86833
:101B2000FFF70AF8F8601622F9683869FFF730F90C
:101B3000786902F0E7FD00BF3037BD4680BD00BFC9
:101B4000B4150020BC15002080B582B000AF0C4B4E
:101B50001B68002B0FD00A4B1B687B607B68DB681F
:101B6000002B02D07B68DB6898477B681B697B6031
:101B70007B68002BF2D100BF0837BD4680BD00BF97
:101B8000B415002080B586B000AF02F0ABFDF86060
:101B90001748FFF71EF8B860BB687B607B687B6105
:101BA000144B1B783B610BE03B69DAB27B69591C33
:101BB000796162F07F02D2B21A703B69DB093B6146
:101BC0003B697F2BF0D87B695A1C7A613A69D2B2A3
:101BD0001A707B697B601B227968B868FFF7D8F8B8
:101BE000F86802F08FFD00BF1837BD4680BD00BF0A
:101BF000BC150020B815002080B58AB000AF786011
:101C000002F070FD78612748FEF7E3FF386180221B
:101C100079683869FEF790FFF860FB687B62012302
:101C20003B620BE03B6ADAB27B6A591C796262F074
:101C30007F02D2B21A703B6ADB093B623B6A7F2BA0
:101C4000F0D87B6A5A1C7A623A6AD2B21A707B6AFE
:101C5000FB60FB68FB610023BB610BE0BB69DAB290
:101C6000FB69591CF96162F07F02D2B21A70BB693C
:101C7000DB09BB61BB697F2BF0D8FB695A1CFA6199
:101C8000BA69D2B21A70FB69FB601A22F968386926
:101C9000FFF77EF8786902F035FD00BF2837BD46B2
:101CA00080BD00BFBC15002080B500AF0448FFF721
:101CB0009FFC0448FFF79CFC00F094F900BF80BD36
:101CC00074B90000A4B9000098B500AF094801F04C
:101CD00007FA0446074801F003FA0146064B074A93
:101CE0002046FFF72DF94FF00050FFF767F900BFCE
:101CF00098BD00BFDC530020A91C00005CBA0000A6
:101D0000F0B585B002AF00237B6036E01F497A68EA
:101D100013469B0013449B000B4418681B497A68C8
:101D200013469B0013449B000B4404331C68174963
:101D30007A6813469B0013449B000B4408331B78BE
:101D40001D4612497A6813469B0013449B000B44BE
:101D50000C331B681E460D497A6813469B001344DA
:101D60009B000B4410331B68009333462A462146E0
:101D700000F0CEF87B6801337B60054B1B687A6806
:101D80009A42C3D300BF0C37BD46F0BDA016002059
:101D90002019002090B585B000AF01F096F9F860E9
:101DA000F868FEF749FAC7E90001D7E90034184698
:101DB00021461437BD4690BD80B582B000AF786033
:101DC000054A7B68934202D07868FFF74FFD00BF59
:101DD0000837BD4680BD00BF3C79002080B582B089
:101DE00000AF786004217868FFF780FD7868FFF71E
:101DF0003DFD00BF0837BD4680BD000080B582B004
:101E000000AF7860064A7B68934203D07868FFF79A
:101E1000EDFC01E0FFF792FC00BF0837BD4680BD36
:101E20003C79002080B582B000AF7860054A7B68BD
:101E3000934203D004217868FFF758FD00BF0837AC
:101E4000BD4680BD3C79002080B586B002AFF86009
:101E5000B9603B601346FB71294AFB6893424BD043
:101E6000284B1B681F2B03D92748FFF7C5FE43E00B
:101E7000244B1A68254913469B0013449B000B44CE
:101E8000FA681A601F4B1A68204913469B001344D6
:101E90009B000B440433BA681A601A4B1A681B493A
:101EA00013469B0013449B000B440833FA791A70C5
:101EB000144B1A68154913469B0013449B000B44AE
:101EC0000C333A681A600F4B1A68104913469B008E
:101ED00013449B000B441033BA691A60094B1B680A
:101EE0000133084A1360FA793968BB6900930B46DD
:101EF000B968F86800F00CF81037BD4680BD00BF27
:101F00003C79002020190020B8B90000A01600205C
:101F100080B58AB000AFF860B9607A603B6007F1C5
:101F2000140314220021184609F0D9FCFB687B61D8
:101F3000BB68BB617B68FB613B683B623B6B7B6260
:101F400007F114031846FFF75DFA00BF2837BD46B6
:101F500080BD000080B584B000AFF860B9607A60E1
:101F60007968B868FFF71EFDB868FFF75FFD0346A4
:101F70001946F868FFF74CF8174B1B68FF2B03D97D
:101F80001648FFF739FE24E0134B1A68144913462C
:101F90005B0013449B000B44BA681A600E4B1A682E
:101FA0000F4913465B0013449B000B4404337A68CB
:101FB0001A60094B1A680A4913465B0013449B00D8
:101FC0000B44083300221A60034B1B680133024A9A
:101FD00013601037BD4680BD2425002008BA0000DC
:101FE0002419002080B582B000AF00237B602BE075
:101FF0001A497A6813465B0013449B000B4408336C
:102000001B68002B1DD115497A6813465B001344E9
:102010009B000B44186811497A6813465B0013440F
:102020009B000B4404331B681946FFF7BBFC0B49AC
:102030007A6813465B0013449B000B44083301226B
:102040001A607B6801337B60054B1B687A689A4293
:10205000CED300BF0837BD4680BD00BF2419002085
:102060002425002080B483B000AF78607B68002214
:102070001A6000BF0C37BD465DF8047B7047000056
:1020800080B582B000AF7860144B01221A707B6873
:10209000002B01D101F016F87B6800221A70104B5A
:1020A0001A687B685A600F4B1A687B689A607B6875
:1020B0000D4ADA607B68B7221A617B680B4A5A6165
:1020C00000F002FA00F0F8F9786800F057FF7B683A
:1020D0001B78002B0837BD4680BD00BF2825002097
:1020E00088E10000D4E3000064BA0000F0BA000008
:1020F00080B400AF034B1B681846BD465DF8047BF7
:10210000704700BF2C25002080B485B000AF034687
:102110000A46FB711346BB710023FB73FB79162B38
:1021200063D801A252F823F0852100008B21000022
:1021300091210000912100009121000097210000D1
:102140009D2100009D2100009D210000A321000091
:10215000A9210000AF210000B5210000BB21000033
:10216000BB210000BB210000CD210000D3210000D5
:10217000D9210000DF210000C1210000C72100009B
:10218000E52100000123FB7330E00123FB732DE008
:102190000123FB732AE00123FB7327E00123FB7378
:1021A00024E00123FB7321E00123FB731EE00123E4
:1021B000FB731BE00123FB7318E00123FB7315E0A5
:1021C0000123FB7312E00123FB730FE00123FB7378
:1021D0000CE00123FB7309E00123FB7306E00123FC
:1021E000FB7303E00123FB7300E000BFFB7B184699
:1021F0001437BD465DF8047B704700BF80B58EB0D4
:1022000000AFF860B9607A600023FB627B68002B46
:1022100001D100F057FF274B1B68002B08D17868CD
:1022200000F056F87B681B78002B01D0FB6A3DE07C
:10223000204B1B687968184600F04EFA38637B68BB
:102240001B78002B01D0FB6A30E03B6B7A68F968A1
:10225000184604F0FBFE7B681B78002B17D1BB6887
:10226000002B09D0BB681B7803F00103002B03D0BF
:10227000012387F8373002E0002387F837303B6BC3
:1022800097F8372083F834203B6BFB620DE0094B55
:102290001B68184607F114031A46396B00F012FB4D
:1022A0003B7D002B01D000F00DFFFB6A184638374C
:1022B000BD4680BD3025002080B400AF034B1B68B5
:1022C0001846BD465DF8047B704700BF8825002096
:1022D00080B588B004AF78607B68002B01D100F036
:1022E000F1FE7B6800221A705E4B1A687B685A60A8
:1022F0005D4B1A687B689A607B685C4ADA607B6831
:1023000040F6B5021A617B68594A5A61786803F051
:1023100075FE7B681B78002B03D0786803F0FAFE0B
:102320009DE0544B1B68002B40F09580FFF7E0FECA
:10233000F8607B68B422F9684F4800F053F9024610
:102340004C4B1A607B681B78002B03D0786803F035
:10235000E1FE84E0474B1B6819467B6803934FF00E
:10236000FF33029300230193042300933823FA6878
:10237000424800F05FF97B681B78002B03D0786837
:1023800003F0C8FE6BE03B4B1B6803F124017B6844
:1023900003934FF0FF330293002301930423009330
:1023A0002C23FA68364800F045F97B681B78002B2F
:1023B00003D0786803F0AEFE51E02E4B1B6803F1AA
:1023C0006C017B6803934FF0FF330293002301936A
:1023D000042300933823FA682A4800F02BF97B681D
:1023E0001B78002B03D0786803F094FE37E0214B74
:1023F0001B6803F190017B6803934FF0FF33029356
:1024000000230193042300930123FA681E4800F07F
:1024100011F97B681B78002B03D0786803F07AFEF3
:102420001DE0144B1B6803F148017B6803934FF0D8
:10243000FF33029300230193042300932423FA68BB
:10244000124800F0F7F87B681B78002B03D07868FF
:1024500003F060FE03E0786803F05CFE00BF103715
:10246000BD4680BD88E10000D4E30000FCBA000056
:1024700014BC000030250020ACBB0000C0BB000035
:10248000D0BB0000E0BB0000F0BB000004BC0000BB
:1024900080B584B000AF786002F024F9F860054A96
:1024A0007B681360F86802F02DF900BF1037BD4655
:1024B00080BD00BF3425002080B500AF0120FFF7AC
:1024C000E7FF00BF80BD000080B586B000AF3B468F
:1024D0001946064800F00CF83B78002B01D000F0BC
:1024E000F1FD00BF1837BD4680BD00BF10000020C1
:1024F00080B584B000AF786039603B68002B01D1B3
:1025000000F0E0FD7B68002B15D13B680A221A70B1
:102510002F4B9A6A3B685A602E4B9A6A3B689A60C6
:102520003B682D4ADA603B6840F2B7221A613B688B
:102530002A4A5A61FEE702F0D5F8B860284B1B68BA
:10254000FB601FE0FA687B689A4218D1B86802F015
:10255000D9F83B6815221A701D4B5A6D3B685A60BA
:102560001C4B5A6D3B689A603B681B4ADA603B68BB
:1025700040F2BE221A613B68184A5A6124E0FB68A7
:10258000DB68FB60FB68002BDCD1154B1A687B68AD
:10259000DA60134A7B681360B86802F0B3F83B68EE
:1025A00000221A700A4B1A683B685A60094B1A6875
:1025B0003B689A603B68084ADA603B6840F2C9228F
:1025C0001A613B68054A5A611037BD4680BD00BF9D
:1025D00088E10000D4E3000020BC0000ACBC000097
:1025E000F453002080B58AB004AFF860B9607A6017
:1025F0003B60BB687B613B68002B01D100F062FD52
:102600007B69002B01D10A4B7B613B68029300235D
:1026100001930123009304237A687969F86800F034
:10262000F1F938613B6918461837BD4680BD00BFD7
:102630001000002080B58AB004AFF860B9607A60FD
:102640003B607B687B61FB6A002B01D100F03AFDA7
:10265000BB68002B15D1FB6A0A221A70194B9A6AC3
:10266000FB6A5A60184B9A6AFB6A9A60FB6A174ABF
:10267000DA60FB6A40F212421A61FB6A144A5A613C
:10268000FEE77B69002B01D1124B7B61BB68002206
:102690001A70BB680022DA61BB6800221A62FB6A0A
:1026A0000393BB6A02937B6A01933B6A00933B6886
:1026B0007A69B968F86800F0B9FA00BF1837BD4602
:1026C00080BD00BF88E10000D4E3000020BC000012
:1026D000B8BC00001000002090B58BB004AF78604B
:1026E00039603B68002B01D100F0ECFC7B68002BCB
:1026F00015D13B680A221A706E4B9A6A3B685A6081
:102700006D4B9A6A3B689A603B686C4ADA603B683A
:1027100040F2D5421A613B68694A5A61FEE701F00E
:10272000E1FF78617B685B69B3F1FF3F1FD07B6895
:102730009A697B685B699A4219D3786901F0E2FF74
:102740003B6818221A705B4B1A6E3B685A605A4BF2
:102750001A6E3B689A603B68584ADA603B684FF4EF
:102760009C621A613B68564A5A6100239DE07B686F
:102770009B695A1C7B689A617B681B69002B2DD072
:102780007B681B69FB607B681B7803F00203002BEE
:1027900002D1FB681B6805E07B689B68043BFA6814
:1027A00013441B687A681361786901F0ABFF3B68DA
:1027B00000221A703F4B1A683B685A603E4B1A68F9
:1027C0003B689A603B683D4ADA603B6840F2EF4202
:1027D0001A613B683A4A5A61FB6866E0786901F021
:1027E00091FF00233B617B6859687B6898687B6830
:1027F000DC687B681B7803F00103002B03D07B6847
:102800005B681B6900E001233A6802920022019292
:10281000009323460246386900F0F4F8F8603B68FC
:102820001B78002B0CD001F05DFF78617B689B6901
:102830005A1E7B689A61786901F064FF002334E0D6
:102840007B68DB69002B2FD07B68DC697B6859686B
:102850007B681B6AFA687868A0470346FB72FB7ABC
:10286000012B21D001F03EFF78617B689B695A1EE5
:102870007B689A61786901F045FF3B681A221A70FB
:102880000C4B9A6E3B685A600B4B9A6E3B689A6091
:102890003B680A4ADA603B6840F219521A613B68A9
:1028A000074A5A61002300E0FB6818461C37BD4602
:1028B00090BD00BF88E10000D4E3000020BC000010
:1028C000CCBC000080B586B000AFF860B9607A601B
:1028D0007B68002B01D100F0F5FBFB68002B15D1C4
:1028E0007B680A221A70434B9A6A7B685A60424B93
:1028F0009A6A7B689A607B68404ADA607B6840F23B
:102900003B521A617B683E4A5A61FEE7BB68002B66
:1029100015D17B680A221A70364B9A6A7B685A6016
:10292000354B9A6A7B689A607B68344ADA607B68C8
:1029300040F23C521A617B68314A5A61FEE701F06D
:10294000D1FE7861FB689B69002B18D1786901F092
:10295000D9FE7B6817221A70264BDA6D7B685A60A5
:10296000254BDA6D7B689A607B68244ADA607B6865
:1029700040F245521A617B68214A5A6137E0FB6890
:102980009B695A1EFB689A61786901F0BBFEFB687F
:102990001B7803F00203002B05D0FB689B68043B07
:1029A000BA68134400E0BB683B6101F09BFE7861AC
:1029B000FB681A693B691A60FB68BA681A61786932
:1029C00001F0A0FE7B6800221A700A4B1A687B682F
:1029D0005A60094B1A687B689A607B68074ADA601C
:1029E0007B6840F255521A617B68054A5A61183774
:1029F000BD4680BD88E10000D4E3000020BC00009B
:102A0000E0BC000080B588B002AFF860B9607A60C1
:102A10003B607B68002B15D1BB6A08221A70374BCC
:102A20001A6ABB6A5A60364B1A6ABB6A9A60BB6AFA
:102A3000344ADA60BB6A40F2C6621A61BB6A324A43
:102A40005A61FEE73B68002B05D03B685A1E3B6885
:102A50001340002B02D03B68002B01D1012300E082
:102A60000023002B15D1BB6A08221A70234B1A6A67
:102A7000BB6A5A60224B1A6ABB6A9A60BB6A214AD7
:102A8000DA60BB6A40F2CA621A61BB6A1E4A5A61C6
:102A9000FEE701F027FE7861BB6A01937B6A009331
:102AA0003B6A3A687968B86800F030F83861BB6A08
:102AB0001B78002B19D0786901F024FEBB6A16221E
:102AC0001A700E4B9A6DBB6A5A600D4B9A6DBB6AB9
:102AD0009A60BB6A0B4ADA60BB6A40F2D5621A613F
:102AE000BB6A094A5A61002303E0786901F00AFED3
:102AF0003B6918461837BD4680BD00BF88E100001D
:102B0000D4E3000020BC0000F4BC000080B48BB013
:102B100000AFF860B9607A603B607B68002B01D041
:102B20007B6800E004233A68934238BF13467B6217
:102B3000FB689B681A467B6A5B421A40FB689B688D
:102B400019467B6A013B0B40002B01D07B6A00E0F9
:102B5000002313443B623A6ABB681A443B685B42F9
:102B60001A40396ABB6819443B68013B0B40002B93
:102B700001D03B6800E000231344FB61FB685B6805
:102B80001A46FB689B68D31A0133BB61FB689B68DC
:102B90001A46FB699B1A7B61BA697B699A421ED20D
:102BA0003B6B002B04D07A69BB69D21A3B6B1A606D
:102BB0007B6B16221A70194B9A6D7B6B5A60184BFF
:102BC0009A6D7B6B9A607B6B164ADA607B6B4FF475
:102BD000E4621A617B6B144A5A61002318E0FA69B7
:102BE000FB689A607B6B00221A700C4B1A687B6B37
:102BF0005A600B4B1A687B6B9A607B6B094ADA60F0
:102C00007B6B40F226721A617B6B074A5A613B6A02
:102C100018462C37BD465DF8047B704788E10000FC
:102C2000D4E3000020BC00000CBD000090B593B0C0
:102C300004AFF860B9607A603B603B68002B15D147
:102C40007B6D08221A70924B1A6A7B6D5A60914B09
:102C50001A6A7B6D9A607B6D8F4ADA607B6D40F2F9
:102C600091721A617B6D8D4A5A61FEE73B6DB3F13B
:102C7000FF3F03D0FA6C3B6D9A4201D8012300E07C
:102C80000023002B15D17B6D08221A70804B1A6A25
:102C90007B6D5A607F4B1A6A7B6D9A607B6D7E4AB2
:102CA000DA607B6D40F295721A617B6D7B4A5A61E6
:102CB000FEE7BB6C002B08D0BB6C5A1EBB6C1340EC
:102CC000002B02D1BB6C032B02D8BB6C002B01D1B3
:102CD000012300E00023002B15D17B6D08221A7020
:102CE0006B4B1A6A7B6D5A606A4B1A6A7B6D9A60ED
:102CF0007B6D694ADA607B6D40F29A721A617B6D76
:102D0000664A5A61FEE7BB6C002B01D0BB6C00E049
:102D10000423FB61BB681B7803F00203002B10D077
:102D20003B6823F003033A6802F00302002A01D152
:102D3000002200E0042213443B633B6B04333B63FB
:102D400004E03B68042B38BF04233B63FB6C002B7F
:102D500000F0DF80BB681B7803F00103002B02D179
:102D6000FB69BB6206E07B681B69FA69934238BF66
:102D70001346BB62BB6A5A423B6B1A40BB6A591E80
:102D80003B6B0B40002B01D0BB6A00E000231344D7
:102D9000BB61BB69FA6C02FB03F37B623A6BBB69F4
:102DA000D31A7A6A13447B62BB681B7803F0010371
:102DB000002B11D07B681B695A427B6A1A407B68E2
:102DC0001B69591E7B6A0B40002B02D07B681B6974
:102DD00000E0002313447B627B6D02930023019388
:102DE00001230093BB6A7A6A7968F868FFF70AFEE4
:102DF00078637B6D1B78002B40F0B380BB687A6BE7
:102E00001A61BB681B7803F00203002B02D17B6BB5
:102E10003B620EE03B6823F003033A6802F00302D2
:102E2000002A01D1002200E0042213447A6B1344EB
:102E30003B620123FB623EE03B6A796BBA690A445C
:102E40001A60BB68DB69002B2AD0BB68DC69BB68F1
:102E50001B6A7A6B7968B868A0470346BB75BB7D6F
:102E6000012B1DD07B6D1A221A70094B9A6E7B6D57
:102E70005A60084B9A6E7B6D9A607B6D064ADA60E9
:102E80007B6D40F2D7721A617B6D044A5A6169E02A
:102E900088E10000D4E3000020BC000024BD000055
:102EA0003A6ABB6913443B627A6BBB6913447B6328
:102EB000FB6A0133FB62FA6AFB6C9A42BCD33B6A41
:102EC00000221A60BB68DB69002B25D0BB68DC6977
:102ED000BB681B6A7A6B7968B868A0470346FB75C4
:102EE000FB7D012B18D07B6D1A221A701F4B9A6E36
:102EF0007B6D5A601E4B9A6E7B6D9A607B6D1D4A8E
:102F0000DA607B6D40F2E7721A617B6D1A4A5A6192
:102F100028E0BB6800221A61BB687A685A60BB6807
:102F20003A6B9A60BB68FA69DA60BB683A6D5A61BD
:102F3000BB6800229A617B6D00221A700B4B1A68E5
:102F40007B6D5A600A4B1A687B6D9A607B6D094AEB
:102F5000DA607B6D40F2FA721A617B6D064A5A6143
:102F600000E000BF3C37BD4690BD00BF88E10000D7
:102F7000D4E3000020BC000024BD000090B589B05F
:102F800004AF78607B68002B01D100F09BF87B6870
:102F900000221A70424B1A687B685A60414B1A68CB
:102FA0007B689A607B68404ADA607B68C4221A6159
:102FB0007B683E4A5A613E4B5B68002B6DD0002116
:102FC0000220FFF7A1F80346FB7300210320FFF75F
:102FD0009BF803461A46FB7B1340FB730021042039
:102FE000FFF792F803461A46FB7B1340FB73FB7B0B
:102FF000012B14D07B6806221A70294B9A697B68D2
:103000005A60284B9A697B689A607B68264ADA6026
:103010007B68CA221A617B68244A5A61FEE7FFF77F
:1030200067F8B8607B682C22B9682248FFF7DAFAA3
:103030000246214B1A607B681B78002B28D11E4B5F
:103040001B68181D1A4B1B68194A5268796803914E
:1030500002920193042300930823BA68014617489B
:10306000FFF7E8FA7B681B78002B13D1124B1C6822
:103070007A6800211248FFF7C1F8A0627B681B78CC
:10308000002B09D10C4B1B681846FEF7EBFF04E040
:1030900000BF02E000BF00E000BF1437BD4690BD96
:1030A00088E10000D4E3000040BD000028BE00001D
:1030B00024000020D8BD000038250020ECBD000011
:1030C00004BE000080B400AFFEE780B582B000AF60
:1030D000FDF7A2F878607B6818460837BD4680BDCA
:1030E00080B584B000AF78607B68002B01D1FFF71A
:1030F000E9FF184B1B68FB60FB68002B01D0002226
:1031000000E009227B681A70FB68002B01D00023C5
:1031100000E00923104A52F823207B685A60FB68BC
:10312000002B01D0002300E009230C4A52F8232091
:103130007B689A607B680A4ADA607B684FF4FE72AB
:103140001A617B68074A5A61FB6818461037BD460A
:1031500080BD00BFF873002088E10000D4E30000C8
:1031600020E60000A4E6000080B483B000AF7860E1
:10317000044A7B68136000BF0C37BD465DF8047BD2
:10318000704700BFF873002080B487B000AFF860CC
:10319000B9607A60FB6803F10473DA00BB6813441A
:1031A0009B007B617B697A681A6000BF1C37BD4653
:1031B0005DF8047B704780B485B000AF78603960FB
:1031C0007B6803F1C063FB60FB683A681A6000BF6C
:1031D0001437BD465DF8047B704780B485B000AFFE
:1031E000786039607B6803F18063FB60FB683A6854
:1031F0001A6000BF1437BD465DF8047B704780B588
:1032000084B000AFF860B9607A60B968F868FFF719
:10321000E4FF7968F868FFF7CEFF00BF1037BD46BE
:1032200080BD000080B582B000AF786039607B68F7
:10323000B3F1804F07D07B68274A934203D0A8217F
:10324000264800F0AFF83B681B693F2B03D9BC212F
:10325000224800F0A7F83B68DB683F2B03D9BD216B
:103260001E4800F09FF83B685B683F2B03D9BF21E5
:103270001A4800F097F83B681B78DB071A463B6852
:103280005B681B06134343F400427B681A603B688B
:10329000DB681B043A68127A1A437B689A623B68BF
:1032A0001B691B043A68527A1A437B68DA623B68EE
:1032B0009B7A1B0743F0806343F47D437A68536035
:1032C00078683B681B7D1A460021FFF75DFF00BF51
:1032D0000837BD4680BD00BF00040040B8E60000CE
:1032E00080B582B000AF78600B46FB707B68B3F1AD
:1032F000804F07D07B68094A934203D0FB210848DE
:1033000000F050F87B680433FA78FF211846FFF785
:1033100076FF00BF0837BD4680BD00BF00040040F7
:10332000B8E6000080B582B000AF78607B68B3F18A
:10333000804F08D07B68094A934204D040F22111A3
:10334000074800F02FF87B681B6823F001027B68B8
:103350001A6000BF0837BD4680BD00BF00040040B2
:10336000B8E6000080B582B000AF78607B68B3F14A
:10337000804F08D07B68094A934204D04FF49A7179
:10338000074800F00FF87B681B6843F001027B6878
:103390001A6000BF0837BD4680BD00BF0004004072
:1033A000B8E6000080B483B000AF78603960FEE713
:1033B00080B487B000AFF860B9607A60FB6803F151
:1033C0000473DA00BB6813449B007B617B697A68F5
:1033D0001A6000BF1C37BD465DF8047B704780B49F
:1033E00085B000AF786039607B6803F10473DA0060
:1033F0003B6813449B00FB60FB681B68184614374E
:10340000BD465DF8047B704780B582B000AF786040
:103410007B681F2B04D94FF496710548FFF7C2FF54
:1034200001227B6802FA03F318460837BD4680BDC7
:10343000CCE6000080B582B000AF78607868FFF716
:10344000E3FF034618460837BD4680BD80B500AF90
:1034500000BF12210348FFF7C2FF0346002BF8D13B
:1034600000BF80BD04300E4080B500AFFFF7EEFF17
:10347000034B5B681B0C03F00303DBB2184680BDF3
:1034800000300E4080B584B000AF78600123FB604F
:103490007B68124A934204D80023FB600023BB6080
:1034A00008E07B680E4A934202D80123BB6001E02A
:1034B0000223BB60FA6810210A48FFF779FF094B25
:1034C000D3F8003123F08072BB681B060549134313
:1034D000C1F8003100BF1037BD4680BD0048E8018B
:1034E0000090D00300400E4080B483B000AF054B85
:1034F0001B687B607B6818460C37BD465DF8047B13
:10350000704700BF2C00002080B582B000AFFCF7F0
:1035100023FF7860064BD3F800311B0A03F01F032A
:1035200001337A6802FB03F318460837BD4680BDB5
:1035300000400E4080B582B000AF0F4800F066FB3F
:103540000346FB70FB78072B05D0092B07D1FCF74E
:1035500003FF78600BE0FFF7C7FF786007E0002308
:103560007B6040F69A210548FFF71CFF00BF7B688F
:1035700018460837BD4680BD06000E00C0E70000B3
:1035800080B584B000AF78607B68002B1CD12048E8
:1035900000F03CFB0346FB7200BFFB7A013B072BAC
:1035A00028D801A252F823F0D7350000F5350000E5
:1035B000F5350000E5350000F5350000F535000073
:1035C000DD350000ED35000040F6BA211148FFF767
:1035D000E9FE002317E00023FB6013E0FFF784FF00
:1035E000F8600FE0FCF7F0FEF8600BE0FFF78CFFEF
:1035F000F86007E00023FB6040F6D1210548FFF7A3
:10360000D1FE00BFFB6818461037BD4680BD00BF25
:10361000B8003200C0E7000080B584B000AF786029
:103620003960204B5B6803F04073FB600023BB6094
:1036300012E01D4ABB68DB0013441A793B68DBB219
:103640009A4206D1184ABB6852F833307A689A42D7
:1036500006D9BB680133BB60BB68042BE9D900E025
:1036600000BFBB68052B07D10323FB6040F6D831B0
:103670000E48FFF797FE05E00B4ABB68DB001344DA
:103680005B79FB60FB681B06FB60064B5B6823F005
:1036900040720449FB6813434B6000BF1037BD46BE
:1036A00080BD00BF00000E40D4E70000C0E700006E
:1036B00080B582B000AF0E4B1B6C002B14BF0123F2
:1036C0000023FB710A4B41F671321A64FCF73AFE93
:1036D000034600211846FFF79FFFFB79002B02D01D
:1036E000034B00221A6400BF0837BD4680BD00BFEF
:1036F00000000E4080B584B000AF786039600C4B9C
:103700001B6C002B14BF01230023FB73084B41F6F5
:1037100071321A6439687868FFF77EFFFB7B002BF3
:1037200002D0034B00221A6400BF1037BD4680BD93
:1037300000000E4080B487B000AF78600F237B613B
:103740007B6803333B617B69FB60FA683B699342AA
:1037500028BF1346BB60BB681B07BB60BB6818462D
:103760001C37BD465DF8047B7047000080B400AF95
:10377000044B5B6A1B0903F003031846BD465DF862
:10378000047B704700400E4080B483B000AF786087
:10379000074B5B6A23F030027B681B01044913432B
:1037A0004B6200BF0C37BD465DF8047B704700BF1D
:1037B00000400E4090B585B000AF78600023BB603C
:1037C0007B683C4A93420BD03B4A934208D03B4A29
:1037D000934205D040F6C9413948FFF7E3FD00E0C8
:1037E00000BF786800F012FA0346FB607B68314A3C
:1037F00093420CD0304A934210D0304A934214D1B5
:10380000304BD3F8803003F00703FB6013E02D4BFF
:10381000D3F8843003F00703FB600CE0294BD3F8A6
:10382000883003F00703FB6005E040F6F8412448C8
:10383000FFF7B8FD00BFFB68042B2ED801A252F899
:1038400023F000BF953800005938000061380000AF
:103850007138000069380000FCF7D8FDB86024E03A
:10386000FCF7E6FDB86020E0FCF7D9FDB8601CE08D
:10387000FCF748FD0446134BD3F800311B0E03F050
:10388000010301331846FFF7D5FD0346B4FBF3F3FC
:10389000BB600AE00023BB6007E00023BB6040F68A
:1038A0004A510748FFF77EFD00BFBB681846143732
:1038B000BD4690BD030020000500240002001E004C
:1038C000C0E7000000400E4080B483B000AF7860D5
:1038D0000A4BD3F8443103F00103002B08D100BF99
:1038E000064BD3F840217B681340002BF8D100E051
:1038F00000BF0C37BD465DF8047B704700400E40AA
:1039000080B400AF00BFBD465DF8047B704780B453
:1039100000AF00BFBD465DF8047B704780B586B040
:1039200000AF78600B46FB7000233B617B681B0A8D
:1039300003F00F03013B092B32D801A252F823F008
:103940006939000075390000A1390000A139000073
:103950006F3900007B39000085390000A139000073
:103960008F3900009B3900001A4B7B611EE01A4B17
:103970007B611BE0194B7B6118E0194B7B610123D4
:103980003B6113E0174B7B6110233B610EE0164B4C
:103990007B614FF480333B6108E0144B7B6105E0B1
:1039A00041F23C111248FFF7FDFC10E07B681B0B55
:1039B00003F01F03FB603B69002B02D03869FFF75F
:1039C00083FFFB781A46F9687869FFF7F1FC18372E
:1039D000BD4680BD00400E40B0400E40C0400E408D
:1039E000E0400E40E8400E40F0400E4050410E4096
:1039F000C0E7000080B584B000AF78607B6803F456
:103A00007813B3F5A01F7DD0B3F5A01F1AD8B3F576
:103A1000202F50D0B3F5202F08D8B3F5003F4ED05B
:103A2000B3F5802F38D0002B32D0D8E0B3F5602F1B
:103A300000F0C880B3F5801F00F0C880B3F5402FB8
:103A40004CD0CCE0B3F5001F00F08B80B3F5001F25
:103A50000AD8B3F5D01F00F08980B3F5F01F4CD021
:103A6000B3F5B01F5CD0BAE0B3F5381F6AD0B3F538
:103A7000381F04D8B3F5101F00F09F80AFE0B3F5F6
:103A8000401F00F08680B3F5481F00F0A380A6E039
:103A9000FCF762FCF860AAE0FCF75EFCF860564BAD
:103AA000D3F80C311B0AC3F308030133FA68B2FBE5
:103AB000F3F3FB609BE0FCF74FFCF86097E0FCF74A
:103AC0004BFCF8604C4BD3F808311B0AC3F30803D6
:103AD0000133FA68B2FBF3F3FB6088E0FCF73CFCCF
:103AE000F860454BD3F814311B0A03F01F03013370
:103AF000FA68B2FBF3F3FB6079E04048FFF75AFE47
:103B0000F86074E03E48FFF755FEF8603A4BD3F892
:103B1000303103F00303FA6822FA03F3FB6066E036
:103B20003648FFF747FEF860334BD3F8203103F0F7
:103B30000F031846FFF77EFC0246FB68B3FBF2F367
:103B4000FB6054E02D48FFF735FEF8602A4BD3F8B0
:103B500020311B0903F00303FA6822FA03F3FB6028
:103B600045E02848FFF726FEF86040E02548FFF7CB
:103B700021FEF860204BD3F828311B0903F0030322
:103B80001846FFF757FC0246FB68B3FBF2F3FB60F5
:103B90002DE01C48FFF70EFEF860174BD3F82831D4
:103BA0001B0A03F0030304331846FFF743FC0246E5
:103BB000FB68B3FBF2F3FB6019E01148FFF7FAFD75
:103BC000F86014E0FFF7B6FCF86010E0FFF78CFC3B
:103BD000F8600CE00020FFF7D3FCF86007E000235A
:103BE000FB6041F262210848FFF7DCFB00BFFB6885
:103BF00018461037BD4680BD00400E4002001E0032
:103C00000500240003002000C0E7000080B584B058
:103C100000AF78600123FB737B6803F00F03BB6088
:103C2000BB68013B072B00F2C48001A252F823F0CD
:103C3000513C0000A73C0000D73C0000B33D000011
:103C40001D3D00004D3D0000B33D0000713D0000F2
:103C50005E4BD3F8943003F00703023B052B1ED8CC
:103C600001A252F823F000BF8D3C0000873C000009
:103C7000813C0000933C00009F3C0000993C000008
:103C80000223FB730EE00323FB730BE00423FB739F
:103C900008E00B23FB7305E00C23FB7302E0052314
:103CA000FB7300BF8DE0494BD3F8803003F007036E
:103CB000022B06D0042B07D0012B08D10323FB7362
:103CC00008E00223FB7305E00A23FB7302E00123F3
:103CD000FB7300BF75E03D4BD3F8843003F007035E
:103CE000013B032B16D801A252F823F0FD3C000043
:103CF000033D00000F3D0000093D00000323FB735E
:103D00000BE00223FB7308E00A23FB7305E00623A4
:103D1000FB7302E00123FB7300BF52E02B4BD3F88F
:103D2000883003F00703022B06D0042B07D0012BA9
:103D300008D10323FB7308E00223FB7305E00A2389
:103D4000FB7302E00123FB7300BF3AE01F4B1B6FC4
:103D500003F00103002B04D0012B05D10923FB73D1
:103D600005E00723FB7302E00123FB7300BF28E09B
:103D7000164BD3F85C3103F03003102B0CD0102B12
:103D800002D8002B05D010E0202B08D0302B09D012
:103D90000BE00123FB730BE00723FB7308E0042314
:103DA000FB7305E00823FB7302E00123FB7300BFF4
:103DB00007E00023FB7341F276610548FFF7F2FA52
:103DC00000BFFB7B18461037BD4680BD00400E404B
:103DD000C0E7000080B58AB000AF78600B46FB708A
:103DE00003237B62032387F823300023BB61002376
:103DF0007B617B68112B19D1FB78042B03D1FCF775
:103E0000E3FA78610BE0FB78052B08D100F08AF922
:103E10000246BB4B9A4202D900F084F978617B6973
:103E2000002B03D00021786900F0F0FC7B6803F0E0
:103E30000F033B613B69013B072B00F2578101A255
:103E400052F823F0653E0000713F0000A33F0000E0
:103E5000ED400000853F000045400000ED400000BF
:103E60006F400000FB78023B0A2B49D801A252F8B0
:103E700023F000BFA13E0000AD3E0000B93E0000AF
:103E8000CB3E0000013F0000013F0000013F000069
:103E9000013F0000F53E0000DD3E0000E93E00006D
:103EA00004237B62002387F823302FE003237B6207
:103EB000012387F8233029E002237B62022387F85D
:103EC00023309048FFF7DEFA20E001237B620323D2
:103ED00087F823308B48FFF7D5FA17E005237B627C
:103EE000032387F8233011E007237B62062387F83A
:103EF00023300BE041F234718348FFF753FAFBE0C3
:103F000041F239718048FFF74DFAF5E097F8233018
:103F1000062B06D097F8233001220121184600F025
:103F20008FF9FFF7C5FBFFF7EBFC7B69002B01D096
:103F3000FFF78CFA754A7B6A53677548FFF75AFD9D
:103F400003461846FFF79EFAFCF7DCF9F860FFF726
:103F50008BFA03461946F868FFF7CCFB7B69002B08
:103F600003D10121002000F051FCFFF7D0FCC3E099
:103F7000684BBB61FB78062B04D141F27571624836
:103F8000FFF710FABB69002B01D0BB6900E0624B60
:103F9000BB61FB78062B04D141F289715A48FFF7C7
:103FA00001FABB69002B01D0BB6900E05B4BBB6130
:103FB000FB78013B092B3BD801A252F823F000BF4C
:103FC000E93F0000EF3F0000FF3F000031400000EC
:103FD000314000000F40000031400000314000003F
:103FE000314000002B4000000023FB6126E001224D
:103FF0000121002000F024F90223FB611EE00122D0
:104000000121012000F01CF90123FB6116E0FCF7FF
:1040100079F903461846FFF735FA01220221404894
:10402000FFF7C6F90323FB6108E00423FB6105E009
:1040300041F2AE713448FFF7B5F95DE0BB69FA694A
:104040001A6059E0FB78072B02D0092B04D007E057
:104050002E4B00221A6709E02C4B01221A6705E05B
:1040600041F638012848FFF79DF945E044E0FB7828
:10407000013B072B28D801A252F823F09D400000F5
:10408000C9400000C9400000B3400000C940000022
:10409000C9400000A3400000C34000000023FB61B2
:1040A00018E001220121042000F0CAF80123FB617D
:1040B00010E001220121022000F0C2F80223FB617E
:1040C00008E00323FB6105E041F696010E48FFF787
:1040D00069F911E00D4BD3F85C3123F03002FB6934
:1040E0001B010A491343C1F85C3105E041F66D112B
:1040F0000548FFF757F900BF2837BD4680BD00BF10
:10410000002D31010148E801C0E7000000400E40E9
:1041100000250A0080400E4088400E4084400E403A
:10412000B0400E4080B400AF034B1B681846BD463C
:104130005DF8047B704700BF0C00002090B585B08F
:1041400000AF78601120FFF761FD0346042B04D116
:1041500041F61D413748FFF725F9012200210220D1
:1041600000F06EF87B685B78002B07D17B689B784A
:10417000002B03D17B68DB78002B04D041F65B4138
:104180002C48FFF70FF90023FB607B681B7C012B99
:1041900004D14FF4E3512748FFF704F97B681B7CF7
:1041A000022B01D10123FB60234B5B6A23F0010248
:1041B0002149FB6813434B627B681B781A46082130
:1041C0001E48FFF7F5F87B689B88DB027A68527A15
:1041D0001146194A0B43D362174B1B6B03F07F62E6
:1041E0007B68DB88DB0213437A68927A1A437B6828
:1041F0001B7ADB0142EA03047B681B7A1846FFF74F
:1042000099FA03460C4A234313637B685B7B1A03CA
:104210007B689B7B1B0113437A68D27B1A437B68C4
:104220001B7B1B04044913434B6300BF1437BD467B
:1042300090BD00BFC0E7000000400E4024400E408B
:1042400080B588B000AF0346FB710B46BB711346C7
:104250007B71FB79042B3CD801A252F823F000BFFC
:10426000BD420000AB4200008742000075420000E2
:104270009942000001237B6102233B610123FB6122
:104280000023BB612BE004237B6108233B610323F4
:10429000FB610223BB6122E010237B6120233B6191
:1042A0000523FB610423BB6119E040237B6180236C
:1042B0003B610723FB610623BB6110E04FF4807371
:1042C0007B614FF400733B610923FB610823BB61F1
:1042D00005E041F665514548FFF764F883E0BB7996
:1042E000002B64D00023FB73FB79022B1AD1FFF75C
:1042F0003DFA0346002B15D13D4BDB6B03F4806385
:10430000002B04D141F674513848FFF74BF80123D4
:10431000FB73384B5B6A03F00103012B02D10120D0
:10432000FFF732FA334A7B69136600BFB969324836
:10433000FFF755F80346002BF8D07B79002B52D0BD
:1043400000BFF9692C48FFF74AF80346002BF8D064
:10435000FB79022B47D1FB7B002B44D0254B5B6ABA
:1043600003F00103012B05D101222021022000F0DE
:1043700087F903E00021022000F028F9022000F074
:104380003DF8B860012200210220FFF759FFB9680B
:10439000022000F071F8174A7B69136600BFF969C3
:1043A0001548FFF71CF80346002BF8D01BE0114A14
:1043B0003B69136600BF0F4BD3F890300121BA69F7
:1043C00001FA02F21340002BF5D17B79002B0AD0C1
:1043D00000BF084BD3F890300121FA6901FA02F2CC
:1043E0001340002BF5D12037BD4680BDC0E700004B
:1043F00000300E4000400E4090400E4080B584B02A
:1044000000AF0346FB71FB79013B032B23D801A2CC
:1044100052F823F0254400004944000031440000D4
:104420003D440000124B1B6AC3F30803FB601AE013
:104430000F4B1B6903F07F03FB6014E00C4B9B697F
:1044400003F07F03FB600EE0094BD3F89C30C3F30D
:104450000A03FB6007E00023FB6041F6F1510548C9
:10446000FEF7A0FF00BFFB6818461037BD4680BDB1
:1044700000400E40C0E7000080B584B000AF0346A6
:104480003960FB71FB79013B032B00F28C8001A2A8
:1044900052F823F0A544000059450000E54400000F
:1044A0001F4500003B68B3F5007F04D341F6176158
:1044B0004248FEF777FF3B68C3F308033B6000BF49
:1044C0001A213F48FEF78BFF0346002BF8D13D4BE6
:1044D0001B6A23F4FF7323F001033A493A6813433C
:1044E0000B6266E03B687F2B04D941F624613348B8
:1044F000FEF758FF3B6803F07F033B6000BF1821C5
:104500002F48FEF76CFF0346002BF8D12D4B1B699B
:1045100023F07F022B493B6813430B6149E03B6862
:104520007F2B04D941F63F612448FEF73BFF3B68EF
:1045300003F07F033B6000BF19212148FEF74FFFC6
:104540000346002BF8D11F4B9B6923F07F021D49C6
:104550003B6813438B612CE01A4BD3F8903003F087
:104560000403002B04D041F64E611448FEF71AFFF5
:10457000144B5B6A23F03003124A43F0100353627A
:104580003B68DB0903F00F031846FFF7D3F8F86028
:104590000C4B1A6B0C4B13403A681A430949FB68E1
:1045A00013430B6305E041F668610448FEF7FAFE29
:1045B00000BF00BF1037BD4680BD00BFC0E7000090
:1045C00040410E4000400E4000F8FF0F80B584B01F
:1045D00000AF03460A46FB711346BB71FB79022B01
:1045E00004D04FF4F4512348FEF7DCFEFFF7BEF889
:1045F0000346002B03D14FF44003FB601BE0BB7963
:10460000202B04D0302B0AD0002B04D00BE04FF429
:104610000003FB600FE04FF44003FB600BE04FF43E
:104620004003FB6007E0144BFB6041F69B611148BF
:10463000FEF7B8FE00BF00BF104BD3F89020FB6818
:104640001340FA689A42F7D1FB6803F48003002B09
:104650000AD00A4BD3F8A03003F48063002B14BFB8
:1046600001230023DBB200E0012318461037BD46CA
:1046700080BD00BFC0E70000FF33E10700400E40EF
:1046800080B582B000AF0346FB710B46BB71134689
:104690007B71FB79022B15D1BB79002B07D00F4B17
:1046A0004FF48062C3F8A8200C4ABB7953667B792B
:1046B000002B0DD0BA79FB7911461846FFF786FF1B
:1046C000034607E041F6D1610548FEF76BFE00E0C6
:1046D00000BF012318460837BD4680BD00400E408C
:1046E000C0E7000080B483B000AFEFF310833B60FD
:1046F0003B687B6072B67B6818460C37BD465DF838
:10470000047B704780B483B000AF78607B68002B77
:1047100000D162B600BF0C37BD465DF8047B704720
:1047200080B487B000AFF860B9607A60FB6803F1CD
:104730000473DA00BB6813449B007B617B697A6871
:104740001A6000BF1C37BD465DF8047B704780B41B
:1047500085B000AF786039607B6803F10473DA00DC
:104760003B6813449B00FB60FB681B6818461437CA
:10477000BD465DF8047B704780B500AF00BF1221D5
:104780000348FFF7E4FF0346002BF8D100BF80BDCC
:1047900004300E4080B500AFFFF7EEFF034B5B68BF
:1047A0001B0C03F00303DBB2184680BD00300E4043
:1047B00080B483B000AF7860044A7B68D36200BFE6
:1047C0000C37BD465DF8047B704700BF00300E40DB
:1047D00080B400AF034B5B6A1846BD465DF8047BAE
:1047E000704700BF00300E4080B483B000AF034676
:1047F000FB71FB79C3F10203102202FA03F318469E
:104800000C37BD465DF8047B7047000080B584B06E
:1048100000AF78600B46FB70154BD3F800311B0AD4
:1048200003F01F030133BB607B68002B07D1FBF74C
:1048300093FD0246BB6802FB03F3FB6001E07B686B
:10484000FB600C4B1B78002B09D0FB680A4A934293
:1048500005D8FB781946022000F010F804E0FB7838
:104860001946002000F00AF800BF1037BD4680BD91
:1048700000400E4044250020FF2C310190B587B048
:1048800000AF03460A46FB711346BB711F4BD3F8BA
:1048900000311B0A03F01F0301337B61FBF75CFD52
:1048A0003861FFF777FF0346FB73FA7BFB799A4287
:1048B00028D03B697A6902FB03F3BB60FB79022BCA
:1048C0000CD1BB68124A934204D940F2B34111485B
:1048D000FEF768FD02213869FEF70CFF0E4CFB79EC
:1048E0001846FFF781FF03462361BB79002B01D0F7
:1048F000FFF742FFFB79002B05D100213869FEF755
:10490000F9FE00E000BF1C37BD4690BD00400E40E0
:10491000002D3101FCE7000000300E4080B400AFF4
:1049200001231846BD465DF8047B704780B582B010
:1049300000AF0C4BDB6E0B4A43F08073D366002153
:104940000948FFF704FF78607B68002B03D0042040
:1049500000F040FD02E0002000F03CFD00BF083701
:10496000BD4680BD00300E404C300E4080B58AB050
:1049700000AF01237B627B6A1B053B62404BDB6C13
:104980001B0A03F00F03FB613E4B1B881A463D4B8D
:104990001B8828335B08134403F12801FB695A1C68
:1049A00013469B001344B1FBF3F3013BBB61BB69AE
:1049B0007B6107233B613A697B69934228BF1346B9
:1049C000BB61BB691B06BB61BB6923F0E063002BC5
:1049D00004D040F2CE612C48FEF7E4FC3B6A23F49D
:1049E000E003002B04D040F2CF612748FEF7DAFC49
:1049F000234BDB6C23F0EE62B9693B6A0B43204921
:104A00001343CB64214BB3F90030002B33DB1F4B36
:104A1000B3F90030FB81FA89FB8928335B08134422
:104A200003F12802FB6901335900FB6901335B087C
:104A30000B44B2FBF3F3BB60BB687B6007233B60B6
:104A40003A687B68934228BF1346BB60BB681B0172
:104A5000BB60BB6823F07003002B04D040F2E76119
:104A60000948FEF79FFC064B1B6D23F070020449BA
:104A7000BB6813430B6500BF2837BD4680BD00BF30
:104A800000300E403C250020FCE7000040250020BF
:104A900080B483B000AF78600B467B807B689AB2AD
:104AA000054B1A80054A7B88138000BF0C37BD4632
:104AB0005DF8047B704700BF3C25002040250020A6
:104AC00080B582B000AF0346FB71FB79002B02D0AA
:104AD000012B04D007E0094B094A9A6509E0074B0E
:104AE000084A9A6505E040F213710748FEF75AFC40
:104AF00000BF00BF0837BD4680BD00BF00300E407C
:104B000077402057372110B7FCE7000080B584B00C
:104B100000AF0346FB710B46BB7113467B71334BF1
:104B2000D3F88031FB60BB79032B1DD801A252F86A
:104B300023F000BF454B00004D4B0000574B0000D9
:104B4000614B0000FB68DBB2FB6014E0FB681B0AF2
:104B5000DBB2FB600FE0FB681B0CDBB2FB600AE022
:104B6000FB681B0EFB6006E040F257712048FEF721
:104B700019FC002336E07B79002B16D1FB681B0360
:104B8000FB60FB6823F47043002B06D040F2627197
:104B90001748FEF707FC002324E0164BDB6E23F4D6
:104BA00070421449FB681343CB667B79012B18D103
:104BB000FB681B03FB60FB6823F47043002B06D0EB
:104BC00040F26E710A48FEF7EDFB00230AE0094B44
:104BD000D3F8EC3023F470420649FB681343C1F864
:104BE000EC30012318461037BD4680BDB081E00F80
:104BF000FCE7000000300E4080B588B000AFF860E0
:104C0000B96011461A460B46FB711346BB7100236F
:104C1000FB610023BB61BB791B02FA79002A01D03A
:104C2000012200E0002213437B617B6940F2011204
:104C300093422AD0B3F5817F07D2012B19D0012BE3
:104C400047D3B3F5807F50D073E040F20122934206
:104C500027D040F20122934203D8B3F5007F50D011
:104C600067E0B3F5407F58D040F20132934224D040
:104C70005FE0384BD3F87431FB61FB691B0ADBB290
:104C8000BB61FB69DBB2FB6159E0324BD3F8743195
:104C9000FB61FB691B0EBB61FB691B0CDBB2FB619B
:104CA0004DE02C4BD3F87831FB61FB691B0ADBB27A
:104CB000BB61FB69DBB2FB6141E0264BD3F8783185
:104CC000FB61FB691B0EBB61FB691B0CDBB2FB616B
:104CD00035E0204BD3F86C31FB61FB691B0ADBB27A
:104CE000BB61FB69DBB2FB6129E01A4BD3F86C3185
:104CF000FB61FB691B0EBB61FB691B0CDBB2FB613B
:104D00001DE0144BD3F87031FB61FB691B0ADBB269
:104D1000BB61FB69DBB2FB6111E00E4BD3F8703174
:104D2000FB61FB691B0EBB61FB691B0CDBB2FB610A
:104D300005E040F2D3710848FEF734FB00BFFB6882
:104D4000FA691A60BB68BA691A6000BF2037BD46AD
:104D500080BD00BFB081E00FFCE7000080B584B0EB
:104D600000AF0346FB7100BF364B9B6F03F001039E
:104D7000002BF9D1334B1B6C03F00303FB60FB6882
:104D8000002B04D001220D212F48FFF7C9FCFB683E
:104D9000DBB2FA799A4208D1FB79002B4ED100227E
:104DA0000D212948FFF7BCFC48E0FB68032B02D02B
:104DB000FB68002B20D1FB79022B02D0FB79012B61
:104DC0001AD14FF40020FFF7F3FC00BF1D4B9B6F7F
:104DD00003F00103002BF9D11A4B1B6C23F00303E2
:104DE000184A43F00103136400BFFFF7F1FC0346C8
:104DF00003F40023002BF8D000BF124B9B6F03F08D
:104E00000103002BF9D10F4B1B6C23F00302FB793C
:104E10000C4913430B6400BF0A4B9B6F03F0010363
:104E2000002BF9D1FB79002B14BF01230023DBB247
:104E30001A460D210448FFF773FC00E000BF10374D
:104E4000BD4680BD00300E4054300E4080B584B069
:104E500000AF78606B4B02229A636A4B9B6B03F046
:104E60000F03022B06D040F66D016748FEF79AFA51
:104E70000023C3E0FFF752FD7B681B89C82B04D9D0
:104E800040F677016048FEF78DFA7B689A887B6868
:104E90001B899A4204D940F678015B48FEF782FAF2
:104EA0007B68B3F90C30C82B04DD40F67901564815
:104EB000FEF778FA7B685B78012B09D17B689B88C9
:104EC000C82B12D940F67D014F48FEF76BFA0CE073
:104ED0007B685B78022B08D17B689B880A2B04D9FE
:104EE00040F682014848FEF75DFA7B68DB8842F2B3
:104EF0001072934204D940F68A014348FEF752FAF1
:104F00007B68DB884A2B02D80023FB6015E07B68B6
:104F1000DB88B3F5FA7F03D24FF08053FB600CE0DF
:104F20007B68DB8840F6C312934203D84FF00053EE
:104F3000FB6002E04FF04053FB60324BDB6C23F030
:104F4000405323F001037A68B2F90C20002A01DBF8
:104F5000012100E00021FA680A432A491343CB6487
:104F6000284BD3F8EC30274A43F44073C2F8EC30B6
:104F7000FFF7DCFC7B681B891A467B68B3F90C30B1
:104F800019461046FFF784FD7B689A881F4B1A80EC
:104F90007B689B88184600F0A9F97B689B7B1846C4
:104FA000FFF78EFD7B685B8801220121184600F027
:104FB00031F8034683F00103DBB2002B06D040F644
:104FC000C1011148FEF7EEF9002317E00D4BDB6B32
:104FD0000C4A43F48063D3637B685B781846FFF721
:104FE000BDFE7B689B7A202B01D1012300E00023CA
:104FF0001A4605210648FFF793FB01231846103790
:10500000BD4680BD00300E40FCE700003E2500207C
:105010003C300E4090B595B000AF78600B46FB7009
:105020001346BB700023FB6400237B6407F1240359
:1050300000221A605A609A6007F1180300221A6071
:105040005A609A6007F10C0300221A605A609A6055
:1050500007F1080300210A461A800A469A707B6805
:10506000B3F5E16F06D37B6840F6B832934201D8BE
:10507000012300E0002387F8433097F8433003F022
:10508000010387F8433097F8433083F00103DBB224
:10509000002B06D040F606119148FEF783F9002355
:1050A00019E17B68B3F5E16F8CBF0123002387F81A
:1050B000423097F84230002B0AD04FF4E163FB6492
:1050C00040F6B8337B647A6CFB6CD31ABB6409E09E
:1050D0004FF49663FB644FF4E1637B647A6CFB6C82
:1050E000D31ABB6497F84230002B0BD07D4BD3F81A
:1050F00068313B623B6A1B0E7B613B6A1B0CDBB277
:105100003B620AE0774BD3F868313B623B6A1B0A8B
:10511000DBB27B613B6ADBB23B62734BDB6C1B0F28
:10512000DBB203F00303DBB23B723B7A97F8422019
:1051300007F10C0107F11800FFF75EFD6A4BD3F889
:10514000EC301B0ADBB203F00303DBB27B727C7A28
:1051500097F8422007F10C03191D07F11803181DD9
:105160002346FFF749FD7A68FB6CD31A79693A6ADE
:105170008A1A02FB03F2BB6CB2FBF3F3FB62FA6A1E
:105180003B6A1344FB627A68FB6CD31AF968BA690C
:105190008A1A02FB03F2BB6CB2FBF3F37B627A6AFE
:1051A000BB6913447B627A68FB6CD31A3969FA696C
:1051B0008A1A02FB03F2BB6CB2FBF3F3BB62BA6A5E
:1051C000FB691344BB62FA6A7B699A4213D8FA6A94
:1051D0003B6A9A420FD3BA6A3B699A420BD8BA6AC1
:1051E000FB699A4207D37A6AFB689A4203D87A6AC3
:1051F000BB699A4206D240F654113948FEF7D2F8FC
:10520000002368E0BB78002B12D0374BDB6D23F412
:10521000FE4323F00203FA6A1202134397F8422076
:10522000002A01D0022200E000222F491343CB655F
:10523000FB78002B4ED0397A97F84230002218467E
:10524000FFF764FC034683F00103DBB2002B06D0BA
:1052500040F663112248FEF7A5F800233BE0797A77
:1052600097F8423001221846FFF750FC034683F0BE
:105270000103DBB2002B06D040F66B111848FEF795
:1052800091F8002327E07B6AFB63BB6ABB63BA6BC0
:10529000FB6B934238BF13467B627B6A7B63E723D9
:1052A0003B633A6B7B6B934228BF13467B620E4B8A
:1052B0005B6E23F4FF7323F001037A6A52001343F9
:1052C00097F84220002A01D0012200E0002206497E
:1052D00013434B66012318465437BD4690BD00BFAB
:1052E000FCE70000B081E00F00300E4080B584B0D4
:1052F00000AF78600023FB60344B1B6F03F00703A3
:10530000BB60324BDB6C03F00103002B14D0BB6895
:10531000012B11D97B68132B02D80423FB603DE0DD
:105320007B68132B05D97B68272B02D80823FB60E9
:1053300034E01023FB6031E0244BDB6C03F001030D
:10534000002B14D1BB68012B11D87B68092B02D824
:105350000423FB6022E07B68092B05D97B68132BB3
:1053600002D80823FB6019E01023FB6016E0174BFE
:10537000DB6C03F00103002B0BD0BB68012B08D8BA
:105380007B68272B02D80823FB6007E01023FB6013
:1053900004E040F6A9110E48FEF704F8FB68013B53
:1053A000FB60FB681A02FB681B031343FB60074B9F
:1053B000DB6C23F47F420549FB681343CB64FFF7A2
:1053C000D5FA00BF1037BD4680BD00BF00300E408B
:1053D000FCE7000080B584B000AF0346FB710021FC
:1053E0001148FFF7B4F9F860FB68002B02D1FB7994
:1053F000012B07D9FB68002B04D140F6C8110B48DC
:10540000FDF7D0FF0A4B1B6F23F00702FB79084919
:1054100013430B67074B1B881846FFF767FF00BF56
:105420001037BD4680BD00BF4C300E40FCE7000089
:1054300000300E403E25002080B485B000AF78607B
:1054400039607B6803F1C063FB60FB683A681A60EF
:1054500000BF1437BD465DF8047B704780B485B04B
:1054600000AF786039607B6803F18063FB60FB68A4
:105470003A681A6000BF1437BD465DF8047B704778
:1054800080B584B000AFF860B9607A60B968F86838
:10549000FFF7E4FF7968F868FFF7CEFF00BF103729
:1054A000BD4680BD80B582B000AF03463960FB7158
:1054B000FB79002B38D0FB79012B32D0FB79022B02
:1054C0002CD0FB79032B26D0FB79042B21D0FB7940
:1054D000052B1BD0FB79062B16D0FB79072B11D09F
:1054E000FB79082B0CD0FB79092B06D0FB790A2B12
:1054F00001D107231AE0002318E04FF4404315E0E0
:105500000F2313E0002311E000230FE04FF6FF7399
:105510000CE000230AE04FF47F4307E040F6FF73FE
:1055200004E04FF6C07301E040F2FF333A681341E4
:1055300003F00103002B04D140F2DD310C48FDF7EC
:1055400031FFFA7913465B0013441B010C3303F15E
:10555000804303F5204301213A6801FA02F2114623
:105560001846FFF77BFF00BF0837BD4680BD00BF70
:1055700010E8000080B582B000AF03463960FB71CF
:10558000FB79002B38D0FB79012B32D0FB79022B31
:105590002CD0FB79032B26D0FB79042B21D0FB796F
:1055A000052B1BD0FB79062B16D0FB79072B11D0CE
:1055B000FB79082B0CD0FB79092B06D0FB790A2B41
:1055C00001D107231AE0002318E04FF4404315E00F
:1055D0000F2313E0002311E000230FE04FF6FF73C9
:1055E0000CE000230AE04FF47F4307E040F6FF732E
:1055F00004E04FF6C07301E040F2FF333A68134114
:1056000003F00103002B04D140F20C410C48FDF7DC
:10561000C9FEFA7913465B0013441B010C3303F1F6
:10562000804303F5204301213A6801FA02F2114652
:105630001846FFF701FF00BF0837BD4680BD00BF19
:1056400010E8000080B582B000AF03463960FB71FE
:10565000FB79002B1DD0FB79012B1AD0FB79022B93
:1056600017D0FB79032B14D0FB79042B16D0FB79D0
:10567000052B0ED0FB79062B10D0FB79072B0DD014
:10568000FB79082B05D0FB79092B02D0FB790A2B7B
:1056900004D13B6823F00113002B03D083210B4876
:1056A000FDF780FEFA7913465B0013441B0103F1FA
:1056B000804303F520433A684FF001111846FFF785
:1056C000DFFE00BF0837BD4680BD00BF88E8000090
:1056D00080B584B000AFB9607B600346FB731346AE
:1056E000BB73FB7B002B38D0FB7B012B32D0FB7BC9
:1056F000022B2CD0FB7B032B26D0FB7B042B21D051
:10570000FB7B052B1BD0FB7B062B16D0FB7B072BD3
:1057100011D0FB7B082B0CD0FB7B092B06D0FB7B2D
:105720000A2B01D107231AE0002318E04FF440436D
:1057300015E00F2313E0002311E000230FE04FF6E4
:10574000FF730CE000230AE04FF47F4307E040F6CC
:10575000FF7304E04FF6C07301E040F2FF33BA6814
:10576000134103F00103002B04D140F21311394817
:10577000FDF718FEBB7B002B0DD07B68002B05D0FE
:10578000FB7BB9681846FFF7F5FE04E0FB7BB968C0
:105790001846FFF787FEBB68072B20D82E49FA7BF7
:1057A00013465B0013441B010B4404331A68BB68A7
:1057B0009B000F2101FA03F3DB431340B97BBA6866
:1057C000920001FA02F211462348FA7B194313466C
:1057D0005B0013441B0103440433196025E01E4998
:1057E000FA7B13465B0013441B010B4408331A6811
:1057F000BB6803F18043083B9B000F2101FA03F3D0
:10580000DB4302EA0301BA7BBB6803F18043083B38
:105810009B0002FA03F31048FA7B194313465B001E
:1058200013441B01034408331960BB7B002B0DD1CB
:105830007B68002B05D0FB7BB9681846FFF79AFE02
:1058400004E0FB7BB9681846FFF72CFE00BF103759
:10585000BD4680BD88E8000000A0004080B400AFD5
:1058600000BFBD465DF8047B7047000080B584B082
:1058700000AF78607B68002B01D1FDF723FC7B4BE8
:105880005B68002B2CD0794B1B68002B10D1774B19
:10589000996C764B5B689A007B687548FCF7A2FEB2
:1058A0000246744B1A607B681B78002B04D030E2F0
:1058B0006E4B1B686F4A13606E4B1B686E4A136019
:1058C0006A4B5B686D4A1360684B5B689B006C4A6F
:1058D00013606C4B1A686A4B1B681344694A136067
:1058E000624B1B89002B24D0604B996C5F4B1B894A
:1058F0001A017B686448FCF775FE0246634B1A6028
:105900007B681B78002B40F0F781604B1B68604A76
:105910001360564B1A895F4B1A80544B1B891B012D
:105920005D4A1360574B1A685B4B1B681344554A1A
:1059300013604E4B5B69002B38D04C4B1B69002B1E
:1059400010D14A4B996C494B5B699A007B6853486C
:10595000FCF748FE0246524B1A607B681B78002B0E
:1059600004D0D6E1414B1B694D4A13604C4B1B6878
:105970004C4A13603D4B5B693C4AD26802FB03F31F
:10598000494AA2FB03235B09484A1360374B5B6912
:10599000474A1360354B5B699B00464A1360394B9D
:1059A0001A68444B1B681344364A13602F4BDB6A5A
:1059B000002B41D02D4B9B6A002B10D12B4B996CA7
:1059C0002A4BDB6A9A007B683B48FCF70BFE0246D9
:1059D0003A4B1A607B681B78002B04D099E1234B6B
:1059E0009B6A364A1360214B5B6B354A13601F4B31
:1059F00093F83020334B1A70304B1B68324A1360D7
:105A00001A4BDB6A194AD26802FB03F3264AA2FB4F
:105A100003235B092D4A1360144BDB6A2C4A136085
:105A2000124BDB6A9B002B4A1360164B1A68294BFA
:105A30001B681344134A13600C4BDB69002B7CD0AA
:105A40000A4B9B69002B4BD1084B996C074BDB69C8
:105A50009A007B682048FCF7C5FD02461F4B1A6080
:105A60007B681B78002B3FD053E100BF3000002043
:105A7000A0E8000008740020582500205C250020C4
:105A800060250020B8250020B4E800000074002044
:105A900064250020682500206C250020C8E800004F
:105AA00010740020482500201F85EB514C25002054
:105AB0005025002054250020E4E800000C7400204C
:105AC000882500208C25002090250020942500208A
:105AD000982500209C25002000E90000FC73002090
