S016000052544F535F4C6162335F5461736B732E73333790
S113000000000420E10100000D0200000D020000C8
S11300100D0200000D0200000D0200000D020000A0
S11300200D0200000D0200000D0200000D02000090
S11300300D0200000C02000037490000434A000092
S11300400D0200000D0200000D0200000D02000070
S11300500D0200000D0200000D0200000D02000060
S11300600D0200000D020000374B0000B103000038
S11300700D0200000D0200000D0200000D02000040
S11300800D0200000D020000434B00000D020000B1
S11300900D0200000D0200000D0200000D02000020
S11300A00D0200000D0200000D0200000D02000010
S11300B00D0200000D0200000D0200000D02000000
S11300C00D0200000D0200000D0200000D020000F0
S11300D00D0200000D0200000D0200000D020000E0
S11300E00D0200000D0200000D0200000D020000D0
S11300F00D0200000D0200000D0200000D020000C0
S11301000D0200000D0200000D02000010B5054CA8
S1130110237833B9044B13B10448AFF300800123AF
S1130120237010BD7C000020000000002C7F000024
S113013008B5034B1BB103490348AFF3008008BD66
S113014000000000800000202C7F0000154B002BD5
S113015008BF134B9D46A3F5803A00218B460F46FA
S11301601348144A121A05F074F80F4B002B00D0F0
S113017098470E4B002B00D0984700200021040024
S11301800D000D48002802D00C48AFF3008005F0A4
S113019031F82000290004F0CFFF05F017F800BF64
S11301A0000008000000042000000000000000001F
S11301B07C000020040E002000000000000000006D
S11301C080B483B000AF054B1B687B607B68184626
S11301D00C37BD465DF8047B704700BF041000E097
S11301E0064880470649074A074B9A42BEBF51F862
S11301F0040B42F8040BF8E7FFF7A8FFED02000038
S1130200387F0000000000207C000020FEE700BFD3
S113021080B582B000AF00F025F878600A4BD3F8BF
S113022008311B0AC3F308033B603B6801337A6857
S1130230B2FBF3F37B60054A7B6813607B68184666
S11302400837BD4680BD00BF00400E4008000020B6
S113025080B400AF024B1846BD465DF8047B70477E
S1130260005A620280B483B000AF164BD3F89430C6
S113027003F00703032B08D0042B02D0022B08D071
S11302800BE0114B1B687B600BE04FF400437B6079
S113029007E00E4B1B687B6003E00D4B1B687B6023
S11302A000BF084BD3F800311B0A03F01F030133CE
S11302B07A68B2FBF3F318460C37BD465DF8047B4D
S11302C0704700BF00400E400400002000000020E2
S11302D00C00002080B400AF034B1B681846BD46D9
S11302E05DF8047B704700BF0000002080B400AFBD
S11302F0074B084A9A60064BD3F88830044A43F403
S11303007003C2F8883000BFBD465DF8047B7047B7
S113031000ED00E00000000080B400AF4FF40043A3
S11303201846BD465DF8047B704780B400AF4FF4B7
S11303307A731846BD465DF8047B704780B400AFFD
S1130340034B1B681846BD465DF8047B704700BF2D
S11303500400002080B483B000AF0346FB7197F91A
S11303600730002B0BDBFB7903F01F02074997F9D9
S113037007305B09012000FA02F241F8232000BF94
S11303800C37BD465DF8047B704700BF00E100E018
S113039080B400AF054B1B69044A23F004031361C6
S11303A030BF00BFBD465DF8047B704700ED00E040
S11303B080B483B000AF174B02225A60164B02225E
S11303C05A60144B01225A61134B5B6A7B60134BD6
S11303D01B78DBB21946124A7B6842F821300F4B76
S11303E01B78DBB21A460F4B53F822307A689A42D4
S11303F007D90A4B1B78DBB219460A4A7B6842F8D4
S11304002130094B01221A7000BF0C37BD465DF83C
S1130410047B704700800140008401409800002064
S11304209C000020AC0000209900002080B485B01E
S113043000AF0346FB71FB790D4A52F82330FB6091
S1130440FB790B4A52F823309B08FA68D31AFB60F5
S1130450FB79084A52F82330FA689A4201D90123F9
S113046000E0002318461437BD465DF8047B70474E
S1130470AC0000209C00002080B582B000AF034691
S1130480FB71FB7919464FF0804001F06DF90F4B79
S113049000225A620E4B00225A620E4B00221A703E
S11304A00A4B01225A600A4B01225A6001E0FFF70D
S11304B06FFF084B1B78DBB283F00103DBB2002B28
S11304C0F5D100BF0837BD4680BD00BF00800140A4
S11304D0008401409900002080B500AF4FF08040B7
S11304E001F084F90F4B00221A700FE00D4B1B78BA
S11304F0DBB21A460C4B9B5C1846FFF7BDFF094B59
S11305001B78DBB20133DAB2064B1A70054B1B7849
S1130510DBB2032BEAD94FF0804001F047F900BF6A
S113052080BD00BF9800002090520000B0B586B096
S113053000AF224B3C461D460FCD0FC495E8030087
S113054084E8030001211E4801F02CFC01211D4810
S113055001F028FC01211C4801F024FC01211B4866
S113056001F020FC01211A4801F01CFC194B4FF04A
S113057010621A60174B0A22DA61164B01229A6143
S1130580144B00225A62144B144A1A60124B4FF651
S1130590FF72DA61104B124A1A67124B124A1A653B
S11305A03B4619464FF0804001F080F80B20FFF7DE
S11305B0D1FE00BF1837BD46B0BD00BF9452000045
S11305C040410500000204000012040000A20400DF
S11305D000450A0000800140008401400000010A37
S11305E00100002A00600E400003100080B582B0B4
S11305F000AF1F4B7B607B6802221A617B6802227A
S11306005A617B681B4A9A617B681B4ADA617B6882
S11306104FF480621A627B6800229A627B6800222F
S11306205A627B680022DA627B68124A9A647B68A9
S1130630124ADA647B6810221A657B6800229A6584
S11306407B6800225A657B680022DA657B68073381
S11306500B49184604F005FE7B680A49184604F065
S113066000FE7B6820229A7100BF0837BD4680BD1A
S1130670FC050020AC520000BC000020BC0400209B
S1130680B8520000BC52000080B58AB000AFF860D8
S1130690B9607A603C4B1B78002B01D1FFF7A6FFB1
S11306A0FA6813465B001344DB004833364A1344AC
S11306B0BB61BB68FB61BB691B693B62BB69DB68EF
S11306C07B6100237B623A6A7B699A422AD9BB69BF
S11306D09A683B6AD31A3B613A697B68934228BFA4
S11306E013463B61BB695A683B6A13443A6919462D
S11306F0F86904F0A3FD7A6A3B6913447B62FA69E2
S11307003B691344FB617A683B69D31A7B603A6A9C
S11307103B6913443B62BB699B683A6A9A4201D1C4
S113072000233B627A693B6AD31A3B613A697B686E
S1130730934228BF13463B613B69002B18D0BB6929
S11307405A683B6A13443A691946F86904F076FD1D
S11307507A6A3B6913447B62FA693B691344FB611F
S11307607A683B69D31A7B603A6A3B6913443B62FB
S11307707B6A002B02D0BB693A6A1A617B6A18460D
S11307802837BD4680BD00BFFC05002080B58AB077
S113079000AFF860B9607A60BB687B62FB685A1C82
S11307A013465B001344DB003F4A13443B623B6A3D
S11307B01B69FB613B6ADB68BB61FA69BB699A42EE
S11307C054D83B6A9A68BB69D31A013B7B617A6946
S11307D07B689A420FD33B6A5A68BB6913447A68B0
S11307E0796A184604F02AFDBA697B681A443B6AA0
S11307F0DA60012354E07A69FB6913447B617A6906
S11308007B689A424BD33B6A9A68BB69D31A3B61B3
S11308103A697B689A420ED93B6A5A68BB691344A9
S11308207A68796A184604F009FDBA697B681A4443
S11308303B6ADA6018E03B6A5A68BB6913443A6958
S1130840796A184604F0FAFC3B6A58687A6A3B698C
S1130850D1187A683B69D31A1A4604F0EFFC7A6817
S11308603B69D21A3B6ADA60012319E0FA69BB6971
S1130870D31A013B7B617A697B689A420FD33B6A46
S11308805A68BB6913447A68796A184604F0D6FC3E
S1130890BA697B681A443B6ADA60012300E00023EA
S11308A018462837BD4680BDFC05002080B487B0BB
S11308B000AFF860B9607A6000233B6102E03B69F5
S11308C001333B61BA683B6913441B78002BF6D1B2
S11308D03A697B689A4201D97B683B613B69FE2B8C
S11308E006D8FB685A1CFA603A69D2B21A7011E051
S11308F0FB685A1CFA60FF221A70FB685A1CFA60E3
S11309003A69D2B21A703B69190AFB685A1CFA6038
S1130910CAB21A7000237B610AE0BA68531CBB6038
S1130920FB68591CF96012781A707B6901337B618A
S11309307A693B699A42F0D3FB6818461C37BD4676
S11309405DF8047B704780B483B000AF78607B6847
S1130950043318460C37BD465DF8047B704780B5F8
S113096082B000AFFB1C012219460120FFF78CFE68
S113097003467B607B68002B44DDFB78042B1AD094
S1130980042B06DC022B10D0022B11DC012B09D026
S11309902DE0062B15D0062B10DB072B14D0802B53
S11309A015D024E000F02EFA31E000F0DFFA2EE05A
S11309B000F0A8FB2BE000F091FB28E000F0F8FA2F
S11309C025E000F0B3FD22E000F092FD1FE0FB1CE7
S11309D0012219460120FFF757FE03467B607B681E
S11309E0002B11DDFB78184600F006FD0CE0FB78C7
S11309F05BB2002B0ADAFB1C012219460120FFF727
S1130A0043FE03E000BF02E000BF00E000BF00BF00
S1130A100837BD4680BD000080B58CB000AF01230F
S1130A203B713B1D0133FB61FB69FB62334B5B692B
S1130A30BB620BE0BB6ADAB2FB6A591CF96262F072
S1130A407F02D2B21A70BB6ADB09BB62BB6A7F2B1E
S1130A50F0D8FB6A5A1CFA62BA6AD2B21A70FB6AFC
S1130A60FB61274B1B68BB61244BDB68BA69D31A53
S1130A707B617B691B017B617B691B117B61FB696A
S1130A807B627B693B620BE03B6ADAB27B6A591C8E
S1130A90796262F07F02D2B21A703B6ADB093B6270
S1130AA03B6A7F2BF0D87B6A5A1C7A623A6AD2B2CC
S1130AB01A707B6AFB61FA693B1DD31A1A463B1D07
S1130AC019460120FFF762FE03463B613B69002B98
S1130AD009D00A4ABB69D360084B1B78013BDAB2E0
S1130AE0064B1A7004E0054B5B690133034A5361FA
S1130AF03B6918463037BD4680BD00BFCC0400209A
S1130B00041000E080B58AB000AFF860B9607A6084
S1130B10654B1B78012B10D0634B1B78002B00F026
S1130B20A780614B1B78022B09D1FFF775FF5E4B41
S1130B301B78012B40F09E8001E000BF00E000BF65
S1130B407B681F2B09D8584BDA697B6822FA03F3B8
S1130B5003F00103002B40F08F807B68172B07D82C
S1130B60FB68013BFB607B68DAB2FB681A703DE00E
S1130B70BA68FB68D31AFB61FB697F2B12D9FB6946
S1130B80DA09FB68013BFB60D2B2FB681A70FB69AF
S1130B90DBB2FA68013AFA6063F07F03DAB2FB6809
S1130BA01A7006E0FB68013BFB60FB69DAB2FB6884
S1130BB01A707B687F2B12D97B68DA09FB68013BCA
S1130BC0FB60D2B2FB681A707B68DBB2FA68013A48
S1130BD0FA6063F07F03DAB2FB681A7006E0FB6820
S1130BE0013BFB607B68DAB2FB681A702F4B1B6811
S1130BF0BB612D4BDB68BA69D31A7B617B691B012E
S1130C007B617B691B097B61BB687B627B693B629F
S1130C100BE03B6ADAB27B6A591C796262F07F02AC
S1130C20D2B21A703B6ADB093B623B6A7F2BF0D875
S1130C307B6A5A1C7A623A6AD2B21A707B6ABB60C7
S1130C40BA68FB68D31A1A46F9680120FFF79EFDBB
S1130C5003463B613B69002B03D0134ABB69D36055
S1130C600BE0114B1B780133DAB20F4B1A7004E01E
S1130C7000BF02E000BF00E000BF0D4BDA6E0C4B7A
S1130C801B6F9A420BD0084B9B78002B07D1064B65
S1130C9001229A70FFF763FE034B00229A7000BF93
S1130CA02837BD4680BD00BFCC040020041000E0FE
S1130CB0FC05002080B584B000AF786001F056FFD9
S1130CC0F8600848FFF73FFEB8607A68B968B8680A
S1130CD0FFF718FFF86801F059FF00BF1037BD4651
S1130CE080BD00BFFC04002080B588B000AF7860F0
S1130CF0396001F03BFF78611648FFF724FE386144
S1130D003B69FB60FB68FB613B68BB610BE0BB6953
S1130D10DAB2FB69591CF96162F07F02D2B21A702F
S1130D20BB69DB09BB61BB697F2BF0D8FB695A1C2B
S1130D30FA61BA69D2B21A70FB69FB607A68F96821
S1130D403869FFF7DFFE786901F020FF00BF203724
S1130D50BD4680BDFC04002080B58CB000AFF860B7
S1130D60B9607A6001F002FFF8612548FFF7EBFDF6
S1130D70B861BB697B617B69FB62BB68BB620BE0EA
S1130D80BB6ADAB2FB6A591CF96262F07F02D2B222
S1130D901A70BB6ADB09BB62BB6A7F2BF0D8FB6AA3
S1130DA05A1CFA62BA6AD2B21A70FB6A7B617B6916
S1130DB07B627B683B620BE03B6ADAB27B6A591C5C
S1130DC0796262F07F02D2B21A703B6ADB093B623D
S1130DD03B6A7F2BF0D87B6A5A1C7A623A6AD2B299
S1130DE01A707B6A7B61FA687969B869FFF78AFED1
S1130DF0F86901F0CBFE00BF3037BD4680BD00BFAF
S1130E00FC04002080B58CB000AF554B1B78002B40
S1130E1040F0A280524B01221A7001F0A7FEF86044
S1130E200A2250490120FFF7B1FCF86801F0AEFE38
S1130E300A20FFF73FFF01F099FEB8604A48FFF728
S1130E4082FD78607B683B603B68FB62444B5B6877
S1130E50BB620BE0BB6ADAB2FB6A591CF96262F04E
S1130E607F02D2B21A70BB6ADB09BB62BB6A7F2BFA
S1130E70F0D8FB6A5A1CFA62BA6AD2B21A70FB6AD8
S1130E803B603B687B62364B9B683B620BE03B6A92
S1130E90DAB27B6A591C796262F07F02D2B21A70AC
S1130EA03B6ADB093B623B6A7F2BF0D87B6A5A1CA6
S1130EB07A623A6AD2B21A707B6A3B603B68FB6121
S1130EC0274B1B69BB610BE0BB69DAB2FB69591C98
S1130ED0F96162F07F02D2B21A70BB69DB09BB61AF
S1130EE0BB697F2BF0D8FB695A1CFA61BA69D2B28C
S1130EF01A70FB693B603B687B6102233B610BE03A
S1130F003B69DAB27B69591C796162F07F02D2B223
S1130F101A703B69DB093B613B697F2BF0D87B6925
S1130F205A1C7A613A69D2B21A707B693B60182202
S1130F3039687868FFF7E6FDB86801F027FE084BCA
S1130F405B6A002B02D0064B5B6A984700F0DAF824
S1130F5000F0C4F800F0EAFA00BF3037BD4680BDA7
S1130F60CC040020C4520000FC04002080B582B0F0
S1130F7000AF01F0FBFD78600B48FFF7E4FC38603C
S1130F800A4B1B78002B07D00B2239683868FFF70F
S1130F90B9FD064B00221A70786801F0F7FD00BF16
S1130FA00837BD4680BD00BFFC040020CC040020EF
S1130FB080B58CB000AF01F0D9FDF8604548FFF76B
S1130FC0C2FCB860BB687B607B68FB62424B5B68B9
S1130FD0BB620BE0BB6ADAB2FB6A591CF96262F0CD
S1130FE07F02D2B21A70BB6ADB09BB62BB6A7F2B79
S1130FF0F0D8FB6A5A1CFA62BA6AD2B21A70FB6A57
S11310007B607B687B62344B9B683B620BE03B6A92
S1131010DAB27B6A591C796262F07F02D2B21A702A
S11310203B6ADB093B623B6A7F2BF0D87B6A5A1C24
S11310307A623A6AD2B21A707B6A7B607B68FB611F
S1131040254B1B69BB610BE0BB69DAB2FB69591C18
S1131050F96162F07F02D2B21A70BB69DB09BB612D
S1131060BB697F2BF0D8FB695A1CFA61BA69D2B20A
S11310701A70FB697B607B687B6102233B610BE038
S11310803B69DAB27B69591C796162F07F02D2B2A2
S11310901A703B69DB093B613B697F2BF0D87B69A4
S11310A05A1C7A613A69D2B21A707B697B60182241
S11310B07968B868FFF726FDF86801F067FD064B0C
S11310C05B6A002B02D0044B5B6A984700BF303741
S11310D0BD4680BDFC040020CC04002080B500AFD8
S11310E0074B1B6A002B08D0054B1B6A5B68002B5F
S11310F003D0034B1B6A5B68984700BF80BD00BFE9
S1131100CC04002090B583B000AF144B1B6A002BB5
S113111019D0124B1B6A1B68002B14D00F4B1B6A8F
S11311201B689847C7E900013868D7E900124FF0F7
S113113000034FF00004130000241A4601460D205A
S1131140FFF70AFE05E0064B1B6819460C20FFF763
S1131150CBFD00BF0C37BD4690BD00BFCC040020C2
S1131160041000E080B586B000AF01F0FFFCF86029
S11311701948FFF7E8FBB860BB687B60174B1B6836
S1131180C3F308033B607B687B613B683B610BE016
S11311903B69DAB27B69591C796162F07F02D2B291
S11311A01A703B69DB093B613B697F2BF0D87B6993
S11311B05A1C7A613A69D2B21A707B697B60022246
S11311C07968B868FFF79EFCF86801F0DFFC00BF9F
S11311D01837BD4680BD00BFFC04002004ED00E0CC
S11311E080B582B000AF01F0C1FC78600748FFF71A
S11311F0AAFB3860032239683868FFF783FC7868F3
S113120001F0C4FC00BF0837BD4680BDFC040020CB
S113121080B582B000AF01F0A9FC78600748FFF701
S113122092FB3860112239683868FFF76BFC7868E4
S113123001F0ACFC00BF0837BD4680BDFC040020B3
S113124080B588B000AF786001F090FC78611A48EE
S1131250FFF779FB38613B69FB60184B1B697A68BF
S1131260D31A9B087B60FB68FB617B68BB610BE066
S1131270BB69DAB2FB69591CF96162F07F02D2B230
S11312801A70BB69DB09BB61BB697F2BF0D8FB69B2
S11312905A1CFA61BA69D2B21A70FB69FB60042263
S11312A0F9683869FFF72EFC786901F06FFC00BF1C
S11312B02037BD4680BD00BFFC040020CC040020C4
S11312C080B588B000AF786001F050FC78611A48AE
S11312D0FFF739FB38613B69FB60184B1B697A687F
S11312E0D31A9B087B60FB68FB617B68BB610BE0E6
S11312F0BB69DAB2FB69591CF96162F07F02D2B2B0
S11313001A70BB69DB09BB61BB697F2BF0D8FB6931
S11313105A1CFA61BA69D2B21A70FB69FB600622E0
S1131320F9683869FFF7EEFB786901F02FFC00BF1C
S11313302037BD4680BD00BFFC040020CC04002043
S113134080B58AB000AF7860396001F00FFC786135
S11313502748FFF7F8FA38613B69FB60254B1B69A6
S11313607A68D31A9B087B60FB687B627B683B626C
S11313700BE03B6ADAB27B6A591C796262F07F0245
S1131380D2B21A703B6ADB093B623B6A7F2BF0D80E
S11313907B6A5A1C7A623A6AD2B21A707B6AFB6020
S11313A0FB68FB613B68BB610BE0BB69DAB2FB69BC
S11313B0591CF96162F07F02D2B21A70BB69DB0971
S11313C0BB61BB697F2BF0D8FB695A1CFA61BA690F
S11313D0D2B21A70FB69FB600722F9683869FFF71B
S11313E091FB786901F0D2FB00BF2837BD4680BD70
S11313F0FC040020CC04002080B58CB000AF034670
S1131400FB71394B1B68002B69D0374B1B68FB629F
S11314100023BB6208E0FB6A1B69FB62FB6A002BCA
S113142007D0BB6A0133BB62FB79BA6A9A42F2D332
S113143000E000BFFB6A002B51D001F097FB7861FC
S11314402A48FFF780FA38613B69FB60FB687B62DE
S1131450FB793B620BE03B6ADAB27B6A591C796226
S113146062F07F02D2B21A703B6ADB093B623B6ACC
S11314707F2BF0D87B6A5A1C7A623A6AD2B21A700D
S11314807B6AFB60FB68FB61FB6A9B68BB610BE0EA
S1131490BB69DAB2FB69591CF96162F07F02D2B20E
S11314A01A70BB69DB09BB61BB697F2BF0D8FB6990
S11314B05A1CFA61BA69D2B21A70FB69FB60FB6A02
S11314C01B6880221946F868FFF7F0F9F8601622C5
S11314D0F9683869FFF716FB786901F057FB00BF1C
S11314E03037BD4680BD00BFF4040020FC0400205A
S11314F080B582B000AF0C4B1B68002B0FD00A4B99
S11315001B687B607B68DB68002B02D07B68DB6830
S113151098477B681B697B607B68002BF2D100BF16
S11315200837BD4680BD00BFF404002080B586B0F6
S113153000AF01F01BFBF8601748FFF704FAB8602E
S1131540BB687B607B687B61144B1B783B610BE061
S11315503B69DAB27B69591C796162F07F02D2B2CD
S11315601A703B69DB093B613B697F2BF0D87B69CF
S11315705A1C7A613A69D2B21A707B697B601B2269
S11315807968B868FFF7BEFAF86801F0FFFA00BF9F
S11315901837BD4680BD00BFFC040020F8040020BD
S11315A080B582B000AF7860054A7B68934202D070
S11315B07868FFF785FE00BF0837BD4680BD00BFD1
S11315C09C0B002080B582B000AF7860042178685D
S11315D0FFF7B6FE7868FFF773FE00BF0837BD4615
S11315E080BD000080B582B000AF7860064A7B6899
S11315F0934203D07868FFF723FE01E0FFF708FE6B
S113160000BF0837BD4680BD9C0B002080B400AFEE
S1131610FEE780B487B000AFF860B9607A60FB6819
S113162003F10473DA00BB6813449B007B617B699C
S11316307A681A6000BF1C37BD465DF8047B7047AA
S113164080B485B000AF786039607B6803F1C06313
S1131650FB60FB683A681A6000BF1437BD465DF84A
S1131660047B704780B485B000AF786039607B68D4
S113167003F18063FB60FB683A681A6000BF1437AB
S1131680BD465DF8047B704780B584B000AFF86058
S1131690B9607A60B968F868FFF7E4FF7968F868B8
S11316A0FFF7CEFF00BF1037BD4680BD80B582B0C6
S11316B000AF786039607B68B3F1804F07D07B68F6
S11316C0274A934203D0A821264800F0AFF83B688C
S11316D01B693F2B03D9BC21224800F0A7F83B68C3
S11316E0DB683F2B03D9BD211E4800F09FF83B68FF
S11316F05B683F2B03D9BF211A4800F097F83B6879
S11317001B78DB071A463B685B681B06134343F4EC
S113171000427B681A603B68DB681B043A68127AF3
S11317201A437B689A623B681B691B043A68527AC5
S11317301A437B68DA623B689B7A1B0743F0806339
S113174043F47D437A68536078683B681B7D1A468E
S11317500021FFF75EFF00BF0837BD4680BD00BF14
S113176000040040B87A000080B582B000AF786011
S11317700B46FB707B68B3F1804F07D07B68094A46
S1131780934203D0FB21084800F050F87B680433EF
S1131790FA78FF211846FFF777FF00BF0837BD46E8
S11317A080BD00BF00040040B87A000080B582B05C
S11317B000AF78607B68B3F1804F08D07B68094A3A
S11317C0934204D040F22111074800F02FF87B68BF
S11317D01B6823F001027B681A6000BF0837BD460E
S11317E080BD00BF00040040B87A000080B582B01C
S11317F000AF78607B68B3F1804F08D07B68094AFA
S1131800934204D04FF49A71074800F00FF87B68B4
S11318101B6843F001027B681A6000BF0837BD46AD
S113182080BD00BF00040040B87A000080B483B0DB
S113183000AF78603960FEE780B487B000AFF8602D
S1131840B9607A60FB6803F10473DA00BB6813447F
S11318509B007B617B697A681A6000BF1C37BD46B8
S11318605DF8047B704780B485B000AF7860396060
S11318707B6803F10473DA003B6813449B00FB604C
S1131880FB681B6818461437BD465DF8047B704737
S113189080B582B000AF78607B681F2B04D94FF409
S11318A096710548FFF7C2FF01227B6802FA03F331
S11318B018460837BD4680BDCC7A000080B582B09A
S11318C000AF78607868FFF7E3FF034618460837EF
S11318D0BD4680BD80B500AF00BF12210348FFF7AD
S11318E0C2FF0346002BF8D100BF80BD04300E4078
S11318F080B500AFFFF7EEFF034B5B681B0C03F0F2
S11319000303DBB2184680BD00300E4080B584B0BE
S113191000AF78600123FB607B68124A934204D8CD
S11319200023FB600023BB6008E07B680E4A9342FF
S113193002D80123BB6001E00223BB60FA681021D6
S11319400A48FFF779FF094BD3F8003123F080727E
S1131950BB681B0605491343C1F8003100BF1037AB
S1131960BD4680BD0048E8010090D00300400E4011
S113197080B483B000AF054B1B687B607B6818465E
S11319800C37BD465DF8047B704700BF1000002093
S113199080B582B000AFFEF765FC7860064BD3F8E3
S11319A000311B0A03F01F0301337A6802FB03F3BF
S11319B018460837BD4680BD00400E4080B582B051
S11319C000AF0F4800F066FB0346FB70FB78072B63
S11319D005D0092B07D1FEF745FC78600BE0FFF733
S11319E0C7FF786007E000237B6040F69A21054832
S11319F0FFF71CFF00BF7B6818460837BD4680BD53
S1131A0006000E00C07B000080B584B000AF786093
S1131A107B68002B1CD1204800F03CFB0346FB7282
S1131A2000BFFB7A013B072B28D801A252F823F010
S1131A305F1A00007D1A00007D1A00006D1A000074
S1131A407D1A00007D1A0000651A0000751A000056
S1131A5040F6BA211148FFF7E9FE002317E00023FE
S1131A60FB6013E0FFF784FFF8600FE0FEF732FC41
S1131A70F8600BE0FFF78CFFF86007E00023FB60E1
S1131A8040F6D1210548FFF7D1FE00BFFB68184698
S1131A901037BD4680BD00BFB8003200C07B0000D7
S1131AA080B584B000AF78603960204B5B6803F088
S1131AB04073FB600023BB6012E01D4ABB68DB007F
S1131AC013441A793B68DBB29A4206D1184ABB68C0
S1131AD052F833307A689A4206D9BB680133BB6046
S1131AE0BB68042BE9D900E000BFBB68052B07D114
S1131AF00323FB6040F6D8310E48FFF797FE05E05C
S1131B000B4ABB68DB0013445B79FB60FB681B0674
S1131B10FB60064B5B6823F040720449FB68134387
S1131B204B6000BF1037BD4680BD00BF00000E40B3
S1131B30D47B0000C07B000080B582B000AF0E4BA8
S1131B401B6C002B14BF01230023FB710A4B41F6CD
S1131B5071321A64FEF77CFB034600211846FFF736
S1131B609FFFFB79002B02D0034B00221A6400BFB5
S1131B700837BD4680BD00BF00000E4080B584B06C
S1131B8000AF786039600C4B1B6C002B14BF012331
S1131B900023FB73084B41F671321A643968786884
S1131BA0FFF77EFFFB7B002B02D0034B00221A645D
S1131BB000BF1037BD4680BD00000E4080B487B022
S1131BC000AF78600F237B617B6803333B617B69E3
S1131BD0FB60FA683B69934228BF1346BB60BB684D
S1131BE01B07BB60BB6818461C37BD465DF8047B09
S1131BF07047000080B400AF044B5B6A1B0903F01C
S1131C0003031846BD465DF8047B704700400E4050
S1131C1080B483B000AF7860074B5B6A23F0300276
S1131C207B681B01044913434B6200BF0C37BD465C
S1131C305DF8047B704700BF00400E4090B585B04E
S1131C4000AF78600023BB607B683C4A93420BD0B2
S1131C503B4A934208D03B4A934205D040F6C941DF
S1131C603948FFF7E3FD00E000BF786800F012FA9E
S1131C700346FB607B68314A93420CD0304A93425E
S1131C8010D0304A934214D1304BD3F8803003F053
S1131C900703FB6013E02D4BD3F8843003F00703F4
S1131CA0FB600CE0294BD3F8883003F00703FB609A
S1131CB005E040F6F8412448FFF7B8FD00BFFB6893
S1131CC0042B2ED801A252F823F000BF1D1D0000E2
S1131CD0E11C0000E91C0000F91C0000F11C0000DC
S1131CE0FEF71AFBB86024E0FEF728FBB86020E09A
S1131CF0FEF71BFBB8601CE0FEF78AFA0446134BA0
S1131D00D3F800311B0E03F0010301331846FFF72B
S1131D10D5FD0346B4FBF3F3BB600AE00023BB60CC
S1131D2007E00023BB6040F64A510748FFF77EFDF9
S1131D3000BFBB6818461437BD4690BD03002000A1
S1131D400500240002001E00C07B000000400E407D
S1131D5080B483B000AF78600A4BD3F8443103F009
S1131D600103002B08D100BF064BD3F840217B6848
S1131D701340002BF8D100E000BF0C37BD465DF8DE
S1131D80047B704700400E4080B400AF00BFBD46E6
S1131D905DF8047B704780B400AF00BFBD465DF8BA
S1131DA0047B704780B586B000AF78600B46FB704B
S1131DB000233B617B681B0A03F00F03013B092BE3
S1131DC032D801A252F823F0F11D0000FD1D0000DD
S1131DD0291E0000291E0000F71D0000031E00003C
S1131DE00D1E0000291E0000171E0000231E000007
S1131DF01A4B7B611EE01A4B7B611BE0194B7B6124
S1131E0018E0194B7B6101233B6113E0174B7B61A5
S1131E1010233B610EE0164B7B614FF480333B6132
S1131E2008E0144B7B6105E041F23C111248FFF7D6
S1131E30FDFC10E07B681B0B03F01F03FB603B6998
S1131E40002B02D03869FFF783FFFB781A46F96844
S1131E507869FFF7F1FC1837BD4680BD00400E409D
S1131E60B0400E40C0400E40E0400E40E8400E40FE
S1131E70F0400E4050410E40C07B000080B584B05D
S1131E8000AF78607B6803F47813B3F5A01F7DD0AE
S1131E90B3F5A01F1AD8B3F5202F50D0B3F5202FD7
S1131EA008D8B3F5003F4ED0B3F5802F38D0002BBF
S1131EB032D0D8E0B3F5602F00F0C880B3F5801FAE
S1131EC000F0C880B3F5402F4CD0CCE0B3F5001F30
S1131ED000F08B80B3F5001F0AD8B3F5D01F00F0D3
S1131EE08980B3F5F01F4CD0B3F5B01F5CD0BAE0D5
S1131EF0B3F5381F6AD0B3F5381F04D8B3F5101FF3
S1131F0000F09F80AFE0B3F5401F00F08680B3F58A
S1131F10481F00F0A380A6E0FEF7A4F9F860AAE049
S1131F20FEF7A0F9F860564BD3F80C311B0AC3F343
S1131F3008030133FA68B2FBF3F3FB609BE0FEF79E
S1131F4091F9F86097E0FEF78DF9F8604C4BD3F8FF
S1131F5008311B0AC3F308030133FA68B2FBF3F335
S1131F60FB6088E0FEF77EF9F860454BD3F8143146
S1131F701B0A03F01F030133FA68B2FBF3F3FB609F
S1131F8079E04048FFF75AFEF86074E03E48FFF7F6
S1131F9055FEF8603A4BD3F8303103F00303FA6886
S1131FA022FA03F3FB6066E03648FFF747FEF86069
S1131FB0334BD3F8203103F00F031846FFF77EFCB0
S1131FC00246FB68B3FBF2F3FB6054E02D48FFF7D5
S1131FD035FEF8602A4BD3F820311B0903F00303C4
S1131FE0FA6822FA03F3FB6045E02848FFF726FE6F
S1131FF0F86040E02548FFF721FEF860204BD3F855
S113200028311B0903F003031846FFF757FC024667
S1132010FB68B3FBF2F3FB602DE01C48FFF70EFEF8
S1132020F860174BD3F828311B0A03F00303043379
S11320301846FFF743FC0246FB68B3FBF2F3FB6070
S113204019E01148FFF7FAFDF86014E0FFF7B6FC59
S1132050F86010E0FFF78CFCF8600CE00020FFF75C
S1132060D3FCF86007E00023FB6041F262210848DA
S1132070FFF7DCFB00BFFB6818461037BD4680BD88
S113208000400E4002001E00050024000300200052
S1132090C07B000080B584B000AF78600123FB737F
S11320A07B6803F00F03BB60BB68013B072B00F2A6
S11320B0C48001A252F823F0D92000002F2100008F
S11320C05F2100003B220000A5210000D521000073
S11320D03B220000F92100005E4BD3F8943003F05A
S11320E00703023B052B1ED801A252F823F000BFC0
S11320F0152100000F210000092100001B21000010
S113210027210000212100000223FB730EE003239A
S1132110FB730BE00423FB7308E00B23FB7305E064
S11321200C23FB7302E00523FB7300BF8DE0494BD6
S1132130D3F8803003F00703022B06D0042B07D01A
S1132140012B08D10323FB7308E00223FB7305E092
S11321500A23FB7302E00123FB7300BF75E03D4BD0
S1132160D3F8843003F00703013B032B16D801A2F4
S113217052F823F0852100008B21000097210000F4
S1132180912100000323FB730BE00223FB7308E09F
S11321900A23FB7305E00623FB7302E00123FB73B0
S11321A000BF52E02B4BD3F8883003F00703022B17
S11321B006D0042B07D0012B08D10323FB7308E0BE
S11321C00223FB7305E00A23FB7302E00123FB7384
S11321D000BF3AE01F4B1B6F03F00103002B04D038
S11321E0012B05D10923FB7305E00723FB7302E0F0
S11321F00123FB7300BF28E0164BD3F85C3103F0D6
S11322003003102B0CD0102B02D8002B05D010E07B
S1132210202B08D0302B09D00BE00123FB730BE0FB
S11322200723FB7308E00423FB7305E00823FB7317
S113223002E00123FB7300BF07E00023FB7341F2BC
S113224076610548FFF7F2FA00BFFB7B18461037AA
S1132250BD4680BD00400E40C07B000080B58AB002
S113226000AF78600B46FB7003237B62032387F87F
S113227023300023BB6100237B617B68112B19D1C0
S1132280FB78042B03D1FEF725F878610BE0FB788B
S1132290052B08D100F08AF90246BB4B9A4202D9B9
S11322A000F084F978617B69002B03D00021786900
S11322B000F0F0FC7B6803F00F033B613B69013BDA
S11322C0072B00F2578101A252F823F0ED220000FF
S11322D0F92300002B240000752500000D240000C4
S11322E0CD24000075250000F7240000FB78023B94
S11322F00A2B49D801A252F823F000BF2923000079
S113230035230000412300005323000089230000EB
S11323108923000089230000892300007D23000015
S1132320652300007123000004237B62002387F8E7
S113233023302FE003237B62012387F8233029E035
S113234002237B62022387F823309048FFF7DEFAEA
S113235020E001237B62032387F823308B48FFF7B7
S1132360D5FA17E005237B62032387F8233011E0B5
S113237007237B62062387F823300BE041F2347194
S11323808348FFF753FAFBE041F239718048FFF7C5
S11323904DFAF5E097F82330062B06D097F8233052
S11323A001220121184600F08FF9FFF7C5FBFFF762
S11323B0EBFC7B69002B01D0FFF78CFA754A7B6A32
S11323C053677548FFF75AFD03461846FFF79EFA10
S11323D0FDF71EFFF860FFF78BFA03461946F8680D
S11323E0FFF7CCFB7B69002B03D10121002000F017
S11323F051FCFFF7D0FCC3E0684BBB61FB78062BB4
S113240004D141F275716248FFF710FABB69002BE1
S113241001D0BB6900E0624BBB61FB78062B04D1A1
S113242041F289715A48FFF701FABB69002B01D0C8
S1132430BB6900E05B4BBB61FB78013B092B3BD8DC
S113244001A252F823F000BF712400007724000099
S113245087240000B9240000B92400009724000058
S1132460B9240000B9240000B9240000B3240000FA
S11324700023FB6126E001220121002000F024F961
S11324800223FB611EE001220121012000F01CF95E
S11324900123FB6116E0FDF7BBFE03461846FFF778
S11324A035FA012202214048FFF7C6F90323FB61F4
S11324B008E00423FB6105E041F2AE713448FFF704
S11324C0B5F95DE0BB69FA691A6059E0FB78072B3E
S11324D002D0092B04D007E02E4B00221A6709E032
S11324E02C4B01221A6705E041F638012848FFF712
S11324F09DF945E044E0FB78013B072B28D801A275
S113250052F823F025250000512500005125000034
S11325103B25000051250000512500002B2500001B
S11325204B2500000023FB6118E001220121042057
S113253000F0CAF80123FB6110E00122012102200E
S113254000F0C2F80223FB6108E00323FB6105E00D
S113255041F696010E48FFF769F911E00D4BD3F8E7
S11325605C3123F03002FB691B010A491343C1F8B3
S11325705C3105E041F66D110548FFF757F900BFDE
S11325802837BD4680BD00BF002D31010148E80158
S1132590C07B000000400E4000250A0080400E4031
S11325A088400E4084400E40B0400E4080B400AFDE
S11325B0034B1B681846BD465DF8047B704700BF9B
S11325C00C00002090B585B000AF78601120FFF7B3
S11325D061FD0346042B04D141F61D413748FFF742
S11325E025F901220021022000F06EF87B685B7857
S11325F0002B07D17B689B78002B03D17B68DB78A9
S1132600002B04D041F65B412C48FFF70FF900235F
S1132610FB607B681B7C012B04D14FF4E3512748FA
S1132620FFF704F97B681B7C022B01D10123FB60BB
S1132630234B5B6A23F001022149FB6813434B627D
S11326407B681B781A4608211E48FFF7F5F87B685B
S11326509B88DB027A68527A1146194A0B43D3628B
S1132660174B1B6B03F07F627B68DB88DB02134331
S11326707A68927A1A437B681B7ADB0142EA030484
S11326807B681B7A1846FFF799FA03460C4A2343E2
S113269013637B685B7B1A037B689B7B1B0113437F
S11326A07A68D27B1A437B681B7B1B04044913435F
S11326B04B6300BF1437BD4690BD00BFC07B000014
S11326C000400E4024400E4080B588B000AF034661
S11326D0FB710B46BB7113467B71FB79042B3CD811
S11326E001A252F823F000BF452700003327000061
S11326F00F270000FD2600002127000001237B6135
S113270002233B610123FB610023BB612BE0042313
S11327107B6108233B610323FB610223BB6122E04D
S113272010237B6120233B610523FB610423BB61F0
S113273019E040237B6180233B610723FB6106236F
S1132740BB6110E04FF480737B614FF400733B6115
S11327500923FB610823BB6105E041F66551454847
S1132760FFF764F883E0BB79002B64D00023FB738C
S1132770FB79022B1AD1FFF73DFA0346002B15D142
S11327803D4BDB6B03F48063002B04D141F67451A1
S11327903848FFF74BF80123FB73384B5B6A03F0AF
S11327A00103012B02D10120FFF732FA334A7B697E
S11327B0136600BFB9693248FFF755F80346002B8A
S11327C0F8D07B79002B52D000BFF9692C48FFF771
S11327D04AF80346002BF8D0FB79022B47D1FB7B48
S11327E0002B44D0254B5B6A03F00103012B05D178
S11327F001222021022000F087F903E000210220B9
S113280000F028F9022000F03DF8B8600122002110
S11328100220FFF759FFB968022000F071F8174A47
S11328207B69136600BFF9691548FFF71CF8034676
S1132830002BF8D01BE0114A3B69136600BF0F4B15
S1132840D3F890300121BA6901FA02F21340002B47
S1132850F5D17B79002B0AD000BF084BD3F8903018
S11328600121FA6901FA02F21340002BF5D1203755
S1132870BD4680BDC07B000000300E4000400E40CD
S113288090400E4080B584B000AF0346FB71FB79E5
S1132890013B032B23D801A252F823F0AD280000FA
S11328A0D1280000B9280000C5280000124B1B6A7B
S11328B0C3F30803FB601AE00F4B1B6903F07F03AB
S11328C0FB6014E00C4B9B6903F07F03FB600EE09C
S11328D0094BD3F89C30C3F30A03FB6007E00023E1
S11328E0FB6041F6F1510548FEF7A0FF00BFFB680D
S11328F018461037BD4680BD00400E40C07B000026
S113290080B584B000AF03463960FB71FB79013BAD
S1132910032B00F28C8001A252F823F02D29000031
S1132920E12900006D290000A72900003B68B3F5E8
S1132930007F04D341F617614248FEF777FF3B68F6
S1132940C3F308033B6000BF1A213F48FEF78BFF27
S11329500346002BF8D13D4B1B6A23F4FF7323F08D
S113296001033A493A6813430B6266E03B687F2BE4
S113297004D941F624613348FEF758FF3B6803F05D
S11329807F033B6000BF18212F48FEF76CFF03460E
S1132990002BF8D12D4B1B6923F07F022B493B6898
S11329A013430B6149E03B687F2B04D941F63F6137
S11329B02448FEF73BFF3B6803F07F033B6000BF06
S11329C019212148FEF74FFF0346002BF8D11F4B76
S11329D09B6923F07F021D493B6813438B612CE004
S11329E01A4BD3F8903003F00403002B04D041F6C3
S11329F04E611448FEF71AFF144B5B6A23F0300350
S1132A00124A43F0100353623B68DB0903F00F03DF
S1132A101846FFF7D3F8F8600C4B1A6B0C4B1340B5
S1132A203A681A430949FB6813430B6305E041F60E
S1132A3068610448FEF7FAFE00BF00BF1037BD46C8
S1132A4080BD00BFC07B000040410E4000400E40EE
S1132A5000F8FF0F80B584B000AF03460A46FB714F
S1132A601346BB71FB79022B04D04FF4F451234875
S1132A70FEF7DCFEFFF7BEF80346002B03D14FF44C
S1132A804003FB601BE0BB79202B04D0302B0AD021
S1132A90002B04D00BE04FF40003FB600FE04FF475
S1132AA04003FB600BE04FF44003FB6007E0144B72
S1132AB0FB6041F69B611148FEF7B8FE00BF00BF02
S1132AC0104BD3F89020FB681340FA689A42F7D170
S1132AD0FB6803F48003002B0AD00A4BD3F8A03020
S1132AE003F48063002B14BF01230023DBB200E056
S1132AF0012318461037BD4680BD00BFC07B0000CF
S1132B00FF33E10700400E4080B582B000AF0346BA
S1132B10FB710B46BB7113467B71FB79022B15D1FC
S1132B20BB79002B07D00F4B4FF48062C3F8A82069
S1132B300C4ABB7953667B79002B0DD0BA79FB79AB
S1132B4011461846FFF786FF034607E041F6D161B8
S1132B500548FEF76BFE00E000BF01231846083766
S1132B60BD4680BD00400E40C07B000080B483B0F1
S1132B7000AFEFF310833B603B687B6072B67B6809
S1132B8018460C37BD465DF8047B704780B483B0AB
S1132B9000AF78607B68002B00D162B600BF0C37B1
S1132BA0BD465DF8047B704780B487B000AFF86021
S1132BB0B9607A60FB6803F10473DA00BB681344FC
S1132BC09B007B617B697A681A6000BF1C37BD4635
S1132BD05DF8047B704780B485B000AF78603960DD
S1132BE07B6803F10473DA003B6813449B00FB60C9
S1132BF0FB681B6818461437BD465DF8047B7047B4
S1132C0080B500AF00BF12210348FFF7E4FF03467D
S1132C10002BF8D100BF80BD04300E4080B500AF5A
S1132C20FFF7EEFF034B5B681B0C03F00303DBB2FF
S1132C30184680BD00300E4080B483B000AF786089
S1132C40044A7B68D36200BF0C37BD465DF8047B41
S1132C50704700BF00300E4080B400AF034B5B6A86
S1132C601846BD465DF8047B704700BF00300E4037
S1132C7080B483B000AF0346FB71FB79C3F1020358
S1132C80102202FA03F318460C37BD465DF8047BA4
S1132C907047000080B584B000AF78600B46FB70CD
S1132CA0154BD3F800311B0A03F01F030133BB603B
S1132CB07B68002B07D1FDF7D5FA0246BB6802FBFF
S1132CC003F3FB6001E07B68FB600C4B1B78002B7B
S1132CD009D0FB680A4A934205D8FB7819460220BA
S1132CE000F010F804E0FB781946002000F00AF820
S1132CF000BF1037BD4680BD00400E40E8050020EF
S1132D00FF2C310190B587B000AF03460A46FB7132
S1132D101346BB711F4BD3F800311B0A03F01F038A
S1132D2001337B61FDF79EFA3861FFF777FF0346B5
S1132D30FB73FA7BFB799A4228D03B697A6902FBE0
S1132D4003F3BB60FB79022B0CD1BB68124A93429C
S1132D5004D940F2B3411148FEF768FD02213869F5
S1132D60FEF70CFF0E4CFB791846FFF781FF034674
S1132D702361BB79002B01D0FFF742FFFB79002BC5
S1132D8005D100213869FEF7F9FE00E000BF1C37C9
S1132D90BD4690BD00400E40002D3101FC7B00007B
S1132DA000300E4080B400AF01231846BD465DF8E4
S1132DB0047B704780B582B000AF0C4BDB6E0B4ACE
S1132DC043F08073D36600210948FFF704FF78605D
S1132DD07B68002B03D0042000F040FD02E00020BB
S1132DE000F03CFD00BF0837BD4680BD00300E40FA
S1132DF04C300E4080B58AB000AF01237B627B6A01
S1132E001B053B62404BDB6C1B0A03F00F03FB61A9
S1132E103E4B1B881A463D4B1B8828335B081344E2
S1132E2003F12801FB695A1C13469B001344B1FBB0
S1132E30F3F3013BBB61BB697B6107233B613A69E7
S1132E407B69934228BF1346BB61BB691B06BB6108
S1132E50BB6923F0E063002B04D040F2CE612C4820
S1132E60FEF7E4FC3B6A23F4E003002B04D040F2B9
S1132E70CF612748FEF7DAFC234BDB6C23F0EE62CC
S1132E80B9693B6A0B4320491343CB64214BB3F923
S1132E900030002B33DB1F4BB3F90030FB81FA8980
S1132EA0FB8928335B08134403F12802FB690133CF
S1132EB05900FB6901335B080B44B2FBF3F3BB60BD
S1132EC0BB687B6007233B603A687B68934228BFFA
S1132ED01346BB60BB681B01BB60BB6823F0700377
S1132EE0002B04D040F2E7610948FEF79FFC064B33
S1132EF01B6D23F070020449BB6813430B6500BFCC
S1132F002837BD4680BD00BF00300E40E0050020DC
S1132F10FC7B0000E405002080B483B000AF78603F
S1132F200B467B807B689AB2054B1A80054A7B88E6
S1132F30138000BF0C37BD465DF8047B704700BFAB
S1132F40E0050020E405002080B582B000AF034610
S1132F50FB71FB79002B02D0012B04D007E0094B55
S1132F60094A9A6509E0074B084A9A6505E040F268
S1132F7013710748FEF75AFC00BF00BF0837BD466F
S1132F8080BD00BF00300E4077402057372110B776
S1132F90FC7B000080B584B000AF0346FB710B4698
S1132FA0BB7113467B71334BD3F88031FB60BB7923
S1132FB0032B1DD801A252F823F000BFCD2F00002F
S1132FC0D52F0000DF2F0000E92F0000FB68DBB2E3
S1132FD0FB6014E0FB681B0ADBB2FB600FE0FB68DC
S1132FE01B0CDBB2FB600AE0FB681B0EFB6006E017
S1132FF040F257712048FEF719FC002336E07B7934
S1133000002B16D1FB681B03FB60FB6823F47043A1
S1133010002B06D040F262711748FEF707FC00232C
S113302024E0164BDB6E23F470421449FB6813430F
S1133030CB667B79012B18D1FB681B03FB60FB6813
S113304023F47043002B06D040F26E710A48FEF759
S1133050EDFB00230AE0094BD3F8EC3023F4704273
S11330600649FB681343C1F8EC30012318461037B6
S1133070BD4680BDB081E00FFC7B000000300E40F7
S113308080B588B000AFF860B96011461A460B46A7
S1133090FB711346BB710023FB610023BB61BB7949
S11330A01B02FA79002A01D0012200E00022134316
S11330B07B617B6940F2011293422AD0B3F5817F90
S11330C007D2012B19D0012B47D3B3F5807F50D001
S11330D073E040F20122934227D040F2012293424E
S11330E003D8B3F5007F50D067E0B3F5407F58D0E4
S11330F040F20132934224D05FE0384BD3F874316C
S1133100FB61FB691B0ADBB2BB61FB69DBB2FB61E0
S113311059E0324BD3F87431FB61FB691B0EBB6180
S1133120FB691B0CDBB2FB614DE02C4BD3F878310F
S1133130FB61FB691B0ADBB2BB61FB69DBB2FB61B0
S113314041E0264BD3F87831FB61FB691B0EBB6170
S1133150FB691B0CDBB2FB6135E0204BD3F86C310F
S1133160FB61FB691B0ADBB2BB61FB69DBB2FB6180
S113317029E01A4BD3F86C31FB61FB691B0EBB6170
S1133180FB691B0CDBB2FB611DE0144BD3F87031FF
S1133190FB61FB691B0ADBB2BB61FB69DBB2FB6150
S11331A011E00E4BD3F87031FB61FB691B0EBB6160
S11331B0FB691B0CDBB2FB6105E040F2D3710848EC
S11331C0FEF734FB00BFFB68FA691A60BB68BA6992
S11331D01A6000BF2037BD4680BD00BFB081E00F3C
S11331E0FC7B000080B584B000AF0346FB7100BFD8
S11331F0364B9B6F03F00103002BF9D1334B1B6C4F
S113320003F00303FB60FB68002B04D001220D21B3
S11332102F48FFF7C9FCFB68DBB2FA799A4208D160
S1133220FB79002B4ED100220D212948FFF7BCFC6D
S113323048E0FB68032B02D0FB68002B20D1FB790C
S1133240022B02D0FB79012B1AD14FF40020FFF797
S1133250F3FC00BF1D4B9B6F03F00103002BF9D15E
S11332601A4B1B6C23F00303184A43F00103136445
S113327000BFFFF7F1FC034603F40023002BF8D052
S113328000BF124B9B6F03F00103002BF9D10F4BCE
S11332901B6C23F00302FB790C4913430B6400BF3E
S11332A00A4B9B6F03F00103002BF9D1FB79002B30
S11332B014BF01230023DBB21A460D210448FFF793
S11332C073FC00E000BF1037BD4680BD00300E40E7
S11332D054300E4080B584B000AF78606B4B02224E
S11332E09A636A4B9B6B03F00F03022B06D040F6E4
S11332F06D016748FEF79AFA0023C3E0FFF752FD19
S11333007B681B89C82B04D940F677016048FEF717
S11333108DFA7B689A887B681B899A4204D940F6A7
S113332078015B48FEF782FA7B68B3F90C30C82B4E
S113333004DD40F679015648FEF778FA7B685B783D
S1133340012B09D17B689B88C82B12D940F67D01DB
S11333504F48FEF76BFA0CE07B685B78022B08D1D0
S11333607B689B880A2B04D940F682014848FEF703
S11333705DFA7B68DB8842F21072934204D940F60E
S11333808A014348FEF752FA7B68DB884A2B02D84D
S11333900023FB6015E07B68DB88B3F5FA7F03D27A
S11333A04FF08053FB600CE07B68DB8840F6C3126F
S11333B0934203D84FF00053FB6002E04FF04053B8
S11333C0FB60324BDB6C23F0405323F001037A683B
S11333D0B2F90C20002A01DB012100E00021FA6887
S11333E00A432A491343CB64284BD3F8EC30274AC9
S11333F043F44073C2F8EC30FFF7DCFC7B681B89B4
S11334001A467B68B3F90C3019461046FFF784FD61
S11334107B689A881F4B1A807B689B88184600F04B
S1133420A9F97B689B7B1846FFF78EFD7B685B8858
S113343001220121184600F031F8034683F001030C
S1133440DBB2002B06D040F6C1011148FEF7EEF9BD
S1133450002317E00D4BDB6B0C4A43F48063D3630A
S11334607B685B781846FFF7BDFE7B689B7A202B50
S113347001D1012300E000231A4605210648FFF785
S113348093FB012318461037BD4680BD00300E4023
S1133490FC7B0000E20500203C300E4090B595B066
S11334A000AF78600B46FB701346BB700023FB64CF
S11334B000237B6407F1240300221A605A609A6097
S11334C007F1180300221A605A609A6007F10C038E
S11334D000221A605A609A6007F1080300210A4624
S11334E01A800A469A707B68B3F5E16F06D37B684D
S11334F040F6B832934201D8012300E0002387F854
S1133500433097F8433003F0010387F8433097F8CA
S1133510433083F00103DBB2002B06D040F60611E2
S11335209148FEF783F9002319E17B68B3F5E16F55
S11335308CBF0123002387F8423097F84230002BD8
S11335400AD04FF4E163FB6440F6B8337B647A6CD1
S1133550FB6CD31ABB6409E04FF49663FB644FF42D
S1133560E1637B647A6CFB6CD31ABB6497F84230DA
S1133570002B0BD07D4BD3F868313B623B6A1B0EAA
S11335807B613B6A1B0CDBB23B620AE0774BD3F8EE
S113359068313B623B6A1B0ADBB27B613B6ADBB28C
S11335A03B62734BDB6C1B0FDBB203F00303DBB238
S11335B03B723B7A97F8422007F10C0107F118009F
S11335C0FFF75EFD6A4BD3F8EC301B0ADBB203F065
S11335D00303DBB27B727C7A97F8422007F10C0379
S11335E0191D07F11803181D2346FFF749FD7A68D2
S11335F0FB6CD31A79693A6A8A1A02FB03F2BB6C30
S1133600B2FBF3F3FB62FA6A3B6A1344FB627A6827
S1133610FB6CD31AF968BA698A1A02FB03F2BB6C11
S1133620B2FBF3F37B627A6ABB6913447B627A6808
S1133630FB6CD31A3969FA698A1A02FB03F2BB6C70
S1133640B2FBF3F3BB62BA6AFB691344BB62FA6A66
S11336507B699A4213D8FA6A3B6A9A420FD3BA6AD0
S11336603B699A420BD8BA6AFB699A4207D37A6AD1
S1133670FB689A4203D87A6ABB699A4206D240F63A
S113368054113948FEF7D2F8002368E0BB78002BC8
S113369012D0374BDB6D23F4FE4323F00203FA6AA6
S11336A01202134397F84220002A01D0022200E0BC
S11336B000222F491343CB65FB78002B4ED0397A77
S11336C097F8423000221846FFF764FC034683F063
S11336D00103DBB2002B06D040F663112248FEF74B
S11336E0A5F800233BE0797A97F842300122184686
S11336F0FFF750FC034683F00103DBB2002B06D036
S113370040F66B111848FEF791F8002327E07B6A16
S1133710FB63BB6ABB63BA6BFB6B934238BF134654
S11337207B627B6A7B63E7233B633A6B7B6B9342ED
S113373028BF13467B620E4B5B6E23F4FF7323F0AA
S113374001037A6A5200134397F84220002A01D0F9
S1133750012200E00022064913434B660123184668
S11337605437BD4690BD00BFFC7B0000B081E00F24
S113377000300E4080B584B000AF78600023FB6059
S1133780344B1B6F03F00703BB60324BDB6C03F05D
S11337900103002B14D0BB68012B11D97B68132BB8
S11337A002D80423FB603DE07B68132B05D97B68BA
S11337B0272B02D80823FB6034E01023FB6031E0A0
S11337C0244BDB6C03F00103002B14D1BB68012BE9
S11337D011D87B68092B02D80423FB6022E07B68A4
S11337E0092B05D97B68132B02D80823FB6019E049
S11337F01023FB6016E0174BDB6C03F00103002B76
S11338000BD0BB68012B08D87B68272B02D8082370
S1133810FB6007E01023FB6004E040F6A9110E48AA
S1133820FEF704F8FB68013BFB60FB681A02FB68C7
S11338301B031343FB60074BDB6C23F47F420549F6
S1133840FB681343CB64FFF7D5FA00BF1037BD46BE
S113385080BD00BF00300E40FC7B000080B584B00A
S113386000AF0346FB7100211148FFF7B4F9F8607B
S1133870FB68002B02D1FB79012B07D9FB68002BD5
S113388004D140F6C8110B48FDF7D0FF0A4B1B6F5B
S113389023F00702FB79084913430B67074B1B8886
S11338A01846FFF767FF00BF1037BD4680BD00BF55
S11338B04C300E40FC7B000000300E40E20500203E
S11338C080B485B000AF786039607B6803F1C06371
S11338D0FB60FB683A681A6000BF1437BD465DF8A8
S11338E0047B704780B485B000AF786039607B6832
S11338F003F18063FB60FB683A681A6000BF143709
S1133900BD465DF8047B704780B584B000AFF860B5
S1133910B9607A60B968F868FFF7E4FF7968F86815
S1133920FFF7CEFF00BF1037BD4680BD80B582B023
S113393000AF03463960FB71FB79002B38D0FB796B
S1133940012B32D0FB79022B2CD0FB79032B26D010
S1133950FB79042B21D0FB79052B1BD0FB79062B9B
S113396016D0FB79072B11D0FB79082B0CD0FB79EF
S1133970092B06D0FB790A2B01D107231AE0002377
S113398018E04FF4404315E00F2313E0002311E047
S113399000230FE04FF6FF730CE000230AE04FF41E
S11339A07F4307E040F6FF7304E04FF6C07301E085
S11339B040F2FF333A68134103F00103002B04D1B2
S11339C040F2DD310C48FDF731FFFA7913465B0014
S11339D013441B010C3303F1804303F520430121FD
S11339E03A6801FA02F211461846FFF77BFF00BF5E
S11339F00837BD4680BD00BF107C000080B582B092
S1133A0000AF03463960FB71FB79002B38D0FB799A
S1133A10012B32D0FB79022B2CD0FB79032B26D03F
S1133A20FB79042B21D0FB79052B1BD0FB79062BCA
S1133A3016D0FB79072B11D0FB79082B0CD0FB791E
S1133A40092B06D0FB790A2B01D107231AE00023A6
S1133A5018E04FF4404315E00F2313E0002311E076
S1133A6000230FE04FF6FF730CE000230AE04FF44D
S1133A707F4307E040F6FF7304E04FF6C07301E0B4
S1133A8040F2FF333A68134103F00103002B04D1E1
S1133A9040F20C410C48FDF7C9FEFA7913465B006D
S1133AA013441B010C3303F1804303F5204301212C
S1133AB03A6801FA02F211461846FFF701FF00BF07
S1133AC00837BD4680BD00BF107C000080B582B0C1
S1133AD000AF03463960FB71FB79002B1DD0FB79E5
S1133AE0012B1AD0FB79022B17D0FB79032B14D0AE
S1133AF0FB79042B16D0FB79052B0ED0FB79062B12
S1133B0010D0FB79072B0DD0FB79082B05D0FB795E
S1133B10092B02D0FB790A2B04D13B6823F0011353
S1133B20002B03D083210B48FDF780FEFA7913465E
S1133B305B0013441B0103F1804303F520433A68FF
S1133B404FF001111846FFF7DFFE00BF0837BD46EE
S1133B5080BD00BF887C000080B584B000AFB96030
S1133B607B600346FB731346BB73FB7B002B38D08F
S1133B70FB7B012B32D0FB7B022B2CD0FB7B032B5A
S1133B8026D0FB7B042B21D0FB7B052B1BD0FB7B9E
S1133B90062B16D0FB7B072B11D0FB7B082B0CD0FC
S1133BA0FB7B092B06D0FB7B0A2B01D107231AE0F0
S1133BB0002318E04FF4404315E00F2313E00023E3
S1133BC011E000230FE04FF6FF730CE000230AE03E
S1133BD04FF47F4307E040F6FF7304E04FF6C073F1
S1133BE001E040F2FF33BA68134103F00103002BF4
S1133BF004D140F213113948FDF718FEBB7B002BAA
S1133C000DD07B68002B05D0FB7BB9681846FFF705
S1133C10F5FE04E0FB7BB9681846FFF787FEBB6836
S1133C20072B20D82E49FA7B13465B0013441B0153
S1133C300B4404331A68BB689B000F2101FA03F399
S1133C40DB431340B97BBA68920001FA02F21146D1
S1133C502348FA7B194313465B0013441B010344B6
S1133C600433196025E01E49FA7B13465B001344B4
S1133C701B010B4408331A68BB6803F18043083BFB
S1133C809B000F2101FA03F3DB4302EA0301BA7B31
S1133C90BB6803F18043083B9B0002FA03F310481E
S1133CA0FA7B194313465B0013441B010344083396
S1133CB01960BB7B002B0DD17B68002B05D0FB7BEF
S1133CC0B9681846FFF79AFE04E0FB7BB96818460A
S1133CD0FFF72CFE00BF1037BD4680BD887C000076
S1133CE000A0004080B582B000AFFDF73BFA0C4B5A
S1133CF01B78012B10D1FEF739FF7860094B1B7834
S1133D00F92B05D8074B1B780133DAB2054B1A702F
S1133D107868FEF73BFF00E000BF0837BD4680BD72
S1133D2089060020A20A002080B582B000AF404B73
S1133D301B78012B02D0FDF753FA76E0FEF716FF4D
S1133D4078603C4B1B78002B05D1FDF749FA786865
S1133D50FEF71CFF69E0374B1B78013BDAB2354BA9
S1133D601A70344B1B78002B05D0FDF739FA7868AC
S1133D70FEF70CFF59E0304B1B78002B05D0FDF704
S1133D802FFA7868FEF702FF4FE02C4B1B68002BDC
S1133D900FD02B4B1A68294B1B681946104600F0AC
S1133DA09DFC0346FB70FB78012B02D0002000F041
S1133DB0F5FD00F0FBFA03461A46224B1A70214B1C
S1133DC01B781946204A0B465B000B449B001344A6
S1133DD01B681E4A13601D4B1A681D4B1B689A42D0
S1133DE012D1002000F04CFC0346FB70FB78012B41
S1133DF004D0174B1B68184600F0D0FDFDF7F0F90E
S1133E007868FEF7C3FE10E0104B1B68D3F8B420AB
S1133E100132C3F8B4200F4B1B6801330D4A136001
S1133E2000F084FD7868FEF7B1FE0837BD4680BD1A
S1133E3089060020A20A00207C060020F00500204C
S1133E40EC050020900900208C060020900A002038
S1133E50880A00209C0A002080B582B000AF284B5D
S1133E601B78012B00D0FEE7264B1B78002B41D199
S1133E70254B1B78002B3FD1FEF778FE786000F0CD
S1133E8095FA03461A46214B1A70204B1B781946A3
S1133E901F4A0B465B000B449B0013441B681D4ADE
S1133EA013601C4B1A681C4B1B689A4203D1786838
S1133EB0FEF76CFE21E0184B1B6893F83E30002B94
S1133EC004D1154B1B681846FDF77CFB114B1B688E
S1133ED0D3F8B4200132C3F8B420104B1B6801336B
S1133EE00E4A136000F01DFD7868FEF74FFEBFF325
S1133EF06F8F02E000BF00E000BF0837BD4680BD01
S1133F0089060020A20A00207C06002090090020D7
S1133F108C060020900A0020880A00209C0A0020B9
S1133F2080B485B000AF786039603B680E4AC3F84E
S1133F30E0207B68002B10D07B680833FB60FB68B3
S1133F401B68BB60BB68002B04D0BB68DA687B6865
S1133F50DA6102E07B68044ADA6100BF1437BD46C7
S1133F605DF8047B704700BFE47D000080B487B037
S1133F7000AF78607B689B6B002B46D07B689B6BA3
S1133F8008337B617B691B681B6B002B06D17B6943
S1133F9000221A607B6900225A6027E07B685B6B11
S1133FA0002B09D17B681B6BFB60FB6800225A6302
S1133FB07B69FA681A6019E07B681B6B002B09D1D6
S1133FC07B685B6B3B613B6900221A637B693A69DE
S1133FD05A600BE07B685B6B3B617B681B6BFB602F
S1133FE03B69FA681A63FB683A695A637B691B89FF
S1133FF0013B9AB27B691A817B6800221A637B6851
S113400000225A637B6800229A6300BF1C37BD46B6
S11340105DF8047B704780B584B000AFF860B96088
S11340207A607B80BB6893F83E30052B06DC042B5A
S113403061DA002B5CDB012B5DDD04E0072B2EDD58
S1134040FF2B5AD054E0BB687A68DA66BB687A887A
S1134050A3F87020BB68BA691A65FB68002B02D00C
S1134060B868FFF783FFB968F868FFF759FFBB68C2
S113407093F83E30032B02D1B86800F051FBB868C6
S113408000F040F8BB68002283F83E20BB680022A1
S113409083F83D20BB68002283F83C202EE0BB68F7
S11340A07A68DA66BB687A88A3F87020BB68BA6954
S11340B01A65FB68002B02D0B868FFF757FFB96890
S11340C0F868FFF72DFFBB6893F83E30072B02D149
S11340D0B86800F025FBBB68042283F83E20BB6867
S11340E0002283F83D20BB68002283F83C2005E0D1
S11340F0FDF78CFA02E000BF00E000BF00BF1037FC
S1134100BD4680BD80B582B000AF78607B6893F80F
S11341103F30184600F066F97B6893F83F20094B5E
S11341201B789A4203D1786800F050F802E078686E
S113413000F00AF87B681846FDF732FA00BF08372A
S1134140BD4680BD9809002080B485B000AF78607A
S11341507B6893F83F301A4613465B0013449B0078
S1134160194A1344FB60FB681B68002B0FD1FB68E2
S113417001221A817B6800221A617B6800225A613D
S1134180FB687A681A60FB687A685A6015E0FB6815
S11341901B8901339AB2FB681A81FB681A687B6831
S11341A01A617B6800225A61FB681B68BB60BB68AC
S11341B07A685A61FB687A681A6000BF1437BD4692
S11341C05DF8047B704700BF8C06002080B485B086
S11341D000AF78607B6893F83F301A4613465B0063
S11341E013449B00184A1344FB60FB681B68002BB4
S11341F00FD1FB6801221A817B6800221A617B6857
S113420000225A61FB687A681A60FB687A685A600F
S113421014E0FB681B8901339AB2FB681A817B683E
S113422000221A61FB685B68BB607B68BA685A61EC
S1134230BB687A681A61FB687A685A6000BF1437F1
S1134240BD465DF8047B70478C06002080B487B0BF
S113425000AF78607B681A687B685B689A423AD0E2
S11342607B681B681A697B685B689A4218D17B6813
S11342701B687B617B685B683B617B693A695A6157
S11342807B6900221A613B6900225A613B697A69A1
S11342901A617B683A691A607B687A695A601AE025
S11342A07B681B687B617B685B683B617B691B691E
S11342B0FB60FB6800225A617B6900221A617B69FA
S11342C03A695A613B697A691A617B68FA681A60CB
S11342D07B687A695A6000BF1C37BD465DF8047B71
S11342E07047000080B584B000AF78602B4B1B781A
S11342F0012B4ED1FEF73AFCF8607B681B68BB606B
S1134300BB68002B03D1F868FEF740FC42E0BB68B1
S1134310234A934203D1F868FEF738FC3AE0BB68BD
S11343209B6E002B04D0BB689B6E5A1EBB689A66BA
S1134330BB689B6E002B03D0F868FEF727FC29E0CE
S11343407B681A687B685B689A4203D1F868FEF759
S11343501DFC1FE0134B1B78002B03D0F868FEF7FD
S113436015FC17E07868FFF771FF7B681B68BB607A
S1134370BB685B6E002B04D10B4B1A68BB689A6652
S113438003E0BB685A6EBB689A66F868FEF7FEFBEA
S113439000E000BF1037BD4680BD00BFE40D002023
S11343A09C0B00207C0600208C0C002080B500AF04
S11343B00B4B1B68002B09D1094B5B68184600F0B6
S11343C066FA0346DBB22033DBB206E0044B1B681B
S11343D0184600F05CFA0346DBB2184680BD00BF05
S11343E07406002080B483B000AF0346FB71FB79F0
S11343F01F2B0BD80E4B1A68FB79C3F11F03012145
S113440001FA03F313430A4A13600AE0084B5A689B
S1134410FB79C3F13F03012101FA03F31343044A77
S1134420536000BF0C37BD465DF8047B704700BF86
S11344307406002080B58AB002AFF8600B467A603B
S11344407B817B68002B01D1FDF7E0F8864B1B785C
S1134450012B15D07B6802221A70844B9A687B6802
S11344605A60834B9A687B689A607B68814ADA60F9
S11344707B6840F2BF521A617B687F4A5A61FEE74B
S11344807B89002B03D07B89B3F5004F01D1012335
S113449000E00023002B15D17B6808221A70734BAF
S11344A01A6A7B685A60724B1A6A7B689A607B68E6
S11344B0704ADA607B6840F2C3521A617B686E4AC4
S11344C05A61FEE7FBF77CFEB861FEF74FFB7861AB
S11344D0FB68002B02D1694B1B68FB60FB68BA695F
S11344E01A657B6800221A70604B1A687B685A60F0
S11344F05F4B1A687B689A607B685E4ADA607B6807
S113450040F2D4521A617B685B4A5A610023FB6112
S1134510FB6893F83E30052B07DC042B0ADA002BEA
S1134520C0F29580012B05DD30E0072B2EDDFF2B3B
S113453072D08CE0FB689B6DB3F1FF3F19D17869B1
S1134540FEF724FB7B681E221A70484B9A6F7B6827
S11345505A60474B9A6F7B689A607B68454ADA6079
S11345607B6840F2F3521A617B68434A5A61002324
S113457075E000BFFB689B6D5A1CFB689A65FB687D
S11345809B6DFB617869FEF701FB67E0FB6893F8BC
S11345903C30072B14D1BB69009300230022F96837
S11345A00020FFF738FDFB689B6DFB617869FEF71F
S11345B0EDFAB7F90A30002B4FDBFFF74DFC4CE066
S11345C0FB689B6DB3F1FF3F19D17869FEF7DEFA02
S11345D07B681E221A70254B9A6F7B685A60244BA5
S11345E09A6F7B689A607B68224ADA607B6840F243
S11345F02A621A617B68204A5A6100232FE000BFB7
S1134600FB689B6D5A1CFB689A65FB689B6DFB619C
S11346107869FEF7BBFA20E07869FEF7B7FA7B68A1
S11346201F221A70114BDA6F7B685A60104BDA6FD5
S11346307B689A607B680F4ADA607B6840F23D626F
S11346401A617B680C4A5A610023FB6106E07869B1
S1134650FEF79CFAFCF7DAFF00E000BFFB6918469E
S11346602037BD4680BD00BF8906002020760000AB
S11346706C780000E87D00007C7E0000880A002041
S113468080B584B000AF78607B68002B02D1124BF8
S11346901B687B607B681A687B685B6A9A4209D3F3
S11346A07B681A687B68596A7B689B6C9B000B4427
S11346B09A4201D300230AE07B685A6A7B689B6CA8
S11346C01946104600F00AF80346FB73FB7B1846B4
S11346D01037BD4680BD00BF880A002080B485B075
S11346E000AF786039600023FB600CE07B681B68D6
S11346F00A4A934201D0002309E07B6804337B60BB
S1134700FB680133FB60FB68072BEFD901231846D4
S11347101437BD465DF8047B704700BF4523CDAB1D
S113472080B487B000AF78607B681B6A7B617B686C
S1134730DB693B617B689B69FB603B69002B2CD187
S1134740FB68002B0CD17B6900221A607B69002274
S11347509A807B680022DA657B6800221A623EE058
S1134760FB680022DA61FB68DA6D7B68DB6D1A4452
S1134770FB68DA657B69FA681A607B699B88013B90
S11347809AB27B699A807B6800229A617B680022D6
S1134790DA657B6800221A6221E03B69FA689A6153
S11347A0FB68002B09D0FB683A69DA61FB68DA6DB3
S11347B07B68DB6D1A44FB68DA657B680022DA618A
S11347C07B699B88013B9AB27B699A807B68002253
S11347D09A617B680022DA657B6800221A6200BF56
S11347E01C37BD465DF8047B7047000080B586B079
S11347F000AF184B1B78012B27D100F01BF93B4667
S11348001A4600211448FFF715FE144B1B781A466C
S113481013465B0013449B00114A13441846FFF7E8
S113482061FD104B1B68013B0E4A13600D4B1B6866
S1134830002B0BD10C4B1B680A4A13603B461A46EB
S113484000210A48FFF7F6FD00E000BF1837BD4617
S113485080BD00BF890600209C0900209809002023
S11348608C060020F40D0020E00D0020A80A002092
S113487072B6704762B67047EFF3108072B6704735
S113488080F31088704730BF704720BF7047B0FA7C
S113489080F0704790FAA0F0B0FA80F0704790FA78
S11348A0A0F0704772B64EF62250CEF2000040F2ED
S11348B0FF01C0F200010170002080F3098840F676
S11348C00060C2F20000016881F3088800F070F80B
S11348D040F69810C2F2000040F69011C2F20001B6
S11348E00A78027040F68820C2F2000040F6902157
S11348F0C2F200010A680260106880F30988EFF3CD
S1134900148040F0020020F0040080F31488BFF308
S11349106F8FBDE8F04F0FBCBDE8005006BC62B617
S113492008471D484FF08051016070471A484FF006
S113493080510160704772B6EFF309801EF0100FCA
S113494008BF20ED108A20E9F04F40F68825C2F216
S1134950000529680860744600F02AF840F69810AB
S1134960C2F2000040F69011C2F200010A7802700F
S113497040F69021C2F200010A682A6044F0040E55
S11349801068B0E8F04F1EF0100F08BFB0EC108AAA
S113499080F3098862B6704704ED00E080B582B008
S11349A000AF7860FCF732FE00BF0837BD4680BD1B
S11349B080B582B000AF1D4B1B681846FCF712FE91
S11349C0FBF7FEFB78601A4B1A68184B1B689A4277
S11349D016D0174B1B68D3F8BC20154B1B6879689D
S11349E08A1AC3F8B820124B1B68D3F8C010104BB6
S11349F01B68D3F8B8200E4B1B680A44C3F8C020C8
S1134A000A4B1B687A68C3F8BC200020FFF738FE05
S1134A100346FB70FB78012B04D0054B1B6818463A
S1134A20FFF7BCFF00BF0837BD4680BD900A0020D9
S1134A30880A002080B400AF00BFBD465DF8047B47
S1134A40704780B582B000AFFEF790F87860FFF74A
S1134A5049F97868FEF79AF8FFF7C8FEFFF764F99A
S1134A6000BF0837BD4680BD80B500AF00F004F834
S1134A7000F028F800BF80BD80B500AF01210248D6
S1134A80FDF790F900BF80BD00350A0080B483B003
S1134A9000AF7860044A7B68C2F8243400BF0C3746
S1134AA0BD465DF8047B704700A0004080B400AFB1
S1134AB0034BD3F81C341846BD465DF8047B70479D
S1134AC000A0004080B500AF4FF001110520FEF7B3
S1134AD0FDFF0023042204210520FFF73DF84FF0D9
S1134AE001110520FEF7F2FF002304220521052011
S1134AF0FFF732F80123022206210520FFF72CF8E4
S1134B000123022207210520FFF726F800BF80BDFC
S1134B1080B582B000AFFFF7C9FF78607868FFF70F
S1134B20B5FF00F08BFA00F09DFA00F013FA00BF15
S1134B300837BD4680BD80B500AFFFF7E9FF00BF71
S1134B4080BD80B500AFFFF7E3FF00BF80BD00006C
S1134B5080B483B000AF03463960FB7197F9073026
S1134B60002B0ADB3B68DAB20C4997F90730520193
S1134B70D2B20B4483F800230AE03B68DAB2084956
S1134B80FB7903F00F03043B5201D2B20B441A76B3
S1134B9000BF0C37BD465DF8047B704700E100E0C0
S1134BA000ED00E080B582B000AF78607B68013B27
S1134BB0B3F1807F01D301230FE00A4A7B68013BF4
S1134BC0536007214FF0FF30FFF7C2FF054B00226F
S1134BD09A60044B07221A60002318460837BD4622
S1134BE080BD00BF10E000E080B400AF044BDB6C7C
S1134BF01B0EDBB21846BD465DF8047B704700BF50
S1134C00B081E00F80B485B000AF786039607B6814
S1134C1003F10473DA003B6813449B00FB60FB68F8
S1134C201B6818461437BD465DF8047B704780B492
S1134C3085B000AF786039607B6803F1C063FB60C6
S1134C40FB683A681A6000BF1437BD465DF8047B00
S1134C50704780B485B000AF786039607B6803F139
S1134C608063FB60FB683A681A6000BF1437BD4676
S1134C705DF8047B7047000080B582B000AF034646
S1134C803960FB71FB79002B38D0FB79012B32D0D2
S1134C90FB79022B2CD0FB79032B26D0FB79042B38
S1134CA021D0FB79052B1BD0FB79062B16D0FB7981
S1134CB0072B11D0FB79082B0CD0FB79092B06D0DC
S1134CC0FB790A2B01D107231AE0002318E04FF4E3
S1134CD0404315E00F2313E0002311E000230FE00D
S1134CE04FF6FF730CE000230AE04FF47F4307E024
S1134CF040F6FF7304E04FF6C07301E040F2FF3367
S1134D003A68134103F00103002B04D140F2AE31A1
S1134D100A48FCF78BFDFA7913465B0013441B0128
S1134D201C3303F1804303F5204339681846FFF729
S1134D3069FF034618460837BD4680BD8C7E0000D7
S1134D4080B582B000AF03463960FB71FB79002B5C
S1134D5038D0FB79012B32D0FB79022B2CD0FB7994
S1134D60032B26D0FB79042B21D0FB79052B1BD0F8
S1134D70FB79062B16D0FB79072B11D0FB79082B76
S1134D800CD0FB79092B06D0FB790A2B01D1072320
S1134D901AE0002318E04FF4404315E00F2313E01A
S1134DA0002311E000230FE04FF6FF730CE0002313
S1134DB00AE04FF47F4307E040F6FF7304E04FF648
S1134DC0C07301E040F2FF333A68134103F001037A
S1134DD0002B04D140F2DD310C48FCF727FDFA79B1
S1134DE013465B0013441B010C3303F1804303F5AA
S1134DF0204301213A6801FA02F211461846FFF7EE
S1134E0028FF00BF0837BD4680BD00BF8C7E000070
S1134E1080B582B000AF03463960FB71FB79002B8B
S1134E2038D0FB79012B32D0FB79022B2CD0FB79C3
S1134E30032B26D0FB79042B21D0FB79052B1BD027
S1134E40FB79062B16D0FB79072B11D0FB79082BA5
S1134E500CD0FB79092B06D0FB790A2B01D107234F
S1134E601AE0002318E04FF4404315E00F2313E049
S1134E70002311E000230FE04FF6FF730CE0002342
S1134E800AE04FF47F4307E040F6FF7304E04FF677
S1134E90C07301E040F2FF333A68134103F00103A9
S1134EA0002B04D140F20C410C48FCF7BFFCFA790A
S1134EB013465B0013441B010C3303F1804303F5D9
S1134EC0204301213A6801FA02F211461846FFF71D
S1134ED0AEFE00BF0837BD4680BD00BF8C7E00001B
S1134EE080B582B000AF164B01225A64FFF77CFEF6
S1134EF00346FB71FB79002B0CD1124B4AF6E852A6
S1134F001A60114B1B68104A43F0040313600D4BE5
S1134F1000221A60FB79012B05D80C4B1B680B4A45
S1134F2043F4005313600A4B1B6A23F44413084AE6
S1134F3043F48813136200BF0837BD4680BD00BF29
S1134F4000000E4090310E4098310E4064310E4006
S1134F5000400E4080B500AF284B1B78DBB2002B1D
S1134F600CD0274B1B78DBB283F00103DBB2002BA0
S1134F7004D004210520FFF74BFF3DE0204B1B78B4
S1134F80DBB2002B0CD01D4B1B78DBB283F001038A
S1134F90DBB2002B04D005210520FFF739FF2BE0FD
S1134FA0184B1B78DBB2002B0CD0174B1B78DBB2F1
S1134FB083F00103DBB2002B04D005210520FFF7A9
S1134FC027FF19E0104B1B78DBB2002B0CD00D4BE4
S1134FD01B78DBB283F00103DBB2002B04D0042185
S1134FE00520FFF715FF07E004210520FFF7A8FEC1
S1134FF005210520FFF7A4FE00BF80BDF9050020B0
S1135000F8050020FA050020FB05002080B485B0D7
S113501000AF7860084B1B68FB6000BF064B1A6842
S1135020FB68D31A7A689A42F8D800BF1437BD4691
S11350305DF8047B704700BFF405002080B500AF25
S113504006210520FFF718FE0346002B03D1044B6D
S113505001221A7002E0024B00221A7000BF80BDC8
S1135060F805002080B500AF07210520FFF704FEF6
S11350700346002B03D1044B01221A7002E0024BB9
S113508000221A7000BF80BDF905002098B500AF5A
S11350900220FBF7CBF903461C460320FBF7C6F9B5
S11350A003462343DBB2002B16D00020FBF7BEF9E6
S11350B003461C460120FBF7B9F903462343DBB240
S11350C083F00103DBB2002B06D0194B01221A70C6
S11350D0184B00221A7029E00120FBF7A7F90346B8
S11350E01C460020FBF7A2F903462343DBB2002B46
S11350F016D00320FBF79AF903461C460220FBF75F
S113510095F903462343DBB283F00103DBB2002BA2
S113511006D0084B01221A70054B00221A7005E0D4
S1135120034B00221A70034B00221A7000BF98BD73
S1135130FA050020FB050020B0B58AB000AF204B73
S113514007F118040FCB84E80F001E4B3C1D1D46CD
S11351500FCD0FC42B682380FFF7C2FE07F118039D
S11351601846FEF7B7F83B1D1846FDF72BFA042145
S11351701120FDF773F8012201210320FDF7A4FAA1
S1135180FBF746F80246104BA3FB0223DB08184644
S1135190FFF708FD0346002B00D0FEE7FFF764FC91
S11351A0FBF7C4F90120FFF731FFFFF747FFFFF7D3
S11351B059FFFBF791F9FFF769FFFFF7CBFEF1E722
S11351C0047F0000147F0000CDCCCCCC08B5074B85
S11351D0044613B10021AFF30080054B1868836ABD
S11351E003B19847204600F045F800BF00000000D6
S11351F0287F000070B50D4E0D4CA41BA410002593
S1135200A54209D10B4E0C4C00F036F8A41BA41097
S11352100025A54205D170BD56F8253098470135C3
S1135220EEE756F8253098470135F2E77400002080
S113523074000020740000207800002010B5431E84
S11352400A44914200D110BD11F8014B03F8014FFB
S1135250F7E702440346934200D1704703F8011B69
S1135260F9E7034611F8012B03F8012B002AF9D1C1
S113527070470000FEE700BFF8B500BFF8BC08BCEB
S11352809E467047F8B500BFF8BC08BC9E46704700
S1135290204122430000000020000000080805000F
S11352A03000000010000000010000005465726D21
S11352B0696E616C00000000525454005345474726
S11352C04552000000000000000000000000000043
S11352D052544F535F4552525F4E4F4E45000000AB
S11352E052544F535F4552525F4641494C000000AF
S11352F052544F535F4552525F4E4F545F52454193
S11353004459000052544F535F4552525F41535326
S11353104552545F4442475F4641494C00000000F7
S113532052544F535F4552525F4153534552545F59
S1135330435249544943414C5F4641494C000000A3
S113534052544F535F4552525F4153534552545F39
S11353504552525F5054525F4E554C4C0000000071
S113536052544F535F4552525F4E4F545F41564122
S1135370494C000052544F535F4552525F4E4F54B4
S11353805F535550504F52544544000052544F53AC
S11353905F4552525F494E56414C49445F41524722
S11353A00000000052544F535F4552525F494E561D
S11353B0414C49445F4346470000000052544F5358
S11353C05F4552525F4E554C4C5F505452000000A2
S11353D052544F535F4552525F494E56414C4944D3
S11353E05F48414E444C450052544F535F4552521E
S11353F05F494E56414C49445F54595045000000A2
S113540052544F535F4552525F494E56414C4944A2
S11354105F49580052544F535F4552525F494E56AC
S1135420414C49445F43524544454E5449414C53D1
S11354300000000052544F535F4552525F4E4F5488
S11354405F464F554E44000052544F535F455252ED
S11354505F414C4C4F43000052544F535F455252EE
S11354605F4E4F5F4D4F52455F5253524300000011
S113547052544F535F4552525F494E495400000005
S113548052544F535F4552525F4E4F545F494E49F9
S11354905400000052544F535F4552525F414C52E6
S11354A0454144595F494E495400000052544F53FA
S11354B05F4552525F414C52454144595F455849FA
S11354C05354530052544F535F4552525F53454710
S11354D05F4F56460000000052544F535F455252EE
S11354E05F504F4F4C5F46554C4C000052544F5345
S11354F05F4552525F504F4F4C5F454D50545900D9
S113550052544F535F4552525F504F4F4C5F554E6C
S11355104C494D495445440052544F535F455252EF
S11355205F424C4B5F414C4C4F435F43414C4C42B8
S113553041434B0052544F535F4552525F4F574EB5
S1135540455253484950000052544F535F455252FC
S11355505F5045524D495353494F4E0052544F5397
S11355605F4552525F574F554C445F424C4F434B3B
S11355700000000052544F535F4552525F574F553D
S11355804C445F4F5646000052544F535F455252AD
S11355905F494E56414C49445F53544154450000C1
S11355A052544F535F4552525F495352000000001A
S11355B052544F535F4552525F41424F5254000080
S11355C052544F535F4552525F54494D454F5554C1
S11355D00000000052544F535F4552525F49535FDD
S11355E04F574E455200000052544F535F4552529C
S11355F05F4E4F4E455F57414954494E47000000A6
S113560052544F535F4552525F494F0052544F53C7
S11356105F4552525F494F5F464154414C00000080
S113562052544F535F4552525F494F5F54494D4561
S11356304F55540052544F535F4552525F545800D3
S113564052544F535F4552525F52580052544F5375
S11356505F4552525F52585F4F56455252554E0065
S113566052544F535F4552525F4F424A5F52440077
S113567052544F535F4552525F4F424A5F57520054
S113568052544F535F4552525F4F535F5343484503
S1135690445F4C4F434B45440000000052544F5369
S11356A05F4552525F4F535F5441534B5F574149DB
S11356B054494E470000000052544F535F45525224
S11356C05F4F535F5441534B5F53555350454E44C2
S11356D04544000052544F535F4552525F4F535F4D
S11356E0494C4C4547414C5F52554E5F54494D45DA
S11356F00000000052544F535F4552525F4F535FB6
S11357004F424A5F44454C0052544F535F455252F6
S11357105F4F530052544F535F4552525F534845B5
S11357204C4C5F434D445F455845430052544F53DE
S11357305F4552525F434D445F454D5054590000FC
S113574052544F535F4552525F54494D455F494E41
S113575056414C494400000052544F535F45525245
S11357605F53495A455F494E56414C494400000035
S113577052544F535F4552525F4E414D455F494E1F
S113578056414C494400000052544F535F45525215
S11357905F4543435F434F525200000052544F53FE
S11357A05F4552525F4543435F4352495449434125
S11357B04C5F434F5252000052544F535F45525274
S11357C05F4543435F554E434F52520052544F532B
S11357D05F4552525F454E5452595F504152454EB7
S11357E0545F4E4F545F44495200000052544F538B
S11357F05F4552525F454E5452595F524F4F545F6A
S11358004449520052544F535F4552525F454E54DF
S113581052595F4D41585F44455054485F45584381
S1135820454544454400000052544F535F4552528D
S11358305F454E5452595F4F50454E454400000059
S113584052544F535F4552525F454E5452595F4331
S11358504C4F53454400000052544F535F4552523D
S11358605F46494C455F4143434553535F4D4F4465
S1135870455F494E56414C494400000052544F5331
S11358805F4552525F46494C455F4552525F5354FF
S11358904154450052544F535F4552525F4449525C
S11358A05F46554C4C00000052544F535F455252D2
S11358B05F4449525F4E4F545F454D505459000068
S11358C052544F535F4552525F57524B5F444952B3
S11358D05F434C4F5345440052544F535F4552521B
S11358E05F564F4C5F464D545F494E56414C4944B8
S11358F00000000052544F535F4552525F564F4CC4
S11359005F434F52525550544544000052544F5334
S11359105F4552525F564F4C5F4F50454E454400D1
S113592052544F535F4552525F564F4C5F434C4F56
S11359305345440052544F535F4552525F564F4CA7
S11359405F52445F4F4E4C590000000052544F5375
S11359505F4552525F564F4C5F46554C4C00000019
S113596052544F535F4552525F5041525449544927
S11359704F4E5F494E56414C4944000052544F53D8
S11359805F4552525F504152544954494F4E5F4D06
S113599041585F45584345454445440052544F538C
S11359A05F4552525F424C4B5F4445565F464D54EF
S11359B05F494E434F4D50415449424C450000000D
S11359C052544F535F4552525F424C4B5F444556CD
S11359D05F464D545F494E56414C49440000000017
S11359E052544F535F4552525F424C4B5F444556AD
S11359F05F434F52525550544544000052544F5344
S1135A005F4552525F424C4B5F4445565F4F504591
S1135A104E45440052544F535F4552525F424C4BE3
S1135A205F4445565F434C4F5345440052544F53D3
S1135A305F4552525F4445565F414C4C4F43000012
S1135A4052544F535F4552525F434F4E4649475F4E
S1135A50414C4C4F4300000052544F535F45525247
S1135A605F49465F414C4C4F4300000052544F5332
S1135A705F4552525F49465F414C545F414C4C4F25
S1135A804300000052544F535F4552525F49465FF2
S1135A904752505F414C4C4F4300000052544F5307
S1135AA05F4552525F464E43545F414C4C4F430056
S1135AB052544F535F4552525F45505F414C4C4FD7
S1135AC04300000052544F535F4552525F45505FAC
S1135AD04E4F4E455F415641494C000052544F537E
S1135AE05F4552525F5552425F414C4C4F43000058
S1135AF052544F535F4552525F4452565F45505F74
S1135B00414C4C4F4300000052544F535F45525296
S1135B105F4452565F5552425F414C4C4F43000024
S1135B2052544F535F4552525F434C4153535F4964
S1135B304E5354414E43455F414C4C4F430000008B
S1135B4052544F535F4552525F535542434C415355
S1135B50535F494E5354414E43455F414C4C4F4370
S1135B600000000052544F535F4552525F414F4171
S1135B70505F464E43545F414C4C4F43000000007D
S1135B8052544F535F4552525F4344435F464E4322
S1135B90545F414C4C4F430052544F535F45525253
S1135BA05F4344435F41434D5F464E43545F414C22
S1135BB04C4F430052544F535F4552525F5553422A
S1135BC0325345525F464E43545F414C4C4F430061
S1135BD052544F535F4552525F4849445F464E43C7
S1135BE0545F414C4C4F430052544F535F45525203
S1135BF05F4D53435F464E43545F414C4C4F43000B
S1135C0052544F535F4552525F494E56414C49449A
S1135C105F4445565F5354415445000052544F531A
S1135C205F4552525F494E56414C49445F434C4193
S1135C3053535F53544154450000000052544F5392
S1135C405F4552525F494E56414C49445F45505F4F
S1135C50535441544500000052544F535F4552522F
S1135C605F4445565F48414E444C455F4841535F4D
S1135C704348414E4745440052544F535F455252A6
S1135C805F494E56414C49445F444553430000002C
S1135C9052544F535F4552525F4F564552464C4FF4
S1135CA0575F44455343000052544F535F4552528B
S1135CB05F494E56414C49445F4445565F535044F6
S1135CC00000000052544F535F4552525F44455602
S1135CD05F434F4E4E5F4445434C494E454400009C
S1135CE052544F535F4552525F4445565F53555388
