:10000000000004203D0300006903000069030000B4
:100010006903000069030000690300006903000030
:100020006903000069030000690300006903000020
:10003000690300006803000007920000CB940000F1
:100040006903000069030000690300006903000000
:1000500069030000690300006903000069030000F0
:100060006903000069030000C5970000B1040000A7
:1000700069030000690300006903000069030000D0
:10008000690300006903000025980000690300006F
:1000900069030000690300006903000069030000B0
:1000A00069030000690300006903000069030000A0
:1000B000690300006903000089060000690300006D
:1000C0006903000069030000690300006903000080
:1000D0006903000069030000690300006903000070
:1000E0006903000069030000690300006903000060
:1000F0006903000069030000690300006903000050
:1001000069030000690300006903000010B5054C95
:10011000237833B9044B13B10448AFF300800123B3
:10012000237010BD300100200000000024D7000023
:1001300008B5034B1BB103490348AFF3008008BD6A
:10014000000000003401002024D70000154B002BD4
:1001500008BF134B9D46A3F5803A00218B460F46FE
:100160001348144A121A0AF09CF90F4B002B00D0C6
:1001700098470E4B002B00D0984700200021040028
:100180000D000D48002802D00C48AFF300800AF0A3
:1001900059F92000290009F075FB0AF03FF900BF6A
:1001A0000000080000000420000000000000000023
:1001B000300100200053002000000000000000007B
:1001C00080B582B000AF00F0D1F878600A4B1B68B0
:1001D000094A43F080731360084B00221A60084BF1
:1001E0001B68074A43F001031360786802F01CFBA8
:1001F00000BF0837BD4680BDFCED00E0041000E004
:10020000001000E080B483B000AF054B1B687B603A
:100210007B6818460C37BD465DF8047B704700BF0D
:10022000041000E0B0B586B000AF786000F09EF832
:1002300003464FF00004C7E904347B681C464FF0C6
:100240000005D7E904010B4A4FF0000309F066FFEF
:1002500002460B462046294609F060FF03460C463D
:10026000C7E90234D7E90234184621461837BD469B
:10027000B0BD00BF40420F0080B400AF044BDB6C48
:100280001B0EDBB21846BD465DF8047B704700BF0D
:10029000B081E00F80B582B000AF164B01225A64E6
:1002A000FFF7EAFF0346FB71FB79002B0CD1124BE1
:1002B0004AF6E8521A60114B1B68104A43F00403D7
:1002C00013600D4B00221A60FB79012B05D80C4BF3
:1002D0001B680B4A43F4005313600A4B1B6A23F458
:1002E0004413084A43F48813136200BF0837BD461D
:1002F00080BD00BF00000E4090310E4098310E408E
:1003000064310E4000400E4080B582B000AF112332
:100310007B60FFF7BFFF084803F00AFF05217868FC
:1003200002F02EFF00220121012003F0DDF800BFC2
:100330000837BD4680BD00BFECA4000006488047DA
:100340000649074A074B9A42BEBF51F8040B42F8D0
:10035000040BF8E7FFF7FAFE4904000030D700006D
:10036000000000202C010020FEE700BF80B582B015
:1003700000AF00F025F878600A4BD3F808311B0A6B
:10038000C3F308033B603B6801337A68B2FBF3F3C5
:100390007B60054A7B6813607B6818460837BD465A
:1003A00080BD00BF00400E400800002080B400AFB8
:1003B000024B1846BD465DF8047B7047005A620246
:1003C00080B483B000AF164BD3F8943003F007032A
:1003D000032B08D0042B02D0022B08D00BE0114BCA
:1003E0001B687B600BE04FF400437B6007E00E4B23
:1003F0001B687B6003E00D4B1B687B6000BF084BF4
:10040000D3F800311B0A03F01F0301337A68B2FBF3
:10041000F3F318460C37BD465DF8047B704700BF08
:1004200000400E4004000020000000200C000020CE
:1004300080B400AF034B1B681846BD465DF8047BD3
:10044000704700BF0000002080B400AF074B084A8F
:100450009A60064BD3F88830044A43F47003C2F81C
:10046000883000BFBD465DF8047B704700ED00E0BA
:100470000000000080B400AF4FF400431846BD46B2
:100480005DF8047B704780B400AF4FF47A73184670
:10049000BD465DF8047B704780B400AF034B1B681A
:1004A0001846BD465DF8047B704700BF040000207D
:1004B00080B483B000AF174B02225A60164B022261
:1004C0005A60144B01225A61134B5B6A7B60134BD9
:1004D0001B78DBB21946124A7B6842F821300F4B79
:1004E0001B78DBB21A460F4B53F822307A689A42D7
:1004F00007D90A4B1B78DBB219460A4A7B6842F8D7
:100500002130094B01221A7000BF0C37BD465DF83F
:10051000047B704700800140008401404C010020B2
:1005200050010020600100204D01002080B483B004
:1005300000AF7860FEE7000080B582B000AF786061
:100540007B68022B04D940F29711074802F088F922
:10055000064A7B6804331B01134404331B681846A6
:100560000837BD4680BD00BF74A5000000200440D0
:1005700080B582B000AF786039607B68022B04D907
:1005800040F2AB11074802F06BF9074A7B6804336D
:100590001B01134404333A681A6000BF0837BD4694
:1005A00080BD00BF74A500000020044080B582B06B
:1005B00000AF78607868FFF7BFFF0346184608373A
:1005C000BD4680BD80B582B000AF786039603968C3
:1005D0007868FFF7CDFF00BF0837BD4680BD00003B
:1005E00080B400AF034B9B681846BD465DF8047BA2
:1005F000704700BF0020044080B483B000AF786033
:10060000044A7B68136200BF0C37BD465DF8047B6B
:10061000704700BF0020044080B483B000AF786012
:10062000064B5A6A7B68DB43044913404B6200BFA8
:100630000C37BD465DF8047B704700BF00200440C6
:1006400080B483B000AF7860054B5A6A04497B6878
:1006500013434B6200BF0C37BD465DF8047B704707
:100660000020044080B483B000AF064B5B6A7B601F
:10067000044B9A697B68134018460C37BD465DF8F9
:10068000047B70470020044080B586B000AF03F0C3
:100690009BF93861FFF7E6FFF860FB6823F005037C
:1006A0001846FFF7A9FFFB6803F00403002B30D0C6
:1006B0001C4B01221A70FFF793FF78610420FFF7AB
:1006C000ABFF194B1B687A69D31ABB60B86800F09E
:1006D0002FF800F095F9786900F0C4F9FFF780FF72
:1006E0007861114B1B687A69D31ABB600120FFF750
:1006F0005DFF02460C4B1B68D31A7B600B4B1B78CB
:10070000002B03D0BA687B689A42D7D2054B0022EF
:100710001A7000F01DFA386903F066F900BF183747
:10072000BD4680BD9C010020980100209D01002055
:10073000F0B587B000AF786000237B6156E1AF4928
:100740007A6913469B001344DB000B441D330022DF
:100750001A70AA497A6913469B001344DB000B44C4
:100760001C331B78002B00F03E81A4497A691346A4
:100770009B001344DB000B44D3E900347A68114634
:100780004FF00002A24208BF99421AD29B497A69EF
:1007900013469B001344DB000B44D3E900567B68EF
:1007A0004FF0000429463246C91A62EB0402934C0A
:1007B000786903469B000344DB002344C3E900122D
:1007C00011E18E497A6913469B001344DB000B4408
:1007D0001F331B78002B0AD188497A6913469B0086
:1007E0001344DB000B441C3300221A70E6E07B68E4
:1007F00019464FF00002814C786903469B00034480
:10080000DB002344D3E900560B4614465B1B64EB24
:100810000604C7E9023479497A6913469B001344F8
:10082000DB000B440833D3E9004574497A69134669
:100830009B001344DB000B440833D3E90023D7E9C2
:10084000020109F06BFCA41A65EB030521462A4658
:100850006A4C786903469B000344DB002344C3E9E8
:10086000001266497A6913469B001344DB000B446F
:1008700010331B68002B50DD60497A6913469B00DA
:100880001344DB000B44143319685C487A6913463F
:100890009B001344DB00034410331B681944574882
:1008A0007A6913469B001344DB0003441433196038
:1008B00052497A6913469B001344DB000B441433FE
:1008C0001B681D2B7AD94D497A6913469B00134446
:1008D000DB000B44D3E90034591C44F10002474CBF
:1008E000786903469B000344DB002344C3E90012FC
:1008F00042497A6913469B001344DB000B441433CE
:100900001B68A3F11E013D487A6913469B001344FE
:10091000DB0003441433196050E038497A69134608
:100920009B001344DB000B441433196833487A6985
:1009300013469B001344DB00034410331B68C91AA1
:100940002E487A6913469B001344DB00034414339A
:1009500019602A497A6913469B001344DB000B4453
:1009600014331B681D2B29D924497A6913469B002F
:100970001344DB000B44D3E9003413F1FF3144F19D
:10098000FF321E4C786903469B000344DB0023447E
:10099000C3E9001219497A6913469B001344DB002E
:1009A0000B4414331B68A3F11E0114487A691346E3
:1009B0009B001344DB000344143319600F497A6928
:1009C00013469B001344DB000B4418331B68002BB9
:1009D00009D00A497A6913469B001344DB000B4493
:1009E0001D3301221A707B6901337B617B69002B07
:1009F0007FF7A5AE00BF1C37BD46F0BD70010020DB
:100A000090B583B000AF00237B6022E014497A6880
:100A100013469B001344DB000B441D331B78002B53
:100A200014D00F497A6813469B001344DB000B4433
:100A300018331C6878680A497A6813469B00134487
:100A4000DB000B4420331B681946A0477B68013349
:100A50007B607B68002BD9DD00BF0C37BD4690BDA5
:100A60007001002090B58BB000AF78604FF0FF337D
:100A70004FF0FF34C7E9063400237B6227E0314999
:100A80007A6A13469B001344DB000B441C331B782B
:100A9000002B19D02B497A6A13469B001344DB00C4
:100AA0000B44D3E90012D7E90634A24208BF9942A9
:100AB0000AD224497A6A13469B001344DB000B4494
:100AC000D3E90034C7E906347B6A01337B627B6A71
:100AD000002BD4DD1C4B00221A70D7E90634B4F188
:100AE000FF3F08BFB3F1FF3F27D0D7E90634C7E97E
:100AF00004346FF06403FB60FB6819464FF000029A
:100B0000D7E90434A24208BF994201D20B461446E9
:100B1000C7E906340D4A7B6813600420FFF76CFDBB
:100B2000BA697B68134419460120FFF74BFD064B59
:100B300001221A700420FFF783FD00BF2C37BD4649
:100B400090BD00BF700100209D0100209801002091
:100B500080B500AFFFF786FD034603F00103002BCD
:100B600007D00120FFF748FD034B1B680133024A01
:100B7000136000BF80BD00BFA001002080B582B01F
:100B800000AF1F4B7B607B6802221A617B680222E8
:100B90005A617B681B4A9A617B681B4ADA617B68F1
:100BA0004FF480621A627B6800229A627B6800229E
:100BB0005A627B680022DA627B68124A9A647B6818
:100BC000124ADA647B6810221A657B6800229A65F3
:100BD0007B6800225A657B680022DA657B680733F0
:100BE0000B49184609F065FC7B680A49184609F06C
:100BF00060FC7B6820229A7100BF0837BD4680BD2B
:100C000020270020ECA50000A4010020A40500205E
:100C1000F8A50000FCA5000080B58AB000AFF86020
:100C2000B9607A603C4B1B78002B01D1FFF7A6FF1F
:100C3000FA6813465B001344DB004833364A13441A
:100C4000BB61BB68FB61BB691B693B62BB69DB685D
:100C50007B6100237B623A6A7B699A422AD9BB692D
:100C60009A683B6AD31A3B613A697B68934228BF12
:100C700013463B61BB695A683B6A13443A6919469B
:100C8000F86909F003FC7A6A3B6913447B62FA69EC
:100C90003B691344FB617A683B69D31A7B603A6A0B
:100CA0003B6913443B62BB699B683A6A9A4201D133
:100CB00000233B627A693B6AD31A3B613A697B68DD
:100CC000934228BF13463B613B69002B18D0BB6998
:100CD0005A683B6A13443A691946F86909F0D6FB29
:100CE0007A6A3B6913447B62FA693B691344FB618E
:100CF0007A683B69D31A7B603A6A3B6913443B626A
:100D00007B6A002B02D0BB693A6A1A617B6A18467B
:100D10002837BD4680BD00BF2027002080B58AB09F
:100D200000AFF860B9607A60BB687B62FB685A1CF0
:100D300013465B001344DB003F4A13443B623B6AAB
:100D40001B69FB613B6ADB68BB61FA69BB699A425C
:100D500054D83B6A9A68BB69D31A013B7B617A69B4
:100D60007B689A420FD33B6A5A68BB6913447A681E
:100D7000796A184609F08AFBBA697B681A443B6AAB
:100D8000DA60012354E07A69FB6913447B617A6974
:100D90007B689A424BD33B6A9A68BB69D31A3B6122
:100DA0003A697B689A420ED93B6A5A68BB69134418
:100DB0007A68796A184609F069FBBA697B681A444F
:100DC0003B6ADA6018E03B6A5A68BB6913443A69C7
:100DD000796A184609F05AFB3B6A58687A6A3B6997
:100DE000D1187A683B69D31A1A4609F04FFB7A6822
:100DF0003B69D21A3B6ADA60012319E0FA69BB69E0
:100E0000D31A013B7B617A697B689A420FD33B6AB4
:100E10005A68BB6913447A68796A184609F036FB48
:100E2000BA697B681A443B6ADA60012300E0002358
:100E300018462837BD4680BD2027002080B586B0E3
:100E400000AFF860B9607A603B602E4B1B78002BD6
:100E500001D1FFF793FE2B4B1B691A46FB689342A7
:100E600048D202F093FD3861FB68002B32D025494F
:100E7000FB685A1C13465B001344DB000B44BA6842
:100E80001A602049FB685A1C13465B001344DB00C0
:100E90000B4404337A681A601A49FA6813465B00F7
:100EA0001344DB000B4420333A681A601549FA6892
:100EB00013465B001344DB000B44283300221A6006
:100EC0001049FA6813465B001344DB000B442433DB
:100ED00000221A600B49FA6813465B001344DB00DA
:100EE0000B442C333A6A1A60386902F05FFD002324
:100EF0007B6102E04FF0FF337B617B691846183756
:100F0000BD4680BD2027002080B586B000AFF860C8
:100F1000B9607A603B602E4B1B78002B01D1FFF744
:100F20002DFE2B4B5B691A46FB68934247D202F0B9
:100F30002DFD3861FB68002B31D02549FA68134636
:100F40005B001344DB000B444833BA681A60204945
:100F5000FA6813465B001344DB000B444C337A6899
:100F60001A601B49FA6813465B001344DB000B440C
:100F700050333A681A601649FA6813465B00134406
:100F8000DB000B44583300221A601149FA681346FB
:100F90005B001344DB000B44543300221A600C49FD
:100FA000FA6813465B001344DB000B445C333A6A77
:100FB0001A60386902F0FAFC00237B6102E04FF00E
:100FC000FF337B617B6918461837BD4680BD00BF83
:100FD0002027002080B487B000AFF860B9607A6045
:100FE00000233B6102E03B6901333B61BA683B6926
:100FF00013441B78002BF6D13A697B689A4201D9D9
:101000007B683B613B69FE2B06D8FB685A1CFA6083
:101010003A69D2B21A7011E0FB685A1CFA60FF22DA
:101020001A70FB685A1CFA603A69D2B21A703B69AE
:10103000190AFB685A1CFA60CAB21A7000237B6155
:101040000AE0BA68531CBB60FB68591CF96012784F
:101050001A707B6901337B617A693B699A42F0D3EC
:10106000FB6818461C37BD465DF8047B704780B4AA
:1010700083B000AF78607B68043318460C37BD46F8
:101080005DF8047B704780B582B000AFFB1C012285
:1010900019460120FFF7C0FD03467B607B68002BEB
:1010A00044DDFB78042B1AD0042B06DC022B10D075
:1010B000022B11DC012B09D02DE0062B15D0062BBD
:1010C00010DB072B14D0802B15D024E000F07CFA25
:1010D00031E000F02DFB2EE000F0F8FC2BE000F0FA
:1010E000C1FC28E000F046FB25E000F099FF22E07B
:1010F00000F078FF1FE0FB1C012219460120FFF7DA
:101100008BFD03467B607B68002B11DDFB78184666
:1011100000F0ECFE0CE0FB785BB2002B0ADAFB1C63
:10112000012219460120FFF777FD03E000BF02E02E
:1011300000BF00E000BF00BF0837BD4680BD000013
:1011400080B58CB000AF01233B713B1D0133FB61C7
:10115000FB69FB62334B5B69BB620BE0BB6ADAB2D3
:10116000FB6A591CF96262F07F02D2B21A70BB6A44
:10117000DB09BB62BB6A7F2BF0D8FB6A5A1CFA62A0
:10118000BA6AD2B21A70FB6AFB61274B1B68BB615B
:10119000244BDB68BA69D31A7B617B691B017B61D5
:1011A0007B691B117B61FB697B627B693B620BE0A6
:1011B0003B6ADAB27B6A591C796262F07F02D2B272
:1011C0001A703B6ADB093B623B6A7F2BF0D87B6A73
:1011D0005A1C7A623A6AD2B21A707B6AFB61FA6967
:1011E0003B1DD31A1A463B1D19460120FFF796FDF9
:1011F00003463B613B69002B09D00A4ABB69D360B7
:10120000084B1B78013BDAB2064B1A7004E0054B21
:101210005B690133034A53613B6918463037BD4669
:1012200080BD00BFBC150020041000E080B58AB06E
:1012300000AFF860B9607A60654B1B78012B10D065
:10124000634B1B78002B00F0A780614B1B78022BAF
:1012500009D1FFF775FF5E4B1B78012B40F09E8094
:1012600001E000BF00E000BF7B681F2B09D8584B8E
:10127000DA697B6822FA03F303F00103002B40F0E4
:101280008F807B68172B07D8FB68013BFB607B686E
:10129000DAB2FB681A703DE0BA68FB68D31AFB61EA
:1012A000FB697F2B12D9FB69DA09FB68013BFB6004
:1012B000D2B2FB681A70FB69DBB2FA68013AFA60D5
:1012C00063F07F03DAB2FB681A7006E0FB68013B4B
:1012D000FB60FB69DAB2FB681A707B687F2B12D95E
:1012E0007B68DA09FB68013BFB60D2B2FB681A70CD
:1012F0007B68DBB2FA68013AFA6063F07F03DAB226
:10130000FB681A7006E0FB68013BFB607B68DAB2A1
:10131000FB681A702F4B1B68BB612D4BDB68BA69E9
:10132000D31A7B617B691B017B617B691B097B6134
:10133000BB687B627B693B620BE03B6ADAB27B6A2B
:10134000591C796262F07F02D2B21A703B6ADB09E3
:101350003B623B6A7F2BF0D87B6A5A1C7A623A6AFE
:10136000D2B21A707B6ABB60BA68FB68D31A1A469D
:10137000F9680120FFF7D2FC03463B613B69002B73
:1013800003D0134ABB69D3600BE0114B1B780133C8
:10139000DAB20F4B1A7004E000BF02E000BF00E0B9
:1013A00000BF0D4BDA6E0C4B1B6F9A420BD0084BF3
:1013B0009B78002B07D1064B01229A70FFF763FE42
:1013C000034B00229A7000BF2837BD4680BD00BF86
:1013D000BC150020041000E02027002080B586B056
:1013E00002AFF860B9607A603B60002300934FF46D
:1013F0008053144A14490120FFF720FD0023009375
:101400000823124A10490120FFF77EFD104B4FF0D0
:1014100080521A610F4B1B680D4AD3600C4A7B68DF
:1014200013620B4AFB685360094ABB689360084A21
:101430003B685362064B00221A7000BF1037BD464E
:1014400080BD00BFB405002010A60000B415002028
:10145000BC150020041000E080B483B000AF7860B9
:10146000044A7B68136100BF0C37BD465DF8047BFE
:10147000704700BFBC15002080B584B000AF786015
:1014800002F084FAF8600848FFF7F1FDB8607A6866
:10149000B968B868FFF7CAFEF86802F087FA00BFBB
:1014A0001037BD4680BD00BFEC15002080B588B068
:1014B00000AF7860396002F069FA78611648FFF78A
:1014C000D6FD38613B69FB60FB68FB613B68BB6133
:1014D0000BE0BB69DAB2FB69591CF96162F07F026B
:1014E000D2B21A70BB69DB09BB61BB697F2BF0D834
:1014F000FB695A1CFA61BA69D2B21A70FB69FB60C7
:101500007A68F9683869FFF791FE786902F04EFA57
:1015100000BF2037BD4680BDEC15002080B58CB0E3
:1015200000AFF860B9607A6002F030FAF8612548DF
:10153000FFF79DFDB861BB697B617B69FB62BB689E
:10154000BB620BE0BB6ADAB2FB6A591CF96262F05B
:101550007F02D2B21A70BB6ADB09BB62BB6A7F2B07
:10156000F0D8FB6A5A1CFA62BA6AD2B21A70FB6AE5
:101570007B617B697B627B683B620BE03B6ADAB232
:101580007B6A591C796262F07F02D2B21A703B6AA0
:10159000DB093B623B6A7F2BF0D87B6A5A1C7A627C
:1015A0003A6AD2B21A707B6A7B61FA687969B86963
:1015B000FFF73CFEF86902F0F9F900BF3037BD468D
:1015C00080BD00BFEC15002080B58CB000AF554B3E
:1015D0001B78002B40F0A280524B01221A7002F0BF
:1015E000D5F9F8600A2250490120FFF797FBF86807
:1015F00002F0DCF90A20FFF73FFF02F0C7F9B860FC
:101600004A48FFF734FD78607B683B603B68FB62CB
:10161000444B5B68BB620BE0BB6ADAB2FB6A591CE5
:10162000F96262F07F02D2B21A70BB6ADB09BB6258
:10163000BB6A7F2BF0D8FB6A5A1CFA62BA6AD2B234
:101640001A70FB6A3B603B687B62364B9B683B626F
:101650000BE03B6ADAB27B6A591C796262F07F0266
:10166000D2B21A703B6ADB093B623B6A7F2BF0D82F
:101670007B6A5A1C7A623A6AD2B21A707B6A3B6001
:101680003B68FB61274B1B69BB610BE0BB69DAB2AE
:10169000FB69591CF96162F07F02D2B21A70BB6912
:1016A000DB09BB61BB697F2BF0D8FB695A1CFA616F
:1016B000BA69D2B21A70FB693B603B687B61022356
:1016C0003B610BE03B69DAB27B69591C796162F0DE
:1016D0007F02D2B21A703B69DB093B613B697F2B09
:1016E000F0D87B695A1C7A613A69D2B21A707B6968
:1016F0003B60182239687868FFF798FDB86802F0F7
:1017000055F9084B5B6A002B02D0064B5B6A984781
:1017100000F0DCF900F0A6F900F082FC00BF3037E1
:10172000BD4680BDBC15002004A60000EC150020BD
:1017300080B582B000AF02F029F978600B48FFF75E
:1017400096FC38600A4B1B78002B07D00B223968B7
:101750003868FFF76BFD064B00221A70786802F0BC
:1017600025F900BF0837BD4680BD00BFEC1500203D
:10177000BC15002080B58CB000AF02F007F9F8600E
:101780004548FFF774FCB860BB687B607B68FB6210
:10179000424B5B68BB620BE0BB6ADAB2FB6A591C66
:1017A000F96262F07F02D2B21A70BB6ADB09BB62D7
:1017B000BB6A7F2BF0D8FB6A5A1CFA62BA6AD2B2B3
:1017C0001A70FB6A7B607B687B62344B9B683B6270
:1017D0000BE03B6ADAB27B6A591C796262F07F02E5
:1017E000D2B21A703B6ADB093B623B6A7F2BF0D8AE
:1017F0007B6A5A1C7A623A6AD2B21A707B6A7B6040
:101800007B68FB61254B1B69BB610BE0BB69DAB2EE
:10181000FB69591CF96162F07F02D2B21A70BB6990
:10182000DB09BB61BB697F2BF0D8FB695A1CFA61ED
:10183000BA69D2B21A70FB697B607B687B61022354
:101840003B610BE03B69DAB27B69591C796162F05C
:101850007F02D2B21A703B69DB093B613B697F2B87
:10186000F0D87B695A1C7A613A69D2B21A707B69E6
:101870007B6018227968B868FFF7D8FCF86802F036
:1018800095F8064B5B6A002B02D0044B5B6A9847C5
:1018900000BF3037BD4680BDEC150020BC150020D0
:1018A00080B592B000AF786002F070F878616B4854
:1018B000FFF7DDFB38613B69FB60FB687B647B689D
:1018C0001A68674B1B69D31A9B083B640BE03B6C9F
:1018D000DAB27B6C591C796462F07F02D2B21A7062
:1018E0003B6CDB093B643B6C7F2BF0D87B6C5A1C58
:1018F0007A643A6CD2B21A707B6CFB60FB68FB6353
:101900007B689B68BB630BE0BB6BDAB2FB6B591C5B
:10191000F96362F07F02D2B21A70BB6BDB09BB6362
:10192000BB6B7F2BF0D8FB6B5A1CFA63BA6BD2B23D
:101930001A70FB6BFB607B685B6820221946F868B5
:10194000FFF748FBF8600922F9683869FFF76EFC79
:101950003B69FB60FB687B637B681A68404B1B69D3
:10196000D31A9B083B630BE03B6BDAB27B6B591CD1
:10197000796362F07F02D2B21A703B6BDB093B6382
:101980003B6B7F2BF0D87B6B5A1C7A633A6BD2B2DD
:101990001A707B6BFB60FB68FB627B68DB68BB6279
:1019A0000BE0BB6ADAB2FB6A591CF96262F07F0293
:1019B000D2B21A70BB6ADB09BB62BB6A7F2BF0D85C
:1019C000FB6A5A1CFA62BA6AD2B21A70FB6AFB60EE
:1019D000FB687B627B681B693B620BE03B6ADAB2A7
:1019E0007B6A591C796262F07F02D2B21A703B6A3C
:1019F000DB093B623B6A7F2BF0D87B6A5A1C7A6218
:101A00003A6AD2B21A707B6AFB60FB68FB61002302
:101A1000BB610BE0BB69DAB2FB69591CF96162F08A
:101A20007F02D2B21A70BB69DB09BB61BB697F2B35
:101A3000F0D8FB695A1CFA61BA69D2B21A70FB6914
:101A4000FB601522F9683869FFF7F0FB786901F04F
:101A5000ADFF00BF4837BD4680BD00BFEC1500207C
:101A6000BC15002080B500AF074B1B6A002B08D0C7
:101A7000054B1B6A5B68002B03D0034B1B6A5B683A
:101A8000984700BF80BD00BFBC15002080B586B060
:101A900000AF786001F07AFF78610B48FFF7E7FA52
:101AA0003861802279683869FFF794FAF8600E226D
:101AB000F9683869FFF7BAFB786901F077FF00BF72
:101AC0001837BD4680BD00BFEC15002090B583B02F
:101AD00000AF144B1B6A002B19D0124B1B6A1B68FA
:101AE000002B14D00F4B1B6A1B689847C7E90001F5
:101AF0003868D7E900124FF000034FF000041300DC
:101B000000241A4601460D20FFF708FD05E0064BAC
:101B10001B6819460C20FFF7C9FC00BF0C37BD46F7
:101B200090BD00BFBC150020041000E080B586B059
:101B300000AF01F02BFFF8601948FFF798FAB86082
:101B4000BB687B60174B1B68C3F308033B607B6873
:101B50007B613B683B610BE03B69DAB27B69591CF6
:101B6000796162F07F02D2B21A703B69DB093B6196
:101B70003B697F2BF0D87B695A1C7A613A69D2B2F3
:101B80001A707B697B6002227968B868FFF74EFBA8
:101B9000F86801F00BFF00BF1837BD4680BD00BFDD
:101BA000EC15002004ED00E080B582B000AF01F03C
:101BB000EDFE78600748FFF75AFA3860032239686B
:101BC0003868FFF733FB786801F0F0FE00BF083794
:101BD000BD4680BDEC15002080B582B000AF01F09D
:101BE000D5FE78600748FFF742FA3860112239685D
:101BF0003868FFF71BFB786801F0D8FE00BF083794
:101C0000BD4680BDEC15002080B588B000AF78607F
:101C100001F0BCFE78611A48FFF729FA38613B6988
:101C2000FB60184B1B697A68D31A9B087B60FB68C2
:101C3000FB617B68BB610BE0BB69DAB2FB69591CD5
:101C4000F96162F07F02D2B21A70BB69DB09BB6135
:101C5000BB697F2BF0D8FB695A1CFA61BA69D2B212
:101C60001A70FB69FB600822F9683869FFF7DEFA31
:101C7000786901F09BFE00BF2037BD4680BD00BFE4
:101C8000EC150020BC15002080B588B000AF78604E
:101C900001F07CFE78611A48FFF7E9F938613B6989
:101CA000FB60184B1B697A68D31A9B087B60FB6842
:101CB000FB617B68BB610BE0BB69DAB2FB69591C55
:101CC000F96162F07F02D2B21A70BB69DB09BB61B5
:101CD000BB697F2BF0D8FB695A1CFA61BA69D2B292
:101CE0001A70FB69FB600422F9683869FFF79EFAF5
:101CF000786901F05BFE00BF2037BD4680BD00BFA4
:101D0000EC150020BC15002080B588B000AF7860CD
:101D100001F03CFE78611A48FFF7A9F938613B6988
:101D2000FB60184B1B697A68D31A9B087B60FB68C1
:101D3000FB617B68BB610BE0BB69DAB2FB69591CD4
:101D4000F96162F07F02D2B21A70BB69DB09BB6134
:101D5000BB697F2BF0D8FB695A1CFA61BA69D2B211
:101D60001A70FB69FB600622F9683869FFF75EFAB2
:101D7000786901F01BFE00BF2037BD4680BD00BF63
:101D8000EC150020BC15002080B58AB000AF78604B
:101D9000396001F0FBFD78612748FFF768F9386189
:101DA0003B69FB60254B1B697A68D31A9B087B60F3
:101DB000FB687B627B683B620BE03B6ADAB27B6A62
:101DC000591C796262F07F02D2B21A703B6ADB0959
:101DD0003B623B6A7F2BF0D87B6A5A1C7A623A6A74
:101DE000D2B21A707B6AFB60FB68FB613B68BB6127
:101DF0000BE0BB69DAB2FB69591CF96162F07F0242
:101E0000D2B21A70BB69DB09BB61BB697F2BF0D80A
:101E1000FB695A1CFA61BA69D2B21A70FB69FB609D
:101E20000722F9683869FFF701FA786901F0BEFD09
:101E300000BF2837BD4680BDEC150020BC15002032
:101E400080B588B000AF7860396001F09FFD78619F
:101E50001B48FFF70CF938613B69FB60FB68FB61CD
:101E6000184B1B697A68D31A9B08BB610BE0BB69EE
:101E7000DAB2FB69591CF96162F07F02D2B21A70C2
:101E8000BB69DB09BB61BB697F2BF0D8FB695A1CBE
:101E9000FA61BA69D2B21A70FB69FB6080223968B4
:101EA000F868FFF797F8F8601922F9683869FFF7C2
:101EB000BDF9786901F07AFD00BF2037BD4680BDCD
:101EC000EC150020BC15002080B483B000AF786012
:101ED000054B1B697A68D31A9B0818460C37BD4618
:101EE0005DF8047B704700BFBC15002080B58CB046
:101EF00000AF0346FB71394B1B68002B69D0374B91
:101F00001B68FB620023BB6208E0FB6A1B69FB6283
:101F1000FB6A002B07D0BB6A0133BB62FB79BA6A4C
:101F20009A42F2D300E000BFFB6A002B51D001F0CF
:101F30002DFD78612A48FFF79AF838613B69FB600C
:101F4000FB687B62FB793B620BE03B6ADAB27B6A3F
:101F5000591C796262F07F02D2B21A703B6ADB09C7
:101F60003B623B6A7F2BF0D87B6A5A1C7A623A6AE2
:101F7000D2B21A707B6AFB60FB68FB61FB6A9B68EC
:101F8000BB610BE0BB69DAB2FB69591CF96162F015
:101F90007F02D2B21A70BB69DB09BB61BB697F2BC0
:101FA000F0D8FB695A1CFA61BA69D2B21A70FB699F
:101FB000FB60FB6A1B6880221946F868FFF70AF885
:101FC000F8601622F9683869FFF730F9786901F08E
:101FD000EDFC00BF3037BD4680BD00BFE4150020DA
:101FE000EC15002080B582B000AF0C4B1B68002BB5
:101FF0000FD00A4B1B687B607B68DB68002B02D02C
:102000007B68DB6898477B681B697B607B68002B7B
:10201000F2D100BF0837BD4680BD00BFE4150020E7
:1020200080B586B000AF01F0B1FCF8601748FFF74B
:102030001EF8B860BB687B607B687B61144B1B78C3
:102040003B610BE03B69DAB27B69591C796162F054
:102050007F02D2B21A703B69DB093B613B697F2B7F
:10206000F0D87B695A1C7A613A69D2B21A707B69DE
:102070007B601B227968B868FFF7D8F8F86801F030
:1020800095FC00BF1837BD4680BD00BFEC15002091
:10209000E815002080B58AB000AF786001F076FCCA
:1020A00078612748FEF7E3FF386180227968386954
:1020B000FEF790FFF860FB687B6201233B620BE058
:1020C0003B6ADAB27B6A591C796262F07F02D2B253
:1020D0001A703B6ADB093B623B6A7F2BF0D87B6A54
:1020E0005A1C7A623A6AD2B21A707B6AFB60FB6849
:1020F000FB610023BB610BE0BB69DAB2FB69591CD1
:10210000F96162F07F02D2B21A70BB69DB09BB6170
:10211000BB697F2BF0D8FB695A1CFA61BA69D2B24D
:102120001A70FB69FB601A22F9683869FFF77EF8BC
:10213000786901F03BFC00BF2837BD4680BD00BF79
:10214000EC15002080B500AF0448FFF79FFC044861
:10215000FFF79CFC00F094F900BF80BD18A60000BA
:1021600048A6000098B500AF094800F019FB0446E6
:10217000074800F015FB0146064B074A2046FFF7CB
:102180002DF94FF00050FFF767F900BF98BD00BF71
:10219000982700204521000000A70000F0B585B079
:1021A00002AF00237B6036E01F497A6813469B002C
:1021B00013449B000B4418681B497A6813469B0024
:1021C00013449B000B4404331C6817497A68134678
:1021D0009B0013449B000B4408331B781D46124997
:1021E0007A6813469B0013449B000B440C331B6816
:1021F0001E460D497A6813469B0013449B000B440E
:1022000010331B68009333462A46214600F0CEF86F
:102210007B6801337B60054B1B687A689A42C3D3A5
:1022200000BF0C37BD46F0BDD0160020501900206D
:1022300090B585B000AF00F0A8FAF860F868FDF737
:10224000F1FFC7E90001D7E90034184621461437E9
:10225000BD4690BD80B582B000AF7860054A7B680E
:10226000934202D07868FFF74FFD00BF0837BD46A4
:1022700080BD00BFF84C002080B582B000AF786010
:1022800004217868FFF780FD7868FFF73DFD00BF07
:102290000837BD4680BD000080B582B000AF7860D1
:1022A000064A7B68934203D07868FFF7EDFC01E0B3
:1022B000FFF792FC00BF0837BD4680BDF84C0020F8
:1022C00080B582B000AF7860054A7B68934203D046
:1022D00004217868FFF758FD00BF0837BD4680BD70
:1022E000F84C002080B586B002AFF860B9603B6062
:1022F0001346FB71294AFB6893424BD0284B1B685D
:102300001F2B03D92748FFF7C5FE43E0244B1A686B
:10231000254913469B0013449B000B44FA681A603E
:102320001F4B1A68204913469B0013449B000B4423
:102330000433BA681A601A4B1A681B4913469B008B
:1023400013449B000B440833FA791A70144B1A6833
:10235000154913469B0013449B000B440C333A6809
:102360001A600F4B1A68104913469B0013449B00D8
:102370000B441033BA691A60094B1B680133084AD1
:102380001360FA793968BB6900930B46B968F8683D
:1023900000F00CF81037BD4680BD00BFF84C00209F
:1023A000501900205CA60000D016002080B58AB02D
:1023B00000AFF860B9607A603B6007F11403142243
:1023C0000021184608F06DF8FB687B61BB68BB61B3
:1023D0007B68FB613B683B623B6B7B6207F11403EC
:1023E0001846FFF75DFA00BF2837BD4680BD0000E4
:1023F00080B584B000AFF860B9607A607968B86879
:10240000FFF71EFDB868FFF75FFD03461946F86841
:10241000FFF74CF8174B1B68FF2B03D91648FFF743
:1024200039FE24E0134B1A68144913465B00134429
:102430009B000B44BA681A600E4B1A680F4913468A
:102440005B0013449B000B4404337A681A60094B09
:102450001A680A4913465B0013449B000B44083377
:1024600000221A60034B1B680133024A13601037C5
:10247000BD4680BD54250020ACA6000054190020A4
:1024800080B582B000AF00237B602BE01A497A68E8
:1024900013465B0013449B000B4408331B68002B5E
:1024A0001DD115497A6813465B0013449B000B4409
:1024B000186811497A6813465B0013449B000B446B
:1024C00004331B681946FFF7BBFC0B497A681346B7
:1024D0005B0013449B000B44083301221A607B68A5
:1024E00001337B60054B1B687A689A42CED300BFEC
:1024F0000837BD4680BD00BF541900205425002078
:1025000080B58AB004AFF860B9607A603B60BB68A0
:102510007B613B68002B01D100F034F97B69002B13
:1025200001D10A4B7B613B68029300230193012395
:10253000009304237A687969F86800F009F8386133
:102540003B6918461837BD4680BD00BF100000200B
:1025500080B588B002AFF860B9607A603B607B6894
:10256000002B15D1BB6A08221A70374B1A6ABB6A56
:102570005A60364B1A6ABB6A9A60BB6A344ADA60A0
:10258000BB6A40F2C6621A61BB6A324A5A61FEE710
:102590003B68002B05D03B685A1E3B681340002B5C
:1025A00002D03B68002B01D1012300E00023002B67
:1025B00015D1BB6A08221A70234B1A6ABB6A5A608B
:1025C000224B1A6ABB6A9A60BB6A214ADA60BB6A0C
:1025D00040F2CA621A61BB6A1E4A5A61FEE701F004
:1025E000D5F97861BB6A01937B6A00933B6A3A68CC
:1025F0007968B86800F030F83861BB6A1B78002B46
:1026000019D0786901F0D2F9BB6A16221A700E4B04
:102610009A6DBB6A5A600D4B9A6DBB6A9A60BB6A31
:102620000B4ADA60BB6A40F2D5621A61BB6A094A9A
:102630005A61002303E0786901F0B8F93B69184654
:102640001837BD4680BD00BFA8CA0000F4CC00000A
:1026500008A7000028A7000080B48BB000AFF86086
:10266000B9607A603B607B68002B01D07B6800E03A
:1026700004233A68934238BF13467B62FB689B6829
:102680001A467B6A5B421A40FB689B6819467B6A64
:10269000013B0B40002B01D07B6A00E00023134478
:1026A0003B623A6ABB681A443B685B421A40396A2B
:1026B000BB6819443B68013B0B40002B01D03B68D1
:1026C00000E000231344FB61FB685B681A46FB686B
:1026D0009B68D31A0133BB61FB689B681A46FB6990
:1026E0009B1A7B61BA697B699A421ED23B6B002BB5
:1026F00004D07A69BB69D21A3B6B1A607B6B1622D5
:102700001A70194B9A6D7B6B5A60184B9A6D7B6BE4
:102710009A607B6B164ADA607B6B4FF4E4621A6155
:102720007B6B144A5A61002318E0FA69FB689A60CF
:102730007B6B00221A700C4B1A687B6B5A600B4B38
:102740001A687B6B9A607B6B094ADA607B6B40F29C
:1027500026721A617B6B074A5A613B6A18462C370E
:10276000BD465DF8047B7047A8CA0000F4CC0000A9
:1027700008A7000040A7000080B500AF00F064F893
:1027800000BF80BD80B400AFFEE780B582B000AF6F
:10279000FDF738FD78607B6818460837BD4680BD78
:1027A00080B584B000AF78607B68002B01D1FFF763
:1027B000E9FF184B1B68FB60FB68002B01D000226F
:1027C00000E009227B681A70FB68002B01D000230F
:1027D00000E00923104A52F823207B685A60FB6806
:1027E000002B01D0002300E009230C4A52F82320DB
:1027F0007B689A607B680A4ADA607B684FF4FE72F5
:102800001A617B68074A5A61FB6818461037BD4653
:1028100080BD00BFB4470020A8CA0000F4CC00006F
:1028200040CF00005CCF000080B483B000AF786080
:10283000044A7B68136000BF0C37BD465DF8047B1B
:10284000704700BFB447002080B500AF034B0022A3
:102850001A60FDF7B5FC00BF80BD00BFB447002083
:1028600080B483B000AF78603960FEE780B487B091
:1028700000AFF860B9607A60FB6803F10473DA00B6
:10288000BB6813449B007B617B697A681A6000BF58
:102890001C37BD465DF8047B704780B485B000AF3F
:1028A000786039607B6803F10473DA003B68134495
:1028B0009B00FB60FB681B6818461437BD465DF83B
:1028C000047B704780B582B000AF78607B681F2BB7
:1028D00004D94FF496710548FFF7C2FF01227B68C7
:1028E00002FA03F318460837BD4680BD70CF0000DA
:1028F00080B582B000AF78607868FFF7E3FF0346E9
:1029000018460837BD4680BD80B500AF00BF122114
:102910000348FFF7C2FF0346002BF8D100BF80BD7C
:1029200004300E4080B500AFFFF7EEFF034B5B684D
:102930001B0C03F00303DBB2184680BD00300E40D1
:1029400080B584B000AF78600123FB607B68124AD9
:10295000934204D80023FB600023BB6008E07B683F
:102960000E4A934202D80123BB6001E00223BB6000
:10297000FA6810210A48FFF779FF094BD3F80031B4
:1029800023F08072BB681B0605491343C1F8003170
:1029900000BF1037BD4680BD0048E8010090D0035D
:1029A00000400E4080B483B000AF054B1B687B60D5
:1029B0007B6818460C37BD465DF8047B704700BF46
:1029C0002400002080B582B000AFFDF7F9FC7860EC
:1029D000064BD3F800311B0A03F01F0301337A685A
:1029E00002FB03F318460837BD4680BD00400E4089
:1029F00080B582B000AF0F4800F0DEFA0346FB70EE
:102A0000FB78072B05D0092B07D1FDF7D9FC78609F
:102A10000BE0FFF7C7FF786007E000237B6040F61C
:102A20009A210548FFF71CFF00BF7B68184608374E
:102A3000BD4680BD06000E0064D0000080B584B0A5
:102A400000AF78607B68002B1CD1204800F0B4FAFE
:102A50000346FB7200BFFB7A013B072B28D801A27B
:102A600052F823F0932A0000B12A0000B12A000096
:102A7000A12A0000B12A0000B12A0000992A000012
:102A8000A92A000040F6BA211148FFF7E9FE002309
:102A900017E00023FB6013E0FFF784FFF8600FE00E
:102AA000FDF7C6FCF8600BE0FFF78CFFF86007E06D
:102AB0000023FB6040F6D1210548FFF7D1FE00BF9F
:102AC000FB6818461037BD4680BD00BFB800320015
:102AD00064D0000080B584B000AF78603960204BCE
:102AE0005B6803F04073FB600023BB6012E01D4A8B
:102AF000BB68DB0013441A793B68DBB29A4206D10B
:102B0000184ABB6852F833307A689A4206D9BB68D3
:102B10000133BB60BB68042BE9D900E000BFBB6890
:102B2000052B07D10323FB6040F6D8310E48FFF791
:102B300097FE05E00B4ABB68DB0013445B79FB6042
:102B4000FB681B06FB60064B5B6823F04072044980
:102B5000FB6813434B6000BF1037BD4680BD00BF0C
:102B600000000E4078D0000064D0000080B582B034
:102B700000AF0E4B1B6C002B14BF01230023FB7115
:102B80000A4B41F671321A64FDF710FC034600212E
:102B90001846FFF79FFFFB79002B02D0034B002262
:102BA0001A6400BF0837BD4680BD00BF00000E405C
:102BB00080B584B000AF786039600C4B1B6C002B83
:102BC00014BF01230023FB73084B41F671321A64D2
:102BD00039687868FFF77EFFFB7B002B02D0034B40
:102BE00000221A6400BF1037BD4680BD00000E40B1
:102BF00080B487B000AF78600F237B617B680333BC
:102C00003B617B69FB60FA683B69934228BF1346CE
:102C1000BB60BB681B07BB60BB6818461C37BD4662
:102C20005DF8047B7047000080B400AF044B5B6A22
:102C30001B0903F003031846BD465DF8047B70478B
:102C400000400E4080B483B000AF7860074B5B6AF1
:102C500023F030027B681B01044913434B6200BF21
:102C60000C37BD465DF8047B704700BF00400E4046
:102C700090B585B000AF78600023BB607B683C4AAC
:102C800093420BD03B4A934208D03B4A934205D033
:102C900040F6C9413948FFF7E3FD00E000BF78681E
:102CA00000F08AF90346FB607B68314A93420CD0FE
:102CB000304A934210D0304A934214D1304BD3F86B
:102CC000803003F00703FB6013E02D4BD3F8843012
:102CD00003F00703FB600CE0294BD3F8883003F0C6
:102CE0000703FB6005E040F6F8412448FFF7B8FD14
:102CF00000BFFB68042B2ED801A252F823F000BFBE
:102D0000512D0000152D00001D2D00002D2D00005F
:102D1000252D0000FDF7AEFBB86024E0FDF7BCFBFD
:102D2000B86020E0FDF7AFFBB8601CE0FDF71EFBCC
:102D30000446134BD3F800311B0E03F0010301339B
:102D40001846FFF7D5FD0346B4FBF3F3BB600AE07A
:102D50000023BB6007E00023BB6040F64A510748F0
:102D6000FFF77EFD00BFBB6818461437BD4690BD17
:102D7000030020000500240002001E0064D00000B3
:102D800000400E4080B400AF00BFBD465DF8047B3C
:102D9000704780B400AF00BFBD465DF8047B70474C
:102DA00080B584B000AF78607B6803F47813B3F526
:102DB000A01F7DD0B3F5A01F1AD8B3F5202F50D097
:102DC000B3F5202F08D8B3F5003F4ED0B3F5802FD0
:102DD00038D0002B32D0D8E0B3F5602F00F0C88097
:102DE000B3F5801F00F0C880B3F5402F4CD0CCE085
:102DF000B3F5001F00F08B80B3F5001F0AD8B3F5C0
:102E0000D01F00F08980B3F5F01F4CD0B3F5B01F90
:102E10005CD0BAE0B3F5381F6AD0B3F5381F04D8D8
:102E2000B3F5101F00F09F80AFE0B3F5401F00F036
:102E30008680B3F5481F00F0A380A6E0FDF7C0FA36
:102E4000F860AAE0FDF7BCFAF860564BD3F80C31F5
:102E50001B0AC3F308030133FA68B2FBF3F3FB6008
:102E60009BE0FDF7ADFAF86097E0FDF7A9FAF8608E
:102E70004C4BD3F808311B0AC3F308030133FA683B
:102E8000B2FBF3F3FB6088E0FDF79AFAF860454B7C
:102E9000D3F814311B0A03F01F030133FA68B2FBA5
:102EA000F3F3FB6079E04048FFF7E2FEF86074E07E
:102EB0003E48FFF7DDFEF8603A4BD3F8303103F0BF
:102EC0000303FA6822FA03F3FB6066E03648FFF773
:102ED000CFFEF860334BD3F8203103F00F031846D0
:102EE000FFF706FD0246FB68B3FBF2F3FB6054E01C
:102EF0002D48FFF7BDFEF8602A4BD3F820311B099F
:102F000003F00303FA6822FA03F3FB6045E0284864
:102F1000FFF7AEFEF86040E02548FFF7A9FEF86035
:102F2000204BD3F828311B0903F003031846FFF7A1
:102F3000DFFC0246FB68B3FBF2F3FB602DE01C48AC
:102F4000FFF796FEF860174BD3F828311B0A03F001
:102F5000030304331846FFF7CBFC0246FB68B3FBC0
:102F6000F2F3FB6019E01148FFF782FEF86014E00D
:102F7000FFF73EFDF86010E0FFF714FDF8600CE08D
:102F80000020FFF75BFDF86007E00023FB6041F2E3
:102F900062210848FFF764FC00BFFB681846103741
:102FA000BD4680BD00400E4002001E00050024000A
:102FB0000300200064D0000080B584B000AF7860CA
:102FC0000123FB737B6803F00F03BB60BB68013B0D
:102FD000072B00F2C48001A252F823F0FD2F00005D
:102FE00053300000833000005F310000C930000022
:102FF000F93000005F3100001D3100005E4BD3F856
:10300000943003F00703023B052B1ED801A252F8AF
:1030100023F000BF39300000333000002D300000B5
:103020003F3000004B300000453000000223FB73AE
:103030000EE00323FB730BE00423FB7308E00B2378
:10304000FB7305E00C23FB7302E00523FB7300BF59
:103050008DE0494BD3F8803003F00703022B06D0F4
:10306000042B07D0012B08D10323FB7308E00223B4
:10307000FB7305E00A23FB7302E00123FB7300BF2F
:1030800075E03D4BD3F8843003F00703013B032B7D
:1030900016D801A252F823F0A9300000AF3000008A
:1030A000BB300000B53000000323FB730BE00223AC
:1030B000FB7308E00A23FB7305E00623FB7302E0C1
:1030C0000123FB7300BF52E02B4BD3F8883003F091
:1030D0000703022B06D0042B07D0012B08D10323B2
:1030E000FB7308E00223FB7305E00A23FB7302E095
:1030F0000123FB7300BF3AE01F4B1B6F03F001037A
:10310000002B04D0012B05D10923FB7305E0072315
:10311000FB7302E00123FB7300BF28E0164BD3F8DA
:103120005C3103F03003102B0CD0102B02D8002B95
:1031300005D010E0202B08D0302B09D00BE0012364
:10314000FB730BE00723FB7308E00423FB7305E02C
:103150000823FB7302E00123FB7300BF07E0002399
:10316000FB7341F276610548FFF77AFB00BFFB7BFA
:1031700018461037BD4680BD00400E4064D00000A8
:1031800080B58AB000AF78600B46FB7003237B628A
:10319000032387F823300023BB6100237B617B6816
:1031A000112B19D1FB78042B03D1FDF741F978617C
:1031B0000BE0FB78052B08D100F08AF90246BB4BE7
:1031C0009A4202D900F084F978617B69002B03D020
:1031D0000021786900F08CFC7B6803F00F033B61F1
:1031E0003B69013B072B00F2578101A252F823F003
:1031F000113200001D3300004F33000099340000ED
:1032000031330000F1330000993400001B3400001A
:10321000FB78023B0A2B49D801A252F823F000BFE9
:103220004D32000059320000653200007732000054
:10323000AD320000AD320000AD320000AD32000012
:10324000A1320000893200009532000004237B6225
:10325000002387F823302FE003237B62012387F8C4
:10326000233029E002237B62022387F82330904831
:10327000FFF766FB20E001237B62032387F82330FE
:103280008B48FFF75DFB17E005237B62032387F87C
:10329000233011E007237B62062387F823300BE0FD
:1032A00041F234718348FFF7DBFAFBE041F23971F8
:1032B0008048FFF7D5FAF5E097F82330062B06D0C3
:1032C00097F8233001220121184600F00DF9FFF78D
:1032D0004DFCFFF757FD7B69002B01D0FFF714FB76
:1032E000754A7B6A53677548FFF75AFD03461846CF
:1032F000FFF726FBFDF73AF8F860FFF713FB0346EC
:103300001946F868FFF754FC7B69002B03D10121B3
:10331000002000F0EDFBFFF73CFDC3E0684BBB6114
:10332000FB78062B04D141F275716248FFF798FAD9
:10333000BB69002B01D0BB6900E0624BBB61FB782D
:10334000062B04D141F289715A48FFF789FABB690B
:10335000002B01D0BB6900E05B4BBB61FB78013BFC
:10336000092B3BD801A252F823F000BF953300008F
:103370009B330000AB330000DD330000DD33000081
:10338000BB330000DD330000DD330000DD3300001F
:10339000D73300000023FB6126E001220121002039
:1033A00000F0A2F80223FB611EE0012201210120AE
:1033B00000F09AF80123FB6116E0FCF7D7FF034603
:1033C0001846FFF7BDFA012202214048FFF74EFAE6
:1033D0000323FB6108E00423FB6105E041F2AE71C9
:1033E0003448FFF73DFA5DE0BB69FA691A6059E0BD
:1033F000FB78072B02D0092B04D007E02E4B0022CC
:103400001A6709E02C4B01221A6705E041F63801E2
:103410002848FFF725FA45E044E0FB78013B072BFD
:1034200028D801A252F823F0493400007534000076
:10343000753400005F3400007534000075340000FE
:103440004F3400006F3400000023FB6118E00122BC
:103450000121042000F048F80123FB6110E0012263
:103460000121022000F040F80223FB6108E0032361
:10347000FB6105E041F696010E48FFF7F1F911E016
:103480000D4BD3F85C3123F03002FB691B010A4974
:103490001343C1F85C3105E041F66D110548FFF7B3
:1034A000DFF900BF2837BD4680BD00BF002D3101C8
:1034B0000148E80164D0000000400E4000250A00E9
:1034C00080400E4088400E4084400E40B0400E4088
:1034D00080B400AF034B1B681846BD465DF8047B03
:1034E000704700BF0C00002080B588B000AF0346D5
:1034F000FB710B46BB7113467B71FB79042B3CD8E7
:1035000001A252F823F000BF6535000053350000DA
:103510002F3500001D3500004135000001237B617F
:1035200002233B610123FB610023BB612BE00423E9
:103530007B6108233B610323FB610223BB6122E023
:1035400010237B6120233B610523FB610423BB61C6
:1035500019E040237B6180233B610723FB61062345
:10356000BB6110E04FF480737B614FF400733B61EB
:103570000923FB610823BB6105E041F6655145481D
:10358000FFF76EF983E0BB79002B64D00023FB7357
:10359000FB79022B1AD1FFF747FB0346002B15D10D
:1035A0003D4BDB6B03F48063002B04D141F6745177
:1035B0003848FFF755F90123FB73384B5B6A03F07A
:1035C0000103012B02D10120FFF73CFB334A7B6949
:1035D000136600BFB9693248FFF75FF90346002B55
:1035E000F8D07B79002B52D000BFF9692C48FFF747
:1035F00054F90346002BF8D0FB79022B47D1FB7B13
:10360000002B44D0254B5B6A03F00103012B05D14D
:1036100001222021022000F087F903E0002102208E
:1036200000F028F9022000F03DF8B86001220021E6
:103630000220FFF759FFB968022000F071F8174A1D
:103640007B69136600BFF9691548FFF726F9034641
:10365000002BF8D01BE0114A3B69136600BF0F4BEB
:10366000D3F890300121BA6901FA02F21340002B1D
:10367000F5D17B79002B0AD000BF084BD3F89030EE
:103680000121FA6901FA02F21340002BF5D120372B
:10369000BD4680BD64D0000000300E4000400E40AA
:1036A00090400E4080B584B000AF0346FB71FB79BB
:1036B000013B032B23D801A252F823F0CD360000A2
:1036C000F1360000D9360000E5360000124B1B6AC7
:1036D000C3F30803FB601AE00F4B1B6903F07F0381
:1036E000FB6014E00C4B9B6903F07F03FB600EE072
:1036F000094BD3F89C30C3F30A03FB6007E00023B7
:10370000FB6041F6F1510548FFF7AAF800BFFB68DE
:1037100018461037BD4680BD00400E4064D0000002
:1037200080B584B000AF03463960FB71FB79013B83
:10373000032B00F28C8001A252F823F04D370000D9
:10374000013800008D370000C73700003B68B3F533
:10375000007F04D341F617614248FFF781F83B68C8
:10376000C3F308033B6000BF1A213F48FFF795F8F9
:103770000346002BF8D13D4B1B6A23F4FF7323F063
:1037800001033A493A6813430B6266E03B687F2BBA
:1037900004D941F624613348FFF762F83B6803F02F
:1037A0007F033B6000BF18212F48FFF776F80346E0
:1037B000002BF8D12D4B1B6923F07F022B493B686E
:1037C00013430B6149E03B687F2B04D941F63F610D
:1037D0002448FFF745F83B6803F07F033B6000BFD8
:1037E00019212148FFF759F80346002BF8D11F4B48
:1037F0009B6923F07F021D493B6813438B612CE0DA
:103800001A4BD3F8903003F00403002B04D041F698
:103810004E611448FFF724F8144B5B6A23F0300321
:10382000124A43F0100353623B68DB0903F00F03B5
:103830001846FFF7DDF9F8600C4B1A6B0C4B134080
:103840003A681A430949FB6813430B6305E041F6E4
:1038500068610448FFF704F800BF00BF1037BD4699
:1038600080BD00BF64D0000040410E4000400E40CB
:1038700000F8FF0F80B584B000AF03460A46FB7125
:103880001346BB71FB79022B04D04FF4F45123484B
:10389000FEF7E6FFFFF7C8F90346002B03D14FF40C
:1038A0004003FB601BE0BB79202B04D0302B0AD0F7
:1038B000002B04D00BE04FF40003FB600FE04FF44B
:1038C0004003FB600BE04FF44003FB6007E0144B48
:1038D000FB6041F69B611148FEF7C2FF00BF00BFCD
:1038E000104BD3F89020FB681340FA689A42F7D146
:1038F000FB6803F48003002B0AD00A4BD3F8A030F6
:1039000003F48063002B14BF01230023DBB200E02B
:10391000012318461037BD4680BD00BF64D00000AB
:10392000FF33E10700400E4080B582B000AF034690
:10393000FB710B46BB7113467B71FB79022B15D1D2
:10394000BB79002B07D00F4B4FF48062C3F8A8203F
:103950000C4ABB7953667B79002B0DD0BA79FB7981
:1039600011461846FFF786FF034607E041F6D1618E
:103970000548FEF775FF00E000BF01231846083731
:10398000BD4680BD00400E4064D0000080B483B0CE
:1039900000AFEFF310833B603B687B6072B67B68DF
:1039A00018460C37BD465DF8047B704780B483B081
:1039B00000AF78607B68002B00D162B600BF0C3787
:1039C000BD465DF8047B704780B483B000AFEFF371
:1039D00010833B603B687B6072B67B6818460C378F
:1039E000BD465DF8047B704780B483B000AF78605B
:1039F0007B68002B00D162B600BF0C37BD465DF876
:103A0000047B704780B487B000AFF860B9607A601B
:103A1000FB6803F10473DA00BB6813449B007B610D
:103A20007B697A681A6000BF1C37BD465DF8047B6D
:103A3000704780B485B000AF786039607B6803F16F
:103A40000473DA003B6813449B00FB60FB681B684F
:103A500018461437BD465DF8047B704780B500AF4B
:103A600000BF12210348FFF7E4FF0346002BF8D103
:103A700000BF80BD04300E4080B500AFFFF7EEFF01
:103A8000034B5B681B0C03F00303DBB2184680BDDD
:103A900000300E4080B483B000AF7860044A7B6889
:103AA000D36200BF0C37BD465DF8047B704700BF92
:103AB00000300E4080B400AF034B5B6A1846BD4631
:103AC0005DF8047B704700BF00300E4080B483B0C7
:103AD00000AF0346FB71FB79C3F10203102202FA27
:103AE00003F318460C37BD465DF8047B70470000B1
:103AF00080B584B000AF78600B46FB70154BD3F8EF
:103B000000311B0A03F01F030133BB607B68002BED
:103B100007D1FCF755FC0246BB6802FB03F3FB60D0
:103B200001E07B68FB600C4B1B78002B09D0FB6825
:103B30000A4A934205D8FB781946022000F010F893
:103B400004E0FB781946002000F00AF800BF1037A7
:103B5000BD4680BD00400E4060250020FF2C310195
:103B600090B587B000AF03460A46FB711346BB71A0
:103B70001F4BD3F800311B0A03F01F0301337B6195
:103B8000FCF71EFC3861FFF777FF0346FB73FA7BF7
:103B9000FB799A4228D03B697A6902FB03F3BB6048
:103BA000FB79022B0CD1BB68124A934204D940F234
:103BB000B3411148FEF754FE02213869FEF7F8FFC1
:103BC0000E4CFB791846FFF781FF03462361BB7952
:103BD000002B01D0FFF742FFFB79002B05D100211C
:103BE0003869FEF7E5FF00E000BF1C37BD4690BD19
:103BF00000400E40002D3101A0D0000000300E40EA
:103C000080B400AF01231846BD465DF8047B7047C1
:103C100080B582B000AF0C4BDB6E0B4A43F0807373
:103C2000D36600210948FFF704FF78607B68002B0A
:103C300003D0042000F040FD02E0002000F03CFD35
:103C400000BF0837BD4680BD00300E404C300E40EE
:103C500080B58AB000AF01237B627B6A1B053B62A3
:103C6000404BDB6C1B0A03F00F03FB613E4B1B88D0
:103C70001A463D4B1B8828335B08134403F1280187
:103C8000FB695A1C13469B001344B1FBF3F3013B41
:103C9000BB61BB697B6107233B613A697B699342E6
:103CA00028BF1346BB61BB691B06BB61BB6923F020
:103CB000E063002B04D040F2CE612C48FEF7D0FD2B
:103CC0003B6A23F4E003002B04D040F2CF61274885
:103CD000FEF7C6FD234BDB6C23F0EE62B9693B6A4D
:103CE0000B4320491343CB64214BB3F90030002B25
:103CF00033DB1F4BB3F90030FB81FA89FB89283392
:103D00005B08134403F12802FB6901335900FB6986
:103D100001335B080B44B2FBF3F3BB60BB687B6011
:103D200007233B603A687B68934228BF1346BB6019
:103D3000BB681B01BB60BB6823F07003002B04D081
:103D400040F2E7610948FEF78BFD064B1B6D23F03F
:103D500070020449BB6813430B6500BF2837BD469A
:103D600080BD00BF00300E4058250020A0D00000CC
:103D70005C25002080B483B000AF78600B467B8068
:103D80007B689AB2054B1A80054A7B88138000BF76
:103D90000C37BD465DF8047B704700BF58250020F6
:103DA0005C25002080B582B000AF0346FB71FB7933
:103DB000002B02D0012B04D007E0094B094A9A6579
:103DC00009E0074B084A9A6505E040F2137107487D
:103DD000FEF746FD00BF00BF0837BD4680BD00BFEF
:103DE00000300E4077402057372110B7A0D0000098
:103DF00080B584B000AF0346FB710B46BB71134620
:103E00007B71334BD3F88031FB60BB79032B1DD81A
:103E100001A252F823F000BF293E0000313E00000D
:103E20003B3E0000453E0000FB68DBB2FB6014E057
:103E3000FB681B0ADBB2FB600FE0FB681B0CDBB20C
:103E4000FB600AE0FB681B0EFB6006E040F2577166
:103E50002048FEF705FD002336E07B79002B16D1C4
:103E6000FB681B03FB60FB6823F47043002B06D048
:103E700040F262711748FEF7F3FC002324E0164B72
:103E8000DB6E23F470421449FB681343CB667B79E5
:103E9000012B18D1FB681B03FB60FB6823F4704304
:103EA000002B06D040F26E710A48FEF7D9FC0023C1
:103EB0000AE0094BD3F8EC3023F470420649FB6862
:103EC0001343C1F8EC30012318461037BD4680BDBE
:103ED000B081E00FA0D0000000300E4080B588B067
:103EE00000AFF860B96011461A460B46FB711346E5
:103EF000BB710023FB610023BB61BB791B02FA7914
:103F0000002A01D0012200E0002213437B617B697B
:103F100040F2011293422AD0B3F5817F07D2012BE0
:103F200019D0012B47D3B3F5807F50D073E040F216
:103F30000122934227D040F20122934203D8B3F5E5
:103F4000007F50D067E0B3F5407F58D040F2013297
:103F5000934224D05FE0384BD3F87431FB61FB69A6
:103F60001B0ADBB2BB61FB69DBB2FB6159E0324B80
:103F7000D3F87431FB61FB691B0EBB61FB691B0C41
:103F8000DBB2FB614DE02C4BD3F87831FB61FB6970
:103F90001B0ADBB2BB61FB69DBB2FB6141E0264B74
:103FA000D3F87831FB61FB691B0EBB61FB691B0C0D
:103FB000DBB2FB6135E0204BD3F86C31FB61FB6970
:103FC0001B0ADBB2BB61FB69DBB2FB6129E01A4B68
:103FD000D3F86C31FB61FB691B0EBB61FB691B0CE9
:103FE000DBB2FB611DE0144BD3F87031FB61FB6960
:103FF0001B0ADBB2BB61FB69DBB2FB6111E00E4B5C
:10400000D3F87031FB61FB691B0EBB61FB691B0CB4
:10401000DBB2FB6105E040F2D3710848FEF720FCFB
:1040200000BFFB68FA691A60BB68BA691A6000BF12
:104030002037BD4680BD00BFB081E00FA0D000009A
:1040400080B584B000AF0346FB7100BF364B9B6F59
:1040500003F00103002BF9D1334B1B6C03F0030376
:10406000FB60FB68002B04D001220D212F48FFF7D5
:10407000C9FCFB68DBB2FA799A4208D1FB79002BC4
:104080004ED100220D212948FFF7BCFC48E0FB6817
:10409000032B02D0FB68002B20D1FB79022B02D02E
:1040A000FB79012B1AD14FF40020FFF7F3FC00BF7E
:1040B0001D4B9B6F03F00103002BF9D11A4B1B6CB6
:1040C00023F00303184A43F00103136400BFFFF712
:1040D000F1FC034603F40023002BF8D000BF124B81
:1040E0009B6F03F00103002BF9D10F4B1B6C23F0E6
:1040F0000302FB790C4913430B6400BF0A4B9B6F0F
:1041000003F00103002BF9D1FB79002B14BF01232D
:104110000023DBB21A460D210448FFF773FC00E0D0
:1041200000BF1037BD4680BD00300E4054300E40F9
:1041300080B584B000AF78606B4B02229A636A4B03
:104140009B6B03F00F03022B06D040F66D0167480E
:10415000FEF786FB0023C3E0FFF752FD7B681B8957
:10416000C82B04D940F677016048FEF779FB7B68DD
:104170009A887B681B899A4204D940F678015B488B
:10418000FEF76EFB7B68B3F90C30C82B04DD40F6FC
:1041900079015648FEF764FB7B685B78012B09D1F7
:1041A0007B689B88C82B12D940F67D014F48FEF7EB
:1041B00057FB0CE07B685B78022B08D17B689B88FF
:1041C0000A2B04D940F682014848FEF749FB7B6878
:1041D000DB8842F21072934204D940F68A014348C8
:1041E000FEF73EFB7B68DB884A2B02D80023FB608E
:1041F00015E07B68DB88B3F5FA7F03D24FF080537C
:10420000FB600CE07B68DB8840F6C312934203D866
:104210004FF00053FB6002E04FF04053FB60324B25
:10422000DB6C23F0405323F001037A68B2F90C20D1
:10423000002A01DB012100E00021FA680A432A4933
:104240001343CB64284BD3F8EC30274A43F4407334
:10425000C2F8EC30FFF7DCFC7B681B891A467B68F0
:10426000B3F90C3019461046FFF784FD7B689A8835
:104270001F4B1A807B689B88184600F0A9F97B6861
:104280009B7B1846FFF78EFD7B685B88012201212E
:10429000184600F031F8034683F00103DBB2002B2F
:1042A00006D040F6C1011148FEF7DAFA002317E004
:1042B0000D4BDB6B0C4A43F48063D3637B685B7804
:1042C0001846FFF7BDFE7B689B7A202B01D10123A6
:1042D00000E000231A4605210648FFF793FB01235F
:1042E00018461037BD4680BD00300E40A0D00000FB
:1042F0005A2500203C300E4090B595B000AF786054
:104300000B46FB701346BB700023FB6400237B64E9
:1043100007F1240300221A605A609A6007F118031B
:1043200000221A605A609A6007F10C0300221A609A
:104330005A609A6007F1080300210A461A800A466B
:104340009A707B68B3F5E16F06D37B6840F6B832AC
:10435000934201D8012300E0002387F8433097F807
:10436000433003F0010387F8433097F8433083F07C
:104370000103DBB2002B06D040F606119148FEF790
:104380006FFA002319E17B68B3F5E16F8CBF01235D
:10439000002387F8423097F84230002B0AD04FF4C0
:1043A000E163FB6440F6B8337B647A6CFB6CD31A30
:1043B000BB6409E04FF49663FB644FF4E1637B64F4
:1043C0007A6CFB6CD31ABB6497F84230002B0BD08D
:1043D0007D4BD3F868313B623B6A1B0E7B613B6AC5
:1043E0001B0CDBB23B620AE0774BD3F868313B62CF
:1043F0003B6A1B0ADBB27B613B6ADBB23B62734BFD
:10440000DB6C1B0FDBB203F00303DBB23B723B7AC6
:1044100097F8422007F10C0107F11800FFF75EFD45
:104420006A4BD3F8EC301B0ADBB203F00303DBB2B8
:104430007B727C7A97F8422007F10C03191D07F173
:104440001803181D2346FFF749FD7A68FB6CD31A41
:1044500079693A6A8A1A02FB03F2BB6CB2FBF3F386
:10446000FB62FA6A3B6A1344FB627A68FB6CD31AFC
:10447000F968BA698A1A02FB03F2BB6CB2FBF3F368
:104480007B627A6ABB6913447B627A68FB6CD31ADD
:104490003969FA698A1A02FB03F2BB6CB2FBF3F3C7
:1044A000BB62BA6AFB691344BB62FA6A7B699A42CF
:1044B00013D8FA6A3B6A9A420FD3BA6A3B699A42A6
:1044C0000BD8BA6AFB699A4207D37A6AFB689A42A8
:1044D00003D87A6ABB699A4206D240F65411394829
:1044E000FEF7BEF9002368E0BB78002B12D0374BF3
:1044F000DB6D23F4FE4323F00203FA6A1202134336
:1045000097F84220002A01D0022200E000222F4921
:104510001343CB65FB78002B4ED0397A97F84230A5
:1045200000221846FFF764FC034683F00103DBB268
:10453000002B06D040F663112248FEF791F90023C4
:104540003BE0797A97F8423001221846FFF750FC99
:10455000034683F00103DBB2002B06D040F66B115B
:104560001848FEF77DF9002327E07B6AFB63BB6AEE
:10457000BB63BA6BFB6B934238BF13467B627B6AAB
:104580007B63E7233B633A6B7B6B934228BF134605
:104590007B620E4B5B6E23F4FF7323F001037A6A98
:1045A0005200134397F84220002A01D0012200E074
:1045B0000022064913434B66012318465437BD4673
:1045C00090BD00BFA0D00000B081E00F00300E40D1
:1045D00080B584B000AF78600023FB60344B1B6F64
:1045E00003F00703BB60324BDB6C03F00103002BCD
:1045F00014D0BB68012B11D97B68132B02D804237C
:10460000FB603DE07B68132B05D97B68272B02D824
:104610000823FB6034E01023FB6031E0244BDB6CAB
:1046200003F00103002B14D1BB68012B11D87B6868
:10463000092B02D80423FB6022E07B68092B05D9F3
:104640007B68132B02D80823FB6019E01023FB6062
:1046500016E0174BDB6C03F00103002B0BD0BB689B
:10466000012B08D87B68272B02D80823FB6007E0C2
:104670001023FB6004E040F6A9110E48FEF7F0F8A5
:10468000FB68013BFB60FB681A02FB681B031343DA
:10469000FB60074BDB6C23F47F420549FB68134347
:1046A000CB64FFF7D5FA00BF1037BD4680BD00BF11
:1046B00000300E40A0D0000080B584B000AF0346AB
:1046C000FB7100211148FFF7B4F9F860FB68002B7B
:1046D00002D1FB79012B07D9FB68002B04D140F6EE
:1046E000C8110B48FEF7BCF80A4B1B6F23F00702FA
:1046F000FB79084913430B67074B1B881846FFF7E4
:1047000067FF00BF1037BD4680BD00BF4C300E4074
:10471000A0D0000000300E405A25002080B400AF29
:1047200000BFBD465DF8047B7047000080B584B0D3
:1047300000AF78607B68002B01D1FEF723F87B4B3C
:104740005B68002B2CD0794B1B68002B10D1774B6A
:10475000996C764B5B689A007B687548FDF7D0FED4
:104760000246744B1A607B681B78002B04D030E241
:104770006E4B1B686F4A13606E4B1B686E4A13606A
:104780006A4B5B686D4A1360684B5B689B006C4AC0
:1047900013606C4B1A686A4B1B681344694A1360B8
:1047A000624B1B89002B24D0604B996C5F4B1B899B
:1047B0001A017B686448FDF7A3FE0246634B1A604A
:1047C0007B681B78002B40F0F781604B1B68604AC8
:1047D0001360564B1A895F4B1A80544B1B891B017F
:1047E0005D4A1360574B1A685B4B1B681344554A6C
:1047F00013604E4B5B69002B38D04C4B1B69002B70
:1048000010D14A4B996C494B5B699A007B685348BD
:10481000FDF776FE0246524B1A607B681B78002B30
:1048200004D0D6E1414B1B694D4A13604C4B1B68C9
:104830004C4A13603D4B5B693C4AD26802FB03F370
:10484000494AA2FB03235B09484A1360374B5B6963
:10485000474A1360354B5B699B00464A1360394BEE
:104860001A68444B1B681344364A13602F4BDB6AAB
:10487000002B41D02D4B9B6A002B10D12B4B996CF8
:104880002A4BDB6A9A007B683B48FDF739FE0246FB
:104890003A4B1A607B681B78002B04D099E1234BBC
:1048A0009B6A364A1360214B5B6B354A13601F4B82
:1048B00093F83020334B1A70304B1B68324A136028
:1048C0001A4BDB6A194AD26802FB03F3264AA2FBA1
:1048D00003235B092D4A1360144BDB6A2C4A1360D7
:1048E000124BDB6A9B002B4A1360164B1A68294B4C
:1048F0001B681344134A13600C4BDB69002B7CD0FC
:104900000A4B9B69002B4BD1084B996C074BDB6919
:104910009A007B682048FDF7F3FD02461F4B1A60A2
:104920007B681B78002B3FD053E100BF280000209C
:10493000B8D00000C447002074250020782500204E
:104940007C250020D4250020CCD00000BC470020CE
:10495000802500208425002088250020E0D000004C
:10496000CC470020642500201F85EB5168250020DE
:104970006C25002070250020FCD00000C8470020D6
:10498000A4250020A8250020AC250020B02500206B
:10499000B4250020B825002018D10000B847002019
:1049A0008D4B9B698D4A13608B4B93F820208C4B69
:1049B0001A70894B5B6A8B4A1360884B1B688A4A62
:1049C0001360854BDB69844AD26802FB03F3874A94
:1049D000A2FB03235B09864A13607F4BDB69854A90
:1049E00013607D4BDB699B00834A1360834B1A681D
:1049F000814B1B681344814A1360774BDB6B002BA0
:104A000041D0754B9B6B002B10D1734B996C724B43
:104A1000DB6B9A007B687A48FDF772FD0246794BA2
:104A20001A607B681B78002B04D0D2E06A4B9B6B2A
:104A3000744A1360684B93F84020734B1A70664BAE
:104A40005B6C724A13606F4B1B68714A1360624B58
:104A5000DB6B614AD26802FB03F3644AA2FB0323C7
:104A60005B096C4A13605C4BDB6B6B4A13605A4BFF
:104A7000DB6B9B00694A1360604B1A68674B1B68CD
:104A800013445E4A136004F0F1FB654B00221A7078
:104A9000644B00221A70644B00221A70634B002290
:104AA0001A60634B00221A60624B00221A70624B3C
:104AB00000221A70614B00221A70614B1B68614A18
:104AC000A2FB0323DB08604A1360604B1B68002BCA
:104AD0001DD05F4B1B68FB60FB68002B0FD05B4B4E
:104AE0001B68BB6008E0BB68013BBB60FB68002241
:104AF0001A60FB680433FB60BB68002BF3D1544B96
:104B00001A68524B1B681946104603F0A1FB514B23
:104B100000221A7001F09AFE00F058FD4E4B002260
:104B20001A604E4B00221A804D4B1B88002B06D07A
:104B3000786801F085F87B681B78002B3ED1494BE3
:104B400000221A60484B00221A80484B00221A604B
:104B5000474B00221A80474B00221A60464B002226
:104B60001A80786803F0D4FA7B681B78002B27D171
:104B7000786800F0F5FA7B681B78002B22D1786802
:104B800003F078FC7B681B78002B1DD1786802F05D
:104B90003BFA7B681B78002B18D1786804F02EF95B
:104BA0007B681B78002B13D100F006FFFFF7B6FDE2
:104BB000324B01221A700CE000BF0AE000BF08E08F
:104BC00000BF06E000BF04E000BF02E000BF00E05D
:104BD00000BF1037BD4680BD28000020B847002028
:104BE0008C25002090250020942500201F85EB5166
:104BF000982500209C250020A0250020D4250020F9
:104C000034D10000C0470020BC250020C025002072
:104C1000C4250020C8250020CC250020D025002058
:104C2000FE4B0020E5470020D8470020E44B002041
:104C3000EC4B0020F44A0020EC4A0020404F0020BA
:104C4000A4250020CDCCCCCCE84D00207825002038
:104C500074250020E44700203C4E0020384E002000
:104C600084250020444F0020424E0020E04D0020CB
:104C7000E84B0020F04A0020E44D0020E84A0020E4
:104C800080B582B000AFFCF751FF0C4B1B78012BB5
:104C900010D1FEF77BFE7860094B1B78F92B05D805
:104CA000074B1B780133DAB2054B1A707868FEF7B0
:104CB0007DFE00E000BF0837BD4680BDE54700200F
:104CC000FE4B002080B582B000AF404B1B78012B1B
:104CD00002D0FCF769FF76E0FEF758FE78603C4BA7
:104CE0001B78002B05D1FCF75FFF7868FEF75EFEAE
:104CF00069E0374B1B78013BDAB2354B1A70344B05
:104D00001B78002B05D0FCF74FFF7868FEF74EFEAE
:104D100059E0304B1B78002B05D0FCF745FF786835
:104D2000FEF744FE4FE02C4B1B68002B0FD02B4BA3
:104D30001A68294B1B681946104603F067FA0346A8
:104D4000FB70FB78012B02D0002004F0B9FA01F0CF
:104D500097FD03461A46224B1A70214B1B781946C1
:104D6000204A0B465B000B449B0013441B681E4A01
:104D700013601D4B1A681D4B1B689A4212D100200C
:104D800003F030F90346FB70FB78012B04D0174B7E
:104D90001B68184604F094FAFCF706FF7868FEF7E3
:104DA00005FE10E0104B1B68D3F8B4200132C3F8A5
:104DB000B4200F4B1B6801330D4A136004F01EFA38
:104DC0007868FEF7F3FD0837BD4680BDE547002053
:104DD000FE4B0020D84700207825002074250020B5
:104DE000EC4A0020E8470020EC4B0020E44B002078
:104DF000F84B002080B582B000AF284B1B78012B08
:104E000000D0FEE7264B1B78002B41D1254B1B78A9
:104E1000002B3FD1FEF7BAFD786001F031FD03466B
:104E20001A46214B1A70204B1B7819461F4A0B4615
:104E30005B000B449B0013441B681D4A13601C4B12
:104E40001A681C4B1B689A4203D17868FEF7AEFDC6
:104E500021E0184B1B6893F83E30002B04D1154B12
:104E60001B681846FDF708FA114B1B68D3F8B420ED
:104E70000132C3F8B420104B1B6801330E4A136093
:104E800004F0B7F97868FEF791FDBFF36F8F02E089
:104E900000BF00E000BF0837BD4680BDE5470020E9
:104EA000FE4B0020D8470020EC4A0020E8470020B5
:104EB000EC4B0020E44B0020F84B002080B584B080
:104EC00000AF78607B68002B01D1FDF75BFC3A4BAB
:104ED0001B78002B17D07B6820221A70374BD3F831
:104EE00080207B685A60364BD3F880207B689A60BC
:104EF0007B68344ADA607B684FF462721A617B68BF
:104F0000314A5A61FEE7314B1B78012B15D07B6883
:104F100002221A70294B9A687B685A60284B9A685B
:104F20007B689A607B68274ADA607B6840F28B3244
:104F30001A617B68244A5A61FEE7254B1B78F92BDE
:104F400015D97B681E221A701C4B9A6F7B685A60B9
:104F50001B4B9A6F7B689A607B681A4ADA607B68A1
:104F600040F28E321A617B68174A5A6120E0FEF7E0
:104F70000DFDF860164B1B780133DAB2144B1A7032
:104F8000F868FEF713FD7B6800221A700B4B1A6855
:104F90007B685A600A4B1A687B689A607B68094A8A
:104FA000DA607B6840F299321A617B68064A5A617E
:104FB0001037BD4680BD00BFFE4B0020A8CA0000D0
:104FC000F4CC000050D1000098D10000E54700204B
:104FD000D847002080B584B000AF78607B68002B94
:104FE00001D1FDF7CFFB4A4B1B78002B17D07B6814
:104FF00020221A70474BD3F880207B685A60464BBA
:10500000D3F880207B689A607B68444ADA607B68CA
:1050100040F2B1321A617B68414A5A61FEE7414B66
:105020001B78012B15D07B6802221A70394B9A68C5
:105030007B685A60384B9A687B689A607B68374A0D
:10504000DA607B684FF46D721A617B68344A5A618A
:10505000FEE7354B1B78002B15D17B681F221A7099
:105060002C4BDA6F7B685A602B4BDA6F7B689A6047
:105070007B682A4ADA607B6840F2B7321A617B6843
:10508000274A5A6141E0FEF781FCF860264B1B7805
:10509000013BDAB2244B1A70234B1B78002B1AD039
:1050A000F868FEF783FC7B682D221A70194BD3F841
:1050B000B4207B685A60184BD3F8B4207B689A60A0
:1050C0007B68164ADA607B6840F2BF321A617B68FF
:1050D000134A5A6119E0F868FEF768FCFFF78AFE88
:1050E0007B6800221A700B4B1A687B685A600A4B67
:1050F0001A687B689A607B68084ADA607B6840F2CD
:10510000C9321A617B68064A5A611037BD4680BDB4
:10511000FE4B0020A8CA0000F4CC000050D10000D3
:10512000A4D10000E5470020D847002080B584B016
:1051300000AF7860FEF72AFCF860074B1B6801336C
:10514000054A1360054B1B680133044A1360F86875
:10515000FEF72CFCEEE700BF304E0020E0470020B9
:1051600080B58CB00AAF7860104B00221A60104BEB
:105170001B68104A126810490968786808900B206B
:1051800007900020069000200590002004900391D5
:10519000029201933F2300930023084A08490948DB
:1051A00001F0D8FF00BF0837BD4680BD304E00205B
:1051B00064250020682500206C2500202D5100006A
:1051C0006CD10000F84C002080B586B000AFF860CC
:1051D0000B467A60FB72174B1B68FA7A83F83C2007
:1051E000144B1B68002283F83D20124B1B68796822
:1051F000184600F0C1FBFB68002B0DD0FB6808339C
:105200007B610C4B1B68FA689A630A4B1B68194652
:10521000786900F0A3F803E0064B1B6800229A634C
:10522000044B1B681946F86800F006F800BF1837F1
:10523000BD4680BDE44B002080B485B000AF7860EF
:1052400039607B68002B0FD07B685A683B68C3F8D5
:10525000E0207B680833FB60FB681B68BB60BB68B1
:10526000DA687B68DA6116E03B6893F83C30022B21
:1052700002D0072B05D009E03B680A4AC3F8E020BA
:1052800009E03B68084AC3F8E02004E03B68074AAD
:10529000C3F8E02000BF00BF1437BD465DF8047BB3
:1052A000704700BF80D1000088D1000094D1000079
:1052B00080B485B000AF786039603B680E4AC3F8AF
:1052C000E0207B68002B10D07B680833FB60FB6814
:1052D0001B68BB60BB68002B04D0BB68DA687B68C6
:1052E000DA6102E07B68044ADA6100BF1437BD4628
:1052F0005DF8047B704700BF94D1000080B584B096
:1053000000AF78607B689B6BFB60FB680833BB6019
:10531000BB681B681B6B002B09D0786800F08AF80B
:105320007B68FA689A637968B86800F017F800BF7C
:105330001037BD4680BD80B483B000AF78607B6815
:1053400000221A607B6800225A607B6800221A8162
:1053500000BF0C37BD465DF8047B704780B485B054
:1053600000AF786039603B6893F83F30FB727B6830
:105370001B68002B0FD17B6801221A813B68002239
:105380001A633B6800225A637B683A681A607B683C
:105390003A685A6048E07B681B8901339AB27B689F
:1053A0001A817B681B68FB6008E0FB6893F83F305C
:1053B000FA7A9A4206D3FB681B6BFB60FB68002BF2
:1053C000F3D100E000BFFB68002B0ED13B68002248
:1053D0001A637B685A683B685A633B685B6B3A6840
:1053E0001A637B683A685A601EE0FB685B6B002BAF
:1053F0000CD13B68FA681A633B6800225A63FB6869
:105400003A685A637B683A681A600DE03B68FA684C
:105410001A63FB685A6B3B685A633B685B6B3A687C
:105420001A63FB683A685A6300BF1437BD465DF8DB
:10543000047B704780B487B000AF78607B689B6B5B
:10544000002B46D07B689B6B08337B617B691B68B4
:105450001B6B002B06D17B6900221A607B6900223E
:105460005A6027E07B685B6B002B09D17B681B6B64
:10547000FB60FB6800225A637B69FA681A6019E0D6
:105480007B681B6B002B09D17B685B6B3B613B69C5
:1054900000221A637B693A695A600BE07B685B6B98
:1054A0003B617B681B6BFB603B69FA681A63FB68B6
:1054B0003A695A637B691B89013B9AB27B691A81FD
:1054C0007B6800221A637B6800225A637B68002293
:1054D0009A6300BF1C37BD465DF8047B704780B5FA
:1054E00084B000AFF860B9607A607B80BB6893F8E5
:1054F0003E30052B06DC042B61DA002B5CDB012B34
:105500005DDD04E0072B2EDDFF2B5AD054E0BB6895
:105510007A68DA66BB687A88A3F87020BB68BA69D3
:105520001A65FB68002B02D0B868FFF783FFB968E3
:10553000F868FFF7BDFEBB6893F83E30032B02D13D
:10554000B86803F08BF9B86800F066F8BB68002211
:1055500083F83E20BB68002283F83D20BB68002210
:1055600083F83C202EE0BB687A68DA66BB687A88EC
:10557000A3F87020BB68BA691A65FB68002B02D0DB
:10558000B868FFF757FFB968F868FFF791FEBB6886
:1055900093F83E30072B02D1B86803F05FF9BB687F
:1055A000042283F83E20BB68002283F83D20BB68BC
:1055B000002283F83C2005E0FDF7E4F802E000BF9C
:1055C00000E000BF00BF1037BD4680BD80B483B08F
:1055D00000AF00237B6013E07A6813465B0013443E
:1055E0009B000C4A13443B603B6800221A813B68D5
:1055F00000221A603B6800225A607B6801337B609E
:105600007B683F2BE8D900BF0C37BD465DF8047BB3
:10561000704700BFE847002080B582B000AF7860D7
:105620007B6893F83F30184601F046F97B6893F8A1
:105630003F20094B1B789A4203D1786800F050F85C
:1056400002E0786800F00AF87B681846FCF702FE72
:1056500000BF0837BD4680BDF44A002080B485B045
:1056600000AF78607B6893F83F301A4613465B00C2
:1056700013449B00194A1344FB60FB681B68002B12
:105680000FD1FB6801221A817B6800221A617B68B6
:1056900000225A61FB687A681A60FB687A685A606F
:1056A00015E0FB681B8901339AB2FB681A81FB681D
:1056B0001A687B681A617B6800225A61FB681B6864
:1056C000BB60BB687A685A61FB687A681A6000BF81
:1056D0001437BD465DF8047B704700BFE8470020E3
:1056E00080B485B000AF78607B6893F83F301A468D
:1056F00013465B0013449B00184A1344FB60FB688D
:105700001B68002B0FD1FB6801221A817B680022E5
:105710001A617B6800225A61FB687A681A60FB682C
:105720007A685A6014E0FB681B8901339AB2FB68FF
:105730001A817B6800221A61FB685B68BB607B682A
:10574000BA685A61BB687A681A61FB687A685A60FD
:1057500000BF1437BD465DF8047B7047E847002062
:1057600080B487B000AF78607B681A687B685B683C
:105770009A423AD07B681B681A697B685B689A42D8
:1057800018D17B681B687B617B685B683B617B69C8
:105790003A695A617B6900221A613B6900225A61A9
:1057A0003B697A691A617B683A691A607B687A6931
:1057B0005A601AE07B681B687B617B685B683B61B1
:1057C0007B691B69FB60FB6800225A617B690022D0
:1057D0001A617B693A695A613B697A691A617B6827
:1057E000FA681A607B687A695A6000BF1C37BD4648
:1057F0005DF8047B7047000080B586B000AF78602C
:105800007B6893F83F301A4613465B0013449B00B5
:10581000264A13447B617B685B693B617B681B693B
:10582000FB603B69002B1FD1FB68002B0FD17B690C
:1058300000221A817B6900221A607B6900225A606B
:105840007B6893F83F30184601F05EF81FE07B69F3
:105850001B89013B9AB27B691A81FB6800225A615D
:105860007B69FA681A6012E07B691B89013B9AB276
:105870007B691A813B69FA681A61FB68002B03D1C6
:105880007B693A695A6002E0FB683A695A617B6851
:1058900000225A617B6800221A617B681846FCF777
:1058A0000FFD00BF1837BD4680BD00BFE847002090
:1058B00080B584B000AF78602B4B1B78012B4ED1A4
:1058C000FEF764F8F8607B681B68BB60BB68002B60
:1058D00003D1F868FEF76AF842E0BB68234A9342B6
:1058E00003D1F868FEF762F83AE0BB689B6E002BC4
:1058F00004D0BB689B6E5A1EBB689A66BB689B6EE1
:10590000002B03D0F868FEF751F829E07B681A688D
:105910007B685B689A4203D1F868FEF747F81FE09E
:10592000134B1B78002B03D0F868FEF73FF817E005
:105930007868FFF715FF7B681B68BB60BB685B6E10
:10594000002B04D10B4B1A68BB689A6603E0BB6856
:105950005A6EBB689A66F868FEF728F800E000BF48
:105960001037BD4680BD00BF404F0020F84C0020DE
:10597000D8470020E84D002080B582B000AF7860A5
:1059800039603B68002B09D03A687968094802F011
:1059900015FE7B68032283F83E2003E07B68022229
:1059A00083F83E207868FFF727FF00BF0837BD4621
:1059B00080BD00BF544F002080B483B000AF704B57
:1059C0001B78DBB2FB716F4B1B68DBB27B716E4BDC
:1059D0001B78DBB2FB716D4B1B78DBB2FB716C4B40
:1059E0001B68DBB27B716B4B1B6ADBB27B716A4B52
:1059F0001B78DBB2FB71694B1B78DBB2FB71684B28
:105A00001B889BB2DBB2BB71664B1B889BB2DBB2BF
:105A1000BB71654B1B8A9BB2DBB27B71634B1B78FE
:105A2000DBB2FB71624B1B78DBB2FB71614B1B88F5
:105A30009BB2DBB2BB71604B1B889BB2DBB2BB710C
:105A40005E4B1B889BB2DBB2BB715D4B93F8283079
:105A5000DBB27B715B4B1B78DBB2FB715A4B1B8853
:105A60009BB2DBB2BB71594B1B889BB2DBB2BB71E3
:105A7000574B1B889BB2DBB2BB71564B1B889BB24A
:105A8000DBB2BB71544B1B889BB2DBB2BB71534B77
:105A90001B889BB2DBB2BB71514B5B8D9BB2DBB2FF
:105AA0007B71504B1B78DBB2FB714F4B1B889BB259
:105AB000DBB2BB714D4B1B78DBB2BB714C4B1B6A2D
:105AC000DBB27B714B4B1B78DBB2FB714A4B1B8803
:105AD0009BB2DBB2BB71494B1B889BB2DBB2BB7183
