:1000000000000420C9030000F5030000F503000010
:10001000F5030000F5030000F5030000F503000000
:10002000F5030000F5030000F5030000F5030000F0
:10003000F5030000F50300002DF1000027F6000095
:10004000F5030000F5030000F5030000F5030000D0
:10005000F5030000F5030000F5030000F5030000C0
:10006000F5030000F50300007DFF000005F7000028
:10007000F5030000F5030000F5030000F5030000A0
:10008000F5030000F5030000A9FF0000F5030000E0
:10009000F5030000F5030000F5030000F503000080
:1000A000F5030000F5030000F5030000F503000070
:1000B000F5030000F5030000F5030000F503000060
:1000C000F5030000F5030000F5030000F503000050
:1000D000F5030000F5030000F5030000F503000040
:1000E000F5030000F5030000F5030000F503000030
:1000F000F5030000F5030000F5030000F503000020
:10010000F5030000F5030000F503000010B5054CF1
:10011000237833B9044B13B10448AFF300800123B3
:10012000237010BDC402002000000000A44901009B
:1001300008B5034B1BB103490348AFF3008008BD6A
:1001400000000000C8020020A4490100154B002B4C
:1001500008BF134B9D46A3F5803A00218B460F46FE
:100160001348144A121A10F084FB0F4B002B00D0D6
:1001700098470E4B002B00D0984700200021040028
:100180000D000D48002802D00C48AFF3008010F09D
:1001900011FB2000290010F031F910F0F7FA00BF30
:1001A0000000080000000420000000000000000023
:1001B000C402002018F00020000000000000000031
:1001C00080B582B000AF0121104805F0B5F80121DB
:1001D0000F4805F0B1F800237B600FE00D4A7B6803
:1001E00012F833000B4A7B68DB0013445968002384
:1001F000042207F07FFA7B6801337B607B68012B68
:10020000ECDD002318460837BD4680BD404105009F
:1002100000350A004010010080B582B000AF00F048
:10022000EBF878600A4B1B68094A43F0807313604F
:10023000084B00221A60084B1B68074A43F0010371
:100240001360786804F044FB00BF0837BD4680BDEA
:10025000FCED00E0041000E0001000E080B483B08A
:1002600000AF054B1B687B607B6818460C37BD46AA
:100270005DF8047B704700BF041000E0B0B586B0A5
:1002800000AF786000F0B8F803464FF00004C7E90B
:1002900004347B681C464FF00005D7E904010B4A83
:1002A0004FF0000310F0F2F802460B4620462946B4
:1002B00010F0ECF803460C46C7E90234D7E90234E3
:1002C000184621461837BD46B0BD00BF40420F005A
:1002D00080B400AF044BDB6C1B0EDBB21846BD468E
:1002E0005DF8047B704700BFB081E00F80B582B03D
:1002F00000AF164B01225A64FFF7EAFF0346FB7179
:10030000FB79002B0CD1124B4AF6E8521A60114BC4
:100310001B68104A43F0040313600D4B00221A605F
:10032000FB79012B05D80C4B1B680B4A43F4005397
:1003300013600A4B1B6A23F44413084A43F48813DE
:10034000136200BF0837BD4680BD00BF00000E40ED
:1003500090310E4098310E4064310E4000400E4006
:1003600080B582B000AF11237B60FFF7BFFF084864
:1003700006F080FC0521786805F0A4FC002201212C
:10038000012005F053FE00BF0837BD4680BD00BF09
:100390005010010080B500AFFFF712FF00BF80BD15
:1003A00080B582B000AF00F027F8786003F006FB5C
:1003B00002467B68B3FBF2F33B6038680FF04AF902
:1003C00000BF0837BD4680BD064880470649074A3A
:1003D000074B9A42BEBF51F8040B42F8040BF8E7F2
:1003E000FFF7B4FED5040000B04901000000002072
:1003F000C4020020FEE700BF80B582B000AF00F06D
:1004000025F878600A4BD3F808311B0AC3F30803B8
:100410003B603B6801337A68B2FBF3F37B60054ACB
:100420007B6813607B6818460837BD4680BD00BFF7
:1004300000400E400800002080B400AF024B184678
:10044000BD465DF8047B7047005A620280B483B0F9
:1004500000AF164BD3F8943003F00703032B08D0FA
:10046000042B02D0022B08D00BE0114B1B687B60E1
:100470000BE04FF400437B6007E00E4B1B687B6092
:1004800003E00D4B1B687B6000BF084BD3F80031C5
:100490001B0A03F01F0301337A68B2FBF3F318461B
:1004A0000C37BD465DF8047B704700BF00400E402E
:1004B00004000020000000200C00002080B400AFE9
:1004C000034B1B681846BD465DF8047B704700BFB0
:1004D0000000002080B400AF074B084A9A60064B2A
:1004E000D3F88830044A43F47003C2F8883000BF60
:1004F000BD465DF8047B704700ED00E000000000A1
:1005000080B400AF4FF400431846BD465DF8047B4D
:10051000704780B400AF4FF47A731846BD465DF85B
:10052000047B704780B400AF034B1B681846BD4680
:100530005DF8047B704700BF0400002080B582B0E6
:1005400000AF114B7B60114B1B7883F00103DBB2D2
:10055000002B13D00D4B01221A700BE07B681B6837
:10056000984738603B68002B01D03B6807E07B6808
:1005700004337B607B681B68002BEFD10023184697
:100580000837BD4680BD00BF100000200C030020CE
:1005900080B584B000AF78603960114B1B7883F070
:1005A0000103DBB2002B02D00E4BFB6012E07B6834
:1005B000002B0DDC7B682C2202FB03F30A4A134458
:1005C0002C221946386810F049F90023FB6001E03D
:1005D000064BFB60FB6818461037BD4680BD00BF68
:1005E0000C03002005001180E002002002001180B1
:1005F00080B584B000AF7860134B1B7883F00103A3
:10060000DBB2002B02D0114BFB6017E0104B1B68D4
:10061000002B11DC0E4B1B685A1C0D490A602C2262
:1006200002FB03F30B4A13442C227968184610F09E
:1006300015F90023FB6001E0074BFB60FB681846DF
:100640001037BD4680BD00BF0C030020050011809F
:1006500010030020E00200200100118080B58CB062
:1006600000AF00F009FB00F09BFA00F01FFB002335
:1006700000220821022000F029FB0023002206218D
:10068000022000F023FB002300220E21032000F0B3
:100690001DFB002300220F21032000F017FB002385
:1006A00000220D21032000F011FB80220D210320E8
:1006B00000F050FBF862FB6A002B01D0FB6A27E0D8
:1006C000154B3B6001233B7400237B7480237B60CC
:1006D0008023FB607B68BB60104B7B61104BBB6170
:1006E000104BFB61104B3B62104B7B62104BBB62AB
:1006F0003B461846FFF77CFFF862FB6A002B06D1E9
:100700003B460121184600F024F800F039F8FB6A56
:1007100018463037BD4680BD601001005307000009
:10072000C907000039080000A908000055080000AA
:100730003507000080B584B000AF78600023FB600F
:1007400000F09AFA00F02CFAFB6818461037BD4604
:1007500080BD80B582B000AF78600B46FB70FB783F
:10076000002B04D00F21032000F0D0FA03E00F216A
:10077000032000F0DDFA002318460837BD4680BD8F
:1007800080B582B000AF0E21032000F0BFFA062032
:1007900000F07EFA0B4B1B7843F00403DBB29BB2F4
:1007A000FB80BB1D0221184600F02CFA022000F04D
:1007B0006FFA0E21032000F0BBFA00231846083719
:1007C000BD4680BD1403002080B487B000AFF86040
:1007D000B9607A603B60BB68DA087B6802FB03F3B0
:1007E0007B61BB68802B01D00F4B16E00F4B1A6862
:1007F0007B6913440E4A934204D93B6800221A6075
:100800000C4B0AE0094B1A683B681A60074B1A68E0
:100810007B691344054A1360002318461C37BD4604
:100820005DF8047B704700BF0200118018000020B3
:10083000980300200100118080B483B000AF78607D
:100840003960034B18460C37BD465DF8047B704792
:100850000400118080B588B000AFF860B9607A609C
:100860003B60BB68FB61FB681B7C012B02D1002352
:10087000FB7601E0FF23FB7600237B610BE0FB7E30
:1008800010221946F8690FF0F4FFFB691033FB6181
:100890007B6901337B617A693B689A42EFD300231D
:1008A00018462037BD4680BD80B588B000AFF860DF
:1008B000B9607A603B60BB68BB61BB6A0133BB62F5
:1008C0000E21032000F022FA062000F0E1F9BB6AB5
:1008D0009BB21B029BB243F001039BB2FB8207F168
:1008E00016030221184600F08DF90023FB6126E073
:1008F0001021B86900F086F9BB691033BB61FB6A4F
:10090000013BFA699A4203D14FF6FF73FB820DE077
:10091000BB6A9AB2FB699BB213449BB201339BB290
:100920001B029BB243F0FF039BB2FB8207F116034D
:100930000221184600F066F9FB690133FB61FA6990
:10094000FB6A9A42D4D3022000F0A2F90E210320C0
:1009500000F0EEF9002318462037BD4680BD80B474
:1009600085B000AF786039607B6803F1C063FB60DD
:10097000FB683A681A6000BF1437BD465DF8047B17
:10098000704780B485B000AF786039607B6803F150
:100990008063FB60FB683A681A6000BF1437BD468D
:1009A0005DF8047B7047000080B582B000AF03465D
:1009B0003960FB71FB79002B38D0FB79012B32D0E9
:1009C000FB79022B2CD0FB79032B26D0FB79042B4F
:1009D00021D0FB79052B1BD0FB79062B16D0FB7998
:1009E000072B11D0FB79082B0CD0FB79092B06D0F3
:1009F000FB790A2B01D107231AE0002318E04FF4FA
:100A0000404315E00F2313E0002311E000230FE023
:100A10004FF6FF730CE000230AE04FF47F4307E03A
:100A200040F6FF7304E04FF6C07301E040F2FF337D
:100A30003A68134103F00103002B04D140F2DD3189
:100A40000C4804F077F9FA7913465B0013441B0154
:100A50000C3303F1804303F5204301213A6801FA86
:100A600002F211461846FFF78CFF00BF0837BD465B
:100A700080BD00BF7810010080B582B000AF034692
:100A80003960FB71FB79002B38D0FB79012B32D018
:100A9000FB79022B2CD0FB79032B26D0FB79042B7E
:100AA00021D0FB79052B1BD0FB79062B16D0FB79C7
:100AB000072B11D0FB79082B0CD0FB79092B06D022
:100AC000FB790A2B01D107231AE0002318E04FF429
:100AD000404315E00F2313E0002311E000230FE053
:100AE0004FF6FF730CE000230AE04FF47F4307E06A
:100AF00040F6FF7304E04FF6C07301E040F2FF33AD
:100B00003A68134103F00103002B04D140F20C4179
:100B10000C4804F00FF9FA7913465B0013441B01EB
:100B20000C3303F1804303F5204301213A6801FAB5
:100B300002F211461846FFF712FF00BF0837BD4604
:100B400080BD00BF7810010080B582B000AF786032
:100B500039607B68022B04D940F2AB11074804F0DE
:100B6000E9F8074A7B6804331B01134404333A68ED
:100B70001A6000BF0837BD4680BD00BFF0100100FD
:100B80000020044080B582B000AF786039603968D9
:100B90007868FFF7D9FF00BF0837BD4680BD000069
:100BA000B0B588B000AF0023FB61124B3C1D1D4661
:100BB0000FCD0FC495E8030084E8030001210E481F
:100BC00004F0BAFB0D4BFB603B1D19460C4806F0C8
:100BD000A3FF0B4B0A225A67094B9B6F23F01F237D
:100BE000074A43F00B239367FB6918462037BD463D
:100BF000B0BD00BF6811010000520400E06735007D
:100C00000004014080B584B000AF786039600023F3
:100C1000FB6020E03B68012B04D07B6803F00103FC
:100C2000002B0CD07B681B781946124807F06AF835
:100C30003B68013B3B607B6801337B600BE07B687A
:100C40001B8819460B4807F073F83B68023B3B6072
:100C50007B6802337B603B68002BDBD100BF054B18
:100C60001B6903F02003002BF9D0FB6818461037EE
:100C7000BD4680BD0004014080B582B000AF0023B6
:100C80007B6000F033FF7B6818460837BD4680BDA7
:100C900080B584B000AF78600023FB60786800F016
:100CA000EBFFFB6818461037BD4680BD80B582B0AB
:100CB00000AF00237B600121034804F03DFB7B680B
:100CC00018460837BD4680BD00350A0080B586B09D
:100CD00000AFF860B9603B601346FB7100237B6195
:100CE000FB79002B0BD10423FB7400BFFB68D8B247
:100CF000FA7C3B68B96806F0FDFC7B6900E0024BBA
:100D000018461837BD4680BD0100138080B584B0F9
:100D100000AF786039600023FB607B68DBB2396824
:100D20001846FFF7A9FEFB6818461037BD4680BD80
:100D300080B584B000AF786039600023FB607B68C9
:100D4000DBB239681846FFF72FFEFB6818461037EC
:100D5000BD4680BD80B588B000AFF860B9607A60EC
:100D60000023FB614FF43063BB6102237B610121EF
:100D7000124804F0E1FA7A69B969042006F080FDAE
:100D80000F4B5B6923F007030D4A43F004035361E3
:100D90000B4B9B680A4A43F010039360FB68D8B280
:100DA00000230422B96806F0A5FC786800F01CF85E
:100DB000FB6918462037BD4680BD00BF00450A00CC
:100DC00000600E4080B582B000AF78600121054818
:100DD00004F0B2FA0321786804F074FF00BF08370A
:100DE000BD4680BD00250A0080B588B000AF7860A0
:100DF000214A07F1140307CA03C31A7000233B7684
:100E00001E48FFF7DFFF01211D4804F095FA00237B
:100E10003B7500237B750123FB7507F1140318460E
:100E200006F0E4FD174A07F10C0392E8030018608E
:100E30000433198002330A0C1A7001237B7307F103
:100E40000C031946012006F081FD0D4804F0E0FA7C
:100E500002467B68B2FBF3F3013B19460120FFF722
:100E600091FE094B00229A60012006F0ADFD00BF03
:100E70002037BD4680BD00BF801101000500240061
:100E8000A00914008C1101000020044080B483B03C
:100E900000AF7860002318460C37BD465DF8047B30
:100EA000704780B483B000AF7860FEE780B483B051
:100EB00000AF786039603B684FF400525A600023FD
:100EC00018460C37BD465DF8047B704780B485B08A
:100ED00000AFF860B9607A60002318461437BD4649
:100EE0005DF8047B704780B586B000AFF860B960EC
:100EF0007A6000237B610FE000F08AF838613B697B
:100F0000B3F1FF3F0ED0BB685A1CBA603A69D2B247
:100F10001A707B6901337B617B685A1E7A60002BF3
:100F2000EAD100E000BF7B69002B02DC4FF0FF3309
:100F300000E07B6918461837BD4680BD80B485B097
:100F400000AF78600B4B1B68002B02D1094B0A4A9B
:100F50001A60084B1B68FB60064B1A687B681344D9
:100F6000044A1360FB6818461437BD465DF8047BDD
:100F7000704700BF9803002018F0002080B586B0AD
:100F800000AFF860B9607A6000237B6109E0BB685C
:100F90005A1CBA601B78184600F044F87B6901338C
:100FA0007B617A697B689A42F1DB7B681846183767
:100FB000BD4680BD80B58EB000AF07F1080319466D
:100FC0000020FFF7E5FA78637B6B002B16D1002336
:100FD0003B6000233B7101237B713B460A49184665
:100FE00000F03AF878637B6B002B07D1074B1B6846
:100FF00098680023022200210FF0FCFC7B6B18464E
:101000003837BD4680BD00BF9C030020EC000020A7
:1010100080B400AF4FF0FF331846BD465DF8047B47
:101020007047000080B582B000AF0346FB71094BEA
:101030001B68002B08D0074B1B68FA79114618462D
:1010400000F0F0F8FB7901E04FF0FF331846083765
:10105000BD4680BD9C03002090B587B000AF78608E
:10106000396000237B6100233B6117E0684A3B69DC
:10107000582101FB03F3134455331B7883F001031C
:10108000DBB2002B07D03B69582202FB03F3604A16
:1010900013447B6105E03B6901333B613B69002BF5
:1010A000E4DD7B69002B01D15A4BADE07B681A6807
:1010B0007B69043319461046FFF76AFAB860BB68CB
:1010C000002B01D0BB689FE07B695B7D002B1FD1AB
:1010D0007B69DC697B69181D7B6999687B693C3396
:1010E0000822A047B860BB68002B01D0BB688BE02A
:1010F0007B699C6A7B69181D7B69D96B7B699A68DF
:101100000823A047B860BB68002B04D0BB687BE015
:101110007B690022DA63404A3B691B0113441A6869
:101120007B691B69DB089A4201D93C4B6CE03A4A67
:101130003B691B01134404331A687B699B68384977
:10114000A1FB03139B089A4201D9344B5CE0324A5D
:101150003B691B0113441A687B695A632E4A3B6939
:101160001B01134404331A687B691A632A4A3B69DA
:101170001B01134408331A687B691A64264A3B69C9
:101180001B0113440C331A687B695A647B681A6824
:101190007B691A607B681A797B6983F838207B68E1
:1011A0005A797B6983F839200023FB6010E07B6962
:1011B000196C7B691B6BFA6802FB03F27B69586C44
:1011C000FB689B0003440A441A60FB680133FB6020
:1011D0007B695B6BFA689A42E9D37B69002283F8EA
:1011E00048207B69002283F849207B69002283F82C
:1011F0004A20786900F088F87B69012283F855203D
:101200003B687A691A60002318461C37BD4690BDBA
:10121000A0030020050012801C00002002001280A4
:10122000ABAAAAAA80B584B000AF78600B46FB7069
:101230007B68FB60FB6893F8553083F00103DBB2F9
:10124000002B01D02F4B58E0FB685B7D002B04D1B5
:10125000FB68012283F8542003E0FB68022283F834
:101260005420FB6893F83830002B0FD0FB68DB6C00
:10127000002B17D1FB681A6DFB685B6B013B9A4230
:1012800010D1FB68002283F854200BE0FB68DB6C74
:10129000002B07D1FB681B6D002B03D1FB680022DC
:1012A00083F85420FB780C2B0BD1F86800F02CF855
:1012B000FB68002283F85420F86800F05DFB0346C9
:1012C0001BE0FB6893F83930002B06D0FB780A2B23
:1012D00003D10D21F86800F051F9FB781946F86840
:1012E00000F04CF9FB6893F85430032B04D0F868F5
:1012F00000F042FB034600E0002318461037BD46CD
:1013000080BD00BF0600128080B582B000AF78605B
:101310007B685B6C002B15D07B68186C7B685B6B03
:101320007A68126B02FB03F31A4600210FF0A1FA50
:101330007B680022DA647B6800221A657B680022E1
:1013400083F8542000BF0837BD4680BD80B584B007
:1013500000AF78600023FB6014E07B685A6CFB6888
:101360009B00134418687B685A6CFB6801339B0030
:10137000134419687B681B6B1A460FF06FFAFB6801
:101380000133FB607B685B6B013BFA689A42E4D3F4
:101390007B685A6C7B685B6B03F18043013B9B006D
:1013A000134418687B681B6B1A4600210FF061FA22
:1013B0007B680022DA647B685B6B5A1E7B681A6567
:1013C0007B68002283F8542000BF1037BD4680BDE3
:1013D00080B586B000AF786039600023FB733B684E
:1013E0001B2B0ED10422002162480FF042FA3B6809
:1013F000DAB2604B1A707B68032283F85420012311
:10140000B3E05C4B1B781B2B01D00023ADE0594BA4
:101410007B617B6901337B617B691B78002BF8D191
:101420003B68DAB27B691A7052480FF099FBB860DA
:1014300000233B6178E03B699B004F4A1344BA6844
:1014400019464C480FF094FB0346002B69D1012349
:10145000FB737B68032283F854203B699B00464A58
:10146000134418460FF07CFB0246BB6893425FD1E1
:101470003B69052B4AD801A252F823F095140000CD
:1014800095140000A3140000B7140000D11400004C
:10149000EB1400007B6800221A657B680022DA6486
:1014A00034E07B681B6D002B29D07B681B6D5A1EB6
:1014B0007B681A6523E07B681A6D7B685B6B013B78
:1014C0009A421ED27B681B6D5A1C7B681A6518E015
:1014D0007B68DA6C7B681B6B013B9A4213D27B689A
:1014E000DB6C5A1C7B68DA640DE07B68DB6C002BDC
:1014F0000BD07B68DB6C5A1E7B68DA6405E000BFAA
:1015000004E000BF02E000BF00E000BF04220021B1
:1015100018480FF0AEF97B68032283F854200123AA
:1015200023E03B6901333B613B69052B83DD00E030
:1015300000BFFB7B83F00103DBB2002B06D004224B
:1015400000210C480FF095F900230EE0BB68032B37
:101550000AD10422002107480FF08BF97B6803228F
:1015600083F85420012300E0FB7B18461837BD4662
:1015700080BD00BFF8030020B414010080B582B024
:1015800000AF786039603B680A2B08D00D2B02D081
:10159000082B24D038E07B680022DA6486E07B6880
:1015A0001B6D5A1C7B681A657B680022DA647B68B5
:1015B0001A6D7B685B6B9A4275D37B6893F8383001
:1015C000002B08D07868FFF7C1FE7B685B6B5A1E62
:1015D0007B681A6567E07868FFF796FE63E07B68D2
:1015E0001B7D002B10D07B681B7D012B0CD07B68F2
:1015F000FF2283F848207B68002283F849207B681B
:10160000002283F84A2051E039687868FFF7E0FE4D
:101610000346002B49D10FF0F1F802463B68013335
:1016200013441B7803F09703002B01D120233B6068
:101630007B68DA6C7B681B6B9A4207D37B6800225D
:10164000DA647B681B6D5A1C7B681A657B681A6DAF
:101650007B685B6B9A4210D37B6893F83830002B21
:1016600008D07868FFF772FE7B685B6B5A1E7B6858
:101670001A6502E07868FFF747FE3B68DAB27B68DC
:10168000596C7B681B6D9B000B4419687B68DB6C95
:101690000B44203AD2B21A707B68DB6C5A1C7B6810
:1016A000DA6400BF02E000BF00E000BF0837BD46BB
:1016B00080BD0000B0B592B002AF786039607B6841
:1016C000DB6B7B630023BB6334E10023FB6373E0CC
:1016D0007B685A6C3B689B0013441A68FB6B13448D
:1016E0001B78FB73FA7BBB6B642101FB03F3134490
:1016F0009F4AD35C87F833307B681B7D002B08D072
:10170000002B54DB022B52DC97F83330DB4387F895
:101710003330FA6B13465B0013445B00BB60BB685D
:10172000BB623EE097F8333003F00103002B17D083
:10173000BB6ADB101A467B6B13441B785AB2BB6A38
:1017400003F00703012101FA03F35BB213435AB21A
:10175000BB6ADB1019467B6B0B44D2B21A7018E0DF
:10176000BB6ADB101A467B6B13441B785AB2BB6A08
:1017700003F00703012101FA03F35BB2DB435BB221
:1017800013405AB2BB6ADB1019467B6B0B44D2B2D2
:101790001A7097F833305B0887F83330BB6A01332F
:1017A000BB62BB680633BA6A9A42BBDB01E0714B8D
:1017B000DAE0FB6B0133FB637B681B6BFA6B9A42CD
:1017C00086D37B681B7D013B012B38D8FA6B13460F
:1017D0005B0013445B007B627B6A03F00703BB6121
:1017E000BB69002B1CD07B6ADB101A467B6B134451
:1017F0001B785AB20121BB6901FA03F3DBB25B42E9
:10180000DBB25BB213435AB27B6ADB1019467B6BC7
:101810000B44D2B21A707A6ABB69D31A08337B625E
:101820007B6ADB101A467B6B98187B689A687B6A28
:10183000D31ADB081A46FF210FF01BF800E000BFA7
:101840007B681B7D022B6CD17B6893F84830DB09E9
:10185000DBB25AB27B6893F849309B115BB203F05C
:1018600002035BB213435AB27B6893F84A305B11B0
:101870005BB203F004035BB213435BB2FB757B6B9B
:101880003B617B689B68DB08013B3B6246E00023D1
:10189000FB620023FB611BE03B6A3A6913441B783F
:1018A0001A46FB6942FA03F303F00103002B01D14E
:1018B000FA7D00E00722F9690B465B000B4402FA4F
:1018C00003F31A46FB6A1343FB62FB690133FB61B6
:1018D000FB69072BE0DD3A6A13465B0013441A46A6
:1018E0003B691344FA6AD2B21A70FB6A190A3A6A5F
:1018F00013465B00134401333A691344CAB21A70A9
:10190000FB6A190C3A6A13465B00134402333A69C6
:101910001344CAB21A703B6A013B3B623B6A002B1C
:10192000B5DA7B68DB68DB087A6B13447B63BB6BDF
:101930000133BB63BB6B072B7FF6C7AE7B685C6A6A
:101940007B68181D7B68D96B7B681A6B13465B003C
:1019500013445B001D463B68DB00082201920093A4
:101960002B460022A047034618464037BD46B0BD6F
:10197000941101000400128090B587B002AF786026
:101980007B6893F85430012B71D0022B7DD0002B53
:1019900002D000BF002379E07B685B7D002B63D120
:1019A0000023FB6006E0F9687868FFF783FEFB68B8
:1019B0000133FB607B685B6BFA689A42F3D37B6808
:1019C0005B6BDA007B681B699A424FD27B681B7D98
:1019D000012B0DD0022B15D0002B20D17B68D86BAA
:1019E0007B689B68DB081A4600210EF042FF18E076
:1019F0007B68D86B7B689B68DB081A46FF210EF07A
:101A000038FF0EE07B68D86B7B689A6813465B00F2
:101A10001344DB081A46FF210EF02BFF01E01D4B9B
:101A200034E07B685B6BDB00FB6017E07B685C6A23
:101A30007B68181D7B68D96B7B689A6801230193CA
:101A4000FB68009313460022A047B860BB68002BD8
:101A500001D0BB681AE0FB680133FB607B681B693F
:101A6000FA689A42E2D301E00A4B0FE000BF7B68BC
:101A70005B7D002B07D17B681B6D19467868FFF7EB
:101A800019FE034602E0034B00E0024B18461437F0
:101A9000BD4690BD0400128080B483B000AF034601
:101AA000FB7197F90730002B0CDBFB7903F01F0269
:101AB000074997F907305B09012000FA02F2603309
:101AC00041F8232000BF0C37BD465DF8047B70470A
:101AD00000E100E080B400AF034B9B681846BD46B0
:101AE0005DF8047B704700BF0020044080B58AB0D9
:101AF00000AF002387F82730002387F82630002323
:101B000087F82530002387F82430002387F8233016
:101B1000534A3B4607CA03C31A700023FB610023E4
:101B2000BB61504BD3F8B03003F00403002B06D157
:101B300001214D4803F000FC012387F827304B4872
:101B400003F0DCFF0346FB75FB7D032B02D0012372
:101B500087F82530434BD3F8903003F04003002B37
:101B600002D1012387F824300321404804F0AAF869
:101B70003F4803F0C5FB38613A4BD3F8F03003F02F
:101B80000103002B06D10121394803F0D5FB0123C5
:101B900087F8263004F0BAFCF860364B1B6803F077
:101BA0000103002B15D0334B1B68FB61314B5B6A83
:101BB000BB61304B00221A602E4B00225A622D4B23
:101BC00040F2FF721A621E20FFF766FF012387F8BA
:101BD00023300023BB700023FB7008233B713B467E
:101BE000184605F003FF00F065F8F86804F09EFC65
:101BF00097F82330002B0AD039691D4803F08DFB7C
:101C00001C4AFB6913601B4ABB69536202E0002057
:101C100005F0DAFE97F82630002B03D00021144897
:101C200003F08AFB97F82530002B04D0FB7D194682
:101C30000E4804F047F897F82430002B04D0002217
:101C40000021012004F0F2F997F82730002B03D08F
:101C50000021054803F070FB00BF2837BD4680BD5A
:101C6000CC14010000400E4000250A0005002400AD
:101C7000A00914000020044080B483B000AF786055
:101C80007B680B49002B0CD0013B882212020032EA
:101C900053430A68D80AD20A5043800901D0013858
:101CA000FDD800BF0C37BD465DF8047B704700BF10
:101CB0002C00002080B584B000AF0823BB60334BFC
:101CC0004FF480521A601AE000F062F8786000BFAA
:101CD00000F05EF802467B689342F9D000F058F8B5
:101CE00078602A4B1B68184600F059F800F050F84D
:101CF00002467B68D31A7B607B68002B07D1234B9D
:101D00001B685B00214A1360002BDDD100E000BF9F
:101D10001E4B1B685B081D4A13601C4B1B68FB6055
:101D200024E01A4B1A68FB681343184A136000F04A
:101D30002FF8786000BF00F02BF802467B689342D2
:101D4000F9D000F025F87860104B1B68184600F0B9
:101D500026F800F01DF802467B68934206D0FB6827
:101D6000DA430A4B1B681340084A1360BB685A1ECB
:101D7000BA60002B05D0FB685B08FB60FB68002B9A
:101D8000CFD100BF1037BD4680BD00BF2C00002062
:101D900080B500AFFFF79EFE0346184680BD80B4B5
:101DA00083B000AF78607B68013BFDD800BF0C3783
:101DB000BD465DF8047B704780B582B000AF1F4B15
:101DC0007B607B6803221A617B6803225A617B680F
:101DD0001B4A9A617B681B4ADA617B684FF4806218
:101DE0001A627B6800229A627B6800225A627B68D2
:101DF0000022DA627B68124A1A667B68124A5A66C7
:101E00007B6810229A667B6800221A677B68002232
:101E1000DA667B6800225A677B6807330B491846ED
:101E20000EF096FE7B680A4918460EF091FE7B681C
:101E300020229A7100BF0837BD4680BD60C80020CF
:101E4000D8140100FC030020FC070020E41401006A
:101E5000E814010080B58AB000AFF860B9607A601C
:101E60003C4B1B78002B01D1FFF7A6FFFA68134605
:101E70005B001344DB006033364A1344BB61BB682C
:101E8000FB61BB691B693B62BB69DB687B6100234B
:101E90007B623A6A7B699A422AD9BB699A683B6A33
:101EA000D31A3B613A697B68934228BF13463B6172
:101EB000BB695A683B6A13443A691946F8690EF0DF
:101EC000CDFC7A6A3B6913447B62FA693B6913442F
:101ED000FB617A683B69D31A7B603A6A3B691344B9
:101EE0003B62BB699B683A6A9A4201D100233B621C
:101EF0007A693B6AD31A3B613A697B68934228BF8F
:101F000013463B613B69002B18D0BB695A683B6A9A
:101F100013443A691946F8690EF0A0FC7A6A3B69E5
:101F200013447B62FA693B691344FB617A683B693D
:101F3000D31A7B603A6A3B6913443B627B6A002B8D
:101F400002D0BB693A6A1A617B6A18462837BD46D7
:101F500080BD00BF60C8002080B58AB000AFF860C7
:101F6000B9607A60BB687B62FB685A1C13465B00F1
:101F70001344DB003F4A13443B623B6A1B69FB612D
:101F80003B6ADB68BB61FA69BB699A4254D83B6A19
:101F90009A68BB69D31A013B7B617A697B689A4274
:101FA0000FD33B6A5A68BB6913447A68796A18464A
:101FB0000EF054FCBA697B681A443B6ADA6001236C
:101FC00054E07A69FB6913447B617A697B689A42C1
:101FD0004BD33B6A9A68BB69D31A3B613A697B6809
:101FE0009A420ED93B6A5A68BB6913447A68796A87
:101FF00018460EF033FCBA697B681A443B6ADA6013
:1020000018E03B6A5A68BB6913443A69796A184612
:102010000EF024FC3B6A58687A6A3B69D1187A68EA
:102020003B69D31A1A460EF019FC7A683B69D21A3A
:102030003B6ADA60012319E0FA69BB69D31A013BF4
:102040007B617A697B689A420FD33B6A5A68BB69A5
:1020500013447A68796A18460EF000FCBA697B6806
:102060001A443B6ADA60012300E00023184628374F
:10207000BD4680BD60C8002080B586B000AFF86066
:10208000B9607A603B60304B1B78002B01D1FFF7C1
:1020900093FE2D4B1B691A46FB6893424CD204F009
:1020A00017FA386102F06AFCFB68002B32D026492F
:1020B000FB685A1C13465B001344DB000B44BA68F0
:1020C0001A602149FB685A1C13465B001344DB006D
:1020D0000B4404337A681A601B49FA6813465B00A4
:1020E0001344DB000B4420333A681A601649FA683F
:1020F00013465B001344DB000B44283300221A60B4
:102100001149FA6813465B001344DB000B44243387
:1021100000221A600C49FA6813465B001344DB0086
:102120000B442C333A6A1A6002F048FC386904F018
:10213000DFF900237B6102E04FF0FF337B617B69B5
:1021400018461837BD4680BD60C8002080B586B0EF
:1021500000AFF860B9607A603B60304B1B78002BB1
:1021600001D1FFF729FE2D4B5B691A46FB689342AC
:102170004BD204F0ADF9386102F000FCFB68002B93
:1021800031D02649FA6813465B001344DB000B4448
:102190006033BA681A602149FA6813465B00134439
:1021A000DB000B4464337A681A601C49FA681346F2
:1021B0005B001344DB000B4468333A681A6017492C
:1021C000FA6813465B001344DB000B4470330022B3
:1021D0001A601249FA6813465B001344DB000B4493
:1021E0006C3300221A600D49FA6813465B001344F1
:1021F000DB000B4474333A6A1A6002F0DFFB386983
:1022000004F076F900237B6102E04FF0FF337B613D
:102210007B6918461837BD4680BD00BF60C80020E6
:1022200080B487B000AFF860B9607A6000233B618A
:1022300002E03B6901333B61BA683B6913441B7898
:10224000002BF6D13A697B689A4201D97B683B61E1
:102250003B69FE2B06D8FB685A1CFA603A69D2B279
:102260001A7011E0FB685A1CFA60FF221A70FB68B2
:102270005A1CFA603A69D2B21A703B69190AFB68B3
:102280005A1CFA60CAB21A7000237B610AE0BA686D
:10229000531CBB60FB68591CF96012781A707B698B
:1022A00001337B617A693B699A42F0D3FB68184637
:1022B0001C37BD465DF8047B704780B483B000AF27
:1022C00078607B68043318460C37BD465DF8047BA4
:1022D000704780B582B000AFFB1C01221946012077
:1022E000FFF7B8FD03467B607B68002B44DDFB787D
:1022F000042B1AD0042B06DC022B10D0022B11DC8D
:10230000012B09D02DE0062B15D0062B10DB072B57
:1023100014D0802B15D024E000F07EFA31E000F0DC
:1023200037FB2EE000F012FD2BE000F0D7FC28E098
:1023300000F054FB25E000F0BBFF22E000F09AFF24
:102340001FE0FB1C012219460120FFF783FD034615
:102350007B607B68002B11DDFB78184600F00AFFDC
:102360000CE0FB785BB2002B0ADAFB1C0122194659
:102370000120FFF76FFD03E000BF02E000BF00E0B7
:1023800000BF00BF0837BD4680BD000080B58CB0DF
:1023900000AF01233B713B1D0133FB61FB69FB6215
:1023A000304B5B69BB620BE0BB6ADAB2FB6A591C5B
:1023B000F96262F07F02D2B21A70BB6ADB09BB62BB
:1023C000BB6A7F2BF0D8FB6A5A1CFA62BA6AD2B297
:1023D0001A70FB6AFB61244B1B68BB61214BDB68F5
:1023E000BA69D31A7B61FB697B627B693B620BE054
:1023F0003B6ADAB27B6A591C796262F07F02D2B220
:102400001A703B6ADB093B623B6A7F2BF0D87B6A20
:102410005A1C7A623A6AD2B21A707B6AFB61FA6914
:102420003B1DD31A1A463B1D19460120FFF794FDA8
:1024300003463B613B69002B09D00A4ABB69D36064
:10244000084B1B78013BDAB2064B1A7004E0054BCF
:102450005B690133034A53613B6918463037BD4617
:1024600080BD00BF14880020041000E080B58AB051
:1024700000AFF860B9607A60634B1B78012B10D015
:10248000614B1B78002B00F0A1805F4B1B78022B67
:1024900009D1FFF77BFF5C4B1B78012B40F0988044
:1024A00001E000BF00E000BF7B681F2B09D8564B3E
:1024B000DA697B6822FA03F303F00103002B40F092
:1024C00089807B68172B07D8FB68013BFB607B6822
:1024D000DAB2FB681A703DE0BA68FB68D31AFB6198
:1024E000FB697F2B12D9FB69DA09FB68013BFB60B2
:1024F000D2B2FB681A70FB69DBB2FA68013AFA6083
:1025000063F07F03DAB2FB681A7006E0FB68013BF8
:10251000FB60FB69DAB2FB681A707B687F2B12D90B
:102520007B68DA09FB68013BFB60D2B2FB681A707A
:102530007B68DBB2FA68013AFA6063F07F03DAB2D3
:10254000FB681A7006E0FB68013BFB607B68DAB24F
:10255000FB681A702D4B1B68BB612B4BDB68BA699B
:10256000D31A7B61BB687B627B693B620BE03B6A91
:10257000DAB27B6A591C796262F07F02D2B21A70B9
:102580003B6ADB093B623B6A7F2BF0D87B6A5A1CB3
:102590007A623A6AD2B21A707B6ABB60BA68FB6828
:1025A000D31A1A46F9680120FFF7D6FC03463B61AF
:1025B0003B69002B03D0144ABB69D3600BE0124B7C
:1025C0001B780133DAB2104B1A7004E000BF02E04E
:1025D00000BF00E000BF0E4BD3F884200C4BD3F8B3
:1025E00088309A420BD0084B9B78002B07D1064BC2
:1025F00001229A70FFF76DFE034B00229A7000BF14
:102600002837BD4680BD00BF14880020041000E0BC
:1026100060C8002080B586B002AFF860B9607A600B
:102620003B60002300934FF40043144A14490120F7
:10263000FFF722FD002300930823124A10490120CE
:10264000FFF784FD104B4FF080521A610F4B1B684F
:102650000D4AD3600C4A7B6813620B4AFB685360D7
:10266000094ABB689360084A3B685362064B0022E4
:102670001A7000BF1037BD4680BD00BF0C08002097
:10268000FC1401000C88002014880020041000E0D5
:1026900080B483B000AF7860044A7B68136100BFE8
:1026A0000C37BD465DF8047B704700BF14880020DE
:1026B00080B584B000AF786003F00AFFF86002F0E4
:1026C0005DF90948FFF7F9FDB8607A68B968B8683C
:1026D000FFF7CCFE02F072F9F86803F009FF00BFC3
:1026E0001037BD4680BD00BF4488002080B588B04B
:1026F00000AF7860396003F0EBFE786102F03EF9DC
:102700001748FFF7DAFD38613B69FB60FB68FB6146
:102710003B68BB610BE0BB69DAB2FB69591CF9612C
:1027200062F07F02D2B21A70BB69DB09BB61BB6980
:102730007F2BF0D8FB695A1CFA61BA69D2B21A70C1
:10274000FB69FB607A68F9683869FFF78FFE02F071
:1027500035F9786903F0CCFE00BF2037BD4680BD57
:102760004488002080B58CB000AFF860B9607A6012
:1027700003F0AEFEF86102F001F92648FFF79DFD77
:10278000B861BB697B617B69FB62BB68BB620BE0C4
:10279000BB6ADAB2FB6A591CF96262F07F02D2B2FC
:1027A0001A70BB6ADB09BB62BB6A7F2BF0D8FB6A7D
:1027B0005A1CFA62BA6AD2B21A70FB6A7B617B69F0
:1027C0007B627B683B620BE03B6ADAB27B6A591C36
:1027D000796262F07F02D2B21A703B6ADB093B6217
:1027E0003B6A7F2BF0D87B6A5A1C7A623A6AD2B273
:1027F0001A707B6A7B61FA687969B869FFF736FEFF
:1028000002F0DCF8F86903F073FE00BF3037BD4614
:1028100080BD00BF4488002080B58CB000AF594B0C
:102820001B78002B40F0AA80564B01221A7003F04F
:102830004FFEF86002F0A2F80A2253490120FFF788
:102840008BFB02F0BBF8F86803F052FE0A20FFF79A
:102850002FFF03F03DFEB86002F090F84B48FFF701
:102860002CFD78607B683B603B68FB62454B5B6896
:10287000BB620BE0BB6ADAB2FB6A591CF96262F018
:102880007F02D2B21A70BB6ADB09BB62BB6A7F2BC4
:10289000F0D8FB6A5A1CFA62BA6AD2B21A70FB6AA2
:1028A0003B603B687B62374B9B683B620BE03B6A5B
:1028B000DAB27B6A591C796262F07F02D2B21A7076
:1028C0003B6ADB093B623B6A7F2BF0D87B6A5A1C70
:1028D0007A623A6AD2B21A707B6A3B603B68FB61EB
:1028E000284B1B69BB610BE0BB69DAB2FB69591C61
:1028F000F96162F07F02D2B21A70BB69DB09BB6179
:10290000BB697F2BF0D8FB695A1CFA61BA69D2B255
:102910001A70FB693B603B687B6102233B610BE003
:102920003B69DAB27B69591C796162F07F02D2B2ED
:102930001A703B69DB093B613B697F2BF0D87B69EF
:102940005A1C7A613A69D2B21A707B693B601822CC
:1029500039687868FFF78AFD02F030F8B86803F04C
:10296000C7FD084B5B6A002B02D0064B5B6A984799
:1029700000F0ECF900F0B2F900F09AFC00BF30373B
:10298000BD4680BD14880020F0140100448800205A
:1029900080B582B000AF03F09BFD786001F0EEFFE0
:1029A0000C48FFF78AFC38600B4B1B78002B07D0D4
:1029B0000B2239683868FFF759FD074B00221A705F
:1029C00001F0FCFF786803F093FD00BF0837BD46B7
:1029D00080BD00BF448800201488002080B58CB0E2
:1029E00000AF03F075FDF86001F0C8FF4648FFF73F
:1029F00064FCB860BB687B607B68FB62434B5B68D0
:102A0000BB620BE0BB6ADAB2FB6A591CF96262F086
:102A10007F02D2B21A70BB6ADB09BB62BB6A7F2B32
:102A2000F0D8FB6A5A1CFA62BA6AD2B21A70FB6A10
:102A30007B607B687B62354B9B683B620BE03B6A4B
:102A4000DAB27B6A591C796262F07F02D2B21A70E4
:102A50003B6ADB093B623B6A7F2BF0D87B6A5A1CDE
:102A60007A623A6AD2B21A707B6A7B607B68FB61D9
:102A7000264B1B69BB610BE0BB69DAB2FB69591CD1
:102A8000F96162F07F02D2B21A70BB69DB09BB61E7
:102A9000BB697F2BF0D8FB695A1CFA61BA69D2B2C4
:102AA0001A70FB697B607B687B6102233B610BE0F2
:102AB0003B69DAB27B69591C796162F07F02D2B25C
:102AC0001A703B69DB093B613B697F2BF0D87B695E
:102AD0005A1C7A613A69D2B21A707B697B601822FB
:102AE0007968B868FFF7C2FC01F068FFF86803F086
:102AF000FFFC064B5B6A002B02D0044B5B6A9847D5
:102B000000BF3037BD4680BD4488002014880020B7
:102B100080B592B000AF786003F0DAFC786101F024
:102B20002DFF6C48FFF7C9FB38613B69FB60FB6810
:102B30007B647B681A68684B1B69D31A9B083B64EB
:102B40000BE03B6CDAB27B6C591C796462F07F025B
:102B5000D2B21A703B6CDB093B643B6C7F2BF0D824
:102B60007B6C5A1C7A643A6CD2B21A707B6CFB6034
:102B7000FB68FB637B689B68BB630BE0BB6BDAB2F3
:102B8000FB6B591CF96362F07F02D2B21A70BB6B07
:102B9000DB09BB63BB6B7F2BF0D8FB6B5A1CFA6362
:102BA000BA6BD2B21A70FB6BFB607B685B68202249
:102BB0001946F868FFF734FBF8600922F9683869AC
:102BC000FFF754FC3B69FB60FB687B637B681A681A
:102BD000414B1B69D31A9B083B630BE03B6BDAB29A
:102BE0007B6B591C796362F07F02D2B21A703B6B27
:102BF000DB093B633B6B7F2BF0D87B6B5A1C7A6302
:102C00003A6BD2B21A707B6BFB60FB68FB627B682D
:102C1000DB68BB620BE0BB6ADAB2FB6A591CF96283
:102C200062F07F02D2B21A70BB6ADB09BB62BB6A78
:102C30007F2BF0D8FB6A5A1CFA62BA6AD2B21A70B9
:102C4000FB6AFB60FB687B627B681B693B620BE095
:102C50003B6ADAB27B6A591C796262F07F02D2B2B7
:102C60001A703B6ADB093B623B6A7F2BF0D87B6AB8
:102C70005A1C7A623A6AD2B21A707B6AFB60FB68AD
:102C8000FB610023BB610BE0BB69DAB2FB69591C35
:102C9000F96162F07F02D2B21A70BB69DB09BB61D5
:102CA000BB697F2BF0D8FB695A1CFA61BA69D2B2B2
:102CB0001A70FB69FB601522F9683869FFF7D6FBCB
:102CC00001F07CFE786903F013FC00BF4837BD4675
:102CD00080BD00BF448800201488002080B500AF6C
:102CE000074B1B6A002B08D0054B1B6A5B68002B47
:102CF00003D0034B1B6A5B68984700BF80BD00BFD1
:102D00001488002080B586B000AF786003F0E0FB47
:102D1000786101F033FE0C48FFF7CFFA386180226A
:102D200079683869FFF77CFAF8600E22F96838692B
:102D3000FFF79CFB01F042FE786903F0D9FB00BF6E
:102D40001837BD4680BD00BF4488002090B583B0D1
:102D500000AF144B1B6A002B19D0124B1B6A1B6867
:102D6000002B14D00F4B1B6A1B689847C7E9000162
:102D70003868D7E900124FF000034FF00004130049
:102D800000241A4601460D20FFF7ECFC05E0064B37
:102D90001B6819460C20FFF7A9FC00BF0C37BD4685
:102DA00090BD00BF14880020041000E080B586B0FC
:102DB00000AF03F08DFBF86001F0E0FD1A48FFF76B
:102DC0007CFAB860BB687B60184B1B68C3F30803D0
:102DD0003B607B687B613B683B610BE03B69DAB23F
:102DE0007B69591C796162F07F02D2B21A703B692B
:102DF000DB093B613B697F2BF0D87B695A1C7A6108
:102E00003A69D2B21A707B697B6002227968B8682D
:102E1000FFF72CFB01F0D2FDF86803F069FB00BF5F
:102E20001837BD4680BD00BF4488002004ED00E097
:102E300080B582B000AF03F04BFB786001F09EFDDF
:102E40000848FFF73AFA3860032239683868FFF714
:102E50000DFB01F0B3FD786803F04AFB00BF0837B3
:102E6000BD4680BD4488002080B588B000AF786042
:102E700003F02EFB786101F081FD1B48FFF71DFA7E
:102E800038613B69FB60194B1B697A68D31A9B0850
:102E90007B60FB68FB617B68BB610BE0BB69DAB2FE
:102EA000FB69591CF96162F07F02D2B21A70BB69EA
:102EB000DB09BB61BB697F2BF0D8FB695A1CFA6147
:102EC000BA69D2B21A70FB69FB600822F9683869E6
:102ED000FFF7CCFA01F072FD786903F009FB00BF3F
:102EE0002037BD4680BD00BF4488002014880020E4
:102EF00080B588B000AF786003F0EAFA786101F03D
:102F00003DFD1B48FFF7D9F938613B69FB60194B60
:102F10001B697A68D31A9B087B60FB68FB617B683E
:102F2000BB610BE0BB69DAB2FB69591CF96162F065
:102F30007F02D2B21A70BB69DB09BB61BB697F2B10
:102F4000F0D8FB695A1CFA61BA69D2B21A70FB69EF
:102F5000FB600422F9683869FFF788FA01F02EFD5A
:102F6000786903F0C5FA00BF2037BD4680BD00BFB9
:102F7000448800201488002080B588B000AF7860B5
:102F800003F0A6FA786101F0F9FC1B48FFF795F908
:102F900038613B69FB60194B1B697A68D31A9B083F
:102FA0007B60FB68FB617B68BB610BE0BB69DAB2ED
:102FB000FB69591CF96162F07F02D2B21A70BB69D9
:102FC000DB09BB61BB697F2BF0D8FB695A1CFA6136
:102FD000BA69D2B21A70FB69FB600622F9683869D7
:102FE000FFF744FA01F0EAFC786903F081FA00BFC8
:102FF0002037BD4680BD00BF4488002014880020D3
:1030000080B58AB000AF7860396003F061FA78610A
:1030100001F0B4FC2848FFF750F938613B69FB60C8
:10302000264B1B697A68D31A9B087B60FB687B621E
:103030007B683B620BE03B6ADAB27B6A591C7962BF
:1030400062F07F02D2B21A703B6ADB093B623B6AD4
:103050007F2BF0D87B6A5A1C7A623A6AD2B21A7015
:103060007B6AFB60FB68FB613B68BB610BE0BB6993
:10307000DAB2FB69591CF96162F07F02D2B21A70B0
:10308000BB69DB09BB61BB697F2BF0D8FB695A1CAC
:10309000FA61BA69D2B21A70FB69FB600722F9685B
:1030A0003869FFF7E3F901F089FC786903F020FA49
:1030B00000BF2837BD4680BD44880020148800200A
:1030C00080B588B000AF7860396003F001FA7861AC
:1030D00001F054FC1C48FFF7F0F838613B69FB60D5
:1030E000FB68FB61194B1B697A68D31A9B08BB61AB
:1030F0000BE0BB69DAB2FB69591CF96162F07F022F
:10310000D2B21A70BB69DB09BB61BB697F2BF0D8F7
:10311000FB695A1CFA61BA69D2B21A70FB69FB608A
:1031200080223968F868FFF77BF8F8601922F9689F
:103130003869FFF79BF901F041FC786903F0D8F991
:1031400000BF2037BD4680BD448800201488002081
:1031500080B483B000AF7860054B1B697A68D31ADE
:103160009B0818460C37BD465DF8047B704700BFCE
:103170001488002080B58CB000AF0346FB713B4B38
:103180001B68002B6DD0394B1B68FB620023BB62B0
:1031900008E0FB6A1B69FB62FB6A002B07D0BB6A75
:1031A0000133BB62FB79BA6A9A42F2D300E000BFF6
:1031B000FB6A002B55D003F08BF9786101F0DEFB40
:1031C0002B48FFF77AF838613B69FB60FB687B624C
:1031D000FB793B620BE03B6ADAB27B6A591C79628D
:1031E00062F07F02D2B21A703B6ADB093B623B6A33
:1031F0007F2BF0D87B6A5A1C7A623A6AD2B21A7074
:103200007B6AFB60FB68FB61FB6A9B68BB610BE050
:10321000BB69DAB2FB69591CF96162F07F02D2B274
:103220001A70BB69DB09BB61BB697F2BF0D8FB69F6
:103230005A1CFA61BA69D2B21A70FB69FB60FB6A68
:103240001B6880221946F868FEF7EAFFF86016222C
:10325000F9683869FFF70AF901F0B0FB786903F003
:1032600047F900BF3037BD4680BD00BF3C88002015
:103270004488002080B582B000AF0C4B1B68002B47
:103280000FD00A4B1B687B607B68DB68002B02D089
:103290007B68DB6898477B681B697B607B68002BD9
:1032A000F2D100BF0837BD4680BD00BF3C8800207A
:1032B00080B586B000AF03F00BF9F86001F05EFB5B
:1032C0001848FEF7FAFFB860BB687B607B687B61DB
:1032D000154B1B783B610BE03B69DAB27B69591CEB
:1032E000796162F07F02D2B21A703B69DB093B61FF
:1032F0003B697F2BF0D87B695A1C7A613A69D2B25C
:103300001A707B697B601B227968B868FFF7AEF89A
:1033100001F054FBF86803F0EBF800BF1837BD4626
:1033200080BD00BF448800204088002080B58AB05E
:1033300000AF786003F0CCF8786101F01FFB2848FB
:10334000FEF7BBFF3861802279683869FEF768FFB5
:10335000F860FB687B6201233B620BE03B6ADAB2F8
:103360007B6A591C796262F07F02D2B21A703B6AA2
:10337000DB093B623B6A7F2BF0D87B6A5A1C7A627E
:103380003A6AD2B21A707B6AFB60FB68FB61002369
:10339000BB610BE0BB69DAB2FB69591CF96162F0F1
:1033A0007F02D2B21A70BB69DB09BB61BB697F2B9C
:1033B000F0D8FB695A1CFA61BA69D2B21A70FB697B
:1033C000FB601A22F9683869FFF750F801F0F6FA45
:1033D000786903F08DF800BF2837BD4680BD00BF77
:1033E0004488002080B500AF0448FFF78BFC0448F8
:1033F000FFF788FC00F078F900BF80BD04150100DC
:103400003415010098B500AF094801F01DFA0446D3
:10341000074801F019FA0146064B074A2046FFF714
:10342000F9F84FF00050FFF733F900BF98BD00BF27
:1034300008C90020E5330000EC150100F0B585B0A7
:1034400002AF00237B6036E01F497A6813469B0079
:1034500013449B000B4418681B497A6813469B0071
:1034600013449B000B4404331C6817497A681346C5
:103470009B0013449B000B4408331B781D461249E4
:103480007A6813469B0013449B000B440C331B6863
:103490001E460D497A6813469B0013449B000B445B
:1034A00010331B68009333462A46214600F0B2F8D9
:1034B0007B6801337B60054B1B687A689A42C3D3F3
:1034C00000BF0C37BD46F0BD28890020A88B002026
:1034D00090B585B000AF01F0ACF9F860F868FCF782
:1034E000CDFEC7E90001D7E900341846214614375C
:1034F000BD4690BD80B582B000AF78607868FFF7B8
:103500003BFD00BF0837BD4680BD80B582B000AF2F
:10351000786004217868FFF773FD7868FFF72CFD69
:1035200000BF0837BD4680BD80B582B000AF78606F
:103530007868FFF7DDFC00BF0837BD4680BD80B569
:1035400082B000AF786004217868FFF759FD00BFB2
:103550000837BD4680BD000080B586B002AFF86078
:10356000B9603B601346FB71274B1B681F2B03D9C7
:103570002648FFF7DBFE43E0234B1A682449134635
:103580009B0013449B000B44FA681A601E4B1A6898
:103590001F4913469B0013449B000B440433BA6835
:1035A0001A60194B1A681A4913469B0013449B0072
:1035B0000B440833FA791A70134B1A6814491346EE
:1035C0009B0013449B000B440C333A681A600E4B6B
:1035D0001A680F4913469B0013449B000B44103399
:1035E000BA691A60084B1B680133074A1360FA79FD
:1035F0003968BB6900930B46B968F86800F00AF8AF
:103600001037BD4680BD00BFA88B002048150100C3
:103610002889002080B58AB000AFF860B9607A6070
:103620003B6007F114031422002118460DF021F924
:10363000FB687B61BB68BB617B68FB613B683B628D
:103640003B6B7B6207F114031846FFF761FA00BF7A
:103650002837BD4680BD000080B584B000AFF8605B
:10366000B9607A607968B868FFF72AFDB868FFF733
:103670006FFD03461946F868FFF738F8174B1B68CB
:10368000FF2B03D91648FFF751FE24E0134B1A68AD
:10369000144913465B0013449B000B44BA681A603C
:1036A0000E4B1A680F4913465B0013449B000B44F2
:1036B00004337A681A60094B1A680A4913465B009A
:1036C00013449B000B44083300221A60034B1B6811
:1036D0000133024A13601037BD4680BDAC9700200D
:1036E00098150100AC8B002080B582B000AF00239C
:1036F0007B602BE01A497A6813465B0013449B00F9
:103700000B4408331B68002B1DD115497A681346FA
:103710005B0013449B000B44186811497A681346F8
:103720005B0013449B000B4404331B681946FFF7EE
:10373000C7FC0B497A6813465B0013449B000B449B
:10374000083301221A607B6801337B60054B1B68DC
:103750007A689A42CED300BF0837BD4680BD00BF0D
:10376000AC8B0020AC97002080B483B000AF7860B1
:103770007B6800221A6000BF0C37BD465DF8047BF1
:103780007047000080B582B000AF7860144B012212
:103790001A707B68002B01D101F048F87B68002289
:1037A0001A70104B1A687B685A600F4B1A687B6856
:1037B0009A607B680D4ADA607B68B7221A617B6881
:1037C0000B4A5A6100F006FA00F0FCF9786800F044
:1037D00081FF7B681B78002B0837BD4680BD00BF8A
:1037E000B0970020743B0100C03D0100F4150100BA
:1037F0001816010080B400AF034B1B681846BD4685
:103800005DF8047B704700BFB497002080B485B09A
:1038100000AF03460A46FB711346BB710023FB73DE
:10382000FB79162B63D801A252F823F089380000E7
:103830008F3800009538000095380000953800005A
:103840009B380000A1380000A1380000A13800001A
:10385000A7380000AD380000B3380000B9380000C8
:10386000BF380000BF380000BF380000D13800006A
:10387000D7380000DD380000E3380000C53800000C
:10388000CB380000E93800000123FB7330E001234E
:10389000FB732DE00123FB732AE00123FB7327E078
:1038A0000123FB7324E00123FB7321E00123FB735D
:1038B0001EE00123FB731BE00123FB7318E00123CF
:1038C000FB7315E00123FB7312E00123FB730FE090
:1038D0000123FB730CE00123FB7309E00123FB735D
:1038E00006E00123FB7303E00123FB7300E000BF4C
:1038F000FB7B18461437BD465DF8047B704700BF5C
:1039000080B58EB000AFF860B9607A600023FB62CA
:103910007B68002B01D100F089FF274B1B68002B2F
:1039200008D1786800F056F87B681B78002B01D02E
:10393000FB6A3DE0204B1B687968184600F058FA96
:1039400038637B681B78002B01D0FB6A30E03B6B4F
:103950007A68F968184606F08FFC7B681B78002BA4
:1039600017D1BB68002B09D0BB681B7803F001039B
:10397000002B03D0012387F8373002E0002387F8BB
:1039800037303B6B97F8372083F834203B6BFB6272
:103990000DE0094B1B68184607F114031A46396BF2
:1039A00000F02CFB3B7D002B01D000F03FFFFB6AB9
:1039B00018463837BD4680BDB897002080B400AFA8
:1039C000034B1B681846BD465DF8047B704700BF7B
:1039D0000098002080B588B004AF78607B68002B29
:1039E00001D100F023FF7B6800221A705E4B1A6839
:1039F0007B685A605D4B1A687B689A607B685C4A9A
:103A0000DA607B6840F6B5021A617B68594A5A61F0
:103A1000786804F049FD7B681B78002B03D0786838
:103A200004F0D2FD9DE0544B1B68002B40F09580C4
:103A3000FFF7E0FEF8607B68B422F9684F4800F0B9
:103A40005DF902464C4B1A607B681B78002B03D053
:103A5000786804F0B9FD84E0474B1B6819467B6821
:103A600003934FF0FF330293002301930423009349
:103A70003823FA68424800F069F97B681B78002B0C
:103A800003D0786804F0A0FD6BE03B4B1B6803F1AA
:103A900024017B6803934FF0FF33029300230193CB
:103AA000042300932C23FA68364800F04FF97B6812
:103AB0001B78002B03D0786804F086FD51E02E4B74
:103AC0001B6803F16C017B6803934FF0FF33029393
:103AD00000230193042300933823FA682A4800F056
:103AE00035F97B681B78002B03D0786804F06CFDF7
:103AF00037E0214B1B6803F190017B6803934FF083
:103B0000FF33029300230193042300930123FA68F7
:103B10001E4800F01BF97B681B78002B03D07868E7
:103B200004F052FD1DE0144B1B6803F148017B6853
:103B300003934FF0FF330293002301930423009378
:103B40002423FA68124800F001F97B681B78002BE7
:103B500003D0786804F038FD03E0786804F034FDA1
:103B600000BF1037BD4680BD743B0100C03D010061
:103B700024160100D4160100B89700206C1601002D
:103B80008016010090160100A0160100B016010079
:103B9000C416010080B584B000AF786002F098FCD4
:103BA000F86000F0EBFE064A7B68136000F006FF49
:103BB000F86802F09DFC00BF1037BD4680BD00BF15
:103BC000BC97002080B500AF0120FFF7E3FF00BFE6
:103BD00080BD000080B586B000AF3B461946064860
:103BE00000F00CF83B78002B01D000F01FFE00BF66
:103BF0001837BD4680BD00BF3000002080B584B0BE
:103C000000AF786039603B68002B01D100F00EFEF8
:103C10007B68002B15D13B680A221A70324B9A6AD6
:103C20003B685A60314B9A6A3B689A603B68304AFD
:103C3000DA603B6840F2B7221A613B682D4A5A614C
:103C4000FEE702F045FCB86000F098FE2A4B1B68C6
:103C5000FB6021E0FA687B689A421AD100F0AEFE60
:103C6000B86802F045FC3B6815221A701E4B5A6D6D
:103C70003B685A601D4B5A6D3B689A603B681C4A12
:103C8000DA603B6840F2BE221A613B68194A5A6109
:103C900026E0FB68DB68FB60FB68002BDAD1164B83
:103CA0001A687B68DA60144A7B68136000F086FE4D
:103CB000B86802F01DFC3B6800221A700A4B1A68B3
:103CC0003B685A60094B1A683B689A603B68084A2F
:103CD000DA603B6840F2C9221A613B68054A5A61C2
:103CE0001037BD4680BD00BF743B0100C03D0100E0
:103CF000E01601000017010020C9002080B58AB03D
:103D000004AFF860B9607A603B60BB687B613B6878
:103D1000002B01D100F08AFD7B69002B01D10A4BF9
:103D20007B613B68029300230193012300930423EA
:103D30007A687969F86800F00BFA38613B691846CF
:103D40001837BD4680BD00BF3000002080B58AB066
:103D500004AFF860B9607A603B607B687B61FB6AA6
:103D6000002B01D100F062FDBB68002B15D1FB6A6E
:103D70000A221A70194B9A6AFB6A5A60184B9A6A9F
:103D8000FB6A9A60FB6A174ADA60FB6A40F21242E9
:103D90001A61FB6A144A5A61FEE77B69002B01D164
:103DA000124B7B61BB6800221A70BB680022DA618B
:103DB000BB6800221A62FB6A0393BB6A02937B6AA8
:103DC00001933B6A00933B687A69B968F86800F030
:103DD000D9FA00BF1837BD4680BD00BF743B010053
:103DE000C03D0100E01601000C170100300000206A
:103DF00090B58BB004AF786039603B68002B01D17F
:103E000000F014FD7B68002B15D13B680A221A7064
:103E1000764B9A6A3B685A60754B9A6A3B689A601F
:103E20003B68744ADA603B6840F2D5421A613B68ED
:103E3000714A5A61FEE702F04BFB786100F09EFD8B
:103E40007B685B69B3F1FF3F21D07B689A697B682F
:103E50005B699A421BD300F0B1FD786902F048FB20
:103E60003B6818221A70614B1A6E3B685A60604BAF
:103E70001A6E3B689A603B685E4ADA603B684FF4B2
:103E80009C621A613B685C4A5A610023A9E07B6826
:103E90009B695A1C7B689A617B681B69002B2FD039
:103EA0007B681B69FB607B681B7803F00203002BB7
:103EB00002D1FB681B6805E07B689B68043BFA68DD
:103EC00013441B687A68136100F078FD786902F08A
:103ED0000FFB3B6800221A70444B1A683B685A601B
:103EE000434B1A683B689A603B68424ADA603B6819
:103EF00040F2EF421A613B683F4A5A61FB6870E04A
:103F000000F05CFD786902F0F3FA00233B617B6806
:103F100059687B6898687B68DC687B681B7803F06D
:103F20000103002B03D07B685B681B6900E0012361
:103F30003A680292002201920093234602463869B1
:103F400000F006F9F8603B681B78002B10D002F0F7
:103F5000BFFA786100F012FD7B689B695A1E7B688E
:103F60009A6100F02BFD786902F0C2FA002338E074
:103F70007B68DB69002B33D07B68DC697B68596820
:103F80007B681B6AFA687868A0470346FB72FB7A75
:103F9000012B25D002F09CFA786100F0EFFC7B68E1
:103FA0009B695A1E7B689A6100F008FD786902F0EF
:103FB0009FFA3B681A221A700C4B9A6E3B685A6043
:103FC0000B4B9A6E3B689A603B680A4ADA603B6822
:103FD00040F219521A613B68074A5A61002300E017
:103FE000FB6818461C37BD4690BD00BF743B0100FE
:103FF000C03D0100E01601002017010080B586B029
:1040000000AFF860B9607A607B68002B01D100F0E6
:104010000DFCFB68002B15D17B680A221A70484BF7
:104020009A6A7B685A60474B9A6A7B689A607B6899
:10403000454ADA607B6840F23B521A617B68434A2A
:104040005A61FEE7BB68002B15D17B680A221A7003
:104050003B4B9A6A7B685A603A4B9A6A7B689A60D3
:104060007B68394ADA607B6840F23C521A617B68AF
:10407000364A5A61FEE702F02BFA786100F07EFCC6
:10408000FB689B69002B1AD100F098FC786902F05C
:104090002FFA7B6817221A70294BDA6D7B685A60F9
:1040A000284BDA6D7B689A607B68274ADA607B6808
:1040B00040F245521A617B68244A5A613DE0FB6830
:1040C0009B695A1EFB689A6100F078FC786902F0DF
:1040D0000FFAFB681B7803F00203002B05D0FB6886
:1040E0009B68043BBA68134400E0BB683B6102F084
:1040F000EFF9786100F042FCFB681A693B691A60CD
:10410000FB68BA681A6100F059FC786902F0F0F9AE
:104110007B6800221A700A4B1A687B685A60094B48
:104120001A687B689A607B68074ADA607B6840F2AD
:1041300055521A617B68054A5A611837BD4680BDE1
:10414000743B0100C03D0100E0160100341701007E
:1041500080B588B002AFF860B9607A603B607B6878
:10416000002B15D1BB6A08221A703A4B1A6ABB6A37
:104170005A60394B1A6ABB6A9A60BB6A374ADA607E
:10418000BB6A40F2C6621A61BB6A354A5A61FEE7F1
:104190003B68002B05D03B685A1E3B681340002B40
:1041A00002D03B68002B01D1012300E00023002B4B
:1041B00015D1BB6A08221A70264B1A6ABB6A5A606C
:1041C000254B1A6ABB6A9A60BB6A244ADA60BB6AEA
:1041D00040F2CA621A61BB6A214A5A61FEE702F0E4
:1041E00077F9786100F0CAFBBB6A01937B6A0093A0
:1041F0003B6A3A687968B86800F034F83861BB6A9D
:104200001B78002B1BD000F0D9FB786902F070F905
:10421000BB6A16221A700F4B9A6DBB6A5A600E4B1E
:104220009A6DBB6A9A60BB6A0C4ADA60BB6A40F25C
:10423000D5621A61BB6A0A4A5A61002305E000F0A0
:10424000BDFB786902F054F93B6918461837BD4642
:1042500080BD00BF743B0100C03D0100E0160100BD
:104260004817010080B48BB000AFF860B9607A6085
:104270003B607B68002B01D07B6800E004233A6838
:10428000934238BF13467B62FB689B681A467B6A81
:104290005B421A40FB689B6819467B6A013B0B40F6
:1042A000002B01D07B6A00E0002313443B623A6A92
:1042B000BB681A443B685B421A40396ABB681944C0
:1042C0003B68013B0B40002B01D03B6800E0002322
:1042D0001344FB61FB685B681A46FB689B68D31A52
:1042E0000133BB61FB689B681A46FB699B1A7B61C3
:1042F000BA697B699A421ED23B6B002B04D07A6963
:10430000BB69D21A3B6B1A607B6B16221A70194B71
:104310009A6D7B6B5A60184B9A6D7B6B9A607B6BC6
:10432000164ADA607B6B4FF4E4621A617B6B144AC5
:104330005A61002318E0FA69FB689A607B6B0022DF
:104340001A700C4B1A687B6B5A600B4B1A687B6BAC
:104350009A607B6B094ADA607B6B40F226721A61C5
:104360007B6B074A5A613B6A18462C37BD465DF89D
:10437000047B7047743B0100C03D0100E016010062
:104380006017010090B593B004AFF860B9607A602F
:104390003B603B68002B15D17B6D08221A70924B55
:1043A0001A6A7B6D5A60914B1A6A7B6D9A607B6DBD
:1043B0008F4ADA607B6D40F291721A617B6D8D4A93
:1043C0005A61FEE73B6DB3F1FF3F03D0FA6C3B6DE2
:1043D0009A4201D8012300E00023002B15D17B6D08
:1043E00008221A70804B1A6A7B6D5A607F4B1A6ADA
:1043F0007B6D9A607B6D7E4ADA607B6D40F29572D0
:104400001A617B6D7B4A5A61FEE7BB6C002B08D0BA
:10441000BB6C5A1EBB6C1340002B02D1BB6C032B30
:1044200002D8BB6C002B01D1012300E00023002B3C
:1044300015D17B6D08221A706B4B1A6A7B6D5A601E
:104440006A4B1A6A7B6D9A607B6D694ADA607B6D94
:1044500040F29A721A617B6D664A5A61FEE7BB6C44
:10446000002B01D0BB6C00E00423FB61BB681B7810
:1044700003F00203002B10D03B6823F003033A68DB
:1044800002F00302002A01D1002200E004221344BA
:104490003B633B6B04333B6304E03B68042B38BF56
:1044A00004233B63FB6C002B00F0DF80BB681B78B0
:1044B00003F00103002B02D1FB69BB6206E07B68BD
:1044C0001B69FA69934238BF1346BB62BB6A5A4202
:1044D0003B6B1A40BB6A591E3B6B0B40002B01D053
:1044E000BB6A00E000231344BB61BB69FA6C02FBAA
:1044F00003F37B623A6BBB69D31A7A6A13447B621B
:10450000BB681B7803F00103002B11D07B681B698B
:104510005A427B6A1A407B681B69591E7B6A0B40B2
:10452000002B02D07B681B6900E0002313447B62F0
:104530007B6D02930023019301230093BB6A7A6A87
:104540007968F868FFF704FE78637B6D1B78002BB1
:1045500040F0B380BB687A6B1A61BB681B7803F0CC
:104560000203002B02D17B6B3B620EE03B6823F021
:1045700003033A6802F00302002A01D1002200E09E
:10458000042213447A6B13443B620123FB623EE036
:104590003B6A796BBA690A441A60BB68DB69002B15
:1045A0002AD0BB68DC69BB681B6A7A6B7968B8681B
:1045B000A0470346BB75BB7D012B1DD07B6D1A2226
:1045C0001A70094B9A6E7B6D5A60084B9A6E7B6D20
:1045D0009A607B6D064ADA607B6D40F2D7721A6191
:1045E0007B6D044A5A6169E0743B0100C03D0100E3
:1045F000E0160100781701003A6ABB6913443B6278
:104600007A6BBB6913447B63FB6A0133FB62FA6A12
:10461000FB6C9A42BCD33B6A00221A60BB68DB6920
:10462000002B25D0BB68DC69BB681B6A7A6B796894
:10463000B868A0470346FB75FB7D012B18D07B6D46
:104640001A221A701F4B9A6E7B6D5A601E4B9A6E1F
:104650007B6D9A607B6D1D4ADA607B6D40F2E7727C
:104660001A617B6D1A4A5A6128E0BB6800221A6100
:10467000BB687A685A60BB683A6B9A60BB68FA6933
:10468000DA60BB683A6D5A61BB6800229A617B6D43
:1046900000221A700B4B1A687B6D5A600A4B1A681D
:1046A0007B6D9A607B6D094ADA607B6D40F2FA722D
:1046B0001A617B6D064A5A6100E000BF3C37BD4677
:1046C00090BD00BF743B0100C03D0100E016010039
:1046D0007817010090B589B004AF78607B68002B33
:1046E00001D100F0A3F87B6800221A70424B1A68CF
:1046F0007B685A60414B1A687B689A607B68404AC5
:10470000DA607B68C4221A617B683E4A5A613E4B7C
:104710005B68002B6DD000210220FFF777F803467D
:10472000FB7300210320FFF771F803461A46FB7B59
:104730001340FB7300210420FFF768F803461A4674
:10474000FB7B1340FB73FB7B012B14D07B680622A1
:104750001A70294B9A697B685A60284B9A697B6862
:104760009A607B68264ADA607B68CA221A617B6895
:10477000244A5A61FEE7FFF73DF8B8607B682C22B7
:10478000B9682248FFF7BAFA0246214B1A607B68E3
:104790001B78002B28D11E4B1B68181D1A4B1B6859
:1047A000194A526879680391029201930423009395
:1047B0000823BA6801461748FFF7C8FA7B681B78D8
:1047C000002B13D1124B1C687A6800211248FFF7A6
:1047D00097F8A0627B681B78002B09D10C4B1B68F3
:1047E0001846FEF7C1FF04E000BF02E000BF00E092
:1047F00000BF1437BD4690BD743B0100C03D0100B1
:10480000941701001418010044000020C41701008F
:10481000C0970020D8170100F017010080B500AF45
:1048200000F002F900F00CF900BF80BD80B400AFC9
:10483000FEE780B582B000AFFBF710FD78607B68C3
:1048400018460837BD4680BD80B584B000AF78609B
:104850007B68002B01D1FFF7E9FF184B1B68FB6059
:10486000FB68002B01D0002200E009227B681A704F
:10487000FB68002B01D0002300E00923104A52F806
:1048800023207B685A60FB68002B01D0002300E0E6
:1048900009230C4A52F823207B689A607B680A4AF5
:1048A000DA607B684FF4FE721A617B68074A5A61CE
:1048B000FB6818461037BD4680BD00BF28E90020C0
:1048C000743B0100C03D01000C4001002840010084
:1048D00080B483B000AF7860044A7B68136000BF87
:1048E0000C37BD465DF8047B704700BF28E9002007
:1048F00080B582B000AF00F011F8786001F0E8FDFB
:104900003860054B00221A60386801F0F1FD7B68C1
:1049100018460837BD4680BD38E9002080B584B010
:1049200000AF01F0D5FDF860074B1B68BB60F8686D
:1049300001F0DEFDB86800F0D3F878607B681846B7
:104940001037BD4680BD00BF38E9002080B584B077
:1049500000AF01F0BDFDF860074B1B68BB60F86855
:1049600001F0C6FDB86800F0BBF878607B681846B7
:104970001037BD4680BD00BF24E9002080B500AFE0
:104980000B4B1B8801339AB2094B1A80094B1B88C9
:10499000002B04D1FBF762FC0246074B1A60054B63
:1049A0001B8801339AB2034B1A8000BF80BD00BF41
:1049B0003CE9002030E900202CE9002080B582B0DD
:1049C00000AF144B1B88013B9AB2124B1A80114B5B
:1049D0001B88002B1AD1FBF741FC02460E4B1A60D4
:1049E0000D4B1A680D4B1B68D31A7B600C4B1B6870
:1049F0007A689A4202D90A4A7B681360094B1B689D
:104A00007A689A4202D9074A7B68136000BF083768
:104A1000BD4680BD30E9002034E900202CE90020AB
:104A200038E9002024E9002080B500AF034B0022C4
:104A30001A60FBF7F1FB00BF80BD00BF28E9002032
:104A400080B584B000AF1F4B00221A801E4B00229D
:104A50001A801E4B00221A601D4B00221A601D4B4B
:104A600000221A601C4B00221A601C4B00221A60A4
:104A70000023FB6001F02CFD786000237B810EE0B9
:104A8000144B00221A60FFF779FFFFF797FF114BD5
:104A90001B68FA681344FB607B8901337B817B8947
:104AA000002BEDD00D4AFB6813600A4B00221A6000
:104AB000094B00221A60786801F01AFD00BF103718
:104AC000BD4680BD3CE9002030E900202CE90020F3
:104AD00034E9002038E9002024E9002040E90020E2
:104AE00080B485B000AF78607B68FB60094B1B68C1
:104AF000FA689A4205D9074B1B68FA68D31AFB601B
:104B000001E00023FB60FB6818461437BD465DF8E2
:104B1000047B704740E9002080B487B000AFF860A4
:104B2000B9607A60FB6803F10473DA00BB68134470
:104B30009B007B617B697A681A6000BF1C37BD46A9
:104B40005DF8047B704780B485B000AF7860396051
:104B50007B6803F1C063FB60FB683A681A6000BFC2
:104B60001437BD465DF8047B704780B485B000AF54
:104B7000786039607B6803F18063FB60FB683A68AA
:104B80001A6000BF1437BD465DF8047B704780B5DE
:104B900084B000AFF860B9607A60B968F868FFF770
:104BA000E4FF7968F868FFF7CEFF00BF1037BD4615
:104BB00080BD000080B582B000AF786039607B684E
:104BC000B3F1804F07D07B68274A934203D0A821D6
:104BD000264800F0AFF83B681B693F2B03D9BC2186
:104BE000224800F0A7F83B68DB683F2B03D9BD21C2
:104BF0001E4800F09FF83B685B683F2B03D9BF213C
:104C00001A4800F097F83B681B78DB071A463B68A8
:104C10005B681B06134343F400427B681A603B68E1
:104C2000DB681B043A68127A1A437B689A623B6815
:104C30001B691B043A68527A1A437B68DA623B6844
:104C40009B7A1B0743F0806343F47D437A6853608B
:104C500078683B681B7D1A460021FFF75DFF00BFA7
:104C60000837BD4680BD00BF000400403C40010045
:104C700080B582B000AF78600B46FB707B68B3F103
:104C8000804F07D07B68094A934203D0FB21084834
:104C900000F050F87B680433FA78FF211846FFF7DC
:104CA00076FF00BF0837BD4680BD00BF000400404E
:104CB0003C40010080B582B000AF78607B68B3F102
:104CC000804F08D07B68094A934204D040F22111FA
:104CD000074800F02FF87B681B6823F001027B680F
:104CE0001A6000BF0837BD4680BD00BF0004004009
:104CF0003C40010080B582B000AF78607B68B3F1C2
:104D0000804F08D07B68094A934204D04FF49A71CF
:104D1000074800F00FF87B681B6843F001027B68CE
:104D20001A6000BF0837BD4680BD00BF00040040C8
:104D30003C40010080B483B000AF78603960FEE78A
:104D400080B487B000AFF860B9607A60FB6803F1A7
:104D50000473DA00BB6813449B007B617B697A684B
:104D60001A6000BF1C37BD465DF8047B704780B4F5
:104D700085B000AF786039607B6803F10473DA00B6
:104D80003B6813449B00FB60FB681B6818461437A4
:104D9000BD465DF8047B704780B582B000AF786097
:104DA0007B681F2B04D94FF496710548FFF7C2FFAB
:104DB00001227B6802FA03F318460837BD4680BD1E
:104DC0005040010080B582B000AF78607868FFF78E
:104DD000E3FF034618460837BD4680BD80B584B062
:104DE00000AF78607B68B3F5004F04D340F686319E
:104DF0000E48FFF79FFF7B680133B3FA83F3DBB202
:104E0000C3F11F03FB60F868FFF7C6FF0346013BD1
:104E10007A689A4204D040F68C310448FFF78AFF42
:104E2000FB6818461037BD4680BD00BFCC4001006E
:104E300080B500AF00BF12210348FFF798FF03467B
:104E4000002BF8D100BF80BD04300E4080B500AF0C
:104E5000FFF7EEFF034B5B681B0C03F00303DBB2B1
:104E6000184680BD00300E4080B584B000AF786039
:104E70000123FB607B68124A934204D80023FB6045
:104E80000023BB6008E07B680E4A934202D80123EE
:104E9000BB6001E00223BB60FA6810210A48FFF7FB
:104EA0004FFF094BD3F8003123F08072BB681B061B
:104EB00005491343C1F8003100BF1037BD4680BD1E
:104EC0000048E8010090D00300400E4080B483B059
:104ED00000AF054B1B687B607B6818460C37BD46EE
:104EE0005DF8047B704700BF4C00002080B582B0A5
:104EF00000AFFBF7ABFA7860064BD3F800311B0A22
:104F000003F01F0301337A6802FB03F318460837E6
:104F1000BD4680BD00400E4080B582B000AF0F4856
:104F200000F0ECFD0346FB70FB78072B05D0092B46
:104F300007D1FBF78BFA78600BE0FFF7C7FF7860CB
:104F400007E000237B6040F69A210548FFF7F2FE58
:104F500000BF7B6818460837BD4680BD06000E00BE
:104F60004441010080B584B000AF78607B68002BBD
:104F70001CD1204800F0C2FD0346FB7200BFFB7A43
:104F8000013B072B28D801A252F823F0BB4F0000A9
:104F9000D94F0000D94F0000C94F0000D94F000081
:104FA000D94F0000C14F0000D14F000040F6BA2198
:104FB0001148FFF7BFFE002317E00023FB6013E05A
:104FC000FFF784FFF8600FE0FBF778FAF8600BE07A
:104FD000FFF78CFFF86007E00023FB6040F6D1216B
:104FE0000548FFF7A7FE00BFFB6818461037BD460F
:104FF00080BD00BFB80032004441010080B584B0DC
:1050000000AF78603960204B5B6803F04073FB6051
:105010000023BB6012E01D4ABB68DB0013441A7911
:105020003B68DBB29A4206D1184ABB6852F833306B
:105030007A689A4206D9BB680133BB60BB68042B0F
:10504000E9D900E000BFBB68052B07D10323FB6053
:1050500040F6D8310E48FFF76DFE05E00B4ABB68FD
:10506000DB0013445B79FB60FB681B06FB60064BAF
:105070005B6823F040720449FB6813434B6000BF38
:105080001037BD4680BD00BF00000E4058410100F2
:105090004441010080B582B000AF0E4B1B6C002B69
:1050A00014BF01230023FB710A4B41F671321A64CD
:1050B000FBF7C2F9034600211846FFF79FFFFB7973
:1050C000002B02D0034B00221A6400BF0837BD46F4
:1050D00080BD00BF00000E4080B584B000AF786096
:1050E00039600C4B1B6C002B14BF01230023FB7396
:1050F000084B41F671321A6439687868FFF77EFF11
:10510000FB7B002B02D0034B00221A6400BF103738
:10511000BD4680BD00000E4080B487B000AF78600F
:105120000F237B617B6803333B617B69FB60FA681B
:105130003B69934228BF1346BB60BB681B07BB603B
:10514000BB6818461C37BD465DF8047B70470000FD
:1051500080B400AF044B5B6A1B0903F003031846DD
:10516000BD465DF8047B704700400E4080B483B0BC
:1051700000AF7860074B5B6A23F030027B681B014D
:10518000044913434B6200BF0C37BD465DF8047BF6
:10519000704700BF00400E4090B585B000AF78600A
:1051A0000023BB607B683C4A93420BD03B4A93424E
:1051B00008D03B4A934205D040F6C9413948FFF731
:1051C000B9FD00E000BF786800F098FC0346FB6082
:1051D0007B68314A93420CD0304A934210D0304A17
:1051E000934214D1304BD3F8803003F00703FB60B7
:1051F00013E02D4BD3F8843003F00703FB600CE081
:10520000294BD3F8883003F00703FB6005E040F634
:10521000F8412448FFF78EFD00BFFB68042B2ED811
:1052200001A252F823F000BF795200003D52000065
:1052300045520000555200004D520000FBF760F946
:10524000B86024E0FBF76EF9B86020E0FBF761F985
:10525000B8601CE0FBF7D0F80446134BD3F80031DC
:105260001B0E03F0010301331846FFF7ABFD0346A5
:10527000B4FBF3F3BB600AE00023BB6007E000234C
:10528000BB6040F64A510748FFF754FD00BFBB68BA
:1052900018461437BD4690BD0300200005002400C9
:1052A00002001E004441010000400E4080B483B063
:1052B00000AF78600A4BD3F8443103F00103002BB0
:1052C00008D100BF064BD3F840217B681340002B68
:1052D000F8D100E000BF0C37BD465DF8047B704795
:1052E00000400E4080B400AF00BFBD465DF8047BB7
:1052F000704780B400AF00BFBD465DF8047B7047C7
:1053000080B582B000AF7860786800F08DF9034610
:10531000013318460837BD4680BD80B582B000AF66
:10532000786039603B68013B1946786800F054FAB0
:1053300000BF0837BD4680BD80B586B000AF78603D
:105340000B46FB7000233B617B681B0A03F00F03D5
:10535000013B092B32D801A252F823F085530000FB
:1053600091530000BD530000BD5300008B5300005B
:1053700097530000A1530000BD530000AB53000041
:10538000B75300001A4B7B611EE01A4B7B611BE098
:10539000194B7B6118E0194B7B6101233B6113E0E2
:1053A000174B7B6110233B610EE0164B7B614FF482
:1053B00080333B6108E0144B7B6105E041F23C1116
:1053C0001248FFF7B7FC10E07B681B0B03F01F03CC
:1053D000FB603B69002B02D03869FFF767FFFB7861
:1053E0001A46F9687869FFF7ABFC1837BD4680BDEF
:1053F00000400E40B0400E40C0400E40E0400E4025
:10540000E8400E40F0400E4050410E404441010043
:1054100080B584B000AF78607B6803F47813B3F58F
:10542000A01F7DD0B3F5A01F1AD8B3F5202F50D000
:10543000B3F5202F08D8B3F5003F4ED0B3F5802F39
:1054400038D0002B32D0D8E0B3F5602F00F0C88000
:10545000B3F5801F00F0C880B3F5402F4CD0CCE0EE
:10546000B3F5001F00F08B80B3F5001F0AD8B3F529
:10547000D01F00F08980B3F5F01F4CD0B3F5B01FFA
:105480005CD0BAE0B3F5381F6AD0B3F5381F04D842
:10549000B3F5101F00F09F80AFE0B3F5401F00F0A0
:1054A0008680B3F5481F00F0A380A6E0FAF7CEFF90
:1054B000F860AAE0FAF7CAFFF860564BD3F80C314F
:1054C0001B0AC3F308030133FA68B2FBF3F3FB6072
:1054D0009BE0FAF7BBFFF86097E0FAF7B7FFF860D8
:1054E0004C4BD3F808311B0AC3F308030133FA68A5
:1054F000B2FBF3F3FB6088E0FAF7A8FFF860454BD6
:10550000D3F814311B0A03F01F030133FA68B2FB0E
:10551000F3F3FB6079E04048FFF73EFEF86074E08B
:105520003E48FFF739FEF8603A4BD3F8303103F0CC
:105530000303FA6822FA03F3FB6066E03648FFF7DC
:105540002BFEF860334BD3F8203103F00F031846DD
:10555000FFF738FC0246FB68B3FBF2F3FB6054E054
:105560002D48FFF719FEF8602A4BD3F820311B09AC
:1055700003F00303FA6822FA03F3FB6045E02848CE
:10558000FFF70AFEF86040E02548FFF705FEF860E7
:10559000204BD3F828311B0903F003031846FFF70B
:1055A00011FC0246FB68B3FBF2F3FB602DE01C48E4
:1055B000FFF7F2FDF860174BD3F828311B0A03F010
:1055C000030304331846FFF7FDFB0246FB68B3FBF9
:1055D000F2F3FB6019E01148FFF7DEFDF86014E01C
:1055E000FFF79AFCF86010E0FFF770FCF8600CE041
:1055F0000020FFF7B7FCF86007E00023FB6041F2F2
:1056000062210848FFF796FB00BFFB681846103779
:10561000BD4680BD00400E4002001E000500240073
:10562000030020004441010080B584B000AF7860E1
:105630007B681B0903F00F03BB60BB68013B092BB0
:1056400000F2AF8001A252F823F000BF75560000AF
:105650008556000095560000A5560000A35700008F
:10566000A3570000B5560000C55600001D570000A6
:105670007B570000514BD3F800311B0A03F01F0386
:10568000FB6096E04D4BD3F814311B0A03F01F0367
:10569000FB608EE0494BD3F800311B0E03F0010391
:1056A000FB6086E0454BD3F80C311B0AC3F30803BB
:1056B000FB607EE0414BD3F808311B0AC3F30803BB
:1056C000FB6076E07B683E4A934203D03D4A9342BA
:1056D0000DD01AE0394BD3F8203103F00F03FB60F3
:1056E000F868FFF76FFB0346013BFB6015E0334BA7
:1056F000D3F820311B0903F00303FB60F868FFF7C0
:1057000061FB0346013BFB6007E00023FB6041F2C5
:10571000D5212D48FFF70EFB00BF4AE07B682B4ADE
:10572000934203D02A4A93420ED01DE0234BD3F874
:1057300028311B0903F00303FB60F868FFF742FB05
:105740000346013BFB6017E01C4BD3F828311B0AD2
:1057500003F00303FB60FB6804331846FFF732FBDA
:105760000346013BFB6007E00023FB6041F2F921A7
:105770001548FFF7DFFA00BF1BE07B68154A93422C
:1057800006D10E4BD3F8303103F00303FB6007E082
:105790000023FB6041F208310B48FFF7CBFA00BF52
:1057A00007E00023FB6041F22D310748FFF7C2FA02
:1057B00000BFFB6818461037BD4680BD00400E4054
:1057C0008006160080162E004441010090171A0032
:1057D00090273000A009140080B584B000AF786035
:1057E00039607B681B0903F00F03FB60FB68013B1A
:1057F000092B00F2678101A252F823F0255800001E
:1058000081580000C55A0000A9580000C55A000080
:10581000C55A0000D758000031590000ED5900006A
:10582000815A00003B681F2B04D941F25531AA4828
:10583000FFF780FAFFF72EFCA848FFF715FBFFF7EC
:1058400051FDA74BD3F8003123F4F8523B681B02FB
:10585000A3491343C1F80031FAF7CEFDB860FFF752
:10586000F5FA03461946B868FFF736FC9D48FFF77E
:10587000CFFD03461846FFF7F7FAFFF73AFD27E199
:105880003B681F2B04D941F26B319348FFF752FA62
:10589000934BD3F8143123F4F8523B681B02904920
:1058A0001343C1F8143113E13B68B3F5007F04D30F
:1058B00041F272318848FFF73DFA894BD3F80C3139
:1058C00023F4FF3323F480733A68120284491343AC
:1058D000C1F80C31FCE03B68B3F5007F04D341F222
:1058E00088317D48FFF726FAFFF7D4FB7B48FFF7A6
:1058F000BBFA7B4BD3F8083123F4FF3323F48073D6
:105900003A68120276491343C1F80831FAF774FD78
:10591000B860FFF79BFA03461946B868FFF7DCFB4F
:105920007048FFF775FD03461846FFF79DFACFE074
:105930007B686D4A93421CD06C4A934234D06C4AC7
:1059400093424CD13B68022B04D941F2AD316248FD
:10595000FFF7F0F94FF48020FFF7A8FC604BD3F875
:10596000303123F003025E493B681343C1F8303104
:105970003BE03B68B3F5004F04D941F2CA315648C9
:10598000FFF7D8F93868FFF729FA38600420FFF7E5
:105990008DFC534BD3F8203123F00F0250493B6864
:1059A0001343C1F8203120E03B68082B04D941F2B1
:1059B000E8314948FFF7BEF93868FFF70FFA386059
:1059C0000420FFF773FC464BD3F8203123F030025C
:1059D0003B681B0142491343C1F8203105E041F205
:1059E00006413D48FFF7A6F900BF71E07B68414AD8
:1059F000934203D0404A93421BD03AE03B68082BC5
:105A000004D941F20F413448FFF794F93868FFF7A1
:105A1000E5F938604020FFF749FC314BD3F82831D5
:105A200023F030023B681B012D491343C1F8283194
:105A300025E03B687F2B02D83B680E2B04D841F24F
:105A40002D412548FFF776F93868FFF7C7F9034677
:105A5000043B3B604020FFF729FC214BD3F8283161
:105A600023F440723B681B021D491343C1F82831DF
:105A700005E041F23C411848FFF75CF900BF27E020
:105A80007B681B4A934216D13B68022B04D941F232
:105A900046411148FFF74EF94FF48020FFF706FC0E
:105AA0000F4BD3F8303123F003020D493B68134309
:105AB000C1F8303105E041F256410748FFF73AF9A5
:105AC00000BF05E041F27E410348FFF733F900BF14
:105AD00000BF1037BD4680BD444101000148E801C8
