S027000052544F535F4C6162325F4750494F5F54696D6572735F496E74657272757074732E733337E5
S113000000000420C1010000ED010000ED0100002A
S1130010ED010000ED010000ED010000ED01000024
S1130020ED010000ED010000ED010000ED01000014
S1130030ED010000ED010000ED010000AD2C000019
S1130040ED010000ED010000ED010000ED010000F4
S1130050ED010000ED010000ED010000ED010000E4
S1130060ED010000ED010000AF280000B5250000FF
S1130070ED010000ED010000ED010000ED010000C4
S1130080ED010000ED010000BB280000ED010000BF
S1130090ED010000ED010000ED010000ED010000A4
S11300A0ED010000ED010000ED010000ED01000094
S11300B0ED010000ED010000ED010000ED01000084
S11300C0ED010000ED010000ED010000ED01000074
S11300D0ED010000ED010000ED010000ED01000064
S11300E0ED010000ED010000ED010000ED01000054
S11300F0ED010000ED010000ED010000ED01000044
S1130100ED010000ED010000ED01000010B5054C0B
S1130110237833B9044B13B10448AFF300800123AF
S1130120237010BD7C00002000000000602F000040
S113013008B5034B1BB103490348AFF3008008BD66
S11301400000000080000020602F0000154B002BF1
S113015008BF134B9D46A3F5803A00218B460F46FA
S11301601348144A121A02F0AFFE0F4B002B00D0B2
S113017098470E4B002B00D0984700200021040024
S11301800D000D48002802D00C48AFF3008002F0A7
S113019077FE2000290002F015FE02F05DFE00BF8C
S11301A0000008000000042000000000000000001F
S11301B07C000020CC0000200000000000000000B3
S11301C0064880470649074A074B9A42BEBF51F882
S11301D0040B42F8040BF8E7FFF7B8FFCD02000068
S11301E06C2F0000000000207C000020FEE700BF10
S11301F080B582B000AF00F025F878600A4BD3F8E0
S113020008311B0AC3F308033B603B6801337A6877
S1130210B2FBF3F37B60054A7B6813607B68184686
S11302200837BD4680BD00BF00400E4008000020D6
S113023080B400AF024B1846BD465DF8047B70479E
S1130240005A620280B483B000AF164BD3F89430E6
S113025003F00703032B08D0042B02D0022B08D091
S11302600BE0114B1B687B600BE04FF400437B6099
S113027007E00E4B1B687B6003E00D4B1B687B6043
S113028000BF084BD3F800311B0A03F01F030133EE
S11302907A68B2FBF3F318460C37BD465DF8047B6D
S11302A0704700BF00400E40040000200000002002
S11302B00C00002080B400AF034B1B681846BD46F9
S11302C05DF8047B704700BF0000002080B400AFDD
S11302D0074B084A9A60064BD3F88830044A43F423
S11302E07003C2F8883000BFBD465DF8047B7047D8
S11302F000ED00E00000000080B400AF4FF40043C4
S11303001846BD465DF8047B704780B400AF4FF4D7
S11303107A731846BD465DF8047B704780B400AF1D
S1130320034B1B681846BD465DF8047B704700BF4D
S11303300400002080B487B000AFF860B9607A6030
S1130340FB6803F10473DA00BB6813449B007B6110
S11303507B697A681A6000BF1C37BD465DF8047B70
S1130360704780B485B000AF786039607B6803F172
S1130370C063FB60FB683A681A6000BF1437BD466F
S11303805DF8047B704780B485B000AF7860396055
S11303907B6803F18063FB60FB683A681A6000BF06
S11303A01437BD465DF8047B704780B584B000AF58
S11303B0F860B9607A60B968F868FFF7E4FF7968B3
S11303C0F868FFF7CEFF00BF1037BD4680BD0000C0
S11303D080B582B000AF786039607B68B3F1804F3C
S11303E002D07B68194A934200BF3B681B78DB0745
S11303F01A463B685B681B06134343F400427B6860
S11304001A603B68DB681B043A68127A1A437B68FB
S11304109A623B681B691B043A68527A1A437B68E8
S1130420DA623B689B7A1B0743F0806343F47D43A5
S11304307A68536078683B681B7D1A460021FFF791
S113044079FF00BF0837BD4680BD00BF00040040EF
S113045080B582B000AF78600B46FB707B68B3F167
S1130460804F02D07B68074A934200BF7B68043305
S1130470FA78FF211846FFF798FF00BF0837BD46FA
S113048080BD00BF0004004080B483B000AF78603A
S11304907B68B3F1804F02D07B68074A934200BF68
S11304A07B681B6823F001027B681A6000BF0C376D
S11304B0BD465DF8047B70470004004080B483B0FF
S11304C000AF78607B68B3F1804F02D07B68074A45
S11304D0934200BF7B681B6843F001027B681A608B
S11304E000BF0C37BD465DF8047B70470004004034
S11304F080B487B000AFF860B9607A60FB6803F13C
S11305000473DA00BB6813449B007B617B697A68DF
S11305101A6000BF1C37BD465DF8047B704780B489
S113052085B000AF786039607B6803F10473DA004A
S11305303B6813449B00FB60FB681B681846143738
S1130540BD465DF8047B704780B483B000AF78602B
S113055001227B6802FA03F318460C37BD465DF8A6
S1130560047B704780B582B000AF78607868FFF78D
S1130570EBFF034618460837BD4680BD80B500AF83
S113058000BF12210348FFF7CAFF0346002BF8D12E
S113059000BF80BD04300E4080B500AFFFF7EEFF12
S11305A0034B5B681B0C03F00303DBB2184680BDEE
S11305B000300E4080B584B000AF78600123FB604A
S11305C07B68124A934204D80023FB600023BB607B
S11305D008E07B680E4A934202D80123BB6001E025
S11305E00223BB60FA6810210A48FFF781FF094B18
S11305F0D3F8003123F08072BB681B06054913430E
S1130600C1F8003100BF1037BD4680BD0048E80185
S11306100090D00300400E4080B483B000AF054B7F
S11306201B687B607B6818460C37BD465DF8047B0D
S1130630704700BF1000002080B582B000AFFFF704
S113064001FE7860064BD3F800311B0A03F01F0348
S113065001337A6802FB03F318460837BD4680BDB0
S113066000400E4080B582B000AF0D4800F032FB70
S11306700346FB70FB78072B05D0092B07D1FFF746
S1130680E1FD786006E0FFF7C7FF786002E0002331
S11306907B6000BF7B6818460837BD4680BD00BF3D
S11306A006000E0080B584B000AF78607B68002B34
S11306B01CD11B4800F00EFB0346FB7200BFFB7A03
S11306C0013B072B23D801A252F823F0F1060000C6
S11306D00F0700000F070000FF0600000F070000CF
S11306E00F070000F706000007070000002312E0D0
S11306F00023FB600EE0FFF78FFFF8600AE0FFF7CE
S1130700D9FDF86006E0FFF797FFF86002E00023E8
S1130710FB6000BFFB6818461037BD4680BD00BFB4
S1130720B800320080B485B000AF786039601E4BE9
S11307305B6803F04073FB600023BB6012E01B4A5C
S1130740BB68DB0013441A793B68DBB29A4206D1DA
S1130750164ABB6852F833307A689A4206D9BB68A5
S11307600133BB60BB68042BE9D900E000BFBB6860
S1130770052B02D10323FB6005E00C4ABB68DB00B8
S113078013445B79FB60FB681B06FB60064B5B68EC
S113079023F040720449FB6813434B6000BF1437D5
S11307A0BD465DF8047B704700000E40F42E000047
S11307B080B582B000AF0E4B1B6C002B14BF01231D
S11307C00023FB710A4B41F671321A64FFF730FDC6
S11307D0034600211846FFF7A5FFFB79002B02D042
S11307E0034B00221A6400BF0837BD4680BD00BF1A
S11307F000000E4080B584B000AF786039600C4BC7
S11308001B6C002B14BF01230023FB73084B41F620
S113081071321A6439687868FFF784FFFB7B002B18
S113082002D0034B00221A6400BF1037BD4680BDBE
S113083000000E4080B487B000AF78600F237B6166
S11308407B6803333B617B69FB60FA683B699342D5
S113085028BF1346BB60BB681B07BB60BB68184658
S11308601C37BD465DF8047B7047000080B400AFC0
S1130870044B5B6A1B0903F003031846BD465DF88D
S1130880047B704700400E4080B483B000AF7860B2
S1130890074B5B6A23F030027B681B010449134356
S11308A04B6200BF0C37BD465DF8047B704700BF48
S11308B000400E4090B585B000AF78600023BB6067
S11308C07B68354A934206D0344A934203D0344A73
S11308D0934200D000E000BF786800F0FBF90346C3
S11308E0FB607B682C4A93420DD02C4A934211D072
S11308F02B4A934200D014E02A4BD3F8803003F003
S11309000703FB600DE0274BD3F8843003F00703A3
S1130910FB6006E0234BD3F8883003F00703FB6049
S113092000BFFB68042B2ED801A252F823F000BFAD
S113093081090000450900004D0900005D0900001F
S113094055090000FFF7D8FCB8601FE0FFF7E6FC8C
S1130950B8601BE0FFF7D9FCB86017E0FFF748FC6C
S11309600446104BD3F800311B0E03F0010301338E
S11309701846FFF7F7FD0346B4FBF3F3BB6005E04D
S11309800023BB6002E00023BB6000BFBB681846C5
S11309901437BD4690BD00BF0300200005002400AD
S11309A002001E0000400E4080B483B000AF7860A7
S11309B00A4BD3F8443103F00103002B08D100BFE4
S11309C0064BD3F840217B681340002BF8D100E09C
S11309D000BF0C37BD465DF8047B704700400E40F5
S11309E080B400AF00BFBD465DF8047B704780B49F
S11309F000AF00BFBD465DF8047B704780B586B08C
S1130A0000AF78600B46FB7000233B617B681B0AD8
S1130A1003F00F03013B092B44D801A252F823F041
S1130A20490A0000550A0000A50A0000A50A0000B2
S1130A304F0A00005B0A0000650A0000A50A0000D6
S1130A406F0A00007B0A0000184B7B6118E0184B0A
S1130A507B6115E0174B7B6112E0174B7B6101232F
S1130A603B610DE0154B7B6110233B6108E0144BA7
S1130A707B614FF480333B6102E0124B7B6100BF2A
S1130A807B681B0B03F01F03FB603B69002B02D048
S1130A903869FFF789FFFB781A46F9687869FFF728
S1130AA027FD00E000BF1837BD4680BD00400E4062
S1130AB0B0400E40C0400E40E0400E40E8400E40C2
S1130AC0F0400E4050410E4080B584B000AF7860D5
S1130AD07B6803F47813B3F5A01F7DD0B3F5A01F92
S1130AE01AD8B3F5202F50D0B3F5202F08D8B3F57A
S1130AF0003F4ED0B3F5802F38D0002B32D0D8E051
S1130B00B3F5602F00F0C880B3F5801F00F0C880F3
S1130B10B3F5402F4CD0CCE0B3F5001F00F08B8030
S1130B20B3F5001F0AD8B3F5D01F00F08980B3F5E0
S1130B30F01F4CD0B3F5B01F5CD0BAE0B3F5381F4A
S1130B406AD0B3F5381F04D8B3F5101F00F09F80A6
S1130B50AFE0B3F5401F00F08680B3F5481F00F006
S1130B60A380A6E0FFF76EFBF860A5E0FFF76AFB41
S1130B70F860544BD3F80C311B0AC3F30803013358
S1130B80FA68B2FBF3F3FB6096E0FFF75BFBF860F7
S1130B9092E0FFF757FBF8604A4BD3F808311B0A81
S1130BA0C3F308030133FA68B2FBF3F3FB6083E099
S1130BB0FFF748FBF860434BD3F814311B0A03F0EA
S1130BC01F030133FA68B2FBF3F3FB6074E03E48A1
S1130BD0FFF770FEF8606FE03C48FFF76BFEF860CB
S1130BE0384BD3F8303103F00303FA6822FA03F3E5
S1130BF0FB6061E03448FFF75DFEF860314BD3F8E9
S1130C00203103F00F031846FFF7ACFC0246FB68E3
S1130C10B3FBF2F3FB604FE02B48FFF74BFEF860A9
S1130C20284BD3F820311B0903F00303FA6822FA96
S1130C3003F3FB6040E02648FFF73CFEF8603BE02E
S1130C402348FFF737FEF8601E4BD3F828311B0901
S1130C5003F003031846FFF785FC0246FB68B3FB69
S1130C60F2F3FB6028E01A48FFF724FEF860154B06
S1130C70D3F828311B0A03F0030304331846FFF7A3
S1130C8071FC0246FB68B3FBF2F3FB6014E00F480F
S1130C90FFF710FEF8600FE0FFF7E4FCF8600BE0EC
S1130CA0FFF7BAFCF86007E00020FFF7FBFCF860F0
S1130CB002E00023FB6000BFFB6818461037BD4606
S1130CC080BD00BF00400E4002001E00050024004D
S1130CD00300200080B485B000AF78600123FB736B
S1130CE07B6803F00F03BB60BB68013B072B00F27A
S1130CF0C48001A252F823F0190D00006F0D00000A
S1130D009F0D00007B0E0000E50D0000150E000095
S1130D107B0E0000390E00005D4BD3F8943003F0D5
S1130D200703023B052B1ED801A252F823F000BF93
S1130D30550D00004F0D0000490D00005B0D000033
S1130D40670D0000610D00000223FB730EE0032316
S1130D50FB730BE00423FB7308E00B23FB7305E038
S1130D600C23FB7302E00523FB7300BF88E0484BB0
S1130D70D3F8803003F00703022B06D0042B07D0EE
S1130D80012B08D10323FB7308E00223FB7305E066
S1130D900A23FB7302E00123FB7300BF70E03C4BAA
S1130DA0D3F8843003F00703013B032B16D801A2C8
S1130DB052F823F0C50D0000CB0D0000D70D000044
S1130DC0D10D00000323FB730BE00223FB7308E047
S1130DD00A23FB7305E00623FB7302E00123FB7384
S1130DE000BF4DE02A4BD3F8883003F00703022BF1
S1130DF006D0042B07D0012B08D10323FB7308E092
S1130E000223FB7305E00A23FB7302E00123FB7357
S1130E1000BF35E01E4B1B6F03F00103002B04D011
S1130E20012B05D10923FB7305E00723FB7302E0C3
S1130E300123FB7300BF23E0154BD3F85C3103F0AF
S1130E403003102B0CD0102B02D8002B05D010E04F
S1130E50202B08D0302B09D00BE00123FB730BE0CF
S1130E600723FB7308E00423FB7305E00823FB73EB
S1130E7002E00123FB7300BF02E00023FB7300BF09
S1130E80FB7B18461437BD465DF8047B704700BFF2
S1130E9000400E4080B58AB000AF78600B46FB700E
S1130EA003237B62032387F823300023BB610023E1
S1130EB07B617B68112B19D1FB78042B03D1FFF7DD
S1130EC0F9F978610BE0FB78052B08D100F05AF9A9
S1130ED00246A44B9A4202D900F054F978617B6926
S1130EE0002B03D00021786900F040FC7B6803F0FC
S1130EF00F033B613B69013B072B00F2298101A2EF
S1130F0052F823F0250F0000191000002B100000E8
S1130F10511100001D100000C1100000511100000B
S1130F20DF100000FB78023B0A2B00F2138101A2C0
S1130F3052F823F0610F00006D0F0000790F0000DC
S1130F408B0F0000551100005511000055110000D1
S1130F5055110000551100009D0F0000A90F00005D
S1130F6004237B62002387F8233023E003237B627E
S1130F70012387F823301DE002237B62022387F8D4
S1130F8023307948FFF716FB14E001237B62032327
S1130F9087F823307448FFF70DFB0BE005237B62D1
S1130FA0032387F8233005E007237B62062387F8B1
S1130FB0233000BF97F82330062B06D097F8233050
S1130FC001220121184600F05BF9FFF7F1FBFFF75E
S1130FD007FD7B69002B01D0FFF7D0FA634A7B6AD7
S1130FE053676348FFF770FD03461846FFF7E2FABC
S1130FF0FFF7FEF8F860FFF7CFFA03461946F868E2
S1131000FFF7F8FB7B69002B03D10121002000F0DE
S1131010ADFBFFF7ECFCA2E0564BBB61BB69002BB8
S113102001D0BB6900E0544BBB61BB69002B01D00C
S1131030BB6900E0514BBB61FB78013B092B00F21B
S11310408B8001A252F823F0711000007710000089
S1131050871000005911000059110000971000007A
S1131060591100005911000059110000B31000007B
S11310700023FB6120E001220121002000F000F99F
S11310800223FB6118E001220121012000F0F8F89D
S11310900123FB6110E0FFF7ABF803461846FFF7A6
S11310A089FA012202213648FFF722FA0323FB6161
S11310B002E00423FB6100BFBB69FA691A604EE0D9
S11310C0FB78072B02D0092B04D048E0274B0022E1
S11310D01A6703E0254B01221A6700BF3FE0FB7843
S11310E0013B072B3AD801A252F823F00D1100005E
S11310F05D1100005D110000231100005D1100006E
S11311005D11000013110000331100000023FB6186
S113111012E001220121042000F0B2F80123FB6156
S11311200AE001220121022000F0AAF80223FB6157
S113113002E00323FB6100BF0C4BD3F85C3123F0C6
S11311403002FB691B0109491343C1F85C3106E015
S113115000BF04E000BF02E000BF00E000BF28378A
S1131160BD4680BD002D31010148E80100400E401C
S113117000250A0080400E4088400E4084400E4006
S1131180B0400E4080B400AF034B1B681846BD4608
S11311905DF8047B704700BF0C00002090B585B05B
S11311A000AF78601120FFF795FD01220021022095
S11311B000F066F87B685B7883F00103DBB2002BF8
S11311C00DD07B689B7883F00103DBB2002B06D043
S11311D07B68DB7883F00103DBB2002B00BF0023C4
S11311E0FB607B681B7C022B01D10123FB60224B3B
S11311F05B6A23F001022049FB6813434B627B685E
S11312001B781A4608211D48FFF772F97B689B88F2
S1131210DB027A68527A1146174A0B43D362164BA3
S11312201B6B03F07F627B68DB88DB0213437A6805
S1131230927A1A437B681B7ADB0142EA03047B68D7
S11312401B7A1846FFF7F6FA03460B4A2343136347
S11312507B685B7B1A037B689B7B1B0113437A6867
S1131260D27B1A437B681B7B1B04034913434B63E8
S113127000BF1437BD4690BD00400E4024400E40D0
S113128080B588B000AF0346FB710B46BB711346B3
S11312907B71FB79042B00F2B88001A252F823F091
S11312A0FD120000EB120000C7120000B51200008E
S11312B0D912000001237B6102233B610123FB61FE
S11312C00023BB6125E004237B6108233B610323E6
S11312D0FB610223BB611CE010237B6120233B6183
S11312E00523FB610423BB6113E040237B6180235E
S11312F03B610723FB610623BB610AE04FF4807363
S11313007B614FF400733B610923FB610823BB61DC
S113131000BFBB79002B5BD00023FB73FB79022B4E
S113132011D1FFF7A3FA0346002B0CD1394BDB6B29
S11313300123FB73384B5B6A03F00103012B02D1D9
S11313400120FFF7A1FA344A7B69136600BFB9692B
S11313503248FFF7E4F80346002BF8D07B79002BE2
S113136054D000BFF9692D48FFF7D9F80346002B84
S1131370F8D0FB79022B49D1FB7B002B46D0264BBE
S11313805B6A03F00103012B05D101222021022015
S113139000F04AF903E00021022000F0FBF80220EB
S11313A000F03EF8B860012200210220FFF768FF38
S11313B0B968022000F06EF8174A7B69136600BF13
S11313C0F9691648FFF7ABF80346002BF8D01DE087
S11313D0114A3B69136600BF0F4BD3F890300121CB
S11313E0BA6901FA02F21340002BF5D17B79002B84
S11313F00CD000BF084BD3F890300121FA6901FAF0
S113140002F21340002BF5D100E000BF2037BD46A7
S113141080BD00BF00300E4000400E4090400E40A2
S113142080B485B000AF0346FB71FB79013B032B0D
S113143023D801A252F823F0491400006D140000CF
S11314405514000061140000114B1B6AC3F3080318
S1131450FB6015E00E4B1B6903F07F03FB600FE09C
S11314600B4B9B6903F07F03FB6009E0084BD3F847
S11314709C30C3F30A03FB6002E00023FB6000BF5F
S1131480FB6818461437BD465DF8047B704700BFFF
S113149000400E4080B584B000AF03463960FB7154
S11314A0FB79013B032B6AD801A252F823F000BF59
S11314B0C114000043150000EF14000019150000CA
S11314C03B68C3F308033B6000BF1A212E48FFF7B3
S11314D026F80346002BF8D12C4B1B6A23F4FF7328
S11314E023F0010329493A6813430B6248E03B683F
S11314F003F07F033B6000BF18212348FFF70FF878
S11315000346002BF8D1214B1B6923F07F021F49AE
S11315103B6813430B6133E03B6803F07F033B609C
S113152000BF19211848FEF7FAFF0346002BF8D133
S1131530164B9B6923F07F0214493B6813438B616C
S11315401EE0124BD3F89030104B5B6A23F030034B
S11315500E4A43F0100353623B68DB0903F00F03A8
S11315601846FFF767F9F860084B1A6B084B1340ED
S11315703A681A430549FB6813430B6300E000BF54
S113158000BF1037BD4680BD40410E4000400E40B4
S113159000F8FF0F80B584B000AF03460A46FB7124
S11315A01346BB71FFF762F90346002B03D14FF4D6
S11315B04003FB6016E0BB79202B04D0302B0AD00B
S11315C0002B04D00BE04FF40003FB600AE04FF45F
S11315D04003FB6006E04FF44003FB6002E0104B65
S11315E0FB6000BF00BF0F4BD3F89020FB68134093
S11315F0FA689A42F7D1FB6803F48003002B0AD0FF
S1131600084BD3F8A03003F48063002B14BF0123EC
S11316100023DBB200E0012318461037BD4680BD2D
S1131620FF33E10700400E4080B582B000AF0346AF
S1131630FB710B46BB7113467B71FB79022B00D007
S113164016E0BB79002B07D00C4B4FF48062C3F833
S1131650A8200A4ABB7953667B79002B07D0BA7954
S1131660FB7911461846FFF795FF034601E000BFDA
S1131670012318460837BD4680BD00BF00400E4018
S113168080B487B000AFF860B9607A60FB6803F19A
S11316900473DA00BB6813449B007B617B697A683E
S11316A01A6000BF1C37BD465DF8047B704780B4E8
S11316B085B000AF786039607B6803F10473DA00A9
S11316C03B6813449B00FB60FB681B681846143797
S11316D0BD465DF8047B704780B500AF00BF1221A2
S11316E00348FFF7E4FF0346002BF8D100BF80BD99
S11316F004300E4080B500AFFFF7EEFF034B5B688C
S11317001B0C03F00303DBB2184680BD00300E400F
S113171080B483B000AF7860044A7B68D36200BFB2
S11317200C37BD465DF8047B704700BF00300E40A7
S113173080B400AF034B5B6A1846BD465DF8047B7A
S1131740704700BF00300E4080B483B000AF034642
S1131750FB71FB79C3F10203102202FA03F318466A
S11317600C37BD465DF8047B7047000080B584B03B
S113177000AF78600B46FB70154BD3F800311B0AA1
S113178003F01F030133BB607B68002B07D1FEF716
S113179059FD0246BB6802FB03F3FB6001E07B6872
S11317A0FB600C4B1B78002B09D0FB680A4A934260
S11317B005D8FB781946022000F010F804E0FB7805
S11317C01946002000F00AF800BF1037BD4680BD5E
S11317D000400E40A0000020FF2C310190B587B0DE
S11317E000AF03460A46FB711346BB711B4BD3F88B
S11317F000311B0A03F01F0301337B61FEF722FD56
S11318003861FFF777FF0346FB73FA7BFB799A4253
S11318101FD03B697A6902FB03F3BB60FB79022B9F
S113182003D102213869FEF7E5FF0D4CFB79184618
S1131830FFF78AFF03462361BB79002B01D0FFF732
S11318404BFFFB79002B05D100213869FEF7D2FF4D
S113185000E000BF1C37BD4690BD00BF00400E40F5
S113186000300E4080B400AF01231846BD465DF839
S1131870047B704780B582B000AF0C4BDB6E0B4A23
S113188043F08073D36600210948FFF710FF7860A6
S11318907B68002B03D0042000F0A2FC02E00020AF
S11318A000F09EFC00BF0837BD4680BD00300E40EE
S11318B04C300E4080B48BB000AF01237B627B6A56
S11318C01B053B62324BDB6C1B0A03F00F03FB610D
S11318D0304B1B881A462F4B1B8828335B08134454
S11318E003F12801FB695A1C13469B001344B1FB06
S11318F0F3F3013BBB61BB697B6107233B613A693D
S11319007B69934228BF1346BB61BB691B06BB615D
S11319101F4BDB6C23F0EE62B9693B6A0B431C4935
S11319201343CB641C4BB3F90030002B29DB1A4B57
S1131930B3F90030FB81FA89FB8928335B0813442F
S113194003F12802FB6901335900FB6901335B0889
S11319500B44B2FBF3F3BB60BB687B6007233B60C3
S11319603A687B68934228BF1346BB60BB681B017F
S1131970BB60074B1B6D23F070020549BB68134322
S11319800B6500BF2C37BD465DF8047B704700BF74
S113199000300E40980000209C00002080B483B0EA
S11319A000AF78600B467B807B689AB2054B1A8047
S11319B0054A7B88138000BF0C37BD465DF8047B65
S11319C0704700BF980000209C00002080B483B0C2
S11319D000AF0346FB71FB79002B02D0012B04D02E
S11319E007E0074B074A9A6503E0054B064A9A65E8
S11319F000BF00BF0C37BD465DF8047B704700BFD5
S1131A0000300E4077402057372110B780B485B09E
S1131A1000AF0346FB710B46BB7113467B712D4B24
S1131A20D3F88031FB60BB79032B1DD801A252F897
S1131A3023F000BF451A00004D1A0000571A000099
S1131A40611A0000FB68DBB2FB600FE0FB681B0A55
S1131A50DBB2FB600AE0FB681B0CDBB2FB6005E059
S1131A60FB681B0EFB6001E000232CE07B79002B5C
S1131A7011D1FB681B03FB60FB6823F47043002B4C
S1131A8001D000231FE0144BDB6E23F47042124993
S1131A90FB681343CB667B79012B13D1FB681B03D3
S1131AA0FB60FB6823F47043002B01D000230AE0A1
S1131AB0094BD3F8EC3023F470420749FB68134315
S1131AC0C1F8EC30012318461437BD465DF8047B99
S1131AD0704700BFB081E00F00300E4080B489B081
S1131AE000AFF860B96011461A460B46FB71134605
S1131AF0BB710023FB610023BB61BB791B02FA7934
S1131B00002A01D0012200E0002213437B617B699B
S1131B1040F2011293422AD0B3F5817F07D2012B00
S1131B2019D0012B47D3B3F5807F50D073E040F236
S1131B300122934227D040F20122934203D8B3F505
S1131B40007F50D067E0B3F5407F58D040F20132B7
S1131B50934224D05FE0364BD3F87431FB61FB69C8
S1131B601B0ADBB2BB61FB69DBB2FB6153E0304BA8
S1131B70D3F87431FB61FB691B0EBB61FB691B0C61
S1131B80DBB2FB6147E02A4BD3F87831FB61FB6998
S1131B901B0ADBB2BB61FB69DBB2FB613BE0244B9C
S1131BA0D3F87831FB61FB691B0EBB61FB691B0C2D
S1131BB0DBB2FB612FE01E4BD3F86C31FB61FB6998
S1131BC01B0ADBB2BB61FB69DBB2FB6123E0184B90
S1131BD0D3F86C31FB61FB691B0EBB61FB691B0C09
S1131BE0DBB2FB6117E0124BD3F87031FB61FB6988
S1131BF01B0ADBB2BB61FB69DBB2FB610BE00C4B84
S1131C00D3F87031FB61FB691B0EBB61FB691B0CD4
S1131C10DBB2FB6100BFFB68FA691A60BB68BA6992
S1131C201A6000BF2437BD465DF8047B704700BFCF
S1131C30B081E00F80B584B000AF0346FB7100BFF4
S1131C40364B9B6F03F00103002BF9D1334B1B6C14
S1131C5003F00303FB60FB68002B04D001220D2179
S1131C602F48FFF70DFDFB68DBB2FA799A4208D1E1
S1131C70FB79002B4ED100220D212948FFF700FDEE
S1131C8048E0FB68032B02D0FB68002B20D1FB79D2
S1131C90022B02D0FB79012B1AD14FF40020FFF75D
S1131CA037FD00BF1D4B9B6F03F00103002BF9D1DF
S1131CB01A4B1B6C23F00303184A43F0010313640B
S1131CC000BFFFF735FD034603F40023002BF8D0D3
S1131CD000BF124B9B6F03F00103002BF9D10F4B94
S1131CE01B6C23F00302FB790C4913430B6400BF04
S1131CF00A4B9B6F03F00103002BF9D1FB79002BF6
S1131D0014BF01230023DBB21A460D210448FFF758
S1131D10B7FC00E000BF1037BD4680BD00300E4068
S1131D2054300E4080B584B000AF7860484B022236
S1131D309A63474B9B6B03F00F03022B01D00023E4
S1131D4081E0FFF78FFD7B685B78012B02D07B6815
S1131D505B78022B7B68DB884A2B02D80023FB606C
S1131D6015E07B68DB88B3F5FA7F03D24FF080532C
S1131D70FB600CE07B68DB8840F6C312934203D817
S1131D804FF00053FB6002E04FF04053FB60304BD8
S1131D90DB6C23F0405323F001037A68B2F90C2082
S1131DA0002A01DB012100E00021FA680A432849E6
S1131DB01343CB64264BD3F8EC30254A43F44073E9
S1131DC0C2F8EC30FFF756FD7B681B891A467B6826
S1131DD0B3F90C3019461046FFF7E0FD7B689A888A
S1131DE01C4B1A807B689B88184600F08DF97B6831
S1131DF09B7B1846FFF7EAFD7B685B880122012183
S1131E00184600F02BF8034683F00103DBB2002BE5
S1131E1001D0002317E00E4BDB6B0D4A43F48063C3
S1131E20D3637B685B781846FFF704FF7B689B7A73
S1131E30202B01D1012300E000231A460521064886
S1131E40FFF71EFC012318461037BD4680BD00BFB6
S1131E5000300E409A0000203C300E4090B595B002
S1131E6000AF78600B46FB701346BB700023FB6425
S1131E7000237B6407F1240300221A605A609A60ED
S1131E8007F1180300221A605A609A6007F10C03E4
S1131E9000221A605A609A6007F1080300210A467A
S1131EA01A800A469A707B68B3F5E16F06D37B68A3
S1131EB040F6B832934201D8012300E0002387F8AA
S1131EC0433097F8433003F0010387F8433097F821
S1131ED0433083F00103DBB2002B01D000230AE17D
S1131EE07B68B3F5E16F8CBF0123002387F8423090
S1131EF097F84230002B0AD04FF4E163FB6440F6BC
S1131F00B8337B647A6CFB6CD31ABB6409E04FF47E
S1131F109663FB644FF4E1637B647A6CFB6CD31AC5
S1131F20BB6497F84230002B0BD0754BD3F8683163
S1131F303B623B6A1B0E7B613B6A1B0CDBB23B6260
S1131F400AE06F4BD3F868313B623B6A1B0ADBB291
S1131F507B613B6ADBB23B626A4BDB6C1B0FDBB21F
S1131F6003F00303DBB23B723B7A97F8422007F19C
S1131F700C0107F11800FFF7B1FD624BD3F8EC3008
S1131F801B0ADBB203F00303DBB27B727C7A97F8A3
S1131F90422007F10C03191D07F11803181D2346ED
S1131FA0FFF79CFD7A68FB6CD31A79693A6A8A1A3E
S1131FB002FB03F2BB6CB2FBF3F3FB62FA6A3B6A0B
S1131FC01344FB627A68FB6CD31AF968BA698A1AFB
S1131FD002FB03F2BB6CB2FBF3F37B627A6ABB696C
S1131FE013447B627A68FB6CD31A3969FA698A1ADA
S1131FF002FB03F2BB6CB2FBF3F3BB62BA6AFB698C
S11320001344BB62FA6A7B699A4213D8FA6A3B6A40
S11320109A420FD3BA6A3B699A420BD8BA6AFB69EF
S11320209A4207D37A6AFB689A4203D87A6ABB69F0
S11320309A4201D200235EE0BB78002B12D0314BD0
S1132040DB6D23F4FE4323F00203FA6A1202134306
S113205097F84220002A01D0022200E000222949F8
S11320601343CB65FB78002B44D0397A97F8423080
S113207000221846FFF7CAFC034683F00103DBB2D3
S1132080002B01D0002336E0797A97F84230012200
S11320901846FFF7BBFC034683F00103DBB2002BB9
S11320A001D0002327E07B6AFB63BB6ABB63BA6B86
S11320B0FB6B934238BF13467B627B6A7B63E723E7
S11320C03B633A6B7B6B934228BF13467B620D4B99
S11320D05B6E23F4FF7323F001037A6A5200134307
S11320E097F84220002A01D0012200E0002205498D
S11320F013434B66012318465437BD4690BD00BFB9
S1132100B081E00F00300E4080B584B000AF78603D
S11321100023FB60314B1B6F03F00703BB602F4BA5
S1132120DB6C03F00103002B14D0BB68012B11D925
S11321307B68132B02D80423FB6037E07B68132BE6
S113214005D97B68272B02D80823FB602EE01023D7
S1132150FB602BE0214BDB6C03F00103002B14D15B
S1132160BB68012B11D87B68092B02D80423FB60C0
S11321701CE07B68092B05D97B68132B02D8082344
S1132180FB6013E01023FB6010E0144BDB6C03F0E6
S11321900103002B0AD0BB68012B07D87B68272BCF
S11321A002D80823FB6001E01023FB60FB68013BBD
S11321B0FB60FB681A02FB681B031343FB60074BBD
S11321C0DB6C23F47F420549FB681343CB64FFF7C0
S11321D071FB00BF1037BD4680BD00BF00300E400C
S11321E080B584B000AF0346FB7100210E48FFF7B1
S11321F05EFAF860FB68002B02D1FB79012B01D950
S1132200FB68002B00BF094B1B6F23F00702FB790F
S1132210064913430B67064B1B881846FFF774FFE8
S113222000BF1037BD4680BD4C300E4000300E401C
S11322309A00002080B485B000AF786039607B6874
S113224003F1C063FB60FB683A681A6000BF14378F
S1132250BD465DF8047B704780B485B000AF7860FC
S113226039607B6803F18063FB60FB683A681A603D
S113227000BF1437BD465DF8047B704780B584B059
S113228000AFF860B9607A60B968F868FFF7E4FFF6
S11322907968F868FFF7CEFF00BF1037BD4680BDF0
S11322A080B582B000AF03463960FB71FB79002B27
S11322B01CD0FB79012B19D0FB79022B16D0FB79AA
S11322C0032B13D0FB79042B10D0FB79052B0DD0F5
S11322D0FB79062B0AD0FB79072B07D0FB79082B57
S11322E004D0FB79092B01D0FB790A2BFA79134628
S11322F05B0013441B010C3303F1804303F52043BB
S113230001213A6801FA02F211461846FFF7A4FFC8
S113231000BF0837BD4680BD80B582B000AF03461C
S11323203960FB71FB79002B1CD0FB79012B19D090
S1132330FB79022B16D0FB79032B13D0FB79042BEA
S113234010D0FB79052B0DD0FB79062B0AD0FB7935
S1132350072B07D0FB79082B04D0FB79092B01D07C
S1132360FB790A2BFA7913465B0013441B010C33E7
S113237003F1804303F5204301213A6801FA02F294
S113238011461846FFF756FF00BF0837BD4680BD0B
S113239080B582B000AF03463960FB71FB79002B36
S11323A01DD0FB79012B1AD0FB79022B17D0FB79B6
S11323B0032B14D0FB79042B16D0FB79052B0ED0FC
S11323C0FB79062B10D0FB79072B0DD0FB79082B5A
S11323D005D0FB79092B02D0FB790A2B04D13B6889
S11323E023F00113002B00BFFA7913465B0013445A
S11323F01B0103F1804303F520433A684FF00111B8
S11324001846FFF73BFF00BF0837BD4680BD0000FC
S113241080B584B000AFB9607B600346FB7313469C
S1132420BB73FB7B002B1CD0FB7B012B19D0FB7BEC
S1132430022B16D0FB7B032B13D0FB7B042B10D079
S1132440FB7B052B0DD0FB7B062B0AD0FB7B072BDC
S113245007D0FB7B082B04D0FB7B092B01D0FB7B33
S11324600A2BBB7B002B0DD07B68002B05D0FB7B9C
S1132470B9681846FFF750FF04E0FB7BB9681846BB
S1132480FFF70EFFBB68072B20D82E49FA7B1346B3
S11324905B0013441B010B4404331A68BB689B00A4
S11324A00F2101FA03F3DB431340B97BBA689200AE
S11324B001FA02F211462348FA7B194313465B00E2
S11324C013441B0103440433196025E01D49FA7BBE
S11324D013465B0013441B010B4408331A68BB68A2
S11324E003F18043083B9B000F2101FA03F3DB4314
S11324F002EA0301BA7BBB6803F18043083B9B00FB
S113250002FA03F30F48FA7B194313465B001344A2
S11325101B01034408331960BB7B002B0DD17B687E
S1132520002B05D0FB7BB9681846FFF7F5FE04E0E5
S1132530FB7BB9681846FFF7B3FE00BF1037BD46F2
S113254080BD00BF00A0004080B500AF00F050F98E
S113255000F074F900BF80BD80B483B000AF0346BF
S1132560FB7197F90730002B0BDBFB7903F01F029B
S1132570074997F907305B09012000FA02F241F894
S1132580232000BF0C37BD465DF8047B704700BFB5
S113259000E100E080B400AF054B1B69044A23F05E
S11325A00403136130BF00BFBD465DF8047B704770
S11325B000ED00E080B483B000AF174B02225A60F4
S11325C0164B02225A60144B01225A61134B5B6A68
S11325D07B60134B1B78DBB21946124A7B6842F8C6
S11325E021300F4B1B78DBB21A460F4B53F82230C5
S11325F07A689A4207D90A4B1B78DBB219460A4A11
S11326007B6842F82130094B01221A7000BF0C3755
S1132610BD465DF8047B70470080014000840140A2
S1132620A1000020A4000020B4000020A20000208B
S113263080B485B000AF0346FB71FB790D4A52F8B4
S11326402330FB60FB790B4A52F823309B08FA686D
S1132650D31AFB60FB79084A52F82330FA689A428D
S113266001D9012300E0002318461437BD465DF864
S1132670047B7047B4000020A400002080B582B021
S113268000AF0346FB71FB7919464FF08040FDF71C
S1132690DFFE0F4B00225A620E4B00225A620E4B91
S11326A000221A700A4B01225A600A4B01225A6016
S11326B001E0FFF76FFF084B1B78DBB283F00103E7
S11326C0DBB2002BF5D100BF0837BD4680BD00BF8B
S11326D00080014000840140A200002080B500AFCA
S11326E04FF08040FDF7EAFE0F4B00221A700FE016
S11326F00D4B1B78DBB21A460C4B9B5C1846FFF75C
S1132700BDFF094B1B78DBB20133DAB2064B1A70FA
S1132710054B1B78DBB2032BEAD94FF08040FDF761
S1132720B3FE00BF80BD00BFA10000201C2F00002D
S1132730B0B586B000AF224B3C461D460FCD0FC44A
S113274095E8030084E8030001211E48FEF756F9CA
S113275001211D48FEF752F901211C48FEF74EF9EC
S113276001211B48FEF74AF901211A48FEF746F9F0
S1132770194B4FF010621A60174B0A22DA61164B9C
S113278001229A61144B00225A62144B144A1A60B3
S1132790124B4FF6FF72DA61104B124A1A67124B52
S11327A0124A1A653B4619464FF08040FDF710FE69
S11327B00B20FFF7D1FE00BF1837BD46B0BD00BFE8
S11327C0202F000040410500000204000012040014
S11327D000A2040000450A0000800140008401407A
S11327E00000010A0100002A00600E4000031000EE
S11327F080B500AF01210248FEF700F900BF80BD9B
S113280000350A0080B483B000AF7860044A7B6866
S1132810C2F8243400BF0C37BD465DF8047B704712
S113282000A0004080B400AF034BD3F81C3418461A
S1132830BD465DF8047B704700A0004080B500AF42
S11328404FF001110520FFF7A3FD0023042204210A
S11328500520FFF7DDFD4FF001110520FFF798FD7E
S11328600023042205210520FFF7D2FD01230222C3
S113287006210520FFF7CCFD0123022207210520B4
S1132880FFF7C6FD00BF80BD80B582B000AFFFF783
S1132890C9FF78607868FFF7B5FF00F015FA00F01B
S11328A027FA00F08FF900BF0837BD4680BD80B518
S11328B000AFFFF7E9FF00BF80BD80B500AFFFF7B1
S11328C0E3FF00BF80BD000080B483B000AF0346C7
S11328D03960FB7197F90730002B0ADB3B68DAB2E9
S11328E00C4997F907305201D2B20B4483F8002304
S11328F00AE03B68DAB20849FB7903F00F03043BB2
S11329005201D2B20B441A7600BF0C37BD465DF8B3
S1132910047B704700E100E000ED00E080B582B088
S113292000AF78607B68013BB3F1807F01D3012362
S11329300FE00A4A7B68013B536007214FF0FF30E8
S1132940FFF7C2FF054B00229A60044B07221A606E
S1132950002318460837BD4680BD00BF10E000E0E4
S113296080B400AF044BDB6C1B0EDBB21846BD46D3
S11329705DF8047B704700BFB081E00F80B485B080
S113298000AF786039607B6803F10473DA003B6858
S113299013449B00FB60FB681B6818461437BD4654
S11329A05DF8047B704780B485B000AF786039600F
S11329B07B6803F1C063FB60FB683A681A6000BF80
S11329C01437BD465DF8047B704780B485B000AF12
S11329D0786039607B6803F18063FB60FB683A6868
S11329E01A6000BF1437BD465DF8047B704780B59C
S11329F082B000AF03463960FB71FB79002B1CD019
S1132A00FB79012B19D0FB79022B16D0FB79032B10
S1132A1013D0FB79042B10D0FB79052B0DD0FB7957
S1132A20062B0AD0FB79072B07D0FB79082B04D09F
S1132A30FB79092B01D0FB790A2BFA7913465B0049
S1132A4013441B011C3303F1804303F5204339680D
S1132A501846FFF793FF034618460837BD4680BD66
S1132A6080B582B000AF03463960FB71FB79002B5F
S1132A701CD0FB79012B19D0FB79022B16D0FB79E2
S1132A80032B13D0FB79042B10D0FB79052B0DD02D
S1132A90FB79062B0AD0FB79072B07D0FB79082B8F
S1132AA004D0FB79092B01D0FB790A2BFA79134660
S1132AB05B0013441B010C3303F1804303F52043F3
S1132AC001213A6801FA02F211461846FFF77DFF28
S1132AD000BF0837BD4680BD80B582B000AF034655
S1132AE03960FB71FB79002B1CD0FB79012B19D0C9
S1132AF0FB79022B16D0FB79032B13D0FB79042B23
S1132B0010D0FB79052B0DD0FB79062B0AD0FB796D
S1132B10072B07D0FB79082B04D0FB79092B01D0B4
S1132B20FB790A2BFA7913465B0013441B010C331F
S1132B3003F1804303F5204301213A6801FA02F2CC
S1132B4011461846FFF72FFF00BF0837BD4680BD6A
S1132B5080B582B000AF164B01225A64FFF700FF24
S1132B600346FB71FB79002B0CD1124B4AF6E85259
S1132B701A60114B1B68104A43F0040313600D4B99
S1132B8000221A60FB79012B05D80C4B1B680B4AF9
S1132B9043F4005313600A4B1B6A23F44413084A9A
S1132BA043F48813136200BF0837BD4680BD00BFDD
S1132BB000000E4090310E4098310E4064310E40BA
S1132BC000400E4080B500AF284B1B78DBB2002BD1
S1132BD00CD0274B1B78DBB283F00103DBB2002B54
S1132BE004D004210520FFF777FF3DE0204B1B783C
S1132BF0DBB2002B0CD01D4B1B78DBB283F001033E
S1132C00DBB2002B04D005210520FFF765FF2BE084
S1132C10184B1B78DBB2002B0CD0174B1B78DBB2A4
S1132C2083F00103DBB2002B04D005210520FFF75C
S1132C3053FF19E0104B1B78DBB2002B0CD00D4B6B
S1132C401B78DBB283F00103DBB2002B04D0042138
S1132C500520FFF741FF07E004210520FFF700FFEF
S1132C6005210520FFF7FCFE00BF80BDC900002040
S1132C70C8000020CA000020CB00002080B485B02A
S1132C8000AF7860084B1B68FB6000BF064B1A68F6
S1132C90FB68D31A7A689A42F8D800BF1437BD4645
S1132CA05DF8047B704700BFC400002080B400AF0F
S1132CB0044B1B680133034A136000BFBD465DF833
S1132CC0047B7047C400002080B500AF06210520B6
S1132CD0FFF78DFE0346002B03D1044B01221A702B
S1132CE002E0024B00221A7000BF80BDC800002021
S1132CF080B500AF07210520FFF779FE0346002BBE
S1132D0003D1044B01221A7002E0024B00221A7014
S1132D1000BF80BDC900002098B500AF0220FFF7B6
S1132D2087FC03461C460320FFF782FC034623432B
S1132D30DBB2002B16D00020FFF77AFC03461C46BA
S1132D400120FFF775FC03462343DBB283F0010344
S1132D50DBB2002B06D0194B01221A70184B00224B
S1132D601A7029E00120FFF763FC03461C4600208B
S1132D70FFF75EFC03462343DBB2002B16D003208F
S1132D80FFF756FC03461C460220FFF751FC03469E
S1132D902343DBB283F00103DBB2002B06D0084BE4
S1132DA001221A70054B00221A7005E0034B002221
S1132DB01A70034B00221A7000BF98BDCA0000208D
S1132DC0CB000020B0B58AB000AF204B07F1180447
S1132DD00FCB84E80F001E4B3C1D1D460FCD0FC4C6
S1132DE02B682380FFF7B4FE07F118031846FEF79B
S1132DF099FF3B1D1846FEF7D1F904211120FEF777
S1132E0049F8012201210320FEF73AFAFDF7F0F90F
S1132E100246104BA3FB0223DB081846FFF77EFD96
S1132E200346002B00D0FEE7FFF78EFBFFF780FC84
S1132E300120FFF723FFFFF747FFFFF759FFFFF7D5
S1132E404DFCFFF769FFFFF7BDFEF1E7382F0000E7
S1132E50482F0000CDCCCCCC08B5074B044613B1A9
S1132E600021AFF30080054B1868836A03B19847CB
S1132E70204600F031F800BF000000005C2F000085
S1132E8070B50D4E0D4CA41BA4100025A54209D10C
S1132E900B4E0C4C00F022F8A41BA4100025A542F4
S1132EA005D170BD56F8253098470135EEE756F840
S1132EB0253098470135F2E77400002074000020A3
S1132EC0740000207800002002440346934200D19D
S1132ED0704703F8011BF9E7FEE700BFF8B500BF30
S1132EE0F8BC08BC9E467047F8B500BFF8BC08BCE7
S1132EF09E46704740787D0100000000005A62023F
S1132F0000010000C0CF6A0002000000809FD500CD
S1132F1002010000002D3101020200002041224381
S1132F200000000020000000080805003000000038
S1132F3010000000010000000002080705000A005C
S1132F40C8000000FFFF010001000000A0006801AC
S1132F500A200706020A04070000000014000020EB
S1072F600000000069
S10B2F64E8D1FF7F0100000029
S1132F6C005A620200800000C0EA2101C0EA21017B
S1132F7CC0EA210100000000000000000000000075
S1132F8C0000000000000000000000000000000031
S1132F9C0000000000000000000000000000000021
S1132FAC0000000000000000000000000000000011
S1132FBC0000000000000000000000000000000001
S1132FCC00000000000000000000000000000000F1
S10F2FDC00000000310100000D010000A5
S90301C13A
